:020000040040BA
:1000000090294020490A4000470A4000470A400022
:10001000470A4000470A4000470A4000000000002D
:10002000000000000000000000000000470A40003F
:10003000470A400000000000470A4000470A40000D
:10004000470A4000470A4000470A4000470A40006C
:10005000470A4000470A4000470A4000470A40005C
:10006000470A400000000000DD044000F1044000A9
:1000700005054000470A4000470A4000470A400083
:10008000190540002D054000470A4000470A40007E
:10009000470A4000470A4000470A4000470A40001C
:1000A000470A4000470A4000470A4000470A40000C
:1000B000470A4000470A4000470A4000A90E400096
:1000C000470A4000470A4000470A4000470A4000EC
:1000D00000000000470A400000000000470A4000FE
:1000E000470A4000470A4000470A4000470A4000CC
:1000F000470A4000470A4000470A4000470A4000BC
:10010000470A4000470A4000470A4000470A4000AB
:10011000470A40000000000000000000000000004E
:10012000470A4000470A4000470A4000470A40008B
:10013000470A400000000000470A4000470A40000C
:1001400010B5054C237833B9044B13B10448AFF311
:1001500000800123237010BD4C08402000000000E7
:10016000482E40000C4B43B10C480D4910B5AFF37D
:1001700000800C48036823B910BD0A48036833B9EE
:100180007047094B002BF7D0BDE810401847064BCD
:10019000002BF5D0184700BF00000000482E40009B
:1001A00050084020482E40000000000010B51048C4
:1001B000104B98473E2100200F4B98470F4CA0470B
:1001C0000028FCD00E4B98470E4A0F4B9A620F4CFA
:1001D000A0470028FCD002200D4B984700200D4B73
:1001E00098470D4B98470248024B984710BD00BFF7
:1001F00000A3E1111D0C4000DD0540003106400068
:1002000041064000013F182000060E405106400004
:100210004105400079054000110B40002DE9F041F7
:1002200080B90C469046002A0FDD8F18084E094D04
:10023000306821462B6898470134BC42F8D14046CB
:10024000BDE8F0814FF0FF38F9E78046F7E700BFDF
:10025000240940201C0940200138022815D82DE926
:10026000F0410E4614469AB10D46DFF838800C4F27
:10027000D8F8000015F8011B3B68984700280ADBF6
:10028000A81B013CF4D1BDE8F0814FF0FF3070476E
:100290001046BDE8F0814FF0FF30BDE8F08100BFAF
:1002A0002009402024094020F8B54FF400426D4B4E
:1002B0005A60BFF34F8FBFF36F8F6B4B0022C3F8B1
:1002C00050225A6942F400325A61BFF34F8FBFF394
:1002D0006F8FD3F88070C7F34E3607F007000430F5
:1002E000C7F3C907B7FA87FE0EF01F0EBFF34F8F93
:1002F0004FF0FF3404FA00FC06FA00F004FA0EF4A2
:1003000007FA0EFE1D463A46734640EA0301C5F859
:100310006012013A2344B2F1FF3FF6D1013E60443E
:10032000B6F1FF3FEFD1BFF34F8F4F4B5A6942F405
:1003300080325A61BFF34F8FBFF36F8F4B4A4C49E6
:100340005160A1F580715160BFF34F8FBFF36F8F84
:10035000D3F8902222F00102C3F89022D3F894221D
:1003600022F00102C3F89422BFF34F8FBFF36F8FC7
:100370000A20404CA0470B20A0470C20A04710208B
:10038000A0471120A0473C4B4FF480721A61C3F87C
:10039000A0201A63A3F580634FF400625A61C3F88A
:1003A000A0205A66C3F890205A651A62C3F88420C8
:1003B000196F21F400611967596F21F400615967C1
:1003C000C3F8C020C3F8D420C3F8B0204FF4001203
:1003D0001A66C3F890205A655A62C3F88020196FD4
:1003E00021F400111967596F21F4001159675A60FF
:1003F0002249D1F8142142F01002C1F81421204AF8
:1004000010211166C2F8901051655162C2F8801037
:10041000106F08431067506F0843506751604FF4E6
:1004200000021A66C3F890205A655A62C3F8802009
:10043000196F11431967596F21F4000159675A6008
:100440004FF080721A66C3F890205A655A62C3F85A
:100450008020196F11431967596F21F08071596716
:100460005A60F8BD50180E4000ED00E0000C0E4040
:100470000C08005A6106400000120E40008008403F
:1004800000100E40C06C7047806C70472DE9F04141
:10049000044688460E4B9847054620460D4B984724
:1004A000054013D00C4C04F1600603E0B4420DD0BB
:1004B00010345DB120684045F8D161682942F5D01B
:1004C000E3689847636825EA0305EFE7BDE8F08134
:1004D00085044000890440006808402008B50A21CE
:1004E0000148024B984708BD000E0E408D044000A5
:1004F00008B50B210148024B984708BD00100E407B
:100500008D04400008B50C210148024B984708BDF6
:1005100000120E408D04400008B510210148024B26
:10052000984708BD00140E408D04400008B5112105
:100530000148024B984708BD00160E408D0440004C
:10054000032811D0042812D002280CBF4FF4807168
:100550000021084A136B23F440730B431363936E1B
:1005600013F0080FFBD070474FF44071F1E74FF4E0
:100570000071EEE700060E40174A136B23F070037C
:1005800018431063936E13F0080F0AD14FF4805391
:1005900011498A6E12F0080F03D1013BF9D10120F5
:1005A00070470D4A136B23F0030343F002031363F8
:1005B000936E13F0080F0AD14FF4805306498A6EE8
:1005C00012F0080F05D1013BF9D10120704700203E
:1005D00070470020704700BF00060E40A0B90E48CB
:1005E000036A090289B20D4A1A400D4B134319439D
:1005F00001620246936E13F0010FFBD0064A116AA6
:10060000084B0B431362704703490B6A064A1A40B2
:10061000064B13430B62704700060E40FCFFC8FFF9
:100620000100370000003701FCFFC8FE020037015F
:10063000024B986E00F48030704700BF00060E40F9
:100640004FF00052014B9A62704700BF00060E4007
:10065000024B986E00F00200704700BF00060E408B
:100660003F281ED81F280CD8114B9A6901238340BC
:10067000934318D0012303FA00F00D4B18610020BA
:10068000704720380A4BD3F8082101238340934355
:100690000BD0012303FA00F0054BC3F80001002042
:1006A000704701207047002070470020704700BF4E
:1006B00000060E40F0B48CB007460E4601AC114D5A
:1006C0000FCD0FC40FCD0FC495E8070084E80700D5
:1006D00001AA002352F8040BB6FBF0F0B0FBF7F0D0
:1006E000B0F5807F07D901330B2BF3D14FF6FF70A4
:1006F0000CB0F0BC70470A2B94BF40EA03204FF6C1
:10070000FF70F5E7A02D400070B506460D460C6859
:1007100044B1896820460C4B984704464FF6FF7356
:1007200098420CD0686840B1A968074B98474FF6CB
:10073000FF73984205D044EA004434600024204608
:1007400070BD0446FBE700BFB506400070B40A6800
:100750004B6803F00F038C8A23430C8923438C7A64
:1007600043EA44238C7D43EA0443CC7D43EA44437B
:100770000C7E43EA844300EB4214C4F80032CB6899
:10078000C4F804320B69C4F80C328B7D3BB18C8BFE
:100790004B8B43EA044300EB4214C4F81832856CD7
:1007A0004FF001139340DB431D40CC7F04FA02F667
:1007B0008C7F944044EA06442C438464446C234078
:1007C00091F8214004FA02F591F82040944044EA5F
:1007D0000544234343640123934091F82240002CB5
:1007E0004FD0046A1C43046291F82440022C4DD07F
:1007F000D0F8C050DC432540C0F8C05091F82450D8
:10080000012D49D0856E2C40846691F82540022C3C
:1008100046D0D0F8C0501B04DC432540C0F8C0507F
:1008200091F82550012D42D0836E1C408466D20081
:10083000C36EFF24944023EA040491F823309340CC
:100840002343C36652B991F82C30012B8B6A23F0F5
:100850007F4308BF43F08073C0F8A03000EB421024
:10086000D0F8003223F40023C0F80032D0F8002280
:100870008B6B03F400231343C0F80032002070BCDC
:100880007047046A24EA03040462ADE7D0F8C0406C
:100890001C43C0F8C040B8E7846E1C438466B4E7CC
:1008A000D0F8C04044EA0343C0F8C030BFE7846ECC
:1008B00023438366BBE70B69934202D24FF6FF7076
:1008C00070470B68CA6000EB4310C0F80822002094
:1008D0007047012303FA01F141607047012303FAD5
:1008E00001F181607047C06970471032012303FA3B
:1008F00002F203FA01F10A43026170471032012348
:1009000003FA02F203FA01F10A43426170474369B4
:1009100013F0020F02D0C161002070470120704720
:10092000436913F0010F03D083690B7000207047F7
:100930000120704710B40B01934214D9C9004B0831
:1009400003EBC202B2FBF1F2D3085C1E4FF6FE715C
:100950008C4201D9012017E0416841F40021416037
:100960000CE0012010E0590801EBC202B2FBF3F2E7
:10097000D3085C1E4FF6FE718C42F2D8120402F4CA
:10098000E0221A43026200205DF8044B7047000029
:10099000084BC0F8E430002343604362836288233D
:1009A0000360242303604FF4807303604FF400233B
:1009B000036070470041535570B505460C46164616
:1009C0000F4B984700220F4B1A60A4B132462168A2
:1009D00028460D4B9847024678B96368A1680B43D7
:1009E00021690B43E1680B4306490B6069680B43BF
:1009F0006B60104670BD0122FBE70122F9E700BFE2
:100A000091094000D8084020350940004023036088
:100A10007047102303607047436913F0020F04D03E
:100A2000C1F30801C161002070470120704743698C
:100A300013F0010F05D08369C3F308030B60002096
:100A4000704701207047FEE700B583B0254B264A6A
:100A50009A4210D0254B234A9A420CD2013B9B1A52
:100A600023F00303043313441F4951F8040B42F8E5
:100A7000040B9A42F9D11E4B1E4A9A420AD2013BFC
:100A80009B1A23F0030304331344002142F8041B90
:100A90009342FBD1184A194B23F07F039360EFF385
:100AA0001083B3FA83F35B09019372B6BFF35F8FD0
:100AB0000022134B1A700199124A136843F4700311
:100AC0001360BFF34F8FBFF36F8F29B101220C4B1F
:100AD0001A70BFF35F8F62B60B4B98470B4B98476A
:100AE000FEE700BF00004020482E40004C08402098
:100AF0008C0940204C08402000ED00E00000400040
:100B00000000402088ED00E0B5104000350F4000A7
:100B10003B4B1B6B03F00303012B1DD083B1022B56
:100B200036D0374B1B6B03F07003702B5FD0344B08
:100B30001A6B3449C2F302120B68D3400B60704742
:100B4000314B5B6913F0800F14BF4FF400424FF438
:100B5000FA422C4B1A60E4E7294B1B6A13F0807FA2
:100B600003D02A4A274B1A60DBE7294A254B1A6033
:100B7000234B1B6A03F07003102B05D0202BD0D120
:100B8000224A204B1A60CCE7224A1E4B1A60C8E763
:100B90001B4B1B6A13F0807F16D01C4A194B1A603E
:100BA000174B1B6B03F00303022BBAD1144A916A53
:100BB000926A1448C1F30A41036801FB0333D2B2BD
:100BC000B3FBF2F30360ACE7114A0E4B1A600C4B17
:100BD0001B6A03F07003102B05D0202BE0D10B4AC9
:100BE000084B1A60DCE70B4A064B1A60D8E7054A47
:100BF00013680949A1FB03135B081360704700BF2A
:100C000000060E400400402010180E40001BB700E4
:100C100000093D0000127A00ABAAAAAA164B98421E
:100C200013D9164B984215D9154B984216D9154B26
:100C3000984217D9144B984218D9144B984294BF34
:100C4000134A144A144B1A6070474FF08062124BDB
:100C50001A607047114A104B1A607047104A0E4BC9
:100C60001A6070470F4A0C4B1A6070474FF004220D
:100C7000094B1A60704700BFBFF35E017FE7BD02FA
:100C80003FDB1C04FFCE7B05BFC2DA067FB6390806
:100C90000005000400060004000C0E4000010004E2
:100CA00000020004000300040A4B1B6853B1094B07
:100CB0001B681A180849914208DB1046054A106063
:100CC00018467047054A034B1A60F0E74FF0FF30B3
:100CD000704700BFDC084020FCFF4520902B4020DF
:100CE0004FF0FF3070474FF400534B6000207047C7
:100CF0000120704700207047F0B583B005460C46D0
:100D0000002301932A4B984213D02A4B984218D0C3
:100D1000294B98421DD0294B9D4222D0284B9D4201
:100D200027D0284B9D422ED0274B9D4235D003B073
:100D3000F0BD1F46254E21463846B0470028FAD15F
:100D4000E9E71F46214E21463846B0470028FAD130
:100D5000E4E71F461D4E21463846B0470028FAD129
:100D6000DFE71F46194E21463846B0470028FAD122
:100D7000DAE71E46164D01A93046A8470028FAD1E9
:100D8000019B2370D3E71E46114D01A93046A847A9
:100D90000028FAD1019B2370C9E71E460C4D01A91A
:100DA0003046A8470028FAD1019B2370BFE700BF57
:100DB00000080E40000A0E40001A0E40001C0E40B3
:100DC000004002400080024000C002402109400073
:100DD0002F0A400070B50C462A4B984213D02A4B7C
:100DE000984219D0294B98421FD0294B984225D0C0
:100DF000284B98422BD0284B984231D0274B984211
:100E000037D0002070BD1E46254D21463046A847EC
:100E10000028FAD1012070BD1E46214D21463046E2
:100E2000A8470028FAD1012070BD1E461C4D21465E
:100E30003046A8470028FAD1012070BD1E46184D43
:100E400021463046A8470028FAD1012070BD1E4631
:100E5000144D21463046A8470028FAD1012070BD24
:100E60001E46104D21463046A8470028FAD10120E1
:100E700070BD1E460B4D21463046A8470028FAD1CA
:100E8000012070BD00080E40000A0E40001A0E40FE
:100E9000001C0E40004002400080024000C00240A2
:100EA0000F094000190A4000F8B51B481B4B984732
:100EB00010F0010F05D01A4A1368013313600A2B92
:100EC00000D0F8BD174B1B78E3B1174A1368013304
:100ED0001360642B12D00023114A1360134C23605B
:100EE000114F0D4E3A6821463046114DA847012357
:100EF00023603A6821463046A847E2E70022094BC2
:100F00001A70E8E7084A1368013B1360002BE2D12E
:100F10000122044B1A70DEE700000240E70840009F
:100F2000E008402008004020E40840202809402034
:100F3000B708400080B58AB0434B9847434B984769
:100F40000E20434EB047434D434B1D60434A444B34
:100F50001A60444A444B1A604FF4E1330193C023B2
:100F600002934FF4006303930024049405940E202D
:100F7000B0473E4A01A928463D4B984728463D4B7D
:100F8000984728463C4B98473C4F3B682146986819
:100F90003B4DA8473B6821465868A84739483A4B1B
:100FA00098471F20B047394E21463046384DA84754
:100FB00001213046A847374B0793089403F18F531C
:100FC00003F5E353099307A93046334B9847334D54
:100FD0002C81AC724FF00B0AC5F804A04FF06409E5
:100FE000C5F81090EC602C6029463046DFF8C080D0
:100FF000C047224621463046294B98474FF480731C
:101000002B810127AF72C5F804A0C5F81090EC60E1
:101010002F6029463046C047224639463046214B8C
:101020009847214B4FF00042C3F88020C3F880213D
:1010300083F81F431A60214630461C4CA0473946AE
:101040003046A047FEE700BFAD014000A9024000C6
:10105000610640000080024024094020D50D400078
:1010600020094020F90C40001C09402080D1F008E4
:10107000B90940000D0A4000130A40000C0040204E
:101080004D124000CC2D40003D12400000000240B7
:10109000DD084000A0860100090740002809402023
:1010A000EB084000FD08400000E100E0D3084000EC
:1010B0004D07400070B50F4E0F4D761BB61018BF90
:1010C000002405D0013455F8043B9847A642F9D1D5
:1010D0000A4E0B4D761B01F0A5FEB61018BF00247A
:1010E00006D0013455F8043B9847A642F9D170BDAB
:1010F00070BD00BF302E4000302E4000382E400022
:10110000302E400070B4860746D0541E002A41D0CD
:10111000CAB2034602E014F1FF343BD303F8012BBB
:101120009D07F8D1032C2ED9CDB245EA05250F2C09
:1011300045EA054519D903F110022646103E0F2E47
:1011400042F8105C42F80C5C42F8085C42F8045C1F
:1011500002F11002F2D8A4F1100222F00F0204F002
:101160000F041032032C13440DD91E462246043AB4
:10117000032A46F8045BFAD8221F22F00302043245
:10118000134404F003042CB1C9B21C4403F8011B3E
:101190009C42FBD170BC704714460346C2E700BFB7
:1011A000F0B5054689B008460C4600F029F9AB6B4E
:1011B000214F04940126441C04A9022203940590A3
:1011C000AC68069707960191029253B3636E13F0D1
:1011D000010FB4F90C309AB201D1900525D59104D4
:1011E00006D4626E43F4005322F40052A381626677
:1011F000284601AA214600F001FC636E00280CBFBE
:101200000A254FF0FF35DA0702D4A3899B0502D5E2
:10121000284609B0F0BDA06D00F098FD284609B041
:10122000F0BD284600F062FAD0E7A06D00F08CFD1A
:10123000B4F90C309AB2D2E7202E4000024B01469E
:101240001868FFF7ADBF00BF0C00402000290CBF9D
:10125000022200224FF4806300F000B82DE9F04331
:10126000614C256883B004460F4690461E4615B172
:10127000AB6B002B64D0B8F1020F06D0B8F1010FB0
:1012800000F29F80002EC0F29C80636ED80734D598
:101290002146284600F0D2F9216B41B104F1400308
:1012A000994202D0284600F0C3FA00232363B4F920
:1012B0000C300022A26162601A063AD423F44A6319
:1012C00023F00303B8F1020FA3811DD001AB6A46DE
:1012D0002146284600F03CFDA3891843A081002E3A
:1012E00032D1009E304600F0ABFD074600286BD09F
:1012F000A38943F08003A38128E0A3899905C7D47B
:10130000A06D00F021FDC3E70025616E002604F109
:10131000430243F002030120A660CE07A3812260AE
:101320002261606101D498053ED5284603B0BDE82E
:10133000F0832169284600F07BFAB4F90C30BDE750
:10134000284600F0D3F996E7002FCBD0AB6B002BEB
:1013500033D0009BB4F90C2027609E421CBF42F49E
:101360000062A281B8F1010F04BF42F00102A28124
:1013700092B212F00803276166610ED0D1071AD528
:10138000656E7642002315F00105A661A36009D0C1
:101390000025284603B0BDE8F083A360656E15F014
:1013A0000105F5D19305C0D4A06D00F0CFFC28460F
:1013B00003B0BDE8F083A660F0E7284600F096F998
:1013C000C7E74FF0FF35B0E7DDF80090B14504D036
:1013D000484600F035FD074620B9B4F90C304FF00F
:1013E000FF3592E74E4683E70C00402000000000E6
:1013F00000000000000000000000000000000000ED
:1014000090F800F06DE9024520F007016FF0000C44
:1014100010F0070491F820F040F049804FF00004EC
:101420006FF00700D1E9002391F840F000F10800C7
:1014300082FA4CF2A4FA8CF283FA4CF3A2FA8CF3FF
:101440004BBBD1E9022382FA4CF200F10800A4FA66
:101450008CF283FA4CF3A2FA8CF3E3B9D1E90423BA
:1014600082FA4CF200F10800A4FA8CF283FA4CF3F1
:10147000A2FA8CF37BB9D1E9062301F1200182FAAB
:101480004CF200F10800A4FA8CF283FA4CF3A2FAB1
:101490008CF3002BC6D0002A04BF04301A4612BABF
:1014A000B2FA82F2FDE8024500EBD2007047D1E9C2
:1014B000002304F00305C4F100004FEAC50514F051
:1014C000040F91F840F00CFA05F562EA05021CBF22
:1014D00063EA050362464FF00004A9E7024B13B12B
:1014E000024800F005B87047000000005D1740009A
:1014F000002301461A46184601F02ABBB1F90C3008
:101500009AB22DE9F0410D46110780463AD46A6837
:1015100043F40063002AAB816FDDAC6A002C49D034
:1015200000229BB2D8F80060C8F8002013F4805263
:1015300067D02A6D5F0705D569682B6B521A0BB10E
:10154000EB6BD21A0023E9694046A047441C3CD00B
:10155000B5F90C302A692A6023F400630022AB81BC
:10156000DB046A6047D4296BC8F8006011B305F149
:101570004003994202D0404600F05AF90020286307
:10158000BDE8F0812E69AEB12C682E6091070CBFCA
:101590006B690023A41BAB600AE0234632466F6AE6
:1015A000E9694046B8470028A4EB0004064404DD7E
:1015B000002CF2DC0020BDE8F081AB8943F0400351
:1015C000AB814FF0FF30BDE8F081D8F800401D2C12
:1015D000F3D8194BE340DB4313F00103EDD1B5F928
:1015E0000C206B6022F400632969AB81DA04296066
:1015F000B9D5002CB7D12865B5E7EA6B002A8CDC99
:10160000D8E70123E9694046A047431C024602D0BF
:10161000AB89AC6A8EE7D8F80030002BF8D01D2BD0
:1016200001D0162B02D1C8F80060C3E7AB8943F0A4
:101630004003AB81BDE8F0810100402038B50D4684
:10164000044608B1836BBBB1B5F90C0088B16B6E71
:10165000DB0701D4810517D520462946FFF74EFF49
:101660006B6EDA07044602D4AB899B0507D520468A
:1016700038BD0446204638BD00F038F8E4E7A86DD0
:1016800000F064FB204638BDA86D00F05DFBE3E789
:10169000014900F02BBB00BF392C400010B50023DE
:1016A00004468181C28103604360836043660361B5
:1016B00043618361194608225C30FFF723FD074828
:1016C0000749084A084B2062E4616162A262E36252
:1016D00004F15800BDE8104000F032BBD5294000AD
:1016E000F9294000352A4000552A400010B504462B
:1016F000124800F029FBA26BD2B904F53B731048E5
:10170000C4F8E8320321C4F8E022E063C4F8E4122C
:1017100060680421FFF7C2FF01220921A068FFF7DA
:10172000BDFF02221221E068FFF7B8FF0123A36387
:101730000248BDE8104000F009BB00BF700940201E
:1017400091164000014800F0FFBA00BF8409402014
:10175000014800F0FBBA00BF8409402038B50A4CAC
:101760000A4D641BA4100AD004F18043013B05EB31
:101770008305013C55F804399847002CF9D1BDE8A0
:10178000384001F059BB00BF482E4000442E4000B5
:10179000F8B5244F0C46064600F058FFBB685D685C
:1017A000C4F57E610F3125F00305294421F47F61E2
:1017B00021F00F01A1F58054B4F5805F07DB002113
:1017C000304601F0F5F8BB682B44984204D030460F
:1017D00000F042FF0020F8BD6142304601F0E8F819
:1017E00001300DD0104BBA6819682D1B45F001056A
:1017F0003046091B5560196000F02EFF0120F8BD2E
:101800000021304601F0D4F8BA68831A0F2BDEDDD0
:10181000064C0549246843F00103001B536008602F
:10182000D5E700BF3C044020E808402044084020A1
:10183000002944D02DE9F0410D46804600F006FF16
:1018400055F8047C694927F00103A5F10804E21862
:101850008E685068B24220F003005ED0FE075060F0
:101860000BD455F8087CE41B01F1080EA5687545FA
:101870003B446DD0E768EF60BD6015186D68ED07FB
:101880003ED543F001026260E350B3F5007F17D20A
:10189000DB08581C9A104D6851F83070A76001237E
:1018A000934001EBC0022B43083AE2604B6041F8E1
:1018B0003040FC604046BDE8F04100F0CDBE7047CE
:1018C0005A0A042A52D89A0902F13907FF0002F194
:1018D0003805C819CA59083890424FD0516821F0CC
:1018E00003018B4232D292689042F7D1C368A06064
:1018F000E3609C60C4604046BDE8F04100F0ACBECF
:1019000095683B4FBD42034440D0D068E86043F047
:10191000010285606260E350B7E7FF07034407D424
:1019200055F8082CA41A1344A068E268C2609060BD
:10193000304A126843F00100934260608C60B9D372
:101940002D4B40461968FFF723FFB3E71046CDE75C
:1019500011184968C90744D49168D268CA60034421
:1019600043F0010091606060E350A3E7142A16D8A9
:1019700002F15C07FF0002F15B05AAE7AA10012350
:101980004D6893402B434B600346B0E743F00102A0
:101990004C610C61E560A5606260E3508AE7542AFF
:1019A00006D81A0B02F16F07FF0002F16E0590E7EF
:1019B000B2F5AA7F06D8DA0B02F17807FF0002F130
:1019C000770586E740F25450824206D89A0C02F11D
:1019D0007D07FF0002F17C057BE74FF47E777E25D3
:1019E00077E743F001016160136063E73C04402046
:1019F0004404402048084020180940209368002BE8
:101A000073D02DE9F04F8B8983B00C4619070090F5
:101A1000164626D5226922B313F0020035682CD071
:101A20004FF00009B04FC846B246B84543464A4653
:101A300028BF3B460098B8F1000F50D0E169666AB4
:101A4000B047002858DDDAF808301B1A8144A8EBAB
:101A50000008CAF80830002BE7D1002003B0BDE829
:101A6000F08F2146009801F00FF8002840F03381F4
:101A7000A389356813F00200D2D113F0010945D1D2
:101A80004F46019637B39A05D4F8088040F1838019
:101A90004745C346C0F0AB8013F4906F40F0AC8074
:101AA0002068BA465A46494600F06CFDA268236891
:101AB000A2EB08025B44A2602360019A9368A3EB47
:101AC0000A03D144A7EB0A079360002BC5D0A38972
:101AD000002FD8D1D5F800906F680835D2E7D5F837
:101AE0000090D5F8048008359FE700207047214614
:101AF0000098FFF7A3FD70B3B4F90C3043F0400336
:101B00004FF0FF30A38103B0BDE8F08F814633462C
:101B10004E46A8469A464D464EB380B32068236988
:101B20006269B145CB4628BFB34698425F4604D9A7
:101B3000A36813449B4500F3A68093454BDB1346F3
:101B4000676AE16900982A46B847071ED4DDB9EBF9
:101B50000709CCD00120DAF80830DB1B3D44F61B26
:101B6000CAF80830002B3FF478AF002ED5D108F129
:101B7000080313E9600098460833002EF9D0324676
:101B80000A21284600F014FC002800F0A180013052
:101B9000A0EB0509C2E720682369984202D863696F
:101BA0009F425DD2B84528BFB8464246494600F03C
:101BB000E9FCA3682268A3EB08034244A360226007
:101BC0000BB1C24679E721460098FFF737FD0028A0
:101BD00092D1C24671E75A46294600F0D3FCA2686A
:101BE0002368A2EB0B025B44A2602360AFE720688E
:101BF000B846BA46BB4655E762692068216902EBE0
:101C00004208A0EB010A08EBD8780AF101004FEA7C
:101C1000680838444045424684BF804642465B05DA
:101C200044D51146009800F013F98346002855D09A
:101C30005246216900F00CFCA38923F4906343F021
:101C40008003A3810BEB0A00A8EB0A03C4F810B0D1
:101C5000C4F814802060A360B846BA46BB4621E7AA
:101C60006FF00041B94228BF39464A4691FBF3F173
:101C70000098666A03FB01F3E169B047B0F1000A1E
:101C80003FF71BAF38E71A462946019300F07AFC6C
:101C90002268019B00981A4422602146FFF7CEFC7F
:101CA000019B00287FF428AF1F4650E7009800F002
:101CB000D9FC83460028C5D1009D21692846FFF73D
:101CC000B7FDB4F90C300C2223F080032A6015E72D
:101CD00006F1010922E74FF0FF30BFE6009A0C231E
:101CE0001360B4F90C3009E700FCFF7F2DE9F843DD
:101CF00010F538771FD0884606464FF000097D68FA
:101D0000BC68013D11D4A389012B05F1FF3508D929
:101D1000B4F90E3001332146304602D0C04749EABB
:101D200000096B1C04F16804EDD13F68002FE6D177
:101D30004846BDE8F883B9464846BDE8F88300BF89
:101D4000704700BF704700BF704700BF704700BFBB
:101D500070B50C46B1F90E10002990B015461E461C
:101D600014DB01AA00F0CAFF00280FDB029A02F47C
:101D70007042A2F50052B2FA82F252094FF4806327
:101D80004FF4006032602B6010B070BDA289002358
:101D900012F08000336004D0402218462A6010B050
:101DA00070BD4FF480632B6010B070BD8A899207BC
:101DB0000B4606D501F1430201211A601A615961EF
:101DC0007047F0B583B001AB6A460C460646FFF794
:101DD000BFFF00990546304600F03AF8B4F90C30E0
:101DE000D8B1019A154F0099F76343F08003A3819E
:101DF0002060206161611AB92B43A38103B0F0BD5B
:101E00003046B4F90E1000F08DFFA0B1A38923F085
:101E1000030343F001031BB2EEE79A05EED423F06F
:101E2000030304F1430243F002030121A381226072
:101E300022616161E2E7B4F90C30DDE79116400000
:101E4000024B0146186800F003B800BF0C004020A8
:101E50002DE9F04F01F10B06162E83B0054640F236
:101E60009E8036F0070600F1BD80B14200F2BA80D4
:101E700000F0ECFBB6F5FC7FC0F09382730A00F033
:101E8000B880042B00F27981B30903F1390003F122
:101E9000380EC300BF4F3B44A3F108015C68A14268
:101EA00006D10CE0002A80F2AA80E468A14206D0A4
:101EB000636823F003039A1B0F2AF3DD70463C6925
:101EC000DFF8E4E2744500F0AB81636823F00303BC
:101ED0009A1B0F2A00F39081002AC7F814E0C7F874
:101EE00010E080F29D80B3F5007F80F06181DB0817
:101EF00003F1010C99107A6857F83C80C4F8088007
:101F000001238B4007EBCC0113430839E1607B6070
:101F100047F83C40C8F80C408210012494409C4291
:101F200000F28B801C4206D120F0030064001C42AA
:101F300000F10400FAD007EBC009CC468046DCF87B
:101F40000C309C4507D16DE1002A80F27B81DB6873
:101F50009C4500F06781596821F003018A1B0F2A14
:101F6000F2DDD3F80CC0D3F8088000939C19284602
:101F700046F0010642F001055E60C8F80CC0CCF8DE
:101F800008807C613C61C4F80CE0C4F808E065603E
:101F90005A5000F061FB009B03F108041EE0102979
:101FA00020D800F053FB102618230220794F3B4421
:101FB000A3F108025C68944200F03D816368E16827
:101FC000A66823F00303234428465A68F16042F0D0
:101FD00001028E605A6000F03FFB0834204603B0D7
:101FE000BDE8F08F00240C2320462B6003B0BDE831
:101FF000F08F40204FF400734FF03F0E4AE7234428
:10200000E1685A68A66842F00102F16028468E60D5
:102010005A6000F021FB0834204603B0BDE8F08F81
:10202000234428465A6842F001025A6000F014FB2B
:102030000834204603B0BDE8F08FBC68636823F025
:102040000308B04504D3A8EB06030F2B00F38580EB
:10205000DFF85891504BD9F800201B680132334407
:1020600004EB080A00F0558103F580530F3323F485
:102070007F6B2BF00F0B5946284600F099FC411C52
:10208000024600F0FC80824500F2F780434B19685D
:102090005944196000F04D81D9F8000001301BBF90
:1020A000A2EB0A0A5144C9F80020196012F0070196
:1020B00000F01581C1F10800C1F5805102440831DA
:1020C00002EB0B09C9F30B09A1EB090949462846A4
:1020D0000193009200F06CFC431C9DE80C0000F0A2
:1020E0004381801A484440F001001968BA604944AD
:1020F000BC425060196017D0B8F10F0F40F2FB805E
:102100006068A8F10C0222F0070204EB020E00F056
:1021100001004FF0050C10430F2A6060CEF804C098
:10212000CEF808C000F217811D4BBC681A689142B6
:1021300088BF19601B4B1A689142626888BF19609A
:1021400022F003029642A2EB060301D80F2B04DC17
:10215000284600F081FA002440E7A21943F0010369
:1021600046F0010666602846BA60536000F074FAD3
:102170000834204603B0BDE8F08F142B71D9542BDE
:1021800000F2A380330B03F16F0003F16E0EC30066
:1021900080E600BF3C04402018094020E8084020A9
:1021A00010094020140940204404402044084020E5
:1021B0005A0A042A5BD9142A00F2AE8002F15C01AB
:1021C000C9005B3207EB010C7958ACF1080C8C4567
:1021D00000F088804A6822F00302934273D2896833
:1021E0008C45F7D1DCF80C207B68E260C4F808C0AD
:1021F0009460CCF80C408FE6A11946F0010C42F037
:102200000106C4F804C0284679613961C1F80CE0C0
:10221000C1F808E04E60E25000F01EFA0834DDE636
:102220007B6879E608F1010818F0030F0CF1080C3F
:102230007FF485AE2DE0DC68A34208BF02303FF496
:102240003EAEBBE619441C464A68DB6854F8086F8A
:1022500042F001024A602846F3609E6000F0FCF9FB
:10226000BCE603F15C0003F15B0EC30012E69A09C1
:1022700002F13901C9003832A4E7BC4254D0BC682D
:10228000626822F003025DE759F80839994540F089
:10229000868010F0030F00F1FF30F5D17B6823EA50
:1022A00004037B6064009C423FF6C7AE002C3FF401
:1022B000C4AE1C4240467FF43EAE64001C4200F1B6
:1022C0000400FAD037E68C468CE7B3F5AA7F15D820
:1022D000F30B03F1780003F1770EC300DAE54FF456
:1022E0008051EDE67B689210012101FA02F213435E
:1022F0007B60624679E70123536029E740F254523C
:10230000934222D8B30C03F17D0003F17C0EC3008D
:10231000C0E503F1100BAEE6542A29D81A0B02F1DE
:102320006F01C9006E324DE7204B1968594419609E
:10233000B2E6CAF30B0000287FF4AEAE08EB0B0345
:10234000BA6843F001035360EEE67F204FF47E73DA
:102350004FF07E0E9EE504F1080128460093FFF73A
:1023600067FA009B1968DFE601204FF00009BCE620
:10237000B2F5AA7F05D8DA0B02F17801C9007732ED
:1023800020E740F254518A4205D89A0C02F17D01AF
:10239000C9007C3216E74FF47E717E2212E77B681B
:1023A00080E7F00806F1080300E600BFE8084020D7
:1023B00001F0FF01102A2BDB10F0070F08D010F8F6
:1023C000013B013A8B422DD010F0070F42B3F6D1FA
:1023D000F0B441EA012141EA014122F007047FF013
:1023E00000070023F0E80256083C85EA010586EA6A
:1023F000010685FA47F5A3FA87F586FA47F6A5FAA6
:1024000087F68EB9EED1F0BC01F0FF0102F00702B1
:1024100032B110F8013B013A83EA010313B1F8D15C
:102420000020704701387047002D06BF354603383D
:10243000073815F0010F07D1013015F4807F02BF76
:10244000013015F4C03F0130F0BC0138704700BFC7
:10245000844641EA000313F003036DD1403A41D3AF
:1024600051F8043B40F8043B51F8043B40F8043B6E
:1024700051F8043B40F8043B51F8043B40F8043B5E
:1024800051F8043B40F8043B51F8043B40F8043B4E
:1024900051F8043B40F8043B51F8043B40F8043B3E
:1024A00051F8043B40F8043B51F8043B40F8043B2E
:1024B00051F8043B40F8043B51F8043B40F8043B1E
:1024C00051F8043B40F8043B51F8043B40F8043B0E
:1024D00051F8043B40F8043B51F8043B40F8043BFE
:1024E000403ABDD2303211D351F8043B40F8043B9E
:1024F00051F8043B40F8043B51F8043B40F8043BDE
:1025000051F8043B40F8043B103AEDD20C3205D3AD
:1025100051F8043B40F8043B043AF9D2043208D0A5
:10252000D2071CBF11F8013B00F8013B01D30B8817
:1025300003806046704700BF082A13D38B078DD0F5
:1025400010F003038AD0C3F10403D21ADB071CBFC7
:1025500011F8013B00F8013B80D331F8023B20F831
:10256000023B7BE7043AD9D3013A11F8013B00F86A
:10257000013BF9D20B7803704B7843708B788370F2
:10258000604670478842F0B50DD98B1898420AD240
:102590008418002A51D0224613F8014D02F8014D4B
:1025A0009942F9D1F0BD0F2A48D941EA00039B07AF
:1025B00046D100F1100401F11003154653F8106CD8
:1025C00044F8106C53F80C6C44F80C6C53F8086C1D
:1025D00044F8086C103D53F8046C44F8046C0F2D5B
:1025E00003F1100304F11004E8D8A2F1100323F062
:1025F0000F0302F00F0E1033BEF1030F1944034412
:1026000021D91E1F0D467446043C55F8047B46F83C
:10261000047F032CF8D8AEF1040424F0030404343E
:102620002144234402F0030262B1013B0A4411F841
:10263000014B03F8014F8A42F9D1F0BD0346F3E79D
:102640000346F2E7F0BD7246EEE700BF0148FFF730
:102650007BBB00BF740940200148FFF777BB00BF78
:1026600074094020002900F095802DE9F04F0D46B7
:10267000164683B0804606F10B07FFF7E7FF55F8D3
:1026800004EC162F2EF00304A5F108093CD8102203
:102690001746BE423DD8944243DAC44B996809EBD1
:1026A0000400884200F0B480436823F00101014433
:1026B0004968C9074CD51EF0010F00F09B803146D8
:1026C0004046FFF7C5FB064600283AD055F8043CC3
:1026D00023F001034B44A0F108029A4200F021814B
:1026E000221F242A00F20781132A00F2DB8003460E
:1026F0002A46116819605168596092689A602946A3
:102700004046FFF795F81CE027F00707002F3A46F0
:10271000BFDA00260C233046C8F8003003B0BDE80D
:10272000F08F2E46E31B0F2B1ED8D9F8043003F090
:10273000010323434C44C9F80430636843F00103A8
:1027400063604046FFF788FF304603B0BDE8F08F76
:1027500023F00303E11891421FDBC36882682E4611
:10276000D3600C469A60DDE7D9F8042009EB070135
:1027700002F001024C4443F001031743C9F804700E
:102780004B60636843F00103083163604046FFF724
:102790004FF8D6E71146FFF75BBB1EF0010F8ED155
:1027A00055F8081CA9EB010ADAF8041021F003011E
:1027B0000B442344934225DBC26881685646CA60B5
:1027C0009160DAF80C1056F8080F221F242AC16015
:1027D000886000F29480132A6FD92968CAF808101B
:1027E0006968CAF80C101B2A00F2A28008350AF1A9
:1027F000100263E055F8083CA9EB030ADAF804106C
:1028000021F0030163189342FFF659AF5646D8E70B
:10281000416821F0030BA34407F11000834556DA09
:102820001EF0010F7FF44BAF55F8081CA9EB010A0D
:10283000DAF8041021F003018B445845E2DC5646D7
:10284000DAF80C1056F8080F221F242AC16088609D
:1028500000F28F80132A40F28A802968CAF8081093
:102860006968CAF80C101B2A00F28A8008350AF140
:1028700010022968116069685160A96891600AEBCB
:102880000701ABEB070242F0010299604A60DAF8F7
:10289000043003F001031F434046CAF80470FFF7F9
:1028A000DBFE51E72B6803606B6843601B2A2DD861
:1028B00000F1080305F108021BE7324629681160A0
:1028C00069685160A96891601C46D1462AE709EB06
:1028D0000701ABEB070B4BF0010299604A6055F81A
:1028E000043C03F001031F43404645F8047CFFF716
:1028F000B3FE2E4628E72946FFF744FEFFE62946A9
:1029000030461C46D146FFF73DFE0BE7AB688360BF
:10291000EB68C360242A17D000F1100305F1100200
:10292000E7E650F8043C23F003031C442E46F9E686
:10293000A968CAF81010E968CAF81410242A0CD043
:1029400010350AF11802B9E72B6903616B6943611D
:1029500005F1180200F11803CBE62A69CAF818201D
:102960006A69CAF81C2018350AF12002A6E7324627
:102970007FE7294630460193FFF704FE019B7EE77F
:10298000A968CAF81010E968CAF81410242A03D0FC
:1029900010350AF118026CE72A69CAF818206A692A
:1029A000CAF81C2018350AF1200262E73C044020D6
:1029B00038B5074C0023054608462360FEF774F936
:1029C000431C00D038BD2368002BFBD02B6038BDE2
:1029D0008809402010B50C46B1F90E1000F0CAF974
:1029E000002803DB236D0344236510BDA38923F472
:1029F0008053A38110BD00BF2DE9F0411646B1F907
:102A00000C201F46D3050C46054607D5002202239D
:102A1000B1F90E1000F098F9B4F90C20B4F90E10C9
:102A200022F48052A2813B4632462846BDE8F0415E
:102A300000F014B810B50C46B1F90E1000F084F98E
:102A4000A389421C0EBF23F4805343F480532065B6
:102A5000A38110BDB1F90E1000F0DCB870B50D46C1
:102A6000084C114606461A46284600232360FDF707
:102A7000F3FB431C00D070BD2368002BFBD03360F8
:102A800070BD00BF8809402038B5304B1B68054633
:102A90000C4613B19A6B002A38D0B4F90C2093B2CB
:102AA00018070CD52069A8B113F001021ED0636984
:102AB00000225B42A361A260F0B1002038BDD906BC
:102AC0003CD5580726D4206942F00803A3819BB265
:102AD0000028E9D103F42072B2F5007FE4D0284643
:102AE0002146FFF763F9A3892069DDE7990758BFFD
:102AF0006269A2600028E0D1B4F90C301A06DDD575
:102B000043F04003A3814FF0FF3038BD1846FEF775
:102B1000EDFDC2E7216B51B104F14003994204D0AD
:102B20002846FEF785FEB4F90C200023236300231A
:102B30002069636022F024022060C5E742F0400271
:102B400009232B604FF0FF30A28138BD0C004020DC
:102B50002DE9F8432C4D0646286898460F469146C5
:102B6000FFF7F2F8294B1C68D4F84831002B3ED00F
:102B70005A681F2A1CDC02F1010E76B103EB8201B8
:102B80000124C1F88890D3F8880194402043022E94
:102B9000C3F88801C1F8088123D00232C3F804E0E9
:102BA000286843F82270FFF7D1F80020BDE8F883C9
:102BB000174B0BB34FF4C870FFF742F90346D8B177
:102BC000D4F848210260002141600A46C4F8480157
:102BD0004FF0010EC0F88811C0F88C11002EDCD027
:102BE000CCE7D3F88C110C43C3F88C41D5E704F53E
:102BF000A673C4F84831BBE72868FFF7A7F84FF081
:102C0000FF30BDE8F88300BF380440201C2E400090
:102C1000411E400038B5074C002305460846236096
:102C2000FEF75EF8431C00D038BD2368002BFBD0B4
:102C30002B6038BD8809402070B559B105460C4657
:102C400010B1836B002B3CD0636ED80705D5B4F967
:102C50000C302BB90026304670BDA38999053CD5B0
:102C600021462846FEF74AFCE36A064633B1E1698D
:102C7000284698470028B8BF4FF0FF36A3891A06A8
:102C800022D4216B41B104F14003994202D028467D
:102C9000FEF7CEFD00232363616C21B12846FEF7C9
:102CA000C7FD00236364FEF74DFD636E0022DB0762
:102CB000A2810ED5A06DFFF745F8FEF749FD30461D
:102CC00070BDFEF713FDBFE721692846FEF7B0FD92
:102CD000D7E7A06DFFF73AF8ECE7A06DFFF734F8FF
:102CE000B4F90C30002BBBD1666E16F00106B1D1E1
:102CF000A06DFFF72BF8304670BD00BF38B50B460E
:102D0000074C05461146184600232360FDF7EBFFEC
:102D1000431C00D038BD2368002BFBD02B6038BD8E
:102D20008809402038B5074C002305460846236033
:102D3000FDF7DEFF431C00D038BD2368002BFBD01D
:102D40002B6038BD8809402070B50D46084C1146EF
:102D500006461A46284600232360FDF7CBFF431C96
:102D600000D070BD2368002BFBD0336070BD00BF66
:102D70008809402070B50D46084C114606461A4693
:102D8000284600232360FDF749FA431C00D070BD9C
:102D90002368002BFBD0336070BD00BF8809402042
:102DA0000100000002000000040000000800000014
:102DB0001000000020000000400000008000000023
:102DC0000001000000020000000400002D2D205032
:102DD000574D204C4544204578616D706C65202D21
:102DE0002D0D0A2D2D2053414D4537302D58504C77
:102DF00044202D2D0D0A2D2D20436F6D70696C65BB
:102E0000643A20417072203234203230313820311F
:102E1000393A31303A3433202D2D0D001000402046
:102E20000A000000F8B500BFF8BC08BC9E46704719
:102E3000DD14400065014000F8B500BFF8BC08BCD7
:082E40009E467047410140006D
:102E48000100000000093D000100000010004020C2
:102E580000000000FC02402064034020CC03402016
:102E6800000000000000000000000000000000005A
:102E7800000000000000000000000000000000004A
:102E8800000000000000000000000000000000003A
:102E9800000000000000000000000000000000002A
:102EA800000000000000000000000000000000001A
:102EB800000000000000000000000000000000000A
:102EC80000000000000000000000000000000000FA
:102ED80000000000000000000000000000000000EA
:102EE80000000000000000000000000000000000DA
:102EF80000000000000000000100000000000000C9
:102F08000E33CDAB34126DE6ECDE05000B0000008D
:102F180000000000000000000000000000000000A9
:102F28000000000000000000000000000000000099
:102F38000000000000000000000000000000000089
:102F48000000000000000000000000000000000079
:103278000000000000000000640940200000000079
:10328800000000003C0440203C044020440440204E
:10329800440440204C0440204C0440205404402066
:1032A800540440205C0440205C0440206404402016
:1032B800640440206C0440206C04402074044020C6
:1032C800740440207C0440207C0440208404402076
:1032D800840440208C0440208C0440209404402026
:1032E800940440209C0440209C044020A4044020D6
:1032F800A4044020AC044020AC044020B404402086
:10330800B4044020BC044020BC044020C404402035
:10331800C4044020CC044020CC044020D4044020E5
:10332800D4044020DC044020DC044020E404402095
:10333800E4044020EC044020EC044020F404402045
:10334800F4044020FC044020FC04402004054020F4
:10335800040540200C0540200C05402014054020A1
:10336800140540201C0540201C0540202405402051
:10337800240540202C0540202C0540203405402001
:10338800340540203C0540203C05402044054020B1
:10339800440540204C0540204C0540205405402061
:1033A800540540205C0540205C0540206405402011
:1033B800640540206C0540206C05402074054020C1
:1033C800740540207C0540207C0540208405402071
:1033D800840540208C0540208C0540209405402021
:1033E800940540209C0540209C054020A4054020D1
:1033F800A4054020AC054020AC054020B405402081
:10340800B4054020BC054020BC054020C405402030
:10341800C4054020CC054020CC054020D4054020E0
:10342800D4054020DC054020DC054020E405402090
:10343800E4054020EC054020EC054020F405402040
:10344800F4054020FC054020FC05402004064020EF
:10345800040640200C0640200C064020140640209C
:10346800140640201C0640201C064020240640204C
:10347800240640202C0640202C06402034064020FC
:10348800340640203C0640203C06402044064020AC
:10349800440640204C0640204C064020540640205C
:1034A800540640205C0640205C064020640640200C
:1034B800640640206C0640206C06402074064020BC
:1034C800740640207C0640207C064020840640206C
:1034D800840640208C0640208C064020940640201C
:1034E800940640209C0640209C064020A4064020CC
:1034F800A4064020AC064020AC064020B40640207C
:10350800B4064020BC064020BC064020C40640202B
:10351800C4064020CC064020CC064020D4064020DB
:10352800D4064020DC064020DC064020E40640208B
:10353800E4064020EC064020EC064020F40640203B
:10354800F4064020FC064020FC06402004074020EA
:10355800040740200C0740200C0740201407402097
:10356800140740201C0740201C0740202407402047
:10357800240740202C0740202C07402034074020F7
:10358800340740203C0740203C07402044074020A7
:10359800440740204C0740204C0740205407402057
:1035A800540740205C0740205C0740206407402007
:1035B800640740206C0740206C07402074074020B7
:1035C800740740207C0740207C0740208407402067
:1035D800840740208C0740208C0740209407402017
:1035E800940740209C0740209C074020A4074020C7
:1035F800A4074020AC074020AC074020B407402077
:10360800B4074020BC074020BC074020C407402026
:10361800C4074020CC074020CC074020D4074020D6
:10362800D4074020DC074020DC074020E407402086
:10363800E4074020EC074020EC074020F407402036
:10364800F4074020FC074020FC07402004084020E5
:10365800040840200C0840200C0840201408402092
:10366800140840201C0840201C0840202408402042
:10367800240840202C0840202C08402034084020F2
:0C36880034084020FFFFFFFF000002009C
:0400000500400A4964
:00000001FF
