
SAME70-LCD-EXT2.elf:     file format elf32-littlearm

Sections:
Idx Name          Size      VMA       LMA       File off  Algn
  0 .text         00023584  00400000  00400000  00010000  2**6
                  CONTENTS, ALLOC, LOAD, READONLY, CODE
  1 .ARM.exidx    00000008  00423584  00423584  00033584  2**2
                  CONTENTS, ALLOC, LOAD, READONLY, DATA
  2 .relocate     000009c0  20400000  0042358c  00040000  2**3
                  CONTENTS, ALLOC, LOAD, CODE
  3 .bss          000005e4  204009c0  00423f4c  000409c0  2**2
                  ALLOC
  4 .stack        00002004  20400fa4  00424530  000409c0  2**0
                  ALLOC
  5 .heap         00000200  20402fa8  00426534  000409c0  2**0
                  ALLOC
  6 .ARM.attributes 0000002e  00000000  00000000  000409c0  2**0
                  CONTENTS, READONLY
  7 .comment      00000059  00000000  00000000  000409ee  2**0
                  CONTENTS, READONLY
  8 .debug_info   0001f4f7  00000000  00000000  00040a47  2**0
                  CONTENTS, READONLY, DEBUGGING
  9 .debug_abbrev 00004458  00000000  00000000  0005ff3e  2**0
                  CONTENTS, READONLY, DEBUGGING
 10 .debug_loc    00008aa9  00000000  00000000  00064396  2**0
                  CONTENTS, READONLY, DEBUGGING
 11 .debug_aranges 00000e90  00000000  00000000  0006ce3f  2**0
                  CONTENTS, READONLY, DEBUGGING
 12 .debug_ranges 00000fc8  00000000  00000000  0006dccf  2**0
                  CONTENTS, READONLY, DEBUGGING
 13 .debug_macro  000093a8  00000000  00000000  0006ec97  2**0
                  CONTENTS, READONLY, DEBUGGING
 14 .debug_line   00010e65  00000000  00000000  0007803f  2**0
                  CONTENTS, READONLY, DEBUGGING
 15 .debug_str    0009337f  00000000  00000000  00088ea4  2**0
                  CONTENTS, READONLY, DEBUGGING
 16 .debug_frame  00002f24  00000000  00000000  0011c224  2**2
                  CONTENTS, READONLY, DEBUGGING

Disassembly of section .text:

00400000 <exception_table>:
  400000:	a8 2f 40 20 6d 17 40 00 6b 17 40 00 6b 17 40 00     ./@ m.@.k.@.k.@.
  400010:	6b 17 40 00 6b 17 40 00 6b 17 40 00 00 00 00 00     k.@.k.@.k.@.....
	...
  40002c:	49 1a 40 00 6b 17 40 00 00 00 00 00 7d 1a 40 00     I.@.k.@.....}.@.
  40003c:	cd 1a 40 00 6b 17 40 00 6b 17 40 00 6b 17 40 00     ..@.k.@.k.@.k.@.
  40004c:	6b 17 40 00 6b 17 40 00 6b 17 40 00 6b 17 40 00     k.@.k.@.k.@.k.@.
  40005c:	6b 17 40 00 6b 17 40 00 00 00 00 00 e1 12 40 00     k.@.k.@.......@.
  40006c:	f5 12 40 00 09 13 40 00 6b 17 40 00 6b 17 40 00     ..@...@.k.@.k.@.
  40007c:	6b 17 40 00 1d 13 40 00 31 13 40 00 6b 17 40 00     k.@...@.1.@.k.@.
  40008c:	6b 17 40 00 6b 17 40 00 6b 17 40 00 6b 17 40 00     k.@.k.@.k.@.k.@.
  40009c:	6b 17 40 00 6b 17 40 00 6b 17 40 00 6b 17 40 00     k.@.k.@.k.@.k.@.
  4000ac:	6b 17 40 00 6b 17 40 00 11 0f 40 00 6b 17 40 00     k.@.k.@...@.k.@.
  4000bc:	6b 17 40 00 6b 17 40 00 6b 17 40 00 6b 17 40 00     k.@.k.@.k.@.k.@.
  4000cc:	6b 17 40 00 00 00 00 00 6b 17 40 00 00 00 00 00     k.@.....k.@.....
  4000dc:	6b 17 40 00 25 0f 40 00 6b 17 40 00 6b 17 40 00     k.@.%.@.k.@.k.@.
  4000ec:	6b 17 40 00 6b 17 40 00 6b 17 40 00 6b 17 40 00     k.@.k.@.k.@.k.@.
  4000fc:	6b 17 40 00 6b 17 40 00 6b 17 40 00 6b 17 40 00     k.@.k.@.k.@.k.@.
  40010c:	6b 17 40 00 6b 17 40 00 00 00 00 00 00 00 00 00     k.@.k.@.........
  40011c:	00 00 00 00 6b 17 40 00 6b 17 40 00 6b 17 40 00     ....k.@.k.@.k.@.
  40012c:	6b 17 40 00 6b 17 40 00 00 00 00 00 6b 17 40 00     k.@.k.@.....k.@.
  40013c:	6b 17 40 00                                         k.@.

00400140 <__do_global_dtors_aux>:
  400140:	b510      	push	{r4, lr}
  400142:	4c05      	ldr	r4, [pc, #20]	; (400158 <__do_global_dtors_aux+0x18>)
  400144:	7823      	ldrb	r3, [r4, #0]
  400146:	b933      	cbnz	r3, 400156 <__do_global_dtors_aux+0x16>
  400148:	4b04      	ldr	r3, [pc, #16]	; (40015c <__do_global_dtors_aux+0x1c>)
  40014a:	b113      	cbz	r3, 400152 <__do_global_dtors_aux+0x12>
  40014c:	4804      	ldr	r0, [pc, #16]	; (400160 <__do_global_dtors_aux+0x20>)
  40014e:	f3af 8000 	nop.w
  400152:	2301      	movs	r3, #1
  400154:	7023      	strb	r3, [r4, #0]
  400156:	bd10      	pop	{r4, pc}
  400158:	204009c0 	.word	0x204009c0
  40015c:	00000000 	.word	0x00000000
  400160:	0042358c 	.word	0x0042358c

00400164 <frame_dummy>:
  400164:	4b0c      	ldr	r3, [pc, #48]	; (400198 <frame_dummy+0x34>)
  400166:	b143      	cbz	r3, 40017a <frame_dummy+0x16>
  400168:	480c      	ldr	r0, [pc, #48]	; (40019c <frame_dummy+0x38>)
  40016a:	490d      	ldr	r1, [pc, #52]	; (4001a0 <frame_dummy+0x3c>)
  40016c:	b510      	push	{r4, lr}
  40016e:	f3af 8000 	nop.w
  400172:	480c      	ldr	r0, [pc, #48]	; (4001a4 <frame_dummy+0x40>)
  400174:	6803      	ldr	r3, [r0, #0]
  400176:	b923      	cbnz	r3, 400182 <frame_dummy+0x1e>
  400178:	bd10      	pop	{r4, pc}
  40017a:	480a      	ldr	r0, [pc, #40]	; (4001a4 <frame_dummy+0x40>)
  40017c:	6803      	ldr	r3, [r0, #0]
  40017e:	b933      	cbnz	r3, 40018e <frame_dummy+0x2a>
  400180:	4770      	bx	lr
  400182:	4b09      	ldr	r3, [pc, #36]	; (4001a8 <frame_dummy+0x44>)
  400184:	2b00      	cmp	r3, #0
  400186:	d0f7      	beq.n	400178 <frame_dummy+0x14>
  400188:	e8bd 4010 	ldmia.w	sp!, {r4, lr}
  40018c:	4718      	bx	r3
  40018e:	4b06      	ldr	r3, [pc, #24]	; (4001a8 <frame_dummy+0x44>)
  400190:	2b00      	cmp	r3, #0
  400192:	d0f5      	beq.n	400180 <frame_dummy+0x1c>
  400194:	4718      	bx	r3
  400196:	bf00      	nop
  400198:	00000000 	.word	0x00000000
  40019c:	0042358c 	.word	0x0042358c
  4001a0:	204009c4 	.word	0x204009c4
  4001a4:	0042358c 	.word	0x0042358c
  4001a8:	00000000 	.word	0x00000000

004001ac <sysclk_init>:
	pmc_disable_udpck();
}
#endif // CONFIG_USBCLK_SOURCE

void sysclk_init(void)
{
  4001ac:	b510      	push	{r4, lr}
	struct pll_config pllcfg;

	/* Set flash wait state to max in case the below clock switching. */
	system_init_flash(CHIP_FREQ_CPU_MAX);
  4001ae:	4810      	ldr	r0, [pc, #64]	; (4001f0 <sysclk_init+0x44>)
  4001b0:	4b10      	ldr	r3, [pc, #64]	; (4001f4 <sysclk_init+0x48>)
  4001b2:	4798      	blx	r3
		pmc_switch_mainck_to_fastrc(CKGR_MOR_MOSCRCF_12_MHz);
		break;


	case OSC_MAINCK_XTAL:
		pmc_switch_mainck_to_xtal(PMC_OSC_XTAL,
  4001b4:	213e      	movs	r1, #62	; 0x3e
  4001b6:	2000      	movs	r0, #0
  4001b8:	4b0f      	ldr	r3, [pc, #60]	; (4001f8 <sysclk_init+0x4c>)
  4001ba:	4798      	blx	r3
	case OSC_MAINCK_4M_RC:
	case OSC_MAINCK_8M_RC:
	case OSC_MAINCK_12M_RC:
	case OSC_MAINCK_XTAL:
	case OSC_MAINCK_BYPASS:
		return pmc_osc_is_ready_mainck();
  4001bc:	4c0f      	ldr	r4, [pc, #60]	; (4001fc <sysclk_init+0x50>)
  4001be:	47a0      	blx	r4
 *
 * \param id A number identifying the oscillator to wait for.
 */
static inline void osc_wait_ready(uint8_t id)
{
	while (!osc_is_ready(id)) {
  4001c0:	2800      	cmp	r0, #0
  4001c2:	d0fc      	beq.n	4001be <sysclk_init+0x12>
static inline void pll_enable(const struct pll_config *p_cfg, uint32_t ul_pll_id)
{
	Assert(ul_pll_id < NR_PLLS);

	if (ul_pll_id == PLLA_ID) {
		pmc_disable_pllack(); // Always stop PLL first!
  4001c4:	4b0e      	ldr	r3, [pc, #56]	; (400200 <sysclk_init+0x54>)
  4001c6:	4798      	blx	r3
		PMC->CKGR_PLLAR = CKGR_PLLAR_ONE | p_cfg->ctrl;
  4001c8:	4a0e      	ldr	r2, [pc, #56]	; (400204 <sysclk_init+0x58>)
  4001ca:	4b0f      	ldr	r3, [pc, #60]	; (400208 <sysclk_init+0x5c>)
  4001cc:	629a      	str	r2, [r3, #40]	; 0x28
static inline uint32_t pll_is_locked(uint32_t ul_pll_id)
{
	Assert(ul_pll_id < NR_PLLS);

	if (ul_pll_id == PLLA_ID) {
	return pmc_is_locked_pllack();
  4001ce:	4c0f      	ldr	r4, [pc, #60]	; (40020c <sysclk_init+0x60>)
  4001d0:	47a0      	blx	r4
 */
static inline int pll_wait_for_lock(unsigned int pll_id)
{
	Assert(pll_id < NR_PLLS);

	while (!pll_is_locked(pll_id)) {
  4001d2:	2800      	cmp	r0, #0
  4001d4:	d0fc      	beq.n	4001d0 <sysclk_init+0x24>
	else if (CONFIG_SYSCLK_SOURCE == SYSCLK_SRC_PLLACK) {
		pll_enable_source(CONFIG_PLL0_SOURCE);
		pll_config_defaults(&pllcfg, 0);
		pll_enable(&pllcfg, 0);
		pll_wait_for_lock(0);
		pmc_mck_set_division(CONFIG_SYSCLK_DIV);
  4001d6:	2002      	movs	r0, #2
  4001d8:	4b0d      	ldr	r3, [pc, #52]	; (400210 <sysclk_init+0x64>)
  4001da:	4798      	blx	r3
		pmc_switch_mck_to_pllack(CONFIG_SYSCLK_PRES);
  4001dc:	2000      	movs	r0, #0
  4001de:	4b0d      	ldr	r3, [pc, #52]	; (400214 <sysclk_init+0x68>)
  4001e0:	4798      	blx	r3
		pll_wait_for_lock(1);
		pmc_mck_set_division(CONFIG_SYSCLK_DIV);
		pmc_switch_mck_to_upllck(CONFIG_SYSCLK_PRES);
	}
	/* Update the SystemFrequency variable */
	SystemCoreClockUpdate();
  4001e2:	4b0d      	ldr	r3, [pc, #52]	; (400218 <sysclk_init+0x6c>)
  4001e4:	4798      	blx	r3

	/* Set a flash wait state depending on the new cpu frequency */
	system_init_flash(sysclk_get_cpu_hz());
  4001e6:	4802      	ldr	r0, [pc, #8]	; (4001f0 <sysclk_init+0x44>)
  4001e8:	4b02      	ldr	r3, [pc, #8]	; (4001f4 <sysclk_init+0x48>)
  4001ea:	4798      	blx	r3
  4001ec:	bd10      	pop	{r4, pc}
  4001ee:	bf00      	nop
  4001f0:	11e1a300 	.word	0x11e1a300
  4001f4:	00401941 	.word	0x00401941
  4001f8:	004013e1 	.word	0x004013e1
  4001fc:	00401435 	.word	0x00401435
  400200:	00401445 	.word	0x00401445
  400204:	20183f01 	.word	0x20183f01
  400208:	400e0600 	.word	0x400e0600
  40020c:	00401455 	.word	0x00401455
  400210:	00401345 	.word	0x00401345
  400214:	0040137d 	.word	0x0040137d
  400218:	00401835 	.word	0x00401835

0040021c <spi_master_init>:
 *
 * \param p_spi  Base address of the SPI instance.
 *
 */
void spi_master_init(Spi *p_spi)
{
  40021c:	b510      	push	{r4, lr}
  40021e:	4604      	mov	r4, r0
#if SAMG55
	flexcom_enable(BOARD_FLEXCOM_SPI);
	flexcom_set_opmode(BOARD_FLEXCOM_SPI, FLEXCOM_SPI);
#else
	spi_enable_clock(p_spi);
  400220:	4b10      	ldr	r3, [pc, #64]	; (400264 <spi_master_init+0x48>)
  400222:	4798      	blx	r3
 *
 * \param p_spi Pointer to an SPI instance.
 */
static inline void spi_reset(Spi *p_spi)
{
	p_spi->SPI_CR = SPI_CR_SWRST;
  400224:	2380      	movs	r3, #128	; 0x80
  400226:	6023      	str	r3, [r4, #0]
 *
 * \param p_spi Pointer to an SPI instance.
 */
static inline void spi_set_master_mode(Spi *p_spi)
{
	p_spi->SPI_MR |= SPI_MR_MSTR;
  400228:	6863      	ldr	r3, [r4, #4]
  40022a:	f043 0301 	orr.w	r3, r3, #1
  40022e:	6063      	str	r3, [r4, #4]
 *
 * \param p_spi Pointer to an SPI instance.
 */
static inline void spi_disable_mode_fault_detect(Spi *p_spi)
{
	p_spi->SPI_MR |= SPI_MR_MODFDIS;
  400230:	6863      	ldr	r3, [r4, #4]
  400232:	f043 0310 	orr.w	r3, r3, #16
  400236:	6063      	str	r3, [r4, #4]
 *
 * \param p_spi Pointer to an SPI instance.
 */
static inline void spi_disable_loopback(Spi *p_spi)
{
	p_spi->SPI_MR &= (~SPI_MR_LLB);
  400238:	6863      	ldr	r3, [r4, #4]
  40023a:	f023 0380 	bic.w	r3, r3, #128	; 0x80
  40023e:	6063      	str	r3, [r4, #4]
#endif
	spi_reset(p_spi);
	spi_set_master_mode(p_spi);
	spi_disable_mode_fault_detect(p_spi);
	spi_disable_loopback(p_spi);
	spi_set_peripheral_chip_select_value(p_spi, DEFAULT_CHIP_ID);
  400240:	2100      	movs	r1, #0
  400242:	4620      	mov	r0, r4
  400244:	4b08      	ldr	r3, [pc, #32]	; (400268 <spi_master_init+0x4c>)
  400246:	4798      	blx	r3
	p_spi->SPI_MR &= (~SPI_MR_PS);
  400248:	6863      	ldr	r3, [r4, #4]
  40024a:	f023 0302 	bic.w	r3, r3, #2
  40024e:	6063      	str	r3, [r4, #4]
	p_spi->SPI_MR &= (~SPI_MR_PCSDEC);
  400250:	6863      	ldr	r3, [r4, #4]
  400252:	f023 0304 	bic.w	r3, r3, #4
  400256:	6063      	str	r3, [r4, #4]
	spi_set_fixed_peripheral_select(p_spi);
	spi_disable_peripheral_select_decode(p_spi);
	spi_set_delay_between_chip_select(p_spi, CONFIG_SPI_MASTER_DELAY_BCS);
  400258:	2100      	movs	r1, #0
  40025a:	4620      	mov	r0, r4
  40025c:	4b03      	ldr	r3, [pc, #12]	; (40026c <spi_master_init+0x50>)
  40025e:	4798      	blx	r3
  400260:	bd10      	pop	{r4, pc}
  400262:	bf00      	nop
  400264:	004014b9 	.word	0x004014b9
  400268:	004014e5 	.word	0x004014e5
  40026c:	004014fb 	.word	0x004014fb

00400270 <spi_master_setup_device>:
 * \param baud_rate Baud rate for communication with slave device in Hz.
 * \param sel_id    Board specific select id.
 */
void spi_master_setup_device(Spi *p_spi, struct spi_device *device,
		spi_flags_t flags, uint32_t baud_rate, board_spi_select_id_t sel_id)
{
  400270:	e92d 41f0 	stmdb	sp!, {r4, r5, r6, r7, r8, lr}
  400274:	4604      	mov	r4, r0
  400276:	460d      	mov	r5, r1
  400278:	4616      	mov	r6, r2
#if (SAM4L)
    int16_t baud_div = spi_calc_baudrate_div(baud_rate, sysclk_get_pba_hz());
#else
	int16_t baud_div = spi_calc_baudrate_div(baud_rate, sysclk_get_peripheral_hz());
  40027a:	4915      	ldr	r1, [pc, #84]	; (4002d0 <spi_master_setup_device+0x60>)
  40027c:	4618      	mov	r0, r3
  40027e:	4b15      	ldr	r3, [pc, #84]	; (4002d4 <spi_master_setup_device+0x64>)
  400280:	4798      	blx	r3
  400282:	4607      	mov	r7, r0
	/* avoid Cppcheck Warning */
	UNUSED(sel_id);
	if (-1 == baud_div) {
		Assert(0 == "Failed to find baudrate divider");
	}
	spi_set_transfer_delay(p_spi, device->id, CONFIG_SPI_MASTER_DELAY_BS,
  400284:	2301      	movs	r3, #1
  400286:	461a      	mov	r2, r3
  400288:	6829      	ldr	r1, [r5, #0]
  40028a:	4620      	mov	r0, r4
  40028c:	f8df 805c 	ldr.w	r8, [pc, #92]	; 4002ec <spi_master_setup_device+0x7c>
  400290:	47c0      	blx	r8
			CONFIG_SPI_MASTER_DELAY_BCT);
	spi_set_bits_per_transfer(p_spi, device->id,
  400292:	2200      	movs	r2, #0
  400294:	6829      	ldr	r1, [r5, #0]
  400296:	4620      	mov	r0, r4
  400298:	4b0f      	ldr	r3, [pc, #60]	; (4002d8 <spi_master_setup_device+0x68>)
  40029a:	4798      	blx	r3
			CONFIG_SPI_MASTER_BITS_PER_TRANSFER);
	spi_set_baudrate_div(p_spi, device->id, baud_div);
  40029c:	b2fa      	uxtb	r2, r7
  40029e:	6829      	ldr	r1, [r5, #0]
  4002a0:	4620      	mov	r0, r4
  4002a2:	4b0e      	ldr	r3, [pc, #56]	; (4002dc <spi_master_setup_device+0x6c>)
  4002a4:	4798      	blx	r3
	spi_configure_cs_behavior(p_spi, device->id, SPI_CS_KEEP_LOW);
  4002a6:	2208      	movs	r2, #8
  4002a8:	6829      	ldr	r1, [r5, #0]
  4002aa:	4620      	mov	r0, r4
  4002ac:	4b0c      	ldr	r3, [pc, #48]	; (4002e0 <spi_master_setup_device+0x70>)
  4002ae:	4798      	blx	r3
	spi_set_clock_polarity(p_spi, device->id, flags >> 1);
  4002b0:	0872      	lsrs	r2, r6, #1
  4002b2:	6829      	ldr	r1, [r5, #0]
  4002b4:	4620      	mov	r0, r4
  4002b6:	4b0b      	ldr	r3, [pc, #44]	; (4002e4 <spi_master_setup_device+0x74>)
  4002b8:	4798      	blx	r3
	spi_set_clock_phase(p_spi, device->id, ((flags & 0x1) ^ 0x1));
  4002ba:	f086 0201 	eor.w	r2, r6, #1
  4002be:	f002 0201 	and.w	r2, r2, #1
  4002c2:	6829      	ldr	r1, [r5, #0]
  4002c4:	4620      	mov	r0, r4
  4002c6:	4b08      	ldr	r3, [pc, #32]	; (4002e8 <spi_master_setup_device+0x78>)
  4002c8:	4798      	blx	r3
  4002ca:	e8bd 81f0 	ldmia.w	sp!, {r4, r5, r6, r7, r8, pc}
  4002ce:	bf00      	nop
  4002d0:	08f0d180 	.word	0x08f0d180
  4002d4:	004015d7 	.word	0x004015d7
  4002d8:	004015c3 	.word	0x004015c3
  4002dc:	004015ed 	.word	0x004015ed
  4002e0:	0040157d 	.word	0x0040157d
  4002e4:	00401541 	.word	0x00401541
  4002e8:	0040155f 	.word	0x0040155f
  4002ec:	00401615 	.word	0x00401615

004002f0 <spi_select_device>:
 * \param p_spi   Base address of the SPI instance.
 * \param device  SPI device.
 *
 */
void spi_select_device(Spi *p_spi, struct spi_device *device)
{
  4002f0:	b508      	push	{r3, lr}
	if (p_spi->SPI_MR & SPI_MR_PCSDEC) {
  4002f2:	6843      	ldr	r3, [r0, #4]
	if (spi_get_peripheral_select_decode_setting(p_spi)) {
  4002f4:	f013 0f04 	tst.w	r3, #4
  4002f8:	d006      	beq.n	400308 <spi_select_device+0x18>
		if (device->id < MAX_NUM_WITH_DECODER) {
  4002fa:	6809      	ldr	r1, [r1, #0]
  4002fc:	290f      	cmp	r1, #15
  4002fe:	d900      	bls.n	400302 <spi_select_device+0x12>
  400300:	bd08      	pop	{r3, pc}
			spi_set_peripheral_chip_select_value(p_spi, device->id);
  400302:	4b06      	ldr	r3, [pc, #24]	; (40031c <spi_select_device+0x2c>)
  400304:	4798      	blx	r3
  400306:	bd08      	pop	{r3, pc}
		}
	} else {
		if (device->id < MAX_NUM_WITHOUT_DECODER) {
  400308:	6809      	ldr	r1, [r1, #0]
  40030a:	2903      	cmp	r1, #3
  40030c:	d8f8      	bhi.n	400300 <spi_select_device+0x10>
			spi_set_peripheral_chip_select_value(p_spi, (~(1 << device->id)));
  40030e:	2301      	movs	r3, #1
  400310:	fa03 f101 	lsl.w	r1, r3, r1
  400314:	43c9      	mvns	r1, r1
  400316:	4b01      	ldr	r3, [pc, #4]	; (40031c <spi_select_device+0x2c>)
  400318:	4798      	blx	r3
		}
	}
}
  40031a:	e7f1      	b.n	400300 <spi_select_device+0x10>
  40031c:	004014e5 	.word	0x004014e5

00400320 <spi_write_packet>:
{
	uint32_t timeout = SPI_TIMEOUT;
	uint32_t i = 0;
	uint8_t val;

	while (len) {
  400320:	b11a      	cbz	r2, 40032a <spi_write_packet+0xa>
{
  400322:	b410      	push	{r4}
  400324:	460c      	mov	r4, r1
  400326:	4411      	add	r1, r2
  400328:	e006      	b.n	400338 <spi_write_packet+0x18>
		spi_write_single(p_spi, val);
		i++;
		len--;
	}

	return STATUS_OK;
  40032a:	2000      	movs	r0, #0
  40032c:	4770      	bx	lr
		val = data[i];
  40032e:	f814 3b01 	ldrb.w	r3, [r4], #1
 * \param data The data byte to be loaded
 *
 */
static inline void spi_put(Spi *p_spi, uint16_t data)
{
	p_spi->SPI_TDR = SPI_TDR_TD(data);
  400332:	60c3      	str	r3, [r0, #12]
	while (len) {
  400334:	42a1      	cmp	r1, r4
  400336:	d00c      	beq.n	400352 <spi_write_packet+0x32>
{
  400338:	f643 2399 	movw	r3, #15001	; 0x3a99
 * \retval 1 if transmissions are complete.
 * \retval 0 if transmissions are not complete.
 */
static inline uint32_t spi_is_tx_ready(Spi *p_spi)
{
	if (p_spi->SPI_SR & SPI_SR_TDRE) {
  40033c:	6902      	ldr	r2, [r0, #16]
		while (!spi_is_tx_ready(p_spi)) {
  40033e:	f012 0f02 	tst.w	r2, #2
  400342:	d1f4      	bne.n	40032e <spi_write_packet+0xe>
			if (!timeout--) {
  400344:	3b01      	subs	r3, #1
  400346:	d1f9      	bne.n	40033c <spi_write_packet+0x1c>
				return ERR_TIMEOUT;
  400348:	f06f 0002 	mvn.w	r0, #2
}
  40034c:	f85d 4b04 	ldr.w	r4, [sp], #4
  400350:	4770      	bx	lr
	return STATUS_OK;
  400352:	2000      	movs	r0, #0
  400354:	e7fa      	b.n	40034c <spi_write_packet+0x2c>

00400356 <spi_read_packet>:
{
	uint32_t timeout = SPI_TIMEOUT;
	uint8_t val;
	uint32_t i = 0;

	while (len) {
  400356:	b13a      	cbz	r2, 400368 <spi_read_packet+0x12>
{
  400358:	b470      	push	{r4, r5, r6}
  40035a:	4615      	mov	r5, r2
  40035c:	460c      	mov	r4, r1
  40035e:	440d      	add	r5, r1
	p_spi->SPI_TDR = SPI_TDR_TD(data);
  400360:	26ff      	movs	r6, #255	; 0xff
 *
 * \return 1 if the SPI Receiver is ready, otherwise 0.
 */
static inline uint32_t spi_is_rx_ready(Spi *p_spi)
{
	if ((p_spi->SPI_SR & (SPI_SR_RDRF | SPI_SR_TXEMPTY))
  400362:	f240 2101 	movw	r1, #513	; 0x201
  400366:	e012      	b.n	40038e <spi_read_packet+0x38>
		data[i] = val;
		i++;
		len--;
	}

	return STATUS_OK;
  400368:	2000      	movs	r0, #0
  40036a:	4770      	bx	lr
	p_spi->SPI_TDR = SPI_TDR_TD(data);
  40036c:	60c6      	str	r6, [r0, #12]
		while (!spi_is_rx_ready(p_spi)) {
  40036e:	f643 2399 	movw	r3, #15001	; 0x3a99
	if ((p_spi->SPI_SR & (SPI_SR_RDRF | SPI_SR_TXEMPTY))
  400372:	6902      	ldr	r2, [r0, #16]
  400374:	ea31 0202 	bics.w	r2, r1, r2
  400378:	d004      	beq.n	400384 <spi_read_packet+0x2e>
			if (!timeout--) {
  40037a:	3b01      	subs	r3, #1
  40037c:	d1f9      	bne.n	400372 <spi_read_packet+0x1c>
				return ERR_TIMEOUT;
  40037e:	f06f 0002 	mvn.w	r0, #2
  400382:	e00e      	b.n	4003a2 <spi_read_packet+0x4c>
	return (p_spi->SPI_RDR & SPI_RDR_RD_Msk);
  400384:	6883      	ldr	r3, [r0, #8]
 * \param data      Data to read.
 *
 */
static inline void spi_read_single(Spi *p_spi, uint8_t *data)
{
	*data = (uint8_t)spi_get(p_spi);
  400386:	f804 3b01 	strb.w	r3, [r4], #1
	while (len) {
  40038a:	42a5      	cmp	r5, r4
  40038c:	d00b      	beq.n	4003a6 <spi_read_packet+0x50>
{
  40038e:	f643 2399 	movw	r3, #15001	; 0x3a99
	if (p_spi->SPI_SR & SPI_SR_TDRE) {
  400392:	6902      	ldr	r2, [r0, #16]
		while (!spi_is_tx_ready(p_spi)) {
  400394:	f012 0f02 	tst.w	r2, #2
  400398:	d1e8      	bne.n	40036c <spi_read_packet+0x16>
			if (!timeout--) {
  40039a:	3b01      	subs	r3, #1
  40039c:	d1f9      	bne.n	400392 <spi_read_packet+0x3c>
				return ERR_TIMEOUT;
  40039e:	f06f 0002 	mvn.w	r0, #2
}
  4003a2:	bc70      	pop	{r4, r5, r6}
  4003a4:	4770      	bx	lr
	return STATUS_OK;
  4003a6:	2000      	movs	r0, #0
  4003a8:	e7fb      	b.n	4003a2 <spi_read_packet+0x4c>
	...

004003ac <_read>:
int __attribute__((weak))
_read (int file, char * ptr, int len); // Remove GCC compiler warning

int __attribute__((weak))
_read (int file, char * ptr, int len)
{
  4003ac:	e92d 41f0 	stmdb	sp!, {r4, r5, r6, r7, r8, lr}
	int nChars = 0;

	if (file != 0) {
  4003b0:	b980      	cbnz	r0, 4003d4 <_read+0x28>
  4003b2:	460c      	mov	r4, r1
  4003b4:	4690      	mov	r8, r2
		return -1;
	}

	for (; len > 0; --len) {
  4003b6:	2a00      	cmp	r2, #0
  4003b8:	dd0f      	ble.n	4003da <_read+0x2e>
  4003ba:	188f      	adds	r7, r1, r2
		ptr_get(stdio_base, ptr);
  4003bc:	4e08      	ldr	r6, [pc, #32]	; (4003e0 <_read+0x34>)
  4003be:	4d09      	ldr	r5, [pc, #36]	; (4003e4 <_read+0x38>)
  4003c0:	6830      	ldr	r0, [r6, #0]
  4003c2:	4621      	mov	r1, r4
  4003c4:	682b      	ldr	r3, [r5, #0]
  4003c6:	4798      	blx	r3
		ptr++;
  4003c8:	3401      	adds	r4, #1
	for (; len > 0; --len) {
  4003ca:	42bc      	cmp	r4, r7
  4003cc:	d1f8      	bne.n	4003c0 <_read+0x14>
		nChars++;
	}
	return nChars;
}
  4003ce:	4640      	mov	r0, r8
  4003d0:	e8bd 81f0 	ldmia.w	sp!, {r4, r5, r6, r7, r8, pc}
		return -1;
  4003d4:	f04f 38ff 	mov.w	r8, #4294967295
  4003d8:	e7f9      	b.n	4003ce <_read+0x22>
	for (; len > 0; --len) {
  4003da:	4680      	mov	r8, r0
  4003dc:	e7f7      	b.n	4003ce <_read+0x22>
  4003de:	bf00      	nop
  4003e0:	20400ee8 	.word	0x20400ee8
  4003e4:	20400ee0 	.word	0x20400ee0

004003e8 <_write>:
int __attribute__((weak))
_write (int file, const char *ptr, int len)
{
	int nChars = 0;

	if ((file != 1) && (file != 2) && (file!=3)) {
  4003e8:	3801      	subs	r0, #1
  4003ea:	2802      	cmp	r0, #2
  4003ec:	d815      	bhi.n	40041a <_write+0x32>
{
  4003ee:	e92d 41f0 	stmdb	sp!, {r4, r5, r6, r7, r8, lr}
  4003f2:	460e      	mov	r6, r1
  4003f4:	4614      	mov	r4, r2
		return -1;
	}

	for (; len != 0; --len) {
  4003f6:	b19a      	cbz	r2, 400420 <_write+0x38>
  4003f8:	460d      	mov	r5, r1
		if (ptr_put(stdio_base, *ptr++) < 0) {
  4003fa:	f8df 8038 	ldr.w	r8, [pc, #56]	; 400434 <_write+0x4c>
  4003fe:	4f0c      	ldr	r7, [pc, #48]	; (400430 <_write+0x48>)
  400400:	f8d8 0000 	ldr.w	r0, [r8]
  400404:	f815 1b01 	ldrb.w	r1, [r5], #1
  400408:	683b      	ldr	r3, [r7, #0]
  40040a:	4798      	blx	r3
  40040c:	2800      	cmp	r0, #0
  40040e:	db0a      	blt.n	400426 <_write+0x3e>
  400410:	1ba8      	subs	r0, r5, r6
	for (; len != 0; --len) {
  400412:	3c01      	subs	r4, #1
  400414:	d1f4      	bne.n	400400 <_write+0x18>
  400416:	e8bd 81f0 	ldmia.w	sp!, {r4, r5, r6, r7, r8, pc}
		return -1;
  40041a:	f04f 30ff 	mov.w	r0, #4294967295
  40041e:	4770      	bx	lr
	for (; len != 0; --len) {
  400420:	4610      	mov	r0, r2
  400422:	e8bd 81f0 	ldmia.w	sp!, {r4, r5, r6, r7, r8, pc}
			return -1;
  400426:	f04f 30ff 	mov.w	r0, #4294967295
		}
		++nChars;
	}
	return nChars;
}
  40042a:	e8bd 81f0 	ldmia.w	sp!, {r4, r5, r6, r7, r8, pc}
  40042e:	bf00      	nop
  400430:	20400ee4 	.word	0x20400ee4
  400434:	20400ee8 	.word	0x20400ee8

00400438 <board_init>:
	__ISB();
}
#endif

void board_init(void)
{
  400438:	e92d 41f0 	stmdb	sp!, {r4, r5, r6, r7, r8, lr}
#ifndef CONF_BOARD_KEEP_WATCHDOG_AT_INIT
	/* Disable the watchdog */
	WDT->WDT_MR = WDT_MR_WDDIS;
  40043c:	f44f 4200 	mov.w	r2, #32768	; 0x8000
  400440:	4b9e      	ldr	r3, [pc, #632]	; (4006bc <board_init+0x284>)
  400442:	605a      	str	r2, [r3, #4]
    This function acts as a special kind of Data Memory Barrier.
    It completes when all explicit memory accesses before this instruction complete.
 */
__attribute__( ( always_inline ) ) __STATIC_INLINE void __DSB(void)
{
  __ASM volatile ("dsb");
  400444:	f3bf 8f4f 	dsb	sy
  __ASM volatile ("isb");
  400448:	f3bf 8f6f 	isb	sy
__STATIC_INLINE void SCB_EnableICache(void)
{
  #if (__ICACHE_PRESENT == 1)
    __DSB();
    __ISB();
    SCB->ICIALLU = 0;                       // invalidate I-Cache
  40044c:	4b9c      	ldr	r3, [pc, #624]	; (4006c0 <board_init+0x288>)
  40044e:	2200      	movs	r2, #0
  400450:	f8c3 2250 	str.w	r2, [r3, #592]	; 0x250
    SCB->CCR |=  SCB_CCR_IC_Msk;            // enable I-Cache
  400454:	695a      	ldr	r2, [r3, #20]
  400456:	f442 3200 	orr.w	r2, r2, #131072	; 0x20000
  40045a:	615a      	str	r2, [r3, #20]
  __ASM volatile ("dsb");
  40045c:	f3bf 8f4f 	dsb	sy
  __ASM volatile ("isb");
  400460:	f3bf 8f6f 	isb	sy
{
  #if (__DCACHE_PRESENT == 1)
    uint32_t ccsidr, sshift, wshift, sw;
    uint32_t sets, ways;

    ccsidr  = SCB->CCSIDR;
  400464:	f8d3 7080 	ldr.w	r7, [r3, #128]	; 0x80
    sets    = CCSIDR_SETS(ccsidr);
  400468:	f3c7 364e 	ubfx	r6, r7, #13, #15
    sshift  = CCSIDR_LSSHIFT(ccsidr) + 4;
  40046c:	f007 0007 	and.w	r0, r7, #7
  400470:	3004      	adds	r0, #4
    ways    = CCSIDR_WAYS(ccsidr);
  400472:	f3c7 07c9 	ubfx	r7, r7, #3, #10
 */
__attribute__( ( always_inline ) ) __STATIC_INLINE uint8_t __CLZ(uint32_t value)
{
  uint32_t result;

  __ASM volatile ("clz %0, %1" : "=r" (result) : "r" (value) );
  400476:	fab7 fe87 	clz	lr, r7
    wshift  = __CLZ(ways) & 0x1f;
  40047a:	f00e 0e1f 	and.w	lr, lr, #31
  __ASM volatile ("dsb");
  40047e:	f3bf 8f4f 	dsb	sy
  400482:	f04f 34ff 	mov.w	r4, #4294967295
  400486:	fa04 fc00 	lsl.w	ip, r4, r0
  40048a:	fa06 f000 	lsl.w	r0, r6, r0
  40048e:	fa04 f40e 	lsl.w	r4, r4, lr
  400492:	fa07 fe0e 	lsl.w	lr, r7, lr

    do {                                    // invalidate D-Cache
         int32_t tmpways = ways;
         do {
              sw = ((tmpways << wshift) | (sets << sshift));
              SCB->DCISW = sw;
  400496:	461d      	mov	r5, r3
         int32_t tmpways = ways;
  400498:	463a      	mov	r2, r7
  40049a:	4673      	mov	r3, lr
              sw = ((tmpways << wshift) | (sets << sshift));
  40049c:	ea40 0103 	orr.w	r1, r0, r3
              SCB->DCISW = sw;
  4004a0:	f8c5 1260 	str.w	r1, [r5, #608]	; 0x260
            } while(tmpways--);
  4004a4:	3a01      	subs	r2, #1
  4004a6:	4423      	add	r3, r4
  4004a8:	f1b2 3fff 	cmp.w	r2, #4294967295
  4004ac:	d1f6      	bne.n	40049c <board_init+0x64>
        } while(sets--);
  4004ae:	3e01      	subs	r6, #1
  4004b0:	4460      	add	r0, ip
  4004b2:	f1b6 3fff 	cmp.w	r6, #4294967295
  4004b6:	d1ef      	bne.n	400498 <board_init+0x60>
  4004b8:	f3bf 8f4f 	dsb	sy
    __DSB();

    SCB->CCR |=  SCB_CCR_DC_Msk;            // enable D-Cache
  4004bc:	4b80      	ldr	r3, [pc, #512]	; (4006c0 <board_init+0x288>)
  4004be:	695a      	ldr	r2, [r3, #20]
  4004c0:	f442 3280 	orr.w	r2, r2, #65536	; 0x10000
  4004c4:	615a      	str	r2, [r3, #20]
  4004c6:	f3bf 8f4f 	dsb	sy
  __ASM volatile ("isb");
  4004ca:	f3bf 8f6f 	isb	sy
		*dst++ = *src++;
	}
#endif
#else
	/* TCM Configuration */
	EFC->EEFC_FCR = (EEFC_FCR_FKEY_PASSWD | EEFC_FCR_FCMD_CGPB 
  4004ce:	4a7d      	ldr	r2, [pc, #500]	; (4006c4 <board_init+0x28c>)
  4004d0:	497d      	ldr	r1, [pc, #500]	; (4006c8 <board_init+0x290>)
  4004d2:	6051      	str	r1, [r2, #4]
					| EEFC_FCR_FARG(8));
	EFC->EEFC_FCR = (EEFC_FCR_FKEY_PASSWD | EEFC_FCR_FCMD_CGPB 
  4004d4:	f5a1 7180 	sub.w	r1, r1, #256	; 0x100
  4004d8:	6051      	str	r1, [r2, #4]
  __ASM volatile ("dsb");
  4004da:	f3bf 8f4f 	dsb	sy
  __ASM volatile ("isb");
  4004de:	f3bf 8f6f 	isb	sy
	SCB->ITCMCR &= ~(uint32_t)(1UL);
  4004e2:	f8d3 2290 	ldr.w	r2, [r3, #656]	; 0x290
  4004e6:	f022 0201 	bic.w	r2, r2, #1
  4004ea:	f8c3 2290 	str.w	r2, [r3, #656]	; 0x290
	SCB->DTCMCR &= ~(uint32_t)SCB_DTCMCR_EN_Msk;
  4004ee:	f8d3 2294 	ldr.w	r2, [r3, #660]	; 0x294
  4004f2:	f022 0201 	bic.w	r2, r2, #1
  4004f6:	f8c3 2294 	str.w	r2, [r3, #660]	; 0x294
  __ASM volatile ("dsb");
  4004fa:	f3bf 8f4f 	dsb	sy
  __ASM volatile ("isb");
  4004fe:	f3bf 8f6f 	isb	sy
 *
 * \param ul_id Id (number) of the peripheral clock.
 */
static inline void sysclk_enable_peripheral_clock(uint32_t ul_id)
{
	pmc_enable_periph_clk(ul_id);
  400502:	200a      	movs	r0, #10
  400504:	4c71      	ldr	r4, [pc, #452]	; (4006cc <board_init+0x294>)
  400506:	47a0      	blx	r4
  400508:	200b      	movs	r0, #11
  40050a:	47a0      	blx	r4
  40050c:	200c      	movs	r0, #12
  40050e:	47a0      	blx	r4
  400510:	2010      	movs	r0, #16
  400512:	47a0      	blx	r4
  400514:	2011      	movs	r0, #17
  400516:	47a0      	blx	r4
		enum ioport_direction dir)
{
	Pio *base = arch_ioport_pin_to_base(pin);

	if (dir == IOPORT_DIR_OUTPUT) {
		base->PIO_OER = arch_ioport_pin_to_mask(pin);
  400518:	4e6d      	ldr	r6, [pc, #436]	; (4006d0 <board_init+0x298>)
  40051a:	f44f 7880 	mov.w	r8, #256	; 0x100
  40051e:	f8c6 8010 	str.w	r8, [r6, #16]
	} else if (dir == IOPORT_DIR_INPUT) {
		base->PIO_ODR = arch_ioport_pin_to_mask(pin);
	}

	base->PIO_OWER = arch_ioport_pin_to_mask(pin);
  400522:	f8c6 80a0 	str.w	r8, [r6, #160]	; 0xa0
		bool level)
{
	Pio *base = arch_ioport_pin_to_base(pin);

	if (level) {
		base->PIO_SODR = arch_ioport_pin_to_mask(pin);
  400526:	f8c6 8030 	str.w	r8, [r6, #48]	; 0x30
		base->PIO_ODR = arch_ioport_pin_to_mask(pin);
  40052a:	4c6a      	ldr	r4, [pc, #424]	; (4006d4 <board_init+0x29c>)
  40052c:	f44f 6500 	mov.w	r5, #2048	; 0x800
  400530:	6165      	str	r5, [r4, #20]
	base->PIO_OWER = arch_ioport_pin_to_mask(pin);
  400532:	f8c4 50a0 	str.w	r5, [r4, #160]	; 0xa0
		base->PIO_PUER = mask;
  400536:	6665      	str	r5, [r4, #100]	; 0x64
		base->PIO_PPDDR = mask;
  400538:	f8c4 5090 	str.w	r5, [r4, #144]	; 0x90
		base->PIO_MDDR = mask;
  40053c:	6565      	str	r5, [r4, #84]	; 0x54
		base->PIO_IFER = mask;
  40053e:	6225      	str	r5, [r4, #32]
		base->PIO_IFSCER = mask;
  400540:	f8c4 5084 	str.w	r5, [r4, #132]	; 0x84
		base->PIO_ABCDSR[0] &= ~mask;
  400544:	6f23      	ldr	r3, [r4, #112]	; 0x70
  400546:	f423 6300 	bic.w	r3, r3, #2048	; 0x800
  40054a:	6723      	str	r3, [r4, #112]	; 0x70
		base->PIO_ABCDSR[1] &= ~mask;
  40054c:	6f63      	ldr	r3, [r4, #116]	; 0x74
  40054e:	f423 6300 	bic.w	r3, r3, #2048	; 0x800
  400552:	6763      	str	r3, [r4, #116]	; 0x74
	case IOPORT_SENSE_FALLING:
		base->PIO_ESR = mask;
		base->PIO_FELLSR = mask;
		break;
	case IOPORT_SENSE_RISING:
		base->PIO_ESR = mask;
  400554:	f8c4 50c0 	str.w	r5, [r4, #192]	; 0xc0
		base->PIO_REHLSR = mask;
  400558:	f8c4 50d4 	str.w	r5, [r4, #212]	; 0xd4
		break;
	default:
		base->PIO_AIMDR = mask;
		return;
	}
	base->PIO_AIMER = mask;
  40055c:	f8c4 50b0 	str.w	r5, [r4, #176]	; 0xb0
		base->PIO_PUDR = mask;
  400560:	f44f 1300 	mov.w	r3, #2097152	; 0x200000
  400564:	6623      	str	r3, [r4, #96]	; 0x60
		base->PIO_PPDDR = mask;
  400566:	f8c4 3090 	str.w	r3, [r4, #144]	; 0x90
		base->PIO_MDDR = mask;
  40056a:	6563      	str	r3, [r4, #84]	; 0x54
		base->PIO_IFDR = mask;
  40056c:	6263      	str	r3, [r4, #36]	; 0x24
		base->PIO_IFSCDR = mask;
  40056e:	f8c4 3080 	str.w	r3, [r4, #128]	; 0x80
		base->PIO_ABCDSR[0] &= ~mask;
  400572:	6f22      	ldr	r2, [r4, #112]	; 0x70
  400574:	f422 1200 	bic.w	r2, r2, #2097152	; 0x200000
  400578:	6722      	str	r2, [r4, #112]	; 0x70
		base->PIO_ABCDSR[1] &= ~mask;
  40057a:	6f62      	ldr	r2, [r4, #116]	; 0x74
  40057c:	f422 1200 	bic.w	r2, r2, #2097152	; 0x200000
  400580:	6762      	str	r2, [r4, #116]	; 0x74
	arch_ioport_port_to_base(port)->PIO_PDR = mask;
  400582:	6063      	str	r3, [r4, #4]
			GPIO_PUSH_BUTTON_1_SENSE);

#ifdef CONF_BOARD_UART_CONSOLE
	/* Configure UART pins */
	ioport_set_pin_peripheral_mode(USART1_RXD_GPIO, USART1_RXD_FLAGS);
	MATRIX->CCFG_SYSIO |= CCFG_SYSIO_SYSIO4;
  400584:	4a54      	ldr	r2, [pc, #336]	; (4006d8 <board_init+0x2a0>)
  400586:	f8d2 3114 	ldr.w	r3, [r2, #276]	; 0x114
  40058a:	f043 0310 	orr.w	r3, r3, #16
  40058e:	f8c2 3114 	str.w	r3, [r2, #276]	; 0x114
		base->PIO_PUDR = mask;
  400592:	f502 22b2 	add.w	r2, r2, #364544	; 0x59000
  400596:	2310      	movs	r3, #16
  400598:	6613      	str	r3, [r2, #96]	; 0x60
		base->PIO_PPDDR = mask;
  40059a:	f8c2 3090 	str.w	r3, [r2, #144]	; 0x90
		base->PIO_MDDR = mask;
  40059e:	6553      	str	r3, [r2, #84]	; 0x54
		base->PIO_IFDR = mask;
  4005a0:	6253      	str	r3, [r2, #36]	; 0x24
		base->PIO_IFSCDR = mask;
  4005a2:	f8c2 3080 	str.w	r3, [r2, #128]	; 0x80
		base->PIO_ABCDSR[0] |= mask;
  4005a6:	6f11      	ldr	r1, [r2, #112]	; 0x70
  4005a8:	4319      	orrs	r1, r3
  4005aa:	6711      	str	r1, [r2, #112]	; 0x70
		base->PIO_ABCDSR[1] |= mask;
  4005ac:	6f51      	ldr	r1, [r2, #116]	; 0x74
  4005ae:	4319      	orrs	r1, r3
  4005b0:	6751      	str	r1, [r2, #116]	; 0x74
	arch_ioport_port_to_base(port)->PIO_PDR = mask;
  4005b2:	6053      	str	r3, [r2, #4]
		base->PIO_PUDR = mask;
  4005b4:	2208      	movs	r2, #8
  4005b6:	6622      	str	r2, [r4, #96]	; 0x60
		base->PIO_PPDDR = mask;
  4005b8:	f8c4 2090 	str.w	r2, [r4, #144]	; 0x90
		base->PIO_MDDR = mask;
  4005bc:	6562      	str	r2, [r4, #84]	; 0x54
		base->PIO_IFDR = mask;
  4005be:	6262      	str	r2, [r4, #36]	; 0x24
		base->PIO_IFSCDR = mask;
  4005c0:	f8c4 2080 	str.w	r2, [r4, #128]	; 0x80
		base->PIO_ABCDSR[0] &= ~mask;
  4005c4:	6f21      	ldr	r1, [r4, #112]	; 0x70
  4005c6:	f021 0108 	bic.w	r1, r1, #8
  4005ca:	6721      	str	r1, [r4, #112]	; 0x70
		base->PIO_ABCDSR[1] &= ~mask;
  4005cc:	6f61      	ldr	r1, [r4, #116]	; 0x74
  4005ce:	f021 0108 	bic.w	r1, r1, #8
  4005d2:	6761      	str	r1, [r4, #116]	; 0x74
	arch_ioport_port_to_base(port)->PIO_PDR = mask;
  4005d4:	6062      	str	r2, [r4, #4]
		base->PIO_PUDR = mask;
  4005d6:	6623      	str	r3, [r4, #96]	; 0x60
		base->PIO_PPDDR = mask;
  4005d8:	f8c4 3090 	str.w	r3, [r4, #144]	; 0x90
		base->PIO_MDDR = mask;
  4005dc:	6563      	str	r3, [r4, #84]	; 0x54
		base->PIO_IFDR = mask;
  4005de:	6263      	str	r3, [r4, #36]	; 0x24
		base->PIO_IFSCDR = mask;
  4005e0:	f8c4 3080 	str.w	r3, [r4, #128]	; 0x80
		base->PIO_ABCDSR[0] &= ~mask;
  4005e4:	6f22      	ldr	r2, [r4, #112]	; 0x70
  4005e6:	f022 0210 	bic.w	r2, r2, #16
  4005ea:	6722      	str	r2, [r4, #112]	; 0x70
		base->PIO_ABCDSR[1] &= ~mask;
  4005ec:	6f62      	ldr	r2, [r4, #116]	; 0x74
  4005ee:	f022 0210 	bic.w	r2, r2, #16
  4005f2:	6762      	str	r2, [r4, #116]	; 0x74
	arch_ioport_port_to_base(port)->PIO_PDR = mask;
  4005f4:	6063      	str	r3, [r4, #4]
	ioport_set_pin_mode(SD_MMC_0_CD_GPIO, SD_MMC_0_CD_FLAGS);
#endif

#ifdef CONF_BOARD_ILI9488
	/**LCD pin configure on EBI*/
	pio_configure(PIN_EBI_RESET_PIO, PIN_EBI_RESET_TYPE, PIN_EBI_RESET_MASK, PIN_EBI_RESET_ATTRI);
  4005f6:	2300      	movs	r3, #0
  4005f8:	f44f 5200 	mov.w	r2, #8192	; 0x2000
  4005fc:	f04f 5160 	mov.w	r1, #939524096	; 0x38000000
  400600:	4630      	mov	r0, r6
  400602:	4f36      	ldr	r7, [pc, #216]	; (4006dc <board_init+0x2a4>)
  400604:	47b8      	blx	r7
	pio_configure(PIN_EBI_CDS_PIO, PIN_EBI_CDS_TYPE, PIN_EBI_CDS_MASK, PIN_EBI_CDS_ATTRI);
  400606:	2300      	movs	r3, #0
  400608:	f04f 4280 	mov.w	r2, #1073741824	; 0x40000000
  40060c:	f04f 5160 	mov.w	r1, #939524096	; 0x38000000
  400610:	4630      	mov	r0, r6
  400612:	47b8      	blx	r7
	pio_configure(PIN_EBI_DATAL_PIO, PIN_EBI_DATAL_TYPE, PIN_EBI_DATAL_MASK, PIN_EBI_DATAL_ATTRI);
  400614:	2301      	movs	r3, #1
  400616:	22ff      	movs	r2, #255	; 0xff
  400618:	f04f 6100 	mov.w	r1, #134217728	; 0x8000000
  40061c:	4630      	mov	r0, r6
  40061e:	47b8      	blx	r7
	pio_configure(PIN_EBI_DATAH_0_PIO, PIN_EBI_DATAH_0_TYPE, PIN_EBI_DATAH_0_MASK, PIN_EBI_DATAH_0_ATTRI);
  400620:	2301      	movs	r3, #1
  400622:	223f      	movs	r2, #63	; 0x3f
  400624:	f04f 6100 	mov.w	r1, #134217728	; 0x8000000
  400628:	482d      	ldr	r0, [pc, #180]	; (4006e0 <board_init+0x2a8>)
  40062a:	47b8      	blx	r7
	pio_configure(PIN_EBI_DATAH_1_PIO, PIN_EBI_DATAH_1_TYPE, PIN_EBI_DATAH_1_MASK, PIN_EBI_DATAH_1_ATTRI);
  40062c:	2301      	movs	r3, #1
  40062e:	f44f 32c0 	mov.w	r2, #98304	; 0x18000
  400632:	f04f 6100 	mov.w	r1, #134217728	; 0x8000000
  400636:	4620      	mov	r0, r4
  400638:	47b8      	blx	r7
	pio_configure(PIN_EBI_NWE_PIO, PIN_EBI_NWE_TYPE, PIN_EBI_NWE_MASK, PIN_EBI_NWE_ATTRI);
  40063a:	2301      	movs	r3, #1
  40063c:	4642      	mov	r2, r8
  40063e:	f04f 6100 	mov.w	r1, #134217728	; 0x8000000
  400642:	4630      	mov	r0, r6
  400644:	47b8      	blx	r7
	pio_configure(PIN_EBI_NRD_PIO, PIN_EBI_NRD_TYPE, PIN_EBI_NRD_MASK, PIN_EBI_NRD_ATTRI);
  400646:	2301      	movs	r3, #1
  400648:	462a      	mov	r2, r5
  40064a:	f04f 6100 	mov.w	r1, #134217728	; 0x8000000
  40064e:	4630      	mov	r0, r6
  400650:	47b8      	blx	r7
	pio_configure(PIN_EBI_CS_PIO, PIN_EBI_CS_TYPE, PIN_EBI_CS_MASK, PIN_EBI_CS_ATTRI);
  400652:	2301      	movs	r3, #1
  400654:	f44f 2200 	mov.w	r2, #524288	; 0x80000
  400658:	f04f 6100 	mov.w	r1, #134217728	; 0x8000000
  40065c:	4821      	ldr	r0, [pc, #132]	; (4006e4 <board_init+0x2ac>)
  40065e:	47b8      	blx	r7
	pio_configure(PIN_EBI_BACKLIGHT_PIO, PIN_EBI_BACKLIGHT_TYPE, PIN_EBI_BACKLIGHT_MASK, PIN_EBI_BACKLIGHT_ATTRI);
  400660:	2300      	movs	r3, #0
  400662:	f44f 7200 	mov.w	r2, #512	; 0x200
  400666:	f04f 5180 	mov.w	r1, #268435456	; 0x10000000
  40066a:	4630      	mov	r0, r6
  40066c:	47b8      	blx	r7
	pio_set(PIN_EBI_BACKLIGHT_PIO, PIN_EBI_BACKLIGHT_MASK);
  40066e:	f44f 7100 	mov.w	r1, #512	; 0x200
  400672:	4630      	mov	r0, r6
  400674:	4b1c      	ldr	r3, [pc, #112]	; (4006e8 <board_init+0x2b0>)
  400676:	4798      	blx	r3
	MATRIX->CCFG_SMCNFCS = CCFG_SMCNFCS_SDRAMEN;
#endif

#ifdef CONF_BOARD_ILI9488
	/**LCD pin configure on SPI*/
	pio_configure_pin(LCD_SPI_MISO_PIO, LCD_SPI_MISO_FLAGS);
  400678:	f04f 5180 	mov.w	r1, #268435456	; 0x10000000
  40067c:	2074      	movs	r0, #116	; 0x74
  40067e:	4c1b      	ldr	r4, [pc, #108]	; (4006ec <board_init+0x2b4>)
  400680:	47a0      	blx	r4
	pio_configure_pin(LCD_SPI_MOSI_PIO, LCD_SPI_MOSI_FLAGS);
  400682:	f04f 5180 	mov.w	r1, #268435456	; 0x10000000
  400686:	2075      	movs	r0, #117	; 0x75
  400688:	47a0      	blx	r4
	pio_configure_pin(LCD_SPI_SPCK_PIO, LCD_SPI_SPCK_FLAGS);
  40068a:	f04f 5180 	mov.w	r1, #268435456	; 0x10000000
  40068e:	2076      	movs	r0, #118	; 0x76
  400690:	47a0      	blx	r4
	pio_configure_pin(LCD_SPI_NPCS_PIO, LCD_SPI_NPCS_FLAGS);
  400692:	f04f 5180 	mov.w	r1, #268435456	; 0x10000000
  400696:	207b      	movs	r0, #123	; 0x7b
  400698:	47a0      	blx	r4
	pio_configure_pin(LCD_SPI_RESET_PIO, LCD_SPI_RESET_FLAGS);
  40069a:	f04f 5160 	mov.w	r1, #939524096	; 0x38000000
  40069e:	2018      	movs	r0, #24
  4006a0:	47a0      	blx	r4
	pio_configure_pin(LCD_SPI_CDS_PIO, LCD_SPI_CDS_FLAGS);
  4006a2:	f04f 5160 	mov.w	r1, #939524096	; 0x38000000
  4006a6:	2006      	movs	r0, #6
  4006a8:	47a0      	blx	r4
	pio_configure_pin(LCD_SPI_BACKLIGHT_PIO, LCD_SPI_BACKLIGHT_FLAGS);
  4006aa:	f04f 5160 	mov.w	r1, #939524096	; 0x38000000
  4006ae:	2053      	movs	r0, #83	; 0x53
  4006b0:	47a0      	blx	r4
	pio_set_pin_high(LCD_SPI_BACKLIGHT_PIO);
  4006b2:	2053      	movs	r0, #83	; 0x53
  4006b4:	4b0e      	ldr	r3, [pc, #56]	; (4006f0 <board_init+0x2b8>)
  4006b6:	4798      	blx	r3
  4006b8:	e8bd 81f0 	ldmia.w	sp!, {r4, r5, r6, r7, r8, pc}
  4006bc:	400e1850 	.word	0x400e1850
  4006c0:	e000ed00 	.word	0xe000ed00
  4006c4:	400e0c00 	.word	0x400e0c00
  4006c8:	5a00080c 	.word	0x5a00080c
  4006cc:	00401465 	.word	0x00401465
  4006d0:	400e1200 	.word	0x400e1200
  4006d4:	400e0e00 	.word	0x400e0e00
  4006d8:	40088000 	.word	0x40088000
  4006dc:	00401091 	.word	0x00401091
  4006e0:	400e1600 	.word	0x400e1600
  4006e4:	400e1400 	.word	0x400e1400
  4006e8:	00400f9d 	.word	0x00400f9d
  4006ec:	00401161 	.word	0x00401161
  4006f0:	00401129 	.word	0x00401129

004006f4 <ili9488_check_box_coordinates>:
 * \param p_ul_x2 X coordinate of lower-right corner on LCD.
 * \param p_ul_y2 Y coordinate of lower-right corner on LCD.
 */
static void ili9488_check_box_coordinates(uint32_t *p_ul_x1, uint32_t *p_ul_y1,
		uint32_t *p_ul_x2, uint32_t *p_ul_y2)
{
  4006f4:	b430      	push	{r4, r5}
	uint32_t dw;

	if (*p_ul_x1 >= ILI9488_LCD_WIDTH) {
  4006f6:	6804      	ldr	r4, [r0, #0]
  4006f8:	f5b4 7fa0 	cmp.w	r4, #320	; 0x140
  4006fc:	d302      	bcc.n	400704 <ili9488_check_box_coordinates+0x10>
		*p_ul_x1 = ILI9488_LCD_WIDTH - 1;
  4006fe:	f240 143f 	movw	r4, #319	; 0x13f
  400702:	6004      	str	r4, [r0, #0]
	}

	if (*p_ul_x2 >= ILI9488_LCD_WIDTH) {
  400704:	6814      	ldr	r4, [r2, #0]
  400706:	f5b4 7fa0 	cmp.w	r4, #320	; 0x140
  40070a:	d302      	bcc.n	400712 <ili9488_check_box_coordinates+0x1e>
		*p_ul_x2 = ILI9488_LCD_WIDTH - 1;
  40070c:	f240 143f 	movw	r4, #319	; 0x13f
  400710:	6014      	str	r4, [r2, #0]
	}

	if (*p_ul_y1 >= ILI9488_LCD_HEIGHT) {
  400712:	680c      	ldr	r4, [r1, #0]
  400714:	f5b4 7ff0 	cmp.w	r4, #480	; 0x1e0
  400718:	d302      	bcc.n	400720 <ili9488_check_box_coordinates+0x2c>
		*p_ul_y1 = ILI9488_LCD_HEIGHT - 1;
  40071a:	f240 14df 	movw	r4, #479	; 0x1df
  40071e:	600c      	str	r4, [r1, #0]
	}

	if (*p_ul_y2 >= ILI9488_LCD_HEIGHT) {
  400720:	681c      	ldr	r4, [r3, #0]
  400722:	f5b4 7ff0 	cmp.w	r4, #480	; 0x1e0
  400726:	d302      	bcc.n	40072e <ili9488_check_box_coordinates+0x3a>
		*p_ul_y2 = ILI9488_LCD_HEIGHT - 1;
  400728:	f240 14df 	movw	r4, #479	; 0x1df
  40072c:	601c      	str	r4, [r3, #0]
	}

	if (*p_ul_x1 > *p_ul_x2) {
  40072e:	6804      	ldr	r4, [r0, #0]
  400730:	6815      	ldr	r5, [r2, #0]
  400732:	42ac      	cmp	r4, r5
  400734:	d901      	bls.n	40073a <ili9488_check_box_coordinates+0x46>
		dw = *p_ul_x1;
		*p_ul_x1 = *p_ul_x2;
  400736:	6005      	str	r5, [r0, #0]
		*p_ul_x2 = dw;
  400738:	6014      	str	r4, [r2, #0]
	}

	if (*p_ul_y1 > *p_ul_y2) {
  40073a:	680a      	ldr	r2, [r1, #0]
  40073c:	6818      	ldr	r0, [r3, #0]
  40073e:	4282      	cmp	r2, r0
  400740:	d901      	bls.n	400746 <ili9488_check_box_coordinates+0x52>
		dw = *p_ul_y1;
		*p_ul_y1 = *p_ul_y2;
  400742:	6008      	str	r0, [r1, #0]
		*p_ul_y2 = dw;
  400744:	601a      	str	r2, [r3, #0]
	}
}
  400746:	bc30      	pop	{r4, r5}
  400748:	4770      	bx	lr
	...

0040074c <ili9488_write_ram_prepare>:
{
  40074c:	b510      	push	{r4, lr}
  40074e:	b082      	sub	sp, #8
	pio_set_pin_low(LCD_SPI_CDS_PIO);
  400750:	2006      	movs	r0, #6
  400752:	4b0a      	ldr	r3, [pc, #40]	; (40077c <ili9488_write_ram_prepare+0x30>)
  400754:	4798      	blx	r3
	spi_write(BOARD_ILI9488_SPI, ILI9488_CMD_MEMORY_WRITE, BOARD_ILI9488_SPI_NPCS, 0);
  400756:	2300      	movs	r3, #0
  400758:	2203      	movs	r2, #3
  40075a:	212c      	movs	r1, #44	; 0x2c
  40075c:	4808      	ldr	r0, [pc, #32]	; (400780 <ili9488_write_ram_prepare+0x34>)
  40075e:	4c09      	ldr	r4, [pc, #36]	; (400784 <ili9488_write_ram_prepare+0x38>)
  400760:	47a0      	blx	r4
	for(i = 0; i < 0xFF; i++);
  400762:	2300      	movs	r3, #0
  400764:	9301      	str	r3, [sp, #4]
  400766:	9b01      	ldr	r3, [sp, #4]
  400768:	2bfe      	cmp	r3, #254	; 0xfe
  40076a:	d805      	bhi.n	400778 <ili9488_write_ram_prepare+0x2c>
  40076c:	9b01      	ldr	r3, [sp, #4]
  40076e:	3301      	adds	r3, #1
  400770:	9301      	str	r3, [sp, #4]
  400772:	9b01      	ldr	r3, [sp, #4]
  400774:	2bfe      	cmp	r3, #254	; 0xfe
  400776:	d9f9      	bls.n	40076c <ili9488_write_ram_prepare+0x20>
}
  400778:	b002      	add	sp, #8
  40077a:	bd10      	pop	{r4, pc}
  40077c:	00401145 	.word	0x00401145
  400780:	40008000 	.word	0x40008000
  400784:	0040150d 	.word	0x0040150d

00400788 <ili9488_write_register>:
{
  400788:	b570      	push	{r4, r5, r6, lr}
  40078a:	b082      	sub	sp, #8
  40078c:	4605      	mov	r5, r0
  40078e:	460e      	mov	r6, r1
  400790:	4614      	mov	r4, r2
	pio_set_pin_low(LCD_SPI_CDS_PIO);
  400792:	2006      	movs	r0, #6
  400794:	4b14      	ldr	r3, [pc, #80]	; (4007e8 <ili9488_write_register+0x60>)
  400796:	4798      	blx	r3
	spi_write(BOARD_ILI9488_SPI, uc_reg, BOARD_ILI9488_SPI_NPCS, 0);
  400798:	2300      	movs	r3, #0
  40079a:	2203      	movs	r2, #3
  40079c:	4629      	mov	r1, r5
  40079e:	4813      	ldr	r0, [pc, #76]	; (4007ec <ili9488_write_register+0x64>)
  4007a0:	4d13      	ldr	r5, [pc, #76]	; (4007f0 <ili9488_write_register+0x68>)
  4007a2:	47a8      	blx	r5
	for(i = 0; i < 0xFF; i++);
  4007a4:	2300      	movs	r3, #0
  4007a6:	9301      	str	r3, [sp, #4]
  4007a8:	9b01      	ldr	r3, [sp, #4]
  4007aa:	2bfe      	cmp	r3, #254	; 0xfe
  4007ac:	d805      	bhi.n	4007ba <ili9488_write_register+0x32>
  4007ae:	9b01      	ldr	r3, [sp, #4]
  4007b0:	3301      	adds	r3, #1
  4007b2:	9301      	str	r3, [sp, #4]
  4007b4:	9b01      	ldr	r3, [sp, #4]
  4007b6:	2bfe      	cmp	r3, #254	; 0xfe
  4007b8:	d9f9      	bls.n	4007ae <ili9488_write_register+0x26>
	if(size > 0) {
  4007ba:	b90c      	cbnz	r4, 4007c0 <ili9488_write_register+0x38>
}
  4007bc:	b002      	add	sp, #8
  4007be:	bd70      	pop	{r4, r5, r6, pc}
		pio_set_pin_high(LCD_SPI_CDS_PIO);
  4007c0:	2006      	movs	r0, #6
  4007c2:	4b0c      	ldr	r3, [pc, #48]	; (4007f4 <ili9488_write_register+0x6c>)
  4007c4:	4798      	blx	r3
		spi_write_packet(BOARD_ILI9488_SPI, us_data, size);
  4007c6:	4622      	mov	r2, r4
  4007c8:	4631      	mov	r1, r6
  4007ca:	4808      	ldr	r0, [pc, #32]	; (4007ec <ili9488_write_register+0x64>)
  4007cc:	4b0a      	ldr	r3, [pc, #40]	; (4007f8 <ili9488_write_register+0x70>)
  4007ce:	4798      	blx	r3
		for(i = 0; i < 0x5F; i++);
  4007d0:	2300      	movs	r3, #0
  4007d2:	9301      	str	r3, [sp, #4]
  4007d4:	9b01      	ldr	r3, [sp, #4]
  4007d6:	2b5e      	cmp	r3, #94	; 0x5e
  4007d8:	d8f0      	bhi.n	4007bc <ili9488_write_register+0x34>
  4007da:	9b01      	ldr	r3, [sp, #4]
  4007dc:	3301      	adds	r3, #1
  4007de:	9301      	str	r3, [sp, #4]
  4007e0:	9b01      	ldr	r3, [sp, #4]
  4007e2:	2b5e      	cmp	r3, #94	; 0x5e
  4007e4:	d9f9      	bls.n	4007da <ili9488_write_register+0x52>
  4007e6:	e7e9      	b.n	4007bc <ili9488_write_register+0x34>
  4007e8:	00401145 	.word	0x00401145
  4007ec:	40008000 	.word	0x40008000
  4007f0:	0040150d 	.word	0x0040150d
  4007f4:	00401129 	.word	0x00401129
  4007f8:	00400321 	.word	0x00400321

004007fc <ili9488_write_ram_buffer>:
{
  4007fc:	b530      	push	{r4, r5, lr}
  4007fe:	b083      	sub	sp, #12
  400800:	4604      	mov	r4, r0
  400802:	460d      	mov	r5, r1
	pio_set_pin_high(LCD_SPI_CDS_PIO);
  400804:	2006      	movs	r0, #6
  400806:	4b0a      	ldr	r3, [pc, #40]	; (400830 <ili9488_write_ram_buffer+0x34>)
  400808:	4798      	blx	r3
	spi_write_packet(BOARD_ILI9488_SPI, p_ul_buf, ul_size);
  40080a:	462a      	mov	r2, r5
  40080c:	4621      	mov	r1, r4
  40080e:	4809      	ldr	r0, [pc, #36]	; (400834 <ili9488_write_ram_buffer+0x38>)
  400810:	4b09      	ldr	r3, [pc, #36]	; (400838 <ili9488_write_ram_buffer+0x3c>)
  400812:	4798      	blx	r3
	for(i = 0; i < 0xFF; i++);
  400814:	2300      	movs	r3, #0
  400816:	9301      	str	r3, [sp, #4]
  400818:	9b01      	ldr	r3, [sp, #4]
  40081a:	2bfe      	cmp	r3, #254	; 0xfe
  40081c:	d805      	bhi.n	40082a <ili9488_write_ram_buffer+0x2e>
  40081e:	9b01      	ldr	r3, [sp, #4]
  400820:	3301      	adds	r3, #1
  400822:	9301      	str	r3, [sp, #4]
  400824:	9b01      	ldr	r3, [sp, #4]
  400826:	2bfe      	cmp	r3, #254	; 0xfe
  400828:	d9f9      	bls.n	40081e <ili9488_write_ram_buffer+0x22>
}
  40082a:	b003      	add	sp, #12
  40082c:	bd30      	pop	{r4, r5, pc}
  40082e:	bf00      	nop
  400830:	00401129 	.word	0x00401129
  400834:	40008000 	.word	0x40008000
  400838:	00400321 	.word	0x00400321

0040083c <ili9488_delay>:
	for(i = 0; i < ul_ms; i++) {
  40083c:	4601      	mov	r1, r0
  40083e:	b130      	cbz	r0, 40084e <ili9488_delay+0x12>
  400840:	4a03      	ldr	r2, [pc, #12]	; (400850 <ili9488_delay+0x14>)
{
  400842:	4b04      	ldr	r3, [pc, #16]	; (400854 <ili9488_delay+0x18>)
		for(i = 0; i < 100000; i++) {
  400844:	3b01      	subs	r3, #1
  400846:	d1fd      	bne.n	400844 <ili9488_delay+0x8>
	for(i = 0; i < ul_ms; i++) {
  400848:	4291      	cmp	r1, r2
  40084a:	d8fa      	bhi.n	400842 <ili9488_delay+0x6>
  40084c:	4770      	bx	lr
  40084e:	4770      	bx	lr
  400850:	000186a1 	.word	0x000186a1
  400854:	000186a0 	.word	0x000186a0

00400858 <ili9488_set_display_direction>:
 * \brief ILI9488 configure landscape.
 *
 * \Param LandscaprMode Landscape Mode.
 */
void ili9488_set_display_direction(enum ili9488_display_direction direction )
{
  400858:	b500      	push	{lr}
  40085a:	b083      	sub	sp, #12
	ili9488_color_t value;
	if(direction) {
  40085c:	b958      	cbnz	r0, 400876 <ili9488_set_display_direction+0x1e>
		value = 0xE8;
	} else {
		value = 0x48;
  40085e:	2348      	movs	r3, #72	; 0x48
  400860:	f88d 3007 	strb.w	r3, [sp, #7]
	}
	ili9488_write_register(ILI9488_CMD_MEMORY_ACCESS_CONTROL, &value, 1);
  400864:	2201      	movs	r2, #1
  400866:	f10d 0107 	add.w	r1, sp, #7
  40086a:	2036      	movs	r0, #54	; 0x36
  40086c:	4b04      	ldr	r3, [pc, #16]	; (400880 <ili9488_set_display_direction+0x28>)
  40086e:	4798      	blx	r3
}
  400870:	b003      	add	sp, #12
  400872:	f85d fb04 	ldr.w	pc, [sp], #4
		value = 0xE8;
  400876:	23e8      	movs	r3, #232	; 0xe8
  400878:	f88d 3007 	strb.w	r3, [sp, #7]
  40087c:	e7f2      	b.n	400864 <ili9488_set_display_direction+0xc>
  40087e:	bf00      	nop
  400880:	00400789 	.word	0x00400789

00400884 <ili9488_set_window>:
 * \Param y start position.
 * \Param width  Width of window.
 * \Param height Height of window.
 */
void ili9488_set_window(uint16_t x, uint16_t y, uint16_t width, uint16_t height )
{
  400884:	b510      	push	{r4, lr}
  400886:	b084      	sub	sp, #16
	uint32_t cnt = 0;
	ili9488_color_t buf[4];

	cnt = sizeof(buf)/sizeof(ili9488_color_t);

	col_start  =  x ;
  400888:	f8ad 000e 	strh.w	r0, [sp, #14]
	col_end    =  width + x - 1;
  40088c:	3a01      	subs	r2, #1
  40088e:	4402      	add	r2, r0
  400890:	f8ad 200c 	strh.w	r2, [sp, #12]

	row_start = y ;
  400894:	f8ad 100a 	strh.w	r1, [sp, #10]
	row_end   = height + y - 1;
  400898:	3b01      	subs	r3, #1
  40089a:	4419      	add	r1, r3
  40089c:	f8ad 1008 	strh.w	r1, [sp, #8]

	buf[0] = get_8b_to_16b(col_start);
  4008a0:	0a03      	lsrs	r3, r0, #8
  4008a2:	f88d 3004 	strb.w	r3, [sp, #4]
	buf[1] = get_0b_to_8b(col_start);
  4008a6:	f88d 0005 	strb.w	r0, [sp, #5]
	buf[2] = get_8b_to_16b(col_end);
  4008aa:	f3c2 2307 	ubfx	r3, r2, #8, #8
  4008ae:	f88d 3006 	strb.w	r3, [sp, #6]
	buf[3] = get_0b_to_8b(col_end);
  4008b2:	f88d 2007 	strb.w	r2, [sp, #7]
	ili9488_write_register(ILI9488_CMD_COLUMN_ADDRESS_SET, buf, cnt);
  4008b6:	2204      	movs	r2, #4
  4008b8:	eb0d 0102 	add.w	r1, sp, r2
  4008bc:	202a      	movs	r0, #42	; 0x2a
  4008be:	4c10      	ldr	r4, [pc, #64]	; (400900 <ili9488_set_window+0x7c>)
  4008c0:	47a0      	blx	r4
	ili9488_write_register(ILI9488_CMD_NOP, 0, 0);
  4008c2:	2200      	movs	r2, #0
  4008c4:	4611      	mov	r1, r2
  4008c6:	4610      	mov	r0, r2
  4008c8:	47a0      	blx	r4

	/* Set Horizontal Address End Position */
	buf[0] = get_8b_to_16b(row_start);
  4008ca:	f89d 300b 	ldrb.w	r3, [sp, #11]
  4008ce:	f88d 3004 	strb.w	r3, [sp, #4]
	buf[1] = get_0b_to_8b(row_start);
  4008d2:	f89d 300a 	ldrb.w	r3, [sp, #10]
  4008d6:	f88d 3005 	strb.w	r3, [sp, #5]
	buf[2] = get_8b_to_16b(row_end);
  4008da:	f89d 3009 	ldrb.w	r3, [sp, #9]
  4008de:	f88d 3006 	strb.w	r3, [sp, #6]
	buf[3] = get_0b_to_8b(row_end);
  4008e2:	f89d 3008 	ldrb.w	r3, [sp, #8]
  4008e6:	f88d 3007 	strb.w	r3, [sp, #7]
	ili9488_write_register(ILI9488_CMD_PAGE_ADDRESS_SET, buf, cnt);
  4008ea:	2204      	movs	r2, #4
  4008ec:	eb0d 0102 	add.w	r1, sp, r2
  4008f0:	202b      	movs	r0, #43	; 0x2b
  4008f2:	47a0      	blx	r4
	ili9488_write_register(ILI9488_CMD_NOP, 0, 0);
  4008f4:	2200      	movs	r2, #0
  4008f6:	4611      	mov	r1, r2
  4008f8:	4610      	mov	r0, r2
  4008fa:	47a0      	blx	r4
}
  4008fc:	b004      	add	sp, #16
  4008fe:	bd10      	pop	{r4, pc}
  400900:	00400789 	.word	0x00400789

00400904 <ili9488_display_on>:

/**
 * \brief Turn on the LCD.
 */
void ili9488_display_on(void)
{
  400904:	b508      	push	{r3, lr}
	ili9488_write_register(ILI9488_CMD_DISPLAY_ON, 0, 0);
  400906:	2200      	movs	r2, #0
  400908:	4611      	mov	r1, r2
  40090a:	2029      	movs	r0, #41	; 0x29
  40090c:	4b01      	ldr	r3, [pc, #4]	; (400914 <ili9488_display_on+0x10>)
  40090e:	4798      	blx	r3
  400910:	bd08      	pop	{r3, pc}
  400912:	bf00      	nop
  400914:	00400789 	.word	0x00400789

00400918 <ili9488_set_foreground_color>:
 * \brief Set foreground color.
 *
 * \param ul_color foreground color.
 */
void ili9488_set_foreground_color(uint32_t ul_color)
{
  400918:	b410      	push	{r4}
		g_ul_pixel_cache[i] = ul_color;
	}
#endif
#ifdef ILI9488_SPIMODE
	for (i = 0; i < LCD_DATA_CACHE_SIZE * LCD_DATA_COLOR_UNIT; ) {
		g_ul_pixel_cache[i++] = ul_color>>16;
  40091a:	f3c0 4407 	ubfx	r4, r0, #16, #8
		g_ul_pixel_cache[i++] = ul_color>>8;
  40091e:	f3c0 2107 	ubfx	r1, r0, #8, #8
  400922:	4b06      	ldr	r3, [pc, #24]	; (40093c <ili9488_set_foreground_color+0x24>)
  400924:	f503 7270 	add.w	r2, r3, #960	; 0x3c0
		g_ul_pixel_cache[i++] = ul_color>>16;
  400928:	701c      	strb	r4, [r3, #0]
		g_ul_pixel_cache[i++] = ul_color>>8;
  40092a:	7059      	strb	r1, [r3, #1]
		g_ul_pixel_cache[i++] = ul_color&0xFF;
  40092c:	7098      	strb	r0, [r3, #2]
  40092e:	3303      	adds	r3, #3
	for (i = 0; i < LCD_DATA_CACHE_SIZE * LCD_DATA_COLOR_UNIT; ) {
  400930:	4293      	cmp	r3, r2
  400932:	d1f9      	bne.n	400928 <ili9488_set_foreground_color+0x10>
	}
#endif
}
  400934:	f85d 4b04 	ldr.w	r4, [sp], #4
  400938:	4770      	bx	lr
  40093a:	bf00      	nop
  40093c:	204009dc 	.word	0x204009dc

00400940 <ili9488_set_cursor_position>:
 *
 * \param x X coordinate of upper-left corner on LCD.
 * \param y Y coordinate of upper-left corner on LCD.
 */
void ili9488_set_cursor_position(uint16_t x, uint16_t y)
{
  400940:	b510      	push	{r4, lr}
  400942:	b084      	sub	sp, #16
  400944:	f8ad 0006 	strh.w	r0, [sp, #6]
  400948:	f8ad 1004 	strh.w	r1, [sp, #4]
	uint32_t cnt = 0;

	ili9488_color_t buf[4];
	cnt = sizeof(buf)/sizeof(ili9488_color_t);

	buf[0] = get_8b_to_16b(x);
  40094c:	0a03      	lsrs	r3, r0, #8
  40094e:	f88d 300c 	strb.w	r3, [sp, #12]
	buf[1] = get_0b_to_8b(x);
  400952:	b2c0      	uxtb	r0, r0
  400954:	f88d 000d 	strb.w	r0, [sp, #13]
	buf[2] = get_8b_to_16b(x);
  400958:	f88d 300e 	strb.w	r3, [sp, #14]
	buf[3] = get_0b_to_8b(x);
  40095c:	f88d 000f 	strb.w	r0, [sp, #15]
	ili9488_write_register(ILI9488_CMD_COLUMN_ADDRESS_SET, buf, cnt);
  400960:	2204      	movs	r2, #4
  400962:	a903      	add	r1, sp, #12
  400964:	202a      	movs	r0, #42	; 0x2a
  400966:	4c0e      	ldr	r4, [pc, #56]	; (4009a0 <ili9488_set_cursor_position+0x60>)
  400968:	47a0      	blx	r4
	ili9488_write_register(ILI9488_CMD_NOP, 0, 0);
  40096a:	2200      	movs	r2, #0
  40096c:	4611      	mov	r1, r2
  40096e:	4610      	mov	r0, r2
  400970:	47a0      	blx	r4


	/* Set Horizontal Address End Position */
	buf[0] = get_8b_to_16b(y);
  400972:	f89d 2005 	ldrb.w	r2, [sp, #5]
  400976:	f88d 200c 	strb.w	r2, [sp, #12]
	buf[1] = get_0b_to_8b(y);
  40097a:	f89d 3004 	ldrb.w	r3, [sp, #4]
  40097e:	f88d 300d 	strb.w	r3, [sp, #13]
	buf[2] = get_8b_to_16b(y);
  400982:	f88d 200e 	strb.w	r2, [sp, #14]
	buf[3] = get_0b_to_8b(y);
  400986:	f88d 300f 	strb.w	r3, [sp, #15]
	ili9488_write_register(ILI9488_CMD_PAGE_ADDRESS_SET, buf, cnt);
  40098a:	2204      	movs	r2, #4
  40098c:	a903      	add	r1, sp, #12
  40098e:	202b      	movs	r0, #43	; 0x2b
  400990:	47a0      	blx	r4
	ili9488_write_register(ILI9488_CMD_NOP, 0, 0);
  400992:	2200      	movs	r2, #0
  400994:	4611      	mov	r1, r2
  400996:	4610      	mov	r0, r2
  400998:	47a0      	blx	r4
}
  40099a:	b004      	add	sp, #16
  40099c:	bd10      	pop	{r4, pc}
  40099e:	bf00      	nop
  4009a0:	00400789 	.word	0x00400789

004009a4 <ili9488_init>:
{
  4009a4:	e92d 43f0 	stmdb	sp!, {r4, r5, r6, r7, r8, r9, lr}
  4009a8:	b087      	sub	sp, #28
  4009aa:	4681      	mov	r9, r0
	struct spi_device ILI9488_SPI_DEVICE = {
  4009ac:	2703      	movs	r7, #3
  4009ae:	ae06      	add	r6, sp, #24
  4009b0:	f846 7d08 	str.w	r7, [r6, #-8]!
	spi_master_init(BOARD_ILI9488_SPI);
  4009b4:	4d5d      	ldr	r5, [pc, #372]	; (400b2c <ili9488_init+0x188>)
  4009b6:	4628      	mov	r0, r5
  4009b8:	4b5d      	ldr	r3, [pc, #372]	; (400b30 <ili9488_init+0x18c>)
  4009ba:	4798      	blx	r3
	spi_master_setup_device(BOARD_ILI9488_SPI, &ILI9488_SPI_DEVICE, SPI_MODE_3, ILI9488_SPI_BAUDRATE, 0);
  4009bc:	2400      	movs	r4, #0
  4009be:	9400      	str	r4, [sp, #0]
  4009c0:	4b5c      	ldr	r3, [pc, #368]	; (400b34 <ili9488_init+0x190>)
  4009c2:	463a      	mov	r2, r7
  4009c4:	4631      	mov	r1, r6
  4009c6:	4628      	mov	r0, r5
  4009c8:	f8df 8198 	ldr.w	r8, [pc, #408]	; 400b64 <ili9488_init+0x1c0>
  4009cc:	47c0      	blx	r8
	spi_configure_cs_behavior(BOARD_ILI9488_SPI, BOARD_ILI9488_SPI_NPCS, SPI_CS_RISE_NO_TX);
  4009ce:	4622      	mov	r2, r4
  4009d0:	4639      	mov	r1, r7
  4009d2:	4628      	mov	r0, r5
  4009d4:	4b58      	ldr	r3, [pc, #352]	; (400b38 <ili9488_init+0x194>)
  4009d6:	4798      	blx	r3
	spi_select_device(BOARD_ILI9488_SPI, &ILI9488_SPI_DEVICE);
  4009d8:	4631      	mov	r1, r6
  4009da:	4628      	mov	r0, r5
  4009dc:	4b57      	ldr	r3, [pc, #348]	; (400b3c <ili9488_init+0x198>)
  4009de:	4798      	blx	r3
	p_spi->SPI_CR = SPI_CR_SPIEN;
  4009e0:	2001      	movs	r0, #1
  4009e2:	6028      	str	r0, [r5, #0]
 * \param p_spi Pointer to an SPI instance.
 * \param ul_sources Interrupts to be enabled.
 */
static inline void spi_enable_interrupt(Spi *p_spi, uint32_t ul_sources)
{
	p_spi->SPI_IER = ul_sources;
  4009e4:	6168      	str	r0, [r5, #20]
	ili9488_write_register(ILI9488_CMD_SOFTWARE_RESET, 0x0000, 0);
  4009e6:	4622      	mov	r2, r4
  4009e8:	4621      	mov	r1, r4
  4009ea:	4e55      	ldr	r6, [pc, #340]	; (400b40 <ili9488_init+0x19c>)
  4009ec:	47b0      	blx	r6
	ili9488_delay(200);
  4009ee:	20c8      	movs	r0, #200	; 0xc8
  4009f0:	4d54      	ldr	r5, [pc, #336]	; (400b44 <ili9488_init+0x1a0>)
  4009f2:	47a8      	blx	r5
	ili9488_write_register(ILI9488_CMD_SLEEP_OUT, 0x0000, 0);
  4009f4:	4622      	mov	r2, r4
  4009f6:	4621      	mov	r1, r4
  4009f8:	2011      	movs	r0, #17
  4009fa:	47b0      	blx	r6
	ili9488_delay(200);
  4009fc:	20c8      	movs	r0, #200	; 0xc8
  4009fe:	47a8      	blx	r5
	reg = 0x81;
  400a00:	2381      	movs	r3, #129	; 0x81
  400a02:	f88d 300a 	strb.w	r3, [sp, #10]
	param = 0x0;
  400a06:	f88d 400b 	strb.w	r4, [sp, #11]
  400a0a:	2610      	movs	r6, #16
		ili9488_write_register(ILI9488_CMD_SPI_READ_SETTINGS, &reg, 1);
  400a0c:	f04f 0801 	mov.w	r8, #1
  400a10:	4f4b      	ldr	r7, [pc, #300]	; (400b40 <ili9488_init+0x19c>)
		for(j = 0; j < 0xFF; j++);
  400a12:	4625      	mov	r5, r4
		ili9488_write_register(ILI9488_CMD_SPI_READ_SETTINGS, &reg, 1);
  400a14:	4642      	mov	r2, r8
  400a16:	f10d 010a 	add.w	r1, sp, #10
  400a1a:	20fb      	movs	r0, #251	; 0xfb
  400a1c:	47b8      	blx	r7
		reg++;
  400a1e:	f89d 300a 	ldrb.w	r3, [sp, #10]
  400a22:	3301      	adds	r3, #1
  400a24:	f88d 300a 	strb.w	r3, [sp, #10]
		for(j = 0; j < 0xFF; j++);
  400a28:	9503      	str	r5, [sp, #12]
  400a2a:	9b03      	ldr	r3, [sp, #12]
  400a2c:	2bfe      	cmp	r3, #254	; 0xfe
  400a2e:	d805      	bhi.n	400a3c <ili9488_init+0x98>
  400a30:	9b03      	ldr	r3, [sp, #12]
  400a32:	3301      	adds	r3, #1
  400a34:	9303      	str	r3, [sp, #12]
  400a36:	9b03      	ldr	r3, [sp, #12]
  400a38:	2bfe      	cmp	r3, #254	; 0xfe
  400a3a:	d9f9      	bls.n	400a30 <ili9488_init+0x8c>
		ili9488_write_register(ILI9488_CMD_READ_ID4, 0, 0);
  400a3c:	462a      	mov	r2, r5
  400a3e:	4629      	mov	r1, r5
  400a40:	20d3      	movs	r0, #211	; 0xd3
  400a42:	47b8      	blx	r7
			pio_set_pin_high(LCD_SPI_CDS_PIO);
  400a44:	2006      	movs	r0, #6
  400a46:	4b40      	ldr	r3, [pc, #256]	; (400b48 <ili9488_init+0x1a4>)
  400a48:	4798      	blx	r3
			spi_read_packet(BOARD_ILI9488_SPI, &chipidBuf, 1);
  400a4a:	4642      	mov	r2, r8
  400a4c:	f10d 0109 	add.w	r1, sp, #9
  400a50:	4836      	ldr	r0, [pc, #216]	; (400b2c <ili9488_init+0x188>)
  400a52:	4b3e      	ldr	r3, [pc, #248]	; (400b4c <ili9488_init+0x1a8>)
  400a54:	4798      	blx	r3
			for(j = 0; j < 0xFF; j++);
  400a56:	9503      	str	r5, [sp, #12]
  400a58:	9b03      	ldr	r3, [sp, #12]
  400a5a:	2bfe      	cmp	r3, #254	; 0xfe
  400a5c:	d805      	bhi.n	400a6a <ili9488_init+0xc6>
  400a5e:	9b03      	ldr	r3, [sp, #12]
  400a60:	3301      	adds	r3, #1
  400a62:	9303      	str	r3, [sp, #12]
  400a64:	9b03      	ldr	r3, [sp, #12]
  400a66:	2bfe      	cmp	r3, #254	; 0xfe
  400a68:	d9f9      	bls.n	400a5e <ili9488_init+0xba>
		chipid |= (chipidBuf & 0xFF) << ((i - 1) << 3);
  400a6a:	f89d 3009 	ldrb.w	r3, [sp, #9]
  400a6e:	40b3      	lsls	r3, r6
  400a70:	431c      	orrs	r4, r3
		ili9488_write_register(ILI9488_CMD_SPI_READ_SETTINGS, &param, 1);
  400a72:	4642      	mov	r2, r8
  400a74:	f10d 010b 	add.w	r1, sp, #11
  400a78:	20fb      	movs	r0, #251	; 0xfb
  400a7a:	47b8      	blx	r7
		for(j = 0; j < 0xFFF; j++);
  400a7c:	9503      	str	r5, [sp, #12]
  400a7e:	9a03      	ldr	r2, [sp, #12]
  400a80:	f640 73fe 	movw	r3, #4094	; 0xffe
  400a84:	429a      	cmp	r2, r3
  400a86:	d806      	bhi.n	400a96 <ili9488_init+0xf2>
  400a88:	461a      	mov	r2, r3
  400a8a:	9b03      	ldr	r3, [sp, #12]
  400a8c:	3301      	adds	r3, #1
  400a8e:	9303      	str	r3, [sp, #12]
  400a90:	9b03      	ldr	r3, [sp, #12]
  400a92:	4293      	cmp	r3, r2
  400a94:	d9f9      	bls.n	400a8a <ili9488_init+0xe6>
  400a96:	3e08      	subs	r6, #8
	for (i = 3; i > 0; i--) {
  400a98:	f116 0f08 	cmn.w	r6, #8
  400a9c:	d1ba      	bne.n	400a14 <ili9488_init+0x70>
	if (chipid != ILI9488_DEVICE_CODE) {
  400a9e:	f249 4388 	movw	r3, #38024	; 0x9488
  400aa2:	429c      	cmp	r4, r3
  400aa4:	d003      	beq.n	400aae <ili9488_init+0x10a>
		return 1;
  400aa6:	2001      	movs	r0, #1
}
  400aa8:	b007      	add	sp, #28
  400aaa:	e8bd 83f0 	ldmia.w	sp!, {r4, r5, r6, r7, r8, r9, pc}
	param = 0x48;
  400aae:	ad06      	add	r5, sp, #24
  400ab0:	2348      	movs	r3, #72	; 0x48
  400ab2:	f805 3d01 	strb.w	r3, [r5, #-1]!
	ili9488_write_register(ILI9488_CMD_MEMORY_ACCESS_CONTROL, &param, 1);
  400ab6:	2201      	movs	r2, #1
  400ab8:	4629      	mov	r1, r5
  400aba:	2036      	movs	r0, #54	; 0x36
  400abc:	4e20      	ldr	r6, [pc, #128]	; (400b40 <ili9488_init+0x19c>)
  400abe:	47b0      	blx	r6
	ili9488_delay(100);
  400ac0:	2064      	movs	r0, #100	; 0x64
  400ac2:	4c20      	ldr	r4, [pc, #128]	; (400b44 <ili9488_init+0x1a0>)
  400ac4:	47a0      	blx	r4
	param = 0x04;
  400ac6:	2304      	movs	r3, #4
  400ac8:	f88d 3017 	strb.w	r3, [sp, #23]
	ili9488_write_register(ILI9488_CMD_CABC_CONTROL_9, &param, 1);
  400acc:	2201      	movs	r2, #1
  400ace:	4629      	mov	r1, r5
  400ad0:	20cf      	movs	r0, #207	; 0xcf
  400ad2:	47b0      	blx	r6
	ili9488_delay(100);
  400ad4:	2064      	movs	r0, #100	; 0x64
  400ad6:	47a0      	blx	r4
	param = 0x06;
  400ad8:	2306      	movs	r3, #6
  400ada:	f88d 3017 	strb.w	r3, [sp, #23]
	ili9488_write_register(ILI9488_CMD_COLMOD_PIXEL_FORMAT_SET, &param, 1);
  400ade:	2201      	movs	r2, #1
  400ae0:	4629      	mov	r1, r5
  400ae2:	203a      	movs	r0, #58	; 0x3a
  400ae4:	47b0      	blx	r6
	ili9488_delay(100);
  400ae6:	2064      	movs	r0, #100	; 0x64
  400ae8:	47a0      	blx	r4
	ili9488_write_register(ILI9488_CMD_NORMAL_DISP_MODE_ON, 0, 0);
  400aea:	2200      	movs	r2, #0
  400aec:	4611      	mov	r1, r2
  400aee:	2013      	movs	r0, #19
  400af0:	47b0      	blx	r6
	ili9488_delay(100);
  400af2:	2064      	movs	r0, #100	; 0x64
  400af4:	47a0      	blx	r4
	ili9488_display_on();
  400af6:	4b16      	ldr	r3, [pc, #88]	; (400b50 <ili9488_init+0x1ac>)
  400af8:	4798      	blx	r3
	ili9488_delay(100);
  400afa:	2064      	movs	r0, #100	; 0x64
  400afc:	47a0      	blx	r4
	ili9488_set_display_direction(LANDSCAPE);
  400afe:	2000      	movs	r0, #0
  400b00:	4b14      	ldr	r3, [pc, #80]	; (400b54 <ili9488_init+0x1b0>)
  400b02:	4798      	blx	r3
	ili9488_delay(100);
  400b04:	2064      	movs	r0, #100	; 0x64
  400b06:	47a0      	blx	r4
	ili9488_set_window(0, 0,p_opt->ul_width,p_opt->ul_height);
  400b08:	f8b9 3004 	ldrh.w	r3, [r9, #4]
  400b0c:	f8b9 2000 	ldrh.w	r2, [r9]
  400b10:	2100      	movs	r1, #0
  400b12:	4608      	mov	r0, r1
  400b14:	4c10      	ldr	r4, [pc, #64]	; (400b58 <ili9488_init+0x1b4>)
  400b16:	47a0      	blx	r4
	ili9488_set_foreground_color(p_opt->foreground_color);
  400b18:	f8d9 0008 	ldr.w	r0, [r9, #8]
  400b1c:	4b0f      	ldr	r3, [pc, #60]	; (400b5c <ili9488_init+0x1b8>)
  400b1e:	4798      	blx	r3
	ili9488_set_cursor_position(0, 0);
  400b20:	2100      	movs	r1, #0
  400b22:	4608      	mov	r0, r1
  400b24:	4b0e      	ldr	r3, [pc, #56]	; (400b60 <ili9488_init+0x1bc>)
  400b26:	4798      	blx	r3
	return 0;
  400b28:	2000      	movs	r0, #0
  400b2a:	e7bd      	b.n	400aa8 <ili9488_init+0x104>
  400b2c:	40008000 	.word	0x40008000
  400b30:	0040021d 	.word	0x0040021d
  400b34:	01312d00 	.word	0x01312d00
  400b38:	0040157d 	.word	0x0040157d
  400b3c:	004002f1 	.word	0x004002f1
  400b40:	00400789 	.word	0x00400789
  400b44:	0040083d 	.word	0x0040083d
  400b48:	00401129 	.word	0x00401129
  400b4c:	00400357 	.word	0x00400357
  400b50:	00400905 	.word	0x00400905
  400b54:	00400859 	.word	0x00400859
  400b58:	00400885 	.word	0x00400885
  400b5c:	00400919 	.word	0x00400919
  400b60:	00400941 	.word	0x00400941
  400b64:	00400271 	.word	0x00400271

00400b68 <ili9488_draw_filled_rectangle>:
 * \param ul_x2 X coordinate of lower-right corner on LCD.
 * \param ul_y2 Y coordinate of lower-right corner on LCD.
 */
void ili9488_draw_filled_rectangle(uint32_t ul_x1, uint32_t ul_y1,
		uint32_t ul_x2, uint32_t ul_y2)
{
  400b68:	e92d 41f0 	stmdb	sp!, {r4, r5, r6, r7, r8, lr}
  400b6c:	b084      	sub	sp, #16
  400b6e:	9003      	str	r0, [sp, #12]
  400b70:	9102      	str	r1, [sp, #8]
  400b72:	9201      	str	r2, [sp, #4]
  400b74:	aa04      	add	r2, sp, #16
  400b76:	f842 3d10 	str.w	r3, [r2, #-16]!
	uint32_t size, blocks;

	/* Swap coordinates if necessary */
	ili9488_check_box_coordinates(&ul_x1, &ul_y1, &ul_x2, &ul_y2);
  400b7a:	4613      	mov	r3, r2
  400b7c:	aa01      	add	r2, sp, #4
  400b7e:	a902      	add	r1, sp, #8
  400b80:	a803      	add	r0, sp, #12
  400b82:	4c22      	ldr	r4, [pc, #136]	; (400c0c <ili9488_draw_filled_rectangle+0xa4>)
  400b84:	47a0      	blx	r4

	/* Determine the refresh window area */
	ili9488_set_window(ul_x1, ul_y1, (ul_x2 - ul_x1) + 1, (ul_y2 - ul_y1) + 1);
  400b86:	f8bd 000c 	ldrh.w	r0, [sp, #12]
  400b8a:	f8bd 1008 	ldrh.w	r1, [sp, #8]
  400b8e:	9b00      	ldr	r3, [sp, #0]
  400b90:	3301      	adds	r3, #1
  400b92:	1a5b      	subs	r3, r3, r1
  400b94:	9a01      	ldr	r2, [sp, #4]
  400b96:	3201      	adds	r2, #1
  400b98:	1a12      	subs	r2, r2, r0
  400b9a:	b29b      	uxth	r3, r3
  400b9c:	b292      	uxth	r2, r2
  400b9e:	4c1c      	ldr	r4, [pc, #112]	; (400c10 <ili9488_draw_filled_rectangle+0xa8>)
  400ba0:	47a0      	blx	r4

	/* Prepare to write in GRAM */
	ili9488_write_ram_prepare();
  400ba2:	4b1c      	ldr	r3, [pc, #112]	; (400c14 <ili9488_draw_filled_rectangle+0xac>)
  400ba4:	4798      	blx	r3

	size = (ul_x2 - ul_x1 + 1) * (ul_y2 - ul_y1 + 1);
  400ba6:	9903      	ldr	r1, [sp, #12]
  400ba8:	9d01      	ldr	r5, [sp, #4]
  400baa:	1a69      	subs	r1, r5, r1
  400bac:	9d00      	ldr	r5, [sp, #0]
  400bae:	3501      	adds	r5, #1
  400bb0:	9b02      	ldr	r3, [sp, #8]
  400bb2:	1aed      	subs	r5, r5, r3
  400bb4:	fb01 5505 	mla	r5, r1, r5, r5
	/* Send pixels blocks => one SPI IT / block */
	blocks = size / LCD_DATA_CACHE_SIZE;
  400bb8:	4b17      	ldr	r3, [pc, #92]	; (400c18 <ili9488_draw_filled_rectangle+0xb0>)
  400bba:	fba3 2305 	umull	r2, r3, r3, r5
  400bbe:	0a1b      	lsrs	r3, r3, #8
	while (blocks--) {
  400bc0:	b163      	cbz	r3, 400bdc <ili9488_draw_filled_rectangle+0x74>
  400bc2:	1e5c      	subs	r4, r3, #1
		ili9488_write_ram_buffer(g_ul_pixel_cache, LCD_DATA_CACHE_SIZE * LCD_DATA_COLOR_UNIT);
  400bc4:	f8df 8058 	ldr.w	r8, [pc, #88]	; 400c20 <ili9488_draw_filled_rectangle+0xb8>
  400bc8:	f44f 7770 	mov.w	r7, #960	; 0x3c0
  400bcc:	4e13      	ldr	r6, [pc, #76]	; (400c1c <ili9488_draw_filled_rectangle+0xb4>)
  400bce:	4639      	mov	r1, r7
  400bd0:	4640      	mov	r0, r8
  400bd2:	47b0      	blx	r6
	while (blocks--) {
  400bd4:	3c01      	subs	r4, #1
  400bd6:	f1b4 3fff 	cmp.w	r4, #4294967295
  400bda:	d1f8      	bne.n	400bce <ili9488_draw_filled_rectangle+0x66>
	}

	/* Send remaining pixels */
	ili9488_write_ram_buffer(g_ul_pixel_cache, (size % LCD_DATA_CACHE_SIZE) * LCD_DATA_COLOR_UNIT);
  400bdc:	490e      	ldr	r1, [pc, #56]	; (400c18 <ili9488_draw_filled_rectangle+0xb0>)
  400bde:	fba1 3105 	umull	r3, r1, r1, r5
  400be2:	0a09      	lsrs	r1, r1, #8
  400be4:	eb01 0181 	add.w	r1, r1, r1, lsl #2
  400be8:	eba5 1181 	sub.w	r1, r5, r1, lsl #6
  400bec:	eb01 0141 	add.w	r1, r1, r1, lsl #1
  400bf0:	480b      	ldr	r0, [pc, #44]	; (400c20 <ili9488_draw_filled_rectangle+0xb8>)
  400bf2:	4b0a      	ldr	r3, [pc, #40]	; (400c1c <ili9488_draw_filled_rectangle+0xb4>)
  400bf4:	4798      	blx	r3

	/* Reset the refresh window area */
	ili9488_set_window(0, 0, ILI9488_LCD_WIDTH, ILI9488_LCD_HEIGHT);
  400bf6:	f44f 73f0 	mov.w	r3, #480	; 0x1e0
  400bfa:	f44f 72a0 	mov.w	r2, #320	; 0x140
  400bfe:	2100      	movs	r1, #0
  400c00:	4608      	mov	r0, r1
  400c02:	4c03      	ldr	r4, [pc, #12]	; (400c10 <ili9488_draw_filled_rectangle+0xa8>)
  400c04:	47a0      	blx	r4

}
  400c06:	b004      	add	sp, #16
  400c08:	e8bd 81f0 	ldmia.w	sp!, {r4, r5, r6, r7, r8, pc}
  400c0c:	004006f5 	.word	0x004006f5
  400c10:	00400885 	.word	0x00400885
  400c14:	0040074d 	.word	0x0040074d
  400c18:	cccccccd 	.word	0xcccccccd
  400c1c:	004007fd 	.word	0x004007fd
  400c20:	204009dc 	.word	0x204009dc

00400c24 <ili9488_draw_pixmap>:
 * \param ul_height height of the picture.
 * \param p_ul_pixmap pixmap of the image.
 */
void ili9488_draw_pixmap(uint32_t ul_x, uint32_t ul_y, uint32_t ul_width,
		uint32_t ul_height, const ili9488_color_t *p_ul_pixmap)
{
  400c24:	b510      	push	{r4, lr}
  400c26:	b084      	sub	sp, #16
	uint32_t size;
	uint32_t dwX1, dwY1, dwX2, dwY2;
	dwX1 = ul_x;
  400c28:	9003      	str	r0, [sp, #12]
	dwY1 = ul_y;
  400c2a:	9102      	str	r1, [sp, #8]
	dwX2 = ul_x + ul_width - 1;
  400c2c:	3a01      	subs	r2, #1
  400c2e:	4410      	add	r0, r2
  400c30:	9001      	str	r0, [sp, #4]
	dwY2 = ul_y + ul_height - 1;
  400c32:	3b01      	subs	r3, #1
  400c34:	4419      	add	r1, r3
  400c36:	ab04      	add	r3, sp, #16
  400c38:	f843 1d10 	str.w	r1, [r3, #-16]!

	/* Swap coordinates if necessary */
	ili9488_check_box_coordinates(&dwX1, &dwY1, &dwX2, &dwY2);
  400c3c:	aa01      	add	r2, sp, #4
  400c3e:	a902      	add	r1, sp, #8
  400c40:	a803      	add	r0, sp, #12
  400c42:	4c13      	ldr	r4, [pc, #76]	; (400c90 <ili9488_draw_pixmap+0x6c>)
  400c44:	47a0      	blx	r4

	/* Determine the refresh window area */
	ili9488_set_window(dwX1, dwY1, (dwX2 - dwX1 + 1), (dwY2 - dwY1 + 1));
  400c46:	f8bd 000c 	ldrh.w	r0, [sp, #12]
  400c4a:	f8bd 1008 	ldrh.w	r1, [sp, #8]
  400c4e:	9b00      	ldr	r3, [sp, #0]
  400c50:	3301      	adds	r3, #1
  400c52:	1a5b      	subs	r3, r3, r1
  400c54:	9a01      	ldr	r2, [sp, #4]
  400c56:	3201      	adds	r2, #1
  400c58:	1a12      	subs	r2, r2, r0
  400c5a:	b29b      	uxth	r3, r3
  400c5c:	b292      	uxth	r2, r2
  400c5e:	4c0d      	ldr	r4, [pc, #52]	; (400c94 <ili9488_draw_pixmap+0x70>)
  400c60:	47a0      	blx	r4

	size = (dwX2 - dwX1) * (dwY2 - dwY1);
  400c62:	9903      	ldr	r1, [sp, #12]
  400c64:	9a01      	ldr	r2, [sp, #4]
  400c66:	1a51      	subs	r1, r2, r1
  400c68:	9a02      	ldr	r2, [sp, #8]
  400c6a:	9b00      	ldr	r3, [sp, #0]
  400c6c:	1a9a      	subs	r2, r3, r2
  400c6e:	fb02 f201 	mul.w	r2, r2, r1

	ili9488_write_register(ILI9488_CMD_MEMORY_WRITE, p_ul_pixmap, size * LCD_DATA_COLOR_UNIT);
  400c72:	eb02 0242 	add.w	r2, r2, r2, lsl #1
  400c76:	9906      	ldr	r1, [sp, #24]
  400c78:	202c      	movs	r0, #44	; 0x2c
  400c7a:	4b07      	ldr	r3, [pc, #28]	; (400c98 <ili9488_draw_pixmap+0x74>)
  400c7c:	4798      	blx	r3

	/* Reset the refresh window area */
	ili9488_set_window(0, 0, ILI9488_LCD_WIDTH, ILI9488_LCD_HEIGHT);
  400c7e:	f44f 73f0 	mov.w	r3, #480	; 0x1e0
  400c82:	f44f 72a0 	mov.w	r2, #320	; 0x140
  400c86:	2100      	movs	r1, #0
  400c88:	4608      	mov	r0, r1
  400c8a:	47a0      	blx	r4
}
  400c8c:	b004      	add	sp, #16
  400c8e:	bd10      	pop	{r4, pc}
  400c90:	004006f5 	.word	0x004006f5
  400c94:	00400885 	.word	0x00400885
  400c98:	00400789 	.word	0x00400789

00400c9c <afec_process_callback>:
 * \brief Call the callback function if the corresponding interrupt is asserted
 *
 * \param afec  Base address of the AFEC.
 */
static void afec_process_callback(Afec *const afec)
{
  400c9c:	b570      	push	{r4, r5, r6, lr}
  400c9e:	b082      	sub	sp, #8
 *
 * \return The interrupt status value.
 */
static inline uint32_t afec_get_interrupt_status(Afec *const afec)
{
	return afec->AFEC_ISR;
  400ca0:	6b02      	ldr	r2, [r0, #48]	; 0x30
 *
 * \return The interrupt mask value.
 */
static inline uint32_t afec_get_interrupt_mask(Afec *const afec)
{
	return afec->AFEC_IMR;
  400ca2:	6ac3      	ldr	r3, [r0, #44]	; 0x2c
	volatile uint32_t status;
	uint32_t cnt, inst_num;

	status = afec_get_interrupt_status(afec) & afec_get_interrupt_mask(afec);
  400ca4:	4013      	ands	r3, r2
  400ca6:	9301      	str	r3, [sp, #4]
	inst_num = afec_find_inst_num(afec);

	for (cnt = 0; cnt < _AFEC_NUM_OF_INTERRUPT_SOURCE; cnt++) {
  400ca8:	2400      	movs	r4, #0
	if (afec_callback_pointer[inst_num][source]) {
  400caa:	4e1c      	ldr	r6, [pc, #112]	; (400d1c <afec_process_callback+0x80>)
  400cac:	4d1c      	ldr	r5, [pc, #112]	; (400d20 <afec_process_callback+0x84>)
  400cae:	42a8      	cmp	r0, r5
  400cb0:	bf14      	ite	ne
  400cb2:	2000      	movne	r0, #0
  400cb4:	2001      	moveq	r0, #1
  400cb6:	0105      	lsls	r5, r0, #4
  400cb8:	e00b      	b.n	400cd2 <afec_process_callback+0x36>
		#elif defined __SAM4E8E__  || defined __SAM4E16E__ || SAMV71 || SAMV70 || SAMS70 || SAME70
			if (status & (1 << cnt)) {
				afec_interrupt(inst_num, (enum afec_interrupt_source)cnt);
			}
		#endif
		} else if (cnt < AFEC_INTERRUPT_TEMP_CHANGE) {
  400cba:	2c0e      	cmp	r4, #14
  400cbc:	d81e      	bhi.n	400cfc <afec_process_callback+0x60>
			if (status & (1 << (cnt + AFEC_INTERRUPT_GAP1))) {
  400cbe:	9a01      	ldr	r2, [sp, #4]
  400cc0:	f104 010c 	add.w	r1, r4, #12
  400cc4:	2301      	movs	r3, #1
  400cc6:	408b      	lsls	r3, r1
  400cc8:	4213      	tst	r3, r2
  400cca:	d110      	bne.n	400cee <afec_process_callback+0x52>
	for (cnt = 0; cnt < _AFEC_NUM_OF_INTERRUPT_SOURCE; cnt++) {
  400ccc:	3401      	adds	r4, #1
  400cce:	2c10      	cmp	r4, #16
  400cd0:	d022      	beq.n	400d18 <afec_process_callback+0x7c>
		if (cnt < AFEC_INTERRUPT_DATA_READY) {
  400cd2:	2c0b      	cmp	r4, #11
  400cd4:	d8f1      	bhi.n	400cba <afec_process_callback+0x1e>
			if (status & (1 << cnt)) {
  400cd6:	9a01      	ldr	r2, [sp, #4]
  400cd8:	2301      	movs	r3, #1
  400cda:	40a3      	lsls	r3, r4
  400cdc:	4213      	tst	r3, r2
  400cde:	d0f5      	beq.n	400ccc <afec_process_callback+0x30>
	if (afec_callback_pointer[inst_num][source]) {
  400ce0:	192b      	adds	r3, r5, r4
  400ce2:	f856 3023 	ldr.w	r3, [r6, r3, lsl #2]
  400ce6:	2b00      	cmp	r3, #0
  400ce8:	d0f0      	beq.n	400ccc <afec_process_callback+0x30>
		afec_callback_pointer[inst_num][source]();
  400cea:	4798      	blx	r3
  400cec:	e7ee      	b.n	400ccc <afec_process_callback+0x30>
	if (afec_callback_pointer[inst_num][source]) {
  400cee:	192b      	adds	r3, r5, r4
  400cf0:	f856 3023 	ldr.w	r3, [r6, r3, lsl #2]
  400cf4:	2b00      	cmp	r3, #0
  400cf6:	d0e9      	beq.n	400ccc <afec_process_callback+0x30>
		afec_callback_pointer[inst_num][source]();
  400cf8:	4798      	blx	r3
  400cfa:	e7e7      	b.n	400ccc <afec_process_callback+0x30>
				afec_interrupt(inst_num, (enum afec_interrupt_source)cnt);
			}
		} else {
			if (status & (1 << (cnt + AFEC_INTERRUPT_GAP1 + AFEC_INTERRUPT_GAP2))) {
  400cfc:	9a01      	ldr	r2, [sp, #4]
  400cfe:	f104 010f 	add.w	r1, r4, #15
  400d02:	2301      	movs	r3, #1
  400d04:	408b      	lsls	r3, r1
  400d06:	4213      	tst	r3, r2
  400d08:	d0e0      	beq.n	400ccc <afec_process_callback+0x30>
	if (afec_callback_pointer[inst_num][source]) {
  400d0a:	192b      	adds	r3, r5, r4
  400d0c:	f856 3023 	ldr.w	r3, [r6, r3, lsl #2]
  400d10:	2b00      	cmp	r3, #0
  400d12:	d0db      	beq.n	400ccc <afec_process_callback+0x30>
		afec_callback_pointer[inst_num][source]();
  400d14:	4798      	blx	r3
  400d16:	e7d9      	b.n	400ccc <afec_process_callback+0x30>
				afec_interrupt(inst_num, (enum afec_interrupt_source)cnt);
			}
		}
	}
}
  400d18:	b002      	add	sp, #8
  400d1a:	bd70      	pop	{r4, r5, r6, pc}
  400d1c:	20400eec 	.word	0x20400eec
  400d20:	40064000 	.word	0x40064000

00400d24 <afec_ch_set_config>:
{
  400d24:	b430      	push	{r4, r5}
	reg = afec->AFEC_DIFFR;
  400d26:	6e04      	ldr	r4, [r0, #96]	; 0x60
	reg &= ~(0x1u << channel);
  400d28:	2301      	movs	r3, #1
  400d2a:	408b      	lsls	r3, r1
  400d2c:	ea24 0403 	bic.w	r4, r4, r3
	reg |= (config->diff) ? (0x1u << channel) : 0;
  400d30:	7815      	ldrb	r5, [r2, #0]
  400d32:	2d00      	cmp	r5, #0
  400d34:	bf08      	it	eq
  400d36:	2300      	moveq	r3, #0
  400d38:	4323      	orrs	r3, r4
	afec->AFEC_DIFFR = reg;
  400d3a:	6603      	str	r3, [r0, #96]	; 0x60
	reg = afec->AFEC_CGR;
  400d3c:	6d44      	ldr	r4, [r0, #84]	; 0x54
	reg &= ~(0x03u << (2 * channel));
  400d3e:	004b      	lsls	r3, r1, #1
  400d40:	2103      	movs	r1, #3
  400d42:	4099      	lsls	r1, r3
  400d44:	ea24 0401 	bic.w	r4, r4, r1
	reg |= (config->gain) << (2 * channel);
  400d48:	7851      	ldrb	r1, [r2, #1]
  400d4a:	4099      	lsls	r1, r3
  400d4c:	4321      	orrs	r1, r4
	afec->AFEC_CGR = reg;
  400d4e:	6541      	str	r1, [r0, #84]	; 0x54
}
  400d50:	bc30      	pop	{r4, r5}
  400d52:	4770      	bx	lr

00400d54 <afec_temp_sensor_set_config>:
	reg = ((config->rctc) ? AFEC_TEMPMR_RTCT : 0) | (config->mode);
  400d54:	784b      	ldrb	r3, [r1, #1]
  400d56:	780a      	ldrb	r2, [r1, #0]
  400d58:	4313      	orrs	r3, r2
	afec->AFEC_TEMPMR = reg;
  400d5a:	6703      	str	r3, [r0, #112]	; 0x70
			AFEC_TEMPCWR_THIGHTHRES(config->high_threshold);
  400d5c:	888a      	ldrh	r2, [r1, #4]
	afec->AFEC_TEMPCWR = AFEC_TEMPCWR_TLOWTHRES(config->low_threshold) |
  400d5e:	884b      	ldrh	r3, [r1, #2]
  400d60:	ea43 4302 	orr.w	r3, r3, r2, lsl #16
  400d64:	6743      	str	r3, [r0, #116]	; 0x74
  400d66:	4770      	bx	lr

00400d68 <afec_get_config_defaults>:
	cfg->resolution = AFEC_12_BITS;
  400d68:	2200      	movs	r2, #0
  400d6a:	6002      	str	r2, [r0, #0]
	cfg->mck = sysclk_get_cpu_hz();
  400d6c:	4b08      	ldr	r3, [pc, #32]	; (400d90 <afec_get_config_defaults+0x28>)
  400d6e:	6043      	str	r3, [r0, #4]
		cfg->afec_clock = 6000000UL;
  400d70:	4b08      	ldr	r3, [pc, #32]	; (400d94 <afec_get_config_defaults+0x2c>)
  400d72:	6083      	str	r3, [r0, #8]
		cfg->startup_time = AFEC_STARTUP_TIME_4;
  400d74:	f44f 2380 	mov.w	r3, #262144	; 0x40000
  400d78:	60c3      	str	r3, [r0, #12]
		cfg->tracktim = 2;
  400d7a:	2302      	movs	r3, #2
  400d7c:	7403      	strb	r3, [r0, #16]
		cfg->transfer = 1;
  400d7e:	2301      	movs	r3, #1
  400d80:	7443      	strb	r3, [r0, #17]
		cfg->anach = true;
  400d82:	7483      	strb	r3, [r0, #18]
		cfg->useq = false;
  400d84:	74c2      	strb	r2, [r0, #19]
		cfg->tag = true;
  400d86:	7503      	strb	r3, [r0, #20]
		cfg->stm = true;
  400d88:	7543      	strb	r3, [r0, #21]
		cfg->ibctl = 1;
  400d8a:	7583      	strb	r3, [r0, #22]
  400d8c:	4770      	bx	lr
  400d8e:	bf00      	nop
  400d90:	11e1a300 	.word	0x11e1a300
  400d94:	005b8d80 	.word	0x005b8d80

00400d98 <afec_ch_get_config_defaults>:
	cfg->diff = false;
  400d98:	2300      	movs	r3, #0
  400d9a:	7003      	strb	r3, [r0, #0]
   	cfg->gain = AFEC_GAINVALUE_1;
  400d9c:	2301      	movs	r3, #1
  400d9e:	7043      	strb	r3, [r0, #1]
  400da0:	4770      	bx	lr

00400da2 <afec_temp_sensor_get_config_defaults>:
	cfg->rctc = false;
  400da2:	2300      	movs	r3, #0
  400da4:	7003      	strb	r3, [r0, #0]
	cfg->mode= AFEC_TEMP_CMP_MODE_2;
  400da6:	2320      	movs	r3, #32
  400da8:	7043      	strb	r3, [r0, #1]
	cfg->low_threshold= 0xFF;
  400daa:	23ff      	movs	r3, #255	; 0xff
  400dac:	8043      	strh	r3, [r0, #2]
	cfg->high_threshold= 0xFFF;
  400dae:	f640 73ff 	movw	r3, #4095	; 0xfff
  400db2:	8083      	strh	r3, [r0, #4]
  400db4:	4770      	bx	lr
	...

00400db8 <afec_init>:
	return afec->AFEC_ISR;
  400db8:	6b02      	ldr	r2, [r0, #48]	; 0x30
	if ((afec_get_interrupt_status(afec) & AFEC_ISR_DRDY) == AFEC_ISR_DRDY) {
  400dba:	f012 7280 	ands.w	r2, r2, #16777216	; 0x1000000
  400dbe:	d001      	beq.n	400dc4 <afec_init+0xc>
		return STATUS_ERR_BUSY;
  400dc0:	2019      	movs	r0, #25
  400dc2:	4770      	bx	lr
{
  400dc4:	b410      	push	{r4}
	afec->AFEC_CR = AFEC_CR_SWRST;
  400dc6:	2301      	movs	r3, #1
  400dc8:	6003      	str	r3, [r0, #0]
	reg = (config->useq ? AFEC_MR_USEQ_REG_ORDER : 0) |
  400dca:	7ccb      	ldrb	r3, [r1, #19]
  400dcc:	2b00      	cmp	r3, #0
  400dce:	bf18      	it	ne
  400dd0:	f04f 4200 	movne.w	r2, #2147483648	; 0x80000000
			AFEC_MR_PRESCAL((config->mck / config->afec_clock )- 1) |
  400dd4:	684b      	ldr	r3, [r1, #4]
  400dd6:	688c      	ldr	r4, [r1, #8]
  400dd8:	fbb3 f3f4 	udiv	r3, r3, r4
  400ddc:	3b01      	subs	r3, #1
  400dde:	021b      	lsls	r3, r3, #8
  400de0:	b29b      	uxth	r3, r3
	reg = (config->useq ? AFEC_MR_USEQ_REG_ORDER : 0) |
  400de2:	68cc      	ldr	r4, [r1, #12]
  400de4:	f444 0400 	orr.w	r4, r4, #8388608	; 0x800000
  400de8:	4323      	orrs	r3, r4
			AFEC_MR_TRACKTIM(config->tracktim) |
  400dea:	7c0c      	ldrb	r4, [r1, #16]
  400dec:	0624      	lsls	r4, r4, #24
  400dee:	f004 6470 	and.w	r4, r4, #251658240	; 0xf000000
	reg = (config->useq ? AFEC_MR_USEQ_REG_ORDER : 0) |
  400df2:	4323      	orrs	r3, r4
			AFEC_MR_TRANSFER(config->transfer) |
  400df4:	7c4c      	ldrb	r4, [r1, #17]
  400df6:	0724      	lsls	r4, r4, #28
  400df8:	f004 5440 	and.w	r4, r4, #805306368	; 0x30000000
	reg = (config->useq ? AFEC_MR_USEQ_REG_ORDER : 0) |
  400dfc:	4323      	orrs	r3, r4
  400dfe:	4313      	orrs	r3, r2
	afec->AFEC_MR = reg;
  400e00:	6043      	str	r3, [r0, #4]
	afec->AFEC_EMR = (config->tag ? AFEC_EMR_TAG : 0) |
  400e02:	7d0b      	ldrb	r3, [r1, #20]
  400e04:	2b00      	cmp	r3, #0
  400e06:	bf14      	ite	ne
  400e08:	f04f 7380 	movne.w	r3, #16777216	; 0x1000000
  400e0c:	2300      	moveq	r3, #0
  400e0e:	680a      	ldr	r2, [r1, #0]
  400e10:	4313      	orrs	r3, r2
			(config->stm ? AFEC_EMR_STM : 0);
  400e12:	7d4a      	ldrb	r2, [r1, #21]
  400e14:	2a00      	cmp	r2, #0
  400e16:	bf14      	ite	ne
  400e18:	f04f 7200 	movne.w	r2, #33554432	; 0x2000000
  400e1c:	2200      	moveq	r2, #0
			(config->resolution) |
  400e1e:	4313      	orrs	r3, r2
	afec->AFEC_EMR = (config->tag ? AFEC_EMR_TAG : 0) |
  400e20:	6083      	str	r3, [r0, #8]
	afec->AFEC_ACR = AFEC_ACR_IBCTL(config->ibctl) | AFEC_ACR_PGA0EN | AFEC_ACR_PGA1EN;
  400e22:	7d8b      	ldrb	r3, [r1, #22]
  400e24:	021b      	lsls	r3, r3, #8
  400e26:	f403 7340 	and.w	r3, r3, #768	; 0x300
  400e2a:	f043 030c 	orr.w	r3, r3, #12
  400e2e:	f8c0 3094 	str.w	r3, [r0, #148]	; 0x94
	if(afec == AFEC0) {
  400e32:	4b0f      	ldr	r3, [pc, #60]	; (400e70 <afec_init+0xb8>)
  400e34:	4298      	cmp	r0, r3
  400e36:	d006      	beq.n	400e46 <afec_init+0x8e>
	if(afec == AFEC1) {
  400e38:	4b0e      	ldr	r3, [pc, #56]	; (400e74 <afec_init+0xbc>)
  400e3a:	4298      	cmp	r0, r3
  400e3c:	d00d      	beq.n	400e5a <afec_init+0xa2>
	return STATUS_OK;
  400e3e:	2000      	movs	r0, #0
}
  400e40:	f85d 4b04 	ldr.w	r4, [sp], #4
  400e44:	4770      	bx	lr
  400e46:	4b0c      	ldr	r3, [pc, #48]	; (400e78 <afec_init+0xc0>)
  400e48:	f103 0140 	add.w	r1, r3, #64	; 0x40
			afec_callback_pointer[0][i] = 0;
  400e4c:	2200      	movs	r2, #0
  400e4e:	f843 2f04 	str.w	r2, [r3, #4]!
		for (i = 0; i < _AFEC_NUM_OF_INTERRUPT_SOURCE; i++){
  400e52:	428b      	cmp	r3, r1
  400e54:	d1fb      	bne.n	400e4e <afec_init+0x96>
	return STATUS_OK;
  400e56:	2000      	movs	r0, #0
  400e58:	e7f2      	b.n	400e40 <afec_init+0x88>
  400e5a:	4b08      	ldr	r3, [pc, #32]	; (400e7c <afec_init+0xc4>)
  400e5c:	f103 0140 	add.w	r1, r3, #64	; 0x40
			afec_callback_pointer[1][i] = 0;
  400e60:	2200      	movs	r2, #0
  400e62:	f843 2b04 	str.w	r2, [r3], #4
		for (i = 0; i < _AFEC_NUM_OF_INTERRUPT_SOURCE; i++){
  400e66:	428b      	cmp	r3, r1
  400e68:	d1fb      	bne.n	400e62 <afec_init+0xaa>
	return STATUS_OK;
  400e6a:	2000      	movs	r0, #0
  400e6c:	e7e8      	b.n	400e40 <afec_init+0x88>
  400e6e:	bf00      	nop
  400e70:	4003c000 	.word	0x4003c000
  400e74:	40064000 	.word	0x40064000
  400e78:	20400ee8 	.word	0x20400ee8
  400e7c:	20400f2c 	.word	0x20400f2c

00400e80 <afec_enable_interrupt>:
	if (interrupt_source == AFEC_INTERRUPT_ALL) {
  400e80:	4b0c      	ldr	r3, [pc, #48]	; (400eb4 <afec_enable_interrupt+0x34>)
  400e82:	4299      	cmp	r1, r3
  400e84:	d007      	beq.n	400e96 <afec_enable_interrupt+0x16>
	if (interrupt_source < AFEC_INTERRUPT_DATA_READY) {
  400e86:	290b      	cmp	r1, #11
  400e88:	d80b      	bhi.n	400ea2 <afec_enable_interrupt+0x22>
		if (interrupt_source == AFEC_INTERRUPT_EOC_11) {
  400e8a:	d006      	beq.n	400e9a <afec_enable_interrupt+0x1a>
			afec->AFEC_IER = 1 << interrupt_source;
  400e8c:	2301      	movs	r3, #1
  400e8e:	fa03 f101 	lsl.w	r1, r3, r1
  400e92:	6241      	str	r1, [r0, #36]	; 0x24
  400e94:	4770      	bx	lr
		afec->AFEC_IER = AFEC_INTERRUPT_ALL;
  400e96:	6243      	str	r3, [r0, #36]	; 0x24
		return;
  400e98:	4770      	bx	lr
			afec->AFEC_IER = 1 << AFEC_TEMP_INT_SOURCE_NUM;
  400e9a:	f44f 6300 	mov.w	r3, #2048	; 0x800
  400e9e:	6243      	str	r3, [r0, #36]	; 0x24
  400ea0:	4770      	bx	lr
	} else if (interrupt_source < AFEC_INTERRUPT_TEMP_CHANGE) {
  400ea2:	290e      	cmp	r1, #14
		afec->AFEC_IER = 1 << (interrupt_source + AFEC_INTERRUPT_GAP1);
  400ea4:	bf94      	ite	ls
  400ea6:	310c      	addls	r1, #12
				+ AFEC_INTERRUPT_GAP2);
  400ea8:	310f      	addhi	r1, #15
		afec->AFEC_IER = 1 << (interrupt_source + AFEC_INTERRUPT_GAP1
  400eaa:	2301      	movs	r3, #1
  400eac:	fa03 f101 	lsl.w	r1, r3, r1
  400eb0:	6241      	str	r1, [r0, #36]	; 0x24
  400eb2:	4770      	bx	lr
  400eb4:	47000fff 	.word	0x47000fff

00400eb8 <afec_set_callback>:
{
  400eb8:	b538      	push	{r3, r4, r5, lr}
	if (afec == AFEC1) {
  400eba:	4c11      	ldr	r4, [pc, #68]	; (400f00 <afec_set_callback+0x48>)
  400ebc:	42a0      	cmp	r0, r4
	afec_callback_pointer[i][source] = callback;
  400ebe:	bf0c      	ite	eq
  400ec0:	2410      	moveq	r4, #16
  400ec2:	2400      	movne	r4, #0
  400ec4:	440c      	add	r4, r1
  400ec6:	4d0f      	ldr	r5, [pc, #60]	; (400f04 <afec_set_callback+0x4c>)
  400ec8:	f845 2024 	str.w	r2, [r5, r4, lsl #2]
	if (!i) {
  400ecc:	d10a      	bne.n	400ee4 <afec_set_callback+0x2c>
  NVIC->ICPR[((uint32_t)(IRQn) >> 5)] = (1 << ((uint32_t)(IRQn) & 0x1F)); /* Clear pending interrupt */
  400ece:	4a0e      	ldr	r2, [pc, #56]	; (400f08 <afec_set_callback+0x50>)
  400ed0:	f44f 7480 	mov.w	r4, #256	; 0x100
  400ed4:	f8c2 4184 	str.w	r4, [r2, #388]	; 0x184
    NVIC->IP[(uint32_t)(IRQn)]            = ((priority << (8 - __NVIC_PRIO_BITS)) & 0xff); } /* set Priority for device specific Interrupts  */
  400ed8:	015b      	lsls	r3, r3, #5
  400eda:	b2db      	uxtb	r3, r3
  400edc:	f882 3328 	strb.w	r3, [r2, #808]	; 0x328
  NVIC->ISER[(uint32_t)((int32_t)IRQn) >> 5] = (uint32_t)(1 << ((uint32_t)((int32_t)IRQn) & (uint32_t)0x1F)); /* enable interrupt */
  400ee0:	6054      	str	r4, [r2, #4]
  400ee2:	e009      	b.n	400ef8 <afec_set_callback+0x40>
  NVIC->ICPR[((uint32_t)(IRQn) >> 5)] = (1 << ((uint32_t)(IRQn) & 0x1F)); /* Clear pending interrupt */
  400ee4:	4a08      	ldr	r2, [pc, #32]	; (400f08 <afec_set_callback+0x50>)
  400ee6:	f04f 5400 	mov.w	r4, #536870912	; 0x20000000
  400eea:	f8c2 4180 	str.w	r4, [r2, #384]	; 0x180
    NVIC->IP[(uint32_t)(IRQn)]            = ((priority << (8 - __NVIC_PRIO_BITS)) & 0xff); } /* set Priority for device specific Interrupts  */
  400eee:	015b      	lsls	r3, r3, #5
  400ef0:	b2db      	uxtb	r3, r3
  400ef2:	f882 331d 	strb.w	r3, [r2, #797]	; 0x31d
  NVIC->ISER[(uint32_t)((int32_t)IRQn) >> 5] = (uint32_t)(1 << ((uint32_t)((int32_t)IRQn) & (uint32_t)0x1F)); /* enable interrupt */
  400ef6:	6014      	str	r4, [r2, #0]
	afec_enable_interrupt(afec, source);
  400ef8:	4b04      	ldr	r3, [pc, #16]	; (400f0c <afec_set_callback+0x54>)
  400efa:	4798      	blx	r3
  400efc:	bd38      	pop	{r3, r4, r5, pc}
  400efe:	bf00      	nop
  400f00:	40064000 	.word	0x40064000
  400f04:	20400eec 	.word	0x20400eec
  400f08:	e000e100 	.word	0xe000e100
  400f0c:	00400e81 	.word	0x00400e81

00400f10 <AFEC0_Handler>:

/**
 * \brief Interrupt handler for AFEC0.
 */
void AFEC0_Handler(void)
{
  400f10:	b508      	push	{r3, lr}
	afec_process_callback(AFEC0);
  400f12:	4802      	ldr	r0, [pc, #8]	; (400f1c <AFEC0_Handler+0xc>)
  400f14:	4b02      	ldr	r3, [pc, #8]	; (400f20 <AFEC0_Handler+0x10>)
  400f16:	4798      	blx	r3
  400f18:	bd08      	pop	{r3, pc}
  400f1a:	bf00      	nop
  400f1c:	4003c000 	.word	0x4003c000
  400f20:	00400c9d 	.word	0x00400c9d

00400f24 <AFEC1_Handler>:

/**
 * \brief Interrupt handler for AFEC1.
 */
void AFEC1_Handler(void)
{
  400f24:	b508      	push	{r3, lr}
	afec_process_callback(AFEC1);
  400f26:	4802      	ldr	r0, [pc, #8]	; (400f30 <AFEC1_Handler+0xc>)
  400f28:	4b02      	ldr	r3, [pc, #8]	; (400f34 <AFEC1_Handler+0x10>)
  400f2a:	4798      	blx	r3
  400f2c:	bd08      	pop	{r3, pc}
  400f2e:	bf00      	nop
  400f30:	40064000 	.word	0x40064000
  400f34:	00400c9d 	.word	0x00400c9d

00400f38 <afec_enable>:
 * \brief Enable AFEC Module.
 *
 * \param afec  Base address of the AFEC
 */
void afec_enable(Afec *const afec)
{
  400f38:	b500      	push	{lr}
  400f3a:	b083      	sub	sp, #12
	Assert(afec);
	uint32_t pid;

	pid = afec_find_pid(afec);
	/* Enable peripheral clock. */
	pmc_enable_periph_clk(pid);
  400f3c:	4b13      	ldr	r3, [pc, #76]	; (400f8c <afec_enable+0x54>)
  400f3e:	4298      	cmp	r0, r3
  400f40:	bf0c      	ite	eq
  400f42:	2028      	moveq	r0, #40	; 0x28
  400f44:	201d      	movne	r0, #29
  400f46:	4b12      	ldr	r3, [pc, #72]	; (400f90 <afec_enable+0x58>)
  400f48:	4798      	blx	r3
static inline void sleepmgr_lock_mode(enum sleepmgr_mode mode)
{
#ifdef CONFIG_SLEEPMGR_ENABLE
	irqflags_t flags;

	if(sleepmgr_locks[mode] >= 0xff) {
  400f4a:	4b12      	ldr	r3, [pc, #72]	; (400f94 <afec_enable+0x5c>)
  400f4c:	789b      	ldrb	r3, [r3, #2]
  400f4e:	2bff      	cmp	r3, #255	; 0xff
  400f50:	d01a      	beq.n	400f88 <afec_enable+0x50>
 */
__attribute__( ( always_inline ) ) __STATIC_INLINE uint32_t __get_PRIMASK(void)
{
  uint32_t result;

  __ASM volatile ("MRS %0, primask" : "=r" (result) );
  400f52:	f3ef 8310 	mrs	r3, PRIMASK
static volatile uint32_t cpu_irq_critical_section_counter;
static volatile bool     cpu_irq_prev_interrupt_state;

static inline irqflags_t cpu_irq_save(void)
{
	volatile irqflags_t flags = cpu_irq_is_enabled();
  400f56:	fab3 f383 	clz	r3, r3
  400f5a:	095b      	lsrs	r3, r3, #5
  400f5c:	9301      	str	r3, [sp, #4]
  __ASM volatile ("cpsid i" : : : "memory");
  400f5e:	b672      	cpsid	i
  __ASM volatile ("dmb");
  400f60:	f3bf 8f5f 	dmb	sy
	cpu_irq_disable();
  400f64:	2200      	movs	r2, #0
  400f66:	4b0c      	ldr	r3, [pc, #48]	; (400f98 <afec_enable+0x60>)
  400f68:	701a      	strb	r2, [r3, #0]
	return flags;
  400f6a:	9901      	ldr	r1, [sp, #4]
	}

	// Enter a critical section
	flags = cpu_irq_save();

	++sleepmgr_locks[mode];
  400f6c:	4a09      	ldr	r2, [pc, #36]	; (400f94 <afec_enable+0x5c>)
  400f6e:	7893      	ldrb	r3, [r2, #2]
  400f70:	3301      	adds	r3, #1
  400f72:	7093      	strb	r3, [r2, #2]
	return (flags);
}

static inline void cpu_irq_restore(irqflags_t flags)
{
	if (cpu_irq_is_enabled_flags(flags))
  400f74:	b129      	cbz	r1, 400f82 <afec_enable+0x4a>
		cpu_irq_enable();
  400f76:	2201      	movs	r2, #1
  400f78:	4b07      	ldr	r3, [pc, #28]	; (400f98 <afec_enable+0x60>)
  400f7a:	701a      	strb	r2, [r3, #0]
  400f7c:	f3bf 8f5f 	dmb	sy
  __ASM volatile ("cpsie i" : : : "memory");
  400f80:	b662      	cpsie	i
	sleepmgr_lock_mode(SLEEPMGR_SLEEP_WFI);
}
  400f82:	b003      	add	sp, #12
  400f84:	f85d fb04 	ldr.w	pc, [sp], #4
  400f88:	e7fe      	b.n	400f88 <afec_enable+0x50>
  400f8a:	bf00      	nop
  400f8c:	40064000 	.word	0x40064000
  400f90:	00401465 	.word	0x00401465
  400f94:	20400ed8 	.word	0x20400ed8
  400f98:	2040000a 	.word	0x2040000a

00400f9c <pio_set>:
 * \param p_pio Pointer to a PIO instance.
 * \param ul_mask Bitmask of one or more pin(s) to configure.
 */
void pio_set(Pio *p_pio, const uint32_t ul_mask)
{
	p_pio->PIO_SODR = ul_mask;
  400f9c:	6301      	str	r1, [r0, #48]	; 0x30
  400f9e:	4770      	bx	lr

00400fa0 <pio_set_peripheral>:
		const uint32_t ul_mask)
{
	uint32_t ul_sr;

	/* Disable interrupts on the pin(s) */
	p_pio->PIO_IDR = ul_mask;
  400fa0:	6442      	str	r2, [r0, #68]	; 0x44

#if (SAM3S || SAM3N || SAM4S || SAM4E || SAM4N || SAM4C || SAMG || SAM4CP || SAM4CM || SAMV71 || SAMV70 || SAME70 || SAMS70)
	switch (ul_type) {
  400fa2:	f1b1 5fc0 	cmp.w	r1, #402653184	; 0x18000000
  400fa6:	d03a      	beq.n	40101e <pio_set_peripheral+0x7e>
  400fa8:	d813      	bhi.n	400fd2 <pio_set_peripheral+0x32>
  400faa:	f1b1 6f00 	cmp.w	r1, #134217728	; 0x8000000
  400fae:	d025      	beq.n	400ffc <pio_set_peripheral+0x5c>
  400fb0:	f1b1 5f80 	cmp.w	r1, #268435456	; 0x10000000
  400fb4:	d10a      	bne.n	400fcc <pio_set_peripheral+0x2c>

		ul_sr = p_pio->PIO_ABCDSR[1];
		p_pio->PIO_ABCDSR[1] &= (~ul_mask & ul_sr);
		break;
	case PIO_PERIPH_B:
		ul_sr = p_pio->PIO_ABCDSR[0];
  400fb6:	6f03      	ldr	r3, [r0, #112]	; 0x70
		p_pio->PIO_ABCDSR[0] = (ul_mask | ul_sr);
  400fb8:	4313      	orrs	r3, r2
  400fba:	6703      	str	r3, [r0, #112]	; 0x70

		ul_sr = p_pio->PIO_ABCDSR[1];
  400fbc:	6f43      	ldr	r3, [r0, #116]	; 0x74
		p_pio->PIO_ABCDSR[1] &= (~ul_mask & ul_sr);
  400fbe:	6f41      	ldr	r1, [r0, #116]	; 0x74
  400fc0:	400b      	ands	r3, r1
  400fc2:	ea23 0302 	bic.w	r3, r3, r2
  400fc6:	6743      	str	r3, [r0, #116]	; 0x74
#else
#error "Unsupported device"
#endif

	/* Remove the pins from under the control of PIO */
	p_pio->PIO_PDR = ul_mask;
  400fc8:	6042      	str	r2, [r0, #4]
  400fca:	4770      	bx	lr
	switch (ul_type) {
  400fcc:	2900      	cmp	r1, #0
  400fce:	d1fb      	bne.n	400fc8 <pio_set_peripheral+0x28>
  400fd0:	4770      	bx	lr
  400fd2:	f1b1 5f20 	cmp.w	r1, #671088640	; 0x28000000
  400fd6:	d021      	beq.n	40101c <pio_set_peripheral+0x7c>
  400fd8:	d809      	bhi.n	400fee <pio_set_peripheral+0x4e>
  400fda:	f1b1 5f00 	cmp.w	r1, #536870912	; 0x20000000
  400fde:	d1f3      	bne.n	400fc8 <pio_set_peripheral+0x28>
		ul_sr = p_pio->PIO_ABCDSR[0];
  400fe0:	6f03      	ldr	r3, [r0, #112]	; 0x70
		p_pio->PIO_ABCDSR[0] = (ul_mask | ul_sr);
  400fe2:	4313      	orrs	r3, r2
  400fe4:	6703      	str	r3, [r0, #112]	; 0x70
		ul_sr = p_pio->PIO_ABCDSR[1];
  400fe6:	6f43      	ldr	r3, [r0, #116]	; 0x74
		p_pio->PIO_ABCDSR[1] = (ul_mask | ul_sr);
  400fe8:	4313      	orrs	r3, r2
  400fea:	6743      	str	r3, [r0, #116]	; 0x74
		break;
  400fec:	e7ec      	b.n	400fc8 <pio_set_peripheral+0x28>
	switch (ul_type) {
  400fee:	f1b1 5f40 	cmp.w	r1, #805306368	; 0x30000000
  400ff2:	d013      	beq.n	40101c <pio_set_peripheral+0x7c>
  400ff4:	f1b1 5f60 	cmp.w	r1, #939524096	; 0x38000000
  400ff8:	d010      	beq.n	40101c <pio_set_peripheral+0x7c>
  400ffa:	e7e5      	b.n	400fc8 <pio_set_peripheral+0x28>
{
  400ffc:	b410      	push	{r4}
		ul_sr = p_pio->PIO_ABCDSR[0];
  400ffe:	6f01      	ldr	r1, [r0, #112]	; 0x70
		p_pio->PIO_ABCDSR[0] &= (~ul_mask & ul_sr);
  401000:	6f04      	ldr	r4, [r0, #112]	; 0x70
  401002:	43d3      	mvns	r3, r2
  401004:	4021      	ands	r1, r4
  401006:	461c      	mov	r4, r3
  401008:	4019      	ands	r1, r3
  40100a:	6701      	str	r1, [r0, #112]	; 0x70
		ul_sr = p_pio->PIO_ABCDSR[1];
  40100c:	6f43      	ldr	r3, [r0, #116]	; 0x74
		p_pio->PIO_ABCDSR[1] &= (~ul_mask & ul_sr);
  40100e:	6f41      	ldr	r1, [r0, #116]	; 0x74
  401010:	400b      	ands	r3, r1
  401012:	4023      	ands	r3, r4
  401014:	6743      	str	r3, [r0, #116]	; 0x74
	p_pio->PIO_PDR = ul_mask;
  401016:	6042      	str	r2, [r0, #4]
}
  401018:	f85d 4b04 	ldr.w	r4, [sp], #4
  40101c:	4770      	bx	lr
		ul_sr = p_pio->PIO_ABCDSR[0];
  40101e:	6f03      	ldr	r3, [r0, #112]	; 0x70
		p_pio->PIO_ABCDSR[0] &= (~ul_mask & ul_sr);
  401020:	6f01      	ldr	r1, [r0, #112]	; 0x70
  401022:	400b      	ands	r3, r1
  401024:	ea23 0302 	bic.w	r3, r3, r2
  401028:	6703      	str	r3, [r0, #112]	; 0x70
		ul_sr = p_pio->PIO_ABCDSR[1];
  40102a:	6f43      	ldr	r3, [r0, #116]	; 0x74
		p_pio->PIO_ABCDSR[1] = (ul_mask | ul_sr);
  40102c:	4313      	orrs	r3, r2
  40102e:	6743      	str	r3, [r0, #116]	; 0x74
		break;
  401030:	e7ca      	b.n	400fc8 <pio_set_peripheral+0x28>

00401032 <pio_set_input>:
 * \param p_pio Pointer to a PIO instance.
 * \param ul_mask Interrupt sources bit map.
 */
void pio_disable_interrupt(Pio *p_pio, const uint32_t ul_mask)
{
	p_pio->PIO_IDR = ul_mask;
  401032:	6441      	str	r1, [r0, #68]	; 0x44
	if (ul_pull_up_enable) {
  401034:	f012 0f01 	tst.w	r2, #1
  401038:	d10d      	bne.n	401056 <pio_set_input+0x24>
		p_pio->PIO_PUDR = ul_mask;
  40103a:	6601      	str	r1, [r0, #96]	; 0x60
	if (ul_attribute & (PIO_DEGLITCH | PIO_DEBOUNCE)) {
  40103c:	f012 0f0a 	tst.w	r2, #10
  401040:	d00b      	beq.n	40105a <pio_set_input+0x28>
		p_pio->PIO_IFER = ul_mask;
  401042:	6201      	str	r1, [r0, #32]
	if (ul_attribute & PIO_DEGLITCH) {
  401044:	f012 0f02 	tst.w	r2, #2
  401048:	d109      	bne.n	40105e <pio_set_input+0x2c>
		if (ul_attribute & PIO_DEBOUNCE) {
  40104a:	f012 0f08 	tst.w	r2, #8
  40104e:	d008      	beq.n	401062 <pio_set_input+0x30>
			p_pio->PIO_IFSCER = ul_mask;
  401050:	f8c0 1084 	str.w	r1, [r0, #132]	; 0x84
  401054:	e005      	b.n	401062 <pio_set_input+0x30>
		p_pio->PIO_PUER = ul_mask;
  401056:	6641      	str	r1, [r0, #100]	; 0x64
  401058:	e7f0      	b.n	40103c <pio_set_input+0xa>
		p_pio->PIO_IFDR = ul_mask;
  40105a:	6241      	str	r1, [r0, #36]	; 0x24
  40105c:	e7f2      	b.n	401044 <pio_set_input+0x12>
		p_pio->PIO_IFSCDR = ul_mask;
  40105e:	f8c0 1080 	str.w	r1, [r0, #128]	; 0x80
	p_pio->PIO_ODR = ul_mask;
  401062:	6141      	str	r1, [r0, #20]
	p_pio->PIO_PER = ul_mask;
  401064:	6001      	str	r1, [r0, #0]
  401066:	4770      	bx	lr

00401068 <pio_set_output>:
{
  401068:	b410      	push	{r4}
  40106a:	9c01      	ldr	r4, [sp, #4]
	p_pio->PIO_IDR = ul_mask;
  40106c:	6441      	str	r1, [r0, #68]	; 0x44
	if (ul_pull_up_enable) {
  40106e:	b94c      	cbnz	r4, 401084 <pio_set_output+0x1c>
		p_pio->PIO_PUDR = ul_mask;
  401070:	6601      	str	r1, [r0, #96]	; 0x60
	if (ul_multidrive_enable) {
  401072:	b14b      	cbz	r3, 401088 <pio_set_output+0x20>
		p_pio->PIO_MDER = ul_mask;
  401074:	6501      	str	r1, [r0, #80]	; 0x50
	if (ul_default_level) {
  401076:	b94a      	cbnz	r2, 40108c <pio_set_output+0x24>
		p_pio->PIO_CODR = ul_mask;
  401078:	6341      	str	r1, [r0, #52]	; 0x34
	p_pio->PIO_OER = ul_mask;
  40107a:	6101      	str	r1, [r0, #16]
	p_pio->PIO_PER = ul_mask;
  40107c:	6001      	str	r1, [r0, #0]
}
  40107e:	f85d 4b04 	ldr.w	r4, [sp], #4
  401082:	4770      	bx	lr
		p_pio->PIO_PUER = ul_mask;
  401084:	6641      	str	r1, [r0, #100]	; 0x64
  401086:	e7f4      	b.n	401072 <pio_set_output+0xa>
		p_pio->PIO_MDDR = ul_mask;
  401088:	6541      	str	r1, [r0, #84]	; 0x54
  40108a:	e7f4      	b.n	401076 <pio_set_output+0xe>
		p_pio->PIO_SODR = ul_mask;
  40108c:	6301      	str	r1, [r0, #48]	; 0x30
  40108e:	e7f4      	b.n	40107a <pio_set_output+0x12>

00401090 <pio_configure>:
{
  401090:	b570      	push	{r4, r5, r6, lr}
  401092:	b082      	sub	sp, #8
  401094:	4605      	mov	r5, r0
  401096:	4616      	mov	r6, r2
  401098:	461c      	mov	r4, r3
	switch (ul_type) {
  40109a:	f1b1 5f00 	cmp.w	r1, #536870912	; 0x20000000
  40109e:	d014      	beq.n	4010ca <pio_configure+0x3a>
  4010a0:	d90a      	bls.n	4010b8 <pio_configure+0x28>
  4010a2:	f1b1 5f40 	cmp.w	r1, #805306368	; 0x30000000
  4010a6:	d024      	beq.n	4010f2 <pio_configure+0x62>
  4010a8:	f1b1 5f60 	cmp.w	r1, #939524096	; 0x38000000
  4010ac:	d021      	beq.n	4010f2 <pio_configure+0x62>
  4010ae:	f1b1 5f20 	cmp.w	r1, #671088640	; 0x28000000
  4010b2:	d017      	beq.n	4010e4 <pio_configure+0x54>
		return 0;
  4010b4:	2000      	movs	r0, #0
  4010b6:	e01a      	b.n	4010ee <pio_configure+0x5e>
	switch (ul_type) {
  4010b8:	f1b1 5f80 	cmp.w	r1, #268435456	; 0x10000000
  4010bc:	d005      	beq.n	4010ca <pio_configure+0x3a>
  4010be:	f1b1 5fc0 	cmp.w	r1, #402653184	; 0x18000000
  4010c2:	d002      	beq.n	4010ca <pio_configure+0x3a>
  4010c4:	f1b1 6f00 	cmp.w	r1, #134217728	; 0x8000000
  4010c8:	d1f4      	bne.n	4010b4 <pio_configure+0x24>
		pio_set_peripheral(p_pio, ul_type, ul_mask);
  4010ca:	4632      	mov	r2, r6
  4010cc:	4628      	mov	r0, r5
  4010ce:	4b11      	ldr	r3, [pc, #68]	; (401114 <pio_configure+0x84>)
  4010d0:	4798      	blx	r3
	if (ul_pull_up_enable) {
  4010d2:	f014 0f01 	tst.w	r4, #1
  4010d6:	d102      	bne.n	4010de <pio_configure+0x4e>
		p_pio->PIO_PUDR = ul_mask;
  4010d8:	662e      	str	r6, [r5, #96]	; 0x60
	return 1;
  4010da:	2001      	movs	r0, #1
  4010dc:	e007      	b.n	4010ee <pio_configure+0x5e>
		p_pio->PIO_PUER = ul_mask;
  4010de:	666e      	str	r6, [r5, #100]	; 0x64
	return 1;
  4010e0:	2001      	movs	r0, #1
  4010e2:	e004      	b.n	4010ee <pio_configure+0x5e>
		pio_set_input(p_pio, ul_mask, ul_attribute);
  4010e4:	461a      	mov	r2, r3
  4010e6:	4631      	mov	r1, r6
  4010e8:	4b0b      	ldr	r3, [pc, #44]	; (401118 <pio_configure+0x88>)
  4010ea:	4798      	blx	r3
	return 1;
  4010ec:	2001      	movs	r0, #1
}
  4010ee:	b002      	add	sp, #8
  4010f0:	bd70      	pop	{r4, r5, r6, pc}
		pio_set_output(p_pio, ul_mask, (ul_type == PIO_OUTPUT_1),
  4010f2:	f004 0301 	and.w	r3, r4, #1
  4010f6:	9300      	str	r3, [sp, #0]
  4010f8:	f3c4 0380 	ubfx	r3, r4, #2, #1
  4010fc:	f1b1 5f60 	cmp.w	r1, #939524096	; 0x38000000
  401100:	bf14      	ite	ne
  401102:	2200      	movne	r2, #0
  401104:	2201      	moveq	r2, #1
  401106:	4631      	mov	r1, r6
  401108:	4628      	mov	r0, r5
  40110a:	4c04      	ldr	r4, [pc, #16]	; (40111c <pio_configure+0x8c>)
  40110c:	47a0      	blx	r4
	return 1;
  40110e:	2001      	movs	r0, #1
		break;
  401110:	e7ed      	b.n	4010ee <pio_configure+0x5e>
  401112:	bf00      	nop
  401114:	00400fa1 	.word	0x00400fa1
  401118:	00401033 	.word	0x00401033
  40111c:	00401069 	.word	0x00401069

00401120 <pio_get_interrupt_status>:
 *
 * \return The interrupt status value.
 */
uint32_t pio_get_interrupt_status(const Pio *p_pio)
{
	return p_pio->PIO_ISR;
  401120:	6cc0      	ldr	r0, [r0, #76]	; 0x4c
}
  401122:	4770      	bx	lr

00401124 <pio_get_interrupt_mask>:
 *
 * \return The interrupt mask value.
 */
uint32_t pio_get_interrupt_mask(const Pio *p_pio)
{
	return p_pio->PIO_IMR;
  401124:	6c80      	ldr	r0, [r0, #72]	; 0x48
}
  401126:	4770      	bx	lr

00401128 <pio_set_pin_high>:
		p_pio = PIOC;
	} else {
		p_pio = (Pio *)((uint32_t)PIOA + (PIO_DELTA * (ul_pin >> 5)));
	}
#else
	p_pio = (Pio *)((uint32_t)PIOA + (PIO_DELTA * (ul_pin >> 5)));
  401128:	4b05      	ldr	r3, [pc, #20]	; (401140 <pio_set_pin_high+0x18>)
  40112a:	eb03 1350 	add.w	r3, r3, r0, lsr #5
  40112e:	025b      	lsls	r3, r3, #9
	p_pio->PIO_SODR = 1 << (ul_pin & 0x1F);
  401130:	f000 001f 	and.w	r0, r0, #31
  401134:	2201      	movs	r2, #1
  401136:	fa02 f000 	lsl.w	r0, r2, r0
  40113a:	6318      	str	r0, [r3, #48]	; 0x30
  40113c:	4770      	bx	lr
  40113e:	bf00      	nop
  401140:	00200707 	.word	0x00200707

00401144 <pio_set_pin_low>:
	p_pio = (Pio *)((uint32_t)PIOA + (PIO_DELTA * (ul_pin >> 5)));
  401144:	4b05      	ldr	r3, [pc, #20]	; (40115c <pio_set_pin_low+0x18>)
  401146:	eb03 1350 	add.w	r3, r3, r0, lsr #5
  40114a:	025b      	lsls	r3, r3, #9
	p_pio->PIO_CODR = 1 << (ul_pin & 0x1F);
  40114c:	f000 001f 	and.w	r0, r0, #31
  401150:	2201      	movs	r2, #1
  401152:	fa02 f000 	lsl.w	r0, r2, r0
  401156:	6358      	str	r0, [r3, #52]	; 0x34
  401158:	4770      	bx	lr
  40115a:	bf00      	nop
  40115c:	00200707 	.word	0x00200707

00401160 <pio_configure_pin>:
{
  401160:	b570      	push	{r4, r5, r6, lr}
  401162:	b082      	sub	sp, #8
  401164:	460d      	mov	r5, r1
	p_pio = (Pio *)((uint32_t)PIOA + (PIO_DELTA * (ul_pin >> 5)));
  401166:	4c46      	ldr	r4, [pc, #280]	; (401280 <pio_configure_pin+0x120>)
  401168:	eb04 1450 	add.w	r4, r4, r0, lsr #5
  40116c:	0264      	lsls	r4, r4, #9
	switch (ul_flags & PIO_TYPE_Msk) {
  40116e:	f001 43f0 	and.w	r3, r1, #2013265920	; 0x78000000
  401172:	f1b3 5f00 	cmp.w	r3, #536870912	; 0x20000000
  401176:	d059      	beq.n	40122c <pio_configure_pin+0xcc>
  401178:	d80a      	bhi.n	401190 <pio_configure_pin+0x30>
  40117a:	f1b3 5f80 	cmp.w	r3, #268435456	; 0x10000000
  40117e:	d02f      	beq.n	4011e0 <pio_configure_pin+0x80>
  401180:	f1b3 5fc0 	cmp.w	r3, #402653184	; 0x18000000
  401184:	d03f      	beq.n	401206 <pio_configure_pin+0xa6>
  401186:	f1b3 6f00 	cmp.w	r3, #134217728	; 0x8000000
  40118a:	d016      	beq.n	4011ba <pio_configure_pin+0x5a>
		return 0;
  40118c:	2000      	movs	r0, #0
  40118e:	e012      	b.n	4011b6 <pio_configure_pin+0x56>
	switch (ul_flags & PIO_TYPE_Msk) {
  401190:	f1b3 5f40 	cmp.w	r3, #805306368	; 0x30000000
  401194:	d05d      	beq.n	401252 <pio_configure_pin+0xf2>
  401196:	f1b3 5f60 	cmp.w	r3, #939524096	; 0x38000000
  40119a:	d05a      	beq.n	401252 <pio_configure_pin+0xf2>
  40119c:	f1b3 5f20 	cmp.w	r3, #671088640	; 0x28000000
  4011a0:	d1f4      	bne.n	40118c <pio_configure_pin+0x2c>
		pio_set_input(p_pio, (1 << (ul_pin & 0x1F)), ul_flags);
  4011a2:	f000 011f 	and.w	r1, r0, #31
  4011a6:	2601      	movs	r6, #1
  4011a8:	462a      	mov	r2, r5
  4011aa:	fa06 f101 	lsl.w	r1, r6, r1
  4011ae:	4620      	mov	r0, r4
  4011b0:	4b34      	ldr	r3, [pc, #208]	; (401284 <pio_configure_pin+0x124>)
  4011b2:	4798      	blx	r3
	return 1;
  4011b4:	4630      	mov	r0, r6
}
  4011b6:	b002      	add	sp, #8
  4011b8:	bd70      	pop	{r4, r5, r6, pc}
		pio_set_peripheral(p_pio, PIO_PERIPH_A, (1 << (ul_pin & 0x1F)));
  4011ba:	f000 001f 	and.w	r0, r0, #31
  4011be:	2601      	movs	r6, #1
  4011c0:	4086      	lsls	r6, r0
  4011c2:	4632      	mov	r2, r6
  4011c4:	f04f 6100 	mov.w	r1, #134217728	; 0x8000000
  4011c8:	4620      	mov	r0, r4
  4011ca:	4b2f      	ldr	r3, [pc, #188]	; (401288 <pio_configure_pin+0x128>)
  4011cc:	4798      	blx	r3
	if (ul_pull_up_enable) {
  4011ce:	f015 0f01 	tst.w	r5, #1
  4011d2:	d102      	bne.n	4011da <pio_configure_pin+0x7a>
		p_pio->PIO_PUDR = ul_mask;
  4011d4:	6626      	str	r6, [r4, #96]	; 0x60
	return 1;
  4011d6:	2001      	movs	r0, #1
  4011d8:	e7ed      	b.n	4011b6 <pio_configure_pin+0x56>
		p_pio->PIO_PUER = ul_mask;
  4011da:	6666      	str	r6, [r4, #100]	; 0x64
	return 1;
  4011dc:	2001      	movs	r0, #1
  4011de:	e7ea      	b.n	4011b6 <pio_configure_pin+0x56>
		pio_set_peripheral(p_pio, PIO_PERIPH_B, (1 << (ul_pin & 0x1F)));
  4011e0:	f000 001f 	and.w	r0, r0, #31
  4011e4:	2601      	movs	r6, #1
  4011e6:	4086      	lsls	r6, r0
  4011e8:	4632      	mov	r2, r6
  4011ea:	f04f 5180 	mov.w	r1, #268435456	; 0x10000000
  4011ee:	4620      	mov	r0, r4
  4011f0:	4b25      	ldr	r3, [pc, #148]	; (401288 <pio_configure_pin+0x128>)
  4011f2:	4798      	blx	r3
	if (ul_pull_up_enable) {
  4011f4:	f015 0f01 	tst.w	r5, #1
  4011f8:	d102      	bne.n	401200 <pio_configure_pin+0xa0>
		p_pio->PIO_PUDR = ul_mask;
  4011fa:	6626      	str	r6, [r4, #96]	; 0x60
	return 1;
  4011fc:	2001      	movs	r0, #1
  4011fe:	e7da      	b.n	4011b6 <pio_configure_pin+0x56>
		p_pio->PIO_PUER = ul_mask;
  401200:	6666      	str	r6, [r4, #100]	; 0x64
	return 1;
  401202:	2001      	movs	r0, #1
  401204:	e7d7      	b.n	4011b6 <pio_configure_pin+0x56>
		pio_set_peripheral(p_pio, PIO_PERIPH_C, (1 << (ul_pin & 0x1F)));
  401206:	f000 001f 	and.w	r0, r0, #31
  40120a:	2601      	movs	r6, #1
  40120c:	4086      	lsls	r6, r0
  40120e:	4632      	mov	r2, r6
  401210:	f04f 51c0 	mov.w	r1, #402653184	; 0x18000000
  401214:	4620      	mov	r0, r4
  401216:	4b1c      	ldr	r3, [pc, #112]	; (401288 <pio_configure_pin+0x128>)
  401218:	4798      	blx	r3
	if (ul_pull_up_enable) {
  40121a:	f015 0f01 	tst.w	r5, #1
  40121e:	d102      	bne.n	401226 <pio_configure_pin+0xc6>
		p_pio->PIO_PUDR = ul_mask;
  401220:	6626      	str	r6, [r4, #96]	; 0x60
	return 1;
  401222:	2001      	movs	r0, #1
  401224:	e7c7      	b.n	4011b6 <pio_configure_pin+0x56>
		p_pio->PIO_PUER = ul_mask;
  401226:	6666      	str	r6, [r4, #100]	; 0x64
	return 1;
  401228:	2001      	movs	r0, #1
  40122a:	e7c4      	b.n	4011b6 <pio_configure_pin+0x56>
		pio_set_peripheral(p_pio, PIO_PERIPH_D, (1 << (ul_pin & 0x1F)));
  40122c:	f000 001f 	and.w	r0, r0, #31
  401230:	2601      	movs	r6, #1
  401232:	4086      	lsls	r6, r0
  401234:	4632      	mov	r2, r6
  401236:	f04f 5100 	mov.w	r1, #536870912	; 0x20000000
  40123a:	4620      	mov	r0, r4
  40123c:	4b12      	ldr	r3, [pc, #72]	; (401288 <pio_configure_pin+0x128>)
  40123e:	4798      	blx	r3
	if (ul_pull_up_enable) {
  401240:	f015 0f01 	tst.w	r5, #1
  401244:	d102      	bne.n	40124c <pio_configure_pin+0xec>
		p_pio->PIO_PUDR = ul_mask;
  401246:	6626      	str	r6, [r4, #96]	; 0x60
	return 1;
  401248:	2001      	movs	r0, #1
  40124a:	e7b4      	b.n	4011b6 <pio_configure_pin+0x56>
		p_pio->PIO_PUER = ul_mask;
  40124c:	6666      	str	r6, [r4, #100]	; 0x64
	return 1;
  40124e:	2001      	movs	r0, #1
  401250:	e7b1      	b.n	4011b6 <pio_configure_pin+0x56>
				((ul_flags & PIO_TYPE_PIO_OUTPUT_1)
  401252:	f005 5260 	and.w	r2, r5, #939524096	; 0x38000000
		pio_set_output(p_pio, (1 << (ul_pin & 0x1F)),
  401256:	f000 011f 	and.w	r1, r0, #31
  40125a:	2601      	movs	r6, #1
  40125c:	ea05 0306 	and.w	r3, r5, r6
  401260:	9300      	str	r3, [sp, #0]
  401262:	f3c5 0380 	ubfx	r3, r5, #2, #1
  401266:	f1b2 5f60 	cmp.w	r2, #939524096	; 0x38000000
  40126a:	bf14      	ite	ne
  40126c:	2200      	movne	r2, #0
  40126e:	2201      	moveq	r2, #1
  401270:	fa06 f101 	lsl.w	r1, r6, r1
  401274:	4620      	mov	r0, r4
  401276:	4c05      	ldr	r4, [pc, #20]	; (40128c <pio_configure_pin+0x12c>)
  401278:	47a0      	blx	r4
	return 1;
  40127a:	4630      	mov	r0, r6
		break;
  40127c:	e79b      	b.n	4011b6 <pio_configure_pin+0x56>
  40127e:	bf00      	nop
  401280:	00200707 	.word	0x00200707
  401284:	00401033 	.word	0x00401033
  401288:	00400fa1 	.word	0x00400fa1
  40128c:	00401069 	.word	0x00401069

00401290 <pio_handler_process>:
 *
 * \param p_pio PIO controller base address.
 * \param ul_id PIO controller ID.
 */
void pio_handler_process(Pio *p_pio, uint32_t ul_id)
{
  401290:	e92d 41f0 	stmdb	sp!, {r4, r5, r6, r7, r8, lr}
  401294:	4604      	mov	r4, r0
  401296:	4688      	mov	r8, r1
	uint32_t status;
	uint32_t i;

	/* Read PIO controller status */
	status = pio_get_interrupt_status(p_pio);
  401298:	4b0e      	ldr	r3, [pc, #56]	; (4012d4 <pio_handler_process+0x44>)
  40129a:	4798      	blx	r3
  40129c:	4605      	mov	r5, r0
	status &= pio_get_interrupt_mask(p_pio);
  40129e:	4620      	mov	r0, r4
  4012a0:	4b0d      	ldr	r3, [pc, #52]	; (4012d8 <pio_handler_process+0x48>)
  4012a2:	4798      	blx	r3

	/* Check pending events */
	if (status != 0) {
  4012a4:	4005      	ands	r5, r0
  4012a6:	d013      	beq.n	4012d0 <pio_handler_process+0x40>
  4012a8:	4c0c      	ldr	r4, [pc, #48]	; (4012dc <pio_handler_process+0x4c>)
  4012aa:	f104 0660 	add.w	r6, r4, #96	; 0x60
  4012ae:	e003      	b.n	4012b8 <pio_handler_process+0x28>
							gs_interrupt_sources[i].mask);
					status &= ~(gs_interrupt_sources[i].mask);
				}
			}
			i++;
			if (i >= MAX_INTERRUPT_SOURCES) {
  4012b0:	42b4      	cmp	r4, r6
  4012b2:	d00d      	beq.n	4012d0 <pio_handler_process+0x40>
  4012b4:	3410      	adds	r4, #16
		while (status != 0) {
  4012b6:	b15d      	cbz	r5, 4012d0 <pio_handler_process+0x40>
			if (gs_interrupt_sources[i].id == ul_id) {
  4012b8:	6820      	ldr	r0, [r4, #0]
  4012ba:	4540      	cmp	r0, r8
  4012bc:	d1f8      	bne.n	4012b0 <pio_handler_process+0x20>
				if ((status & gs_interrupt_sources[i].mask) != 0) {
  4012be:	6861      	ldr	r1, [r4, #4]
  4012c0:	4229      	tst	r1, r5
  4012c2:	d0f5      	beq.n	4012b0 <pio_handler_process+0x20>
					gs_interrupt_sources[i].handler(gs_interrupt_sources[i].id,
  4012c4:	68e3      	ldr	r3, [r4, #12]
  4012c6:	4798      	blx	r3
					status &= ~(gs_interrupt_sources[i].mask);
  4012c8:	6863      	ldr	r3, [r4, #4]
  4012ca:	ea25 0503 	bic.w	r5, r5, r3
  4012ce:	e7ef      	b.n	4012b0 <pio_handler_process+0x20>
  4012d0:	e8bd 81f0 	ldmia.w	sp!, {r4, r5, r6, r7, r8, pc}
  4012d4:	00401121 	.word	0x00401121
  4012d8:	00401125 	.word	0x00401125
  4012dc:	20400d9c 	.word	0x20400d9c

004012e0 <PIOA_Handler>:
/**
 * \brief Parallel IO Controller A interrupt handler.
 * Redefined PIOA interrupt handler for NVIC interrupt table.
 */
void PIOA_Handler(void)
{
  4012e0:	b508      	push	{r3, lr}
	pio_handler_process(PIOA, ID_PIOA);
  4012e2:	210a      	movs	r1, #10
  4012e4:	4801      	ldr	r0, [pc, #4]	; (4012ec <PIOA_Handler+0xc>)
  4012e6:	4b02      	ldr	r3, [pc, #8]	; (4012f0 <PIOA_Handler+0x10>)
  4012e8:	4798      	blx	r3
  4012ea:	bd08      	pop	{r3, pc}
  4012ec:	400e0e00 	.word	0x400e0e00
  4012f0:	00401291 	.word	0x00401291

004012f4 <PIOB_Handler>:
/**
 * \brief Parallel IO Controller B interrupt handler
 * Redefined PIOB interrupt handler for NVIC interrupt table.
 */
void PIOB_Handler(void)
{
  4012f4:	b508      	push	{r3, lr}
    pio_handler_process(PIOB, ID_PIOB);
  4012f6:	210b      	movs	r1, #11
  4012f8:	4801      	ldr	r0, [pc, #4]	; (401300 <PIOB_Handler+0xc>)
  4012fa:	4b02      	ldr	r3, [pc, #8]	; (401304 <PIOB_Handler+0x10>)
  4012fc:	4798      	blx	r3
  4012fe:	bd08      	pop	{r3, pc}
  401300:	400e1000 	.word	0x400e1000
  401304:	00401291 	.word	0x00401291

00401308 <PIOC_Handler>:
/**
 * \brief Parallel IO Controller C interrupt handler.
 * Redefined PIOC interrupt handler for NVIC interrupt table.
 */
void PIOC_Handler(void)
{
  401308:	b508      	push	{r3, lr}
	pio_handler_process(PIOC, ID_PIOC);
  40130a:	210c      	movs	r1, #12
  40130c:	4801      	ldr	r0, [pc, #4]	; (401314 <PIOC_Handler+0xc>)
  40130e:	4b02      	ldr	r3, [pc, #8]	; (401318 <PIOC_Handler+0x10>)
  401310:	4798      	blx	r3
  401312:	bd08      	pop	{r3, pc}
  401314:	400e1200 	.word	0x400e1200
  401318:	00401291 	.word	0x00401291

0040131c <PIOD_Handler>:
/**
 * \brief Parallel IO Controller D interrupt handler.
 * Redefined PIOD interrupt handler for NVIC interrupt table.
 */
void PIOD_Handler(void)
{
  40131c:	b508      	push	{r3, lr}
	pio_handler_process(PIOD, ID_PIOD);
  40131e:	2110      	movs	r1, #16
  401320:	4801      	ldr	r0, [pc, #4]	; (401328 <PIOD_Handler+0xc>)
  401322:	4b02      	ldr	r3, [pc, #8]	; (40132c <PIOD_Handler+0x10>)
  401324:	4798      	blx	r3
  401326:	bd08      	pop	{r3, pc}
  401328:	400e1400 	.word	0x400e1400
  40132c:	00401291 	.word	0x00401291

00401330 <PIOE_Handler>:
/**
 * \brief Parallel IO Controller E interrupt handler.
 * Redefined PIOE interrupt handler for NVIC interrupt table.
 */
void PIOE_Handler(void)
{
  401330:	b508      	push	{r3, lr}
	pio_handler_process(PIOE, ID_PIOE);
  401332:	2111      	movs	r1, #17
  401334:	4801      	ldr	r0, [pc, #4]	; (40133c <PIOE_Handler+0xc>)
  401336:	4b02      	ldr	r3, [pc, #8]	; (401340 <PIOE_Handler+0x10>)
  401338:	4798      	blx	r3
  40133a:	bd08      	pop	{r3, pc}
  40133c:	400e1600 	.word	0x400e1600
  401340:	00401291 	.word	0x00401291

00401344 <pmc_mck_set_division>:
 *
 * \param ul_div Division value.
 */
void pmc_mck_set_division(uint32_t ul_div)
{
	switch (ul_div) {
  401344:	2803      	cmp	r0, #3
  401346:	d011      	beq.n	40136c <pmc_mck_set_division+0x28>
  401348:	2804      	cmp	r0, #4
  40134a:	d012      	beq.n	401372 <pmc_mck_set_division+0x2e>
		case 1:
			ul_div = PMC_MCKR_MDIV_EQ_PCK;
  40134c:	2802      	cmp	r0, #2
  40134e:	bf0c      	ite	eq
  401350:	f44f 7180 	moveq.w	r1, #256	; 0x100
  401354:	2100      	movne	r1, #0
		default:
			ul_div = PMC_MCKR_MDIV_EQ_PCK;
			break;
	}
	PMC->PMC_MCKR =
			(PMC->PMC_MCKR & (~PMC_MCKR_MDIV_Msk)) | ul_div;
  401356:	4a08      	ldr	r2, [pc, #32]	; (401378 <pmc_mck_set_division+0x34>)
  401358:	6b13      	ldr	r3, [r2, #48]	; 0x30
  40135a:	f423 7340 	bic.w	r3, r3, #768	; 0x300
  40135e:	430b      	orrs	r3, r1
	PMC->PMC_MCKR =
  401360:	6313      	str	r3, [r2, #48]	; 0x30
	while (!(PMC->PMC_SR & PMC_SR_MCKRDY));
  401362:	6e93      	ldr	r3, [r2, #104]	; 0x68
  401364:	f013 0f08 	tst.w	r3, #8
  401368:	d0fb      	beq.n	401362 <pmc_mck_set_division+0x1e>
}
  40136a:	4770      	bx	lr
			ul_div = PMC_MCKR_MDIV_PCK_DIV3;
  40136c:	f44f 7140 	mov.w	r1, #768	; 0x300
			break;
  401370:	e7f1      	b.n	401356 <pmc_mck_set_division+0x12>
			ul_div = PMC_MCKR_MDIV_PCK_DIV4;
  401372:	f44f 7100 	mov.w	r1, #512	; 0x200
			break;
  401376:	e7ee      	b.n	401356 <pmc_mck_set_division+0x12>
  401378:	400e0600 	.word	0x400e0600

0040137c <pmc_switch_mck_to_pllack>:
 */
uint32_t pmc_switch_mck_to_pllack(uint32_t ul_pres)
{
	uint32_t ul_timeout;

	PMC->PMC_MCKR = (PMC->PMC_MCKR & (~PMC_MCKR_PRES_Msk)) | ul_pres;
  40137c:	4a17      	ldr	r2, [pc, #92]	; (4013dc <pmc_switch_mck_to_pllack+0x60>)
  40137e:	6b13      	ldr	r3, [r2, #48]	; 0x30
  401380:	f023 0370 	bic.w	r3, r3, #112	; 0x70
  401384:	4318      	orrs	r0, r3
  401386:	6310      	str	r0, [r2, #48]	; 0x30
	for (ul_timeout = PMC_TIMEOUT; !(PMC->PMC_SR & PMC_SR_MCKRDY);
  401388:	6e93      	ldr	r3, [r2, #104]	; 0x68
  40138a:	f013 0f08 	tst.w	r3, #8
  40138e:	d10a      	bne.n	4013a6 <pmc_switch_mck_to_pllack+0x2a>
  401390:	f44f 5380 	mov.w	r3, #4096	; 0x1000
  401394:	4911      	ldr	r1, [pc, #68]	; (4013dc <pmc_switch_mck_to_pllack+0x60>)
  401396:	6e8a      	ldr	r2, [r1, #104]	; 0x68
  401398:	f012 0f08 	tst.w	r2, #8
  40139c:	d103      	bne.n	4013a6 <pmc_switch_mck_to_pllack+0x2a>
			--ul_timeout) {
		if (ul_timeout == 0) {
  40139e:	3b01      	subs	r3, #1
  4013a0:	d1f9      	bne.n	401396 <pmc_switch_mck_to_pllack+0x1a>
			return 1;
  4013a2:	2001      	movs	r0, #1
  4013a4:	4770      	bx	lr
		}
	}

	PMC->PMC_MCKR = (PMC->PMC_MCKR & (~PMC_MCKR_CSS_Msk)) |
  4013a6:	4a0d      	ldr	r2, [pc, #52]	; (4013dc <pmc_switch_mck_to_pllack+0x60>)
  4013a8:	6b13      	ldr	r3, [r2, #48]	; 0x30
  4013aa:	f023 0303 	bic.w	r3, r3, #3
  4013ae:	f043 0302 	orr.w	r3, r3, #2
  4013b2:	6313      	str	r3, [r2, #48]	; 0x30
			PMC_MCKR_CSS_PLLA_CLK;

	for (ul_timeout = PMC_TIMEOUT; !(PMC->PMC_SR & PMC_SR_MCKRDY);
  4013b4:	6e93      	ldr	r3, [r2, #104]	; 0x68
  4013b6:	f013 0f08 	tst.w	r3, #8
  4013ba:	d10a      	bne.n	4013d2 <pmc_switch_mck_to_pllack+0x56>
  4013bc:	f44f 5380 	mov.w	r3, #4096	; 0x1000
  4013c0:	4906      	ldr	r1, [pc, #24]	; (4013dc <pmc_switch_mck_to_pllack+0x60>)
  4013c2:	6e8a      	ldr	r2, [r1, #104]	; 0x68
  4013c4:	f012 0f08 	tst.w	r2, #8
  4013c8:	d105      	bne.n	4013d6 <pmc_switch_mck_to_pllack+0x5a>
			--ul_timeout) {
		if (ul_timeout == 0) {
  4013ca:	3b01      	subs	r3, #1
  4013cc:	d1f9      	bne.n	4013c2 <pmc_switch_mck_to_pllack+0x46>
			return 1;
  4013ce:	2001      	movs	r0, #1
		}
	}

	return 0;
}
  4013d0:	4770      	bx	lr
	return 0;
  4013d2:	2000      	movs	r0, #0
  4013d4:	4770      	bx	lr
  4013d6:	2000      	movs	r0, #0
  4013d8:	4770      	bx	lr
  4013da:	bf00      	nop
  4013dc:	400e0600 	.word	0x400e0600

004013e0 <pmc_switch_mainck_to_xtal>:
 */
void pmc_switch_mainck_to_xtal(uint32_t ul_bypass,
		uint32_t ul_xtal_startup_time)
{
	/* Enable Main Xtal oscillator */
	if (ul_bypass) {
  4013e0:	b9a0      	cbnz	r0, 40140c <pmc_switch_mainck_to_xtal+0x2c>
		PMC->CKGR_MOR = (PMC->CKGR_MOR & ~CKGR_MOR_MOSCXTEN) |
				CKGR_MOR_KEY_PASSWD | CKGR_MOR_MOSCXTBY |
				CKGR_MOR_MOSCSEL;
	} else {
		PMC->CKGR_MOR = (PMC->CKGR_MOR & ~CKGR_MOR_MOSCXTBY) |
  4013e2:	480e      	ldr	r0, [pc, #56]	; (40141c <pmc_switch_mainck_to_xtal+0x3c>)
  4013e4:	6a03      	ldr	r3, [r0, #32]
				CKGR_MOR_KEY_PASSWD | CKGR_MOR_MOSCXTEN |
				CKGR_MOR_MOSCXTST(ul_xtal_startup_time);
  4013e6:	0209      	lsls	r1, r1, #8
  4013e8:	b289      	uxth	r1, r1
				CKGR_MOR_KEY_PASSWD | CKGR_MOR_MOSCXTEN |
  4013ea:	4a0d      	ldr	r2, [pc, #52]	; (401420 <pmc_switch_mainck_to_xtal+0x40>)
  4013ec:	401a      	ands	r2, r3
  4013ee:	4b0d      	ldr	r3, [pc, #52]	; (401424 <pmc_switch_mainck_to_xtal+0x44>)
  4013f0:	4313      	orrs	r3, r2
  4013f2:	4319      	orrs	r1, r3
		PMC->CKGR_MOR = (PMC->CKGR_MOR & ~CKGR_MOR_MOSCXTBY) |
  4013f4:	6201      	str	r1, [r0, #32]
		/* Wait the Xtal to stabilize */
		while (!(PMC->PMC_SR & PMC_SR_MOSCXTS));
  4013f6:	4602      	mov	r2, r0
  4013f8:	6e93      	ldr	r3, [r2, #104]	; 0x68
  4013fa:	f013 0f01 	tst.w	r3, #1
  4013fe:	d0fb      	beq.n	4013f8 <pmc_switch_mainck_to_xtal+0x18>

		PMC->CKGR_MOR |= CKGR_MOR_KEY_PASSWD | CKGR_MOR_MOSCSEL;
  401400:	4a06      	ldr	r2, [pc, #24]	; (40141c <pmc_switch_mainck_to_xtal+0x3c>)
  401402:	6a11      	ldr	r1, [r2, #32]
  401404:	4b08      	ldr	r3, [pc, #32]	; (401428 <pmc_switch_mainck_to_xtal+0x48>)
  401406:	430b      	orrs	r3, r1
  401408:	6213      	str	r3, [r2, #32]
  40140a:	4770      	bx	lr
		PMC->CKGR_MOR = (PMC->CKGR_MOR & ~CKGR_MOR_MOSCXTEN) |
  40140c:	4903      	ldr	r1, [pc, #12]	; (40141c <pmc_switch_mainck_to_xtal+0x3c>)
  40140e:	6a0b      	ldr	r3, [r1, #32]
				CKGR_MOR_KEY_PASSWD | CKGR_MOR_MOSCXTBY |
  401410:	4a06      	ldr	r2, [pc, #24]	; (40142c <pmc_switch_mainck_to_xtal+0x4c>)
  401412:	401a      	ands	r2, r3
  401414:	4b06      	ldr	r3, [pc, #24]	; (401430 <pmc_switch_mainck_to_xtal+0x50>)
  401416:	4313      	orrs	r3, r2
		PMC->CKGR_MOR = (PMC->CKGR_MOR & ~CKGR_MOR_MOSCXTEN) |
  401418:	620b      	str	r3, [r1, #32]
  40141a:	4770      	bx	lr
  40141c:	400e0600 	.word	0x400e0600
  401420:	ffc8fffc 	.word	0xffc8fffc
  401424:	00370001 	.word	0x00370001
  401428:	01370000 	.word	0x01370000
  40142c:	fec8fffc 	.word	0xfec8fffc
  401430:	01370002 	.word	0x01370002

00401434 <pmc_osc_is_ready_mainck>:
 * \retval 1 Xtal is ready.
 * \retval 0 Xtal is not ready.
 */
uint32_t pmc_osc_is_ready_mainck(void)
{
	return PMC->PMC_SR & PMC_SR_MOSCSELS;
  401434:	4b02      	ldr	r3, [pc, #8]	; (401440 <pmc_osc_is_ready_mainck+0xc>)
  401436:	6e98      	ldr	r0, [r3, #104]	; 0x68
}
  401438:	f400 3080 	and.w	r0, r0, #65536	; 0x10000
  40143c:	4770      	bx	lr
  40143e:	bf00      	nop
  401440:	400e0600 	.word	0x400e0600

00401444 <pmc_disable_pllack>:
void pmc_disable_pllack(void)
{
#if (SAM4C || SAM4CM || SAM4CP || SAMG)
	PMC->CKGR_PLLAR = CKGR_PLLAR_MULA(0);
#else
	PMC->CKGR_PLLAR = CKGR_PLLAR_ONE | CKGR_PLLAR_MULA(0);
  401444:	f04f 5200 	mov.w	r2, #536870912	; 0x20000000
  401448:	4b01      	ldr	r3, [pc, #4]	; (401450 <pmc_disable_pllack+0xc>)
  40144a:	629a      	str	r2, [r3, #40]	; 0x28
  40144c:	4770      	bx	lr
  40144e:	bf00      	nop
  401450:	400e0600 	.word	0x400e0600

00401454 <pmc_is_locked_pllack>:
 * \retval 0 Not locked.
 * \retval 1 Locked.
 */
uint32_t pmc_is_locked_pllack(void)
{
	return (PMC->PMC_SR & PMC_SR_LOCKA);
  401454:	4b02      	ldr	r3, [pc, #8]	; (401460 <pmc_is_locked_pllack+0xc>)
  401456:	6e98      	ldr	r0, [r3, #104]	; 0x68
}
  401458:	f000 0002 	and.w	r0, r0, #2
  40145c:	4770      	bx	lr
  40145e:	bf00      	nop
  401460:	400e0600 	.word	0x400e0600

00401464 <pmc_enable_periph_clk>:
 * \retval 0 Success.
 * \retval 1 Invalid parameter.
 */
uint32_t pmc_enable_periph_clk(uint32_t ul_id)
{
	if (ul_id > MAX_PERIPH_ID) {
  401464:	283f      	cmp	r0, #63	; 0x3f
  401466:	d81e      	bhi.n	4014a6 <pmc_enable_periph_clk+0x42>
		return 1;
	}

	if (ul_id < 32) {
  401468:	281f      	cmp	r0, #31
  40146a:	d80c      	bhi.n	401486 <pmc_enable_periph_clk+0x22>
		if ((PMC->PMC_PCSR0 & (1u << ul_id)) != (1u << ul_id)) {
  40146c:	4b11      	ldr	r3, [pc, #68]	; (4014b4 <pmc_enable_periph_clk+0x50>)
  40146e:	699a      	ldr	r2, [r3, #24]
  401470:	2301      	movs	r3, #1
  401472:	4083      	lsls	r3, r0
  401474:	4393      	bics	r3, r2
  401476:	d018      	beq.n	4014aa <pmc_enable_periph_clk+0x46>
			PMC->PMC_PCER0 = 1 << ul_id;
  401478:	2301      	movs	r3, #1
  40147a:	fa03 f000 	lsl.w	r0, r3, r0
  40147e:	4b0d      	ldr	r3, [pc, #52]	; (4014b4 <pmc_enable_periph_clk+0x50>)
  401480:	6118      	str	r0, [r3, #16]
			PMC->PMC_PCER1 = 1 << ul_id;
		}
#endif
	}

	return 0;
  401482:	2000      	movs	r0, #0
  401484:	4770      	bx	lr
		ul_id -= 32;
  401486:	3820      	subs	r0, #32
		if ((PMC->PMC_PCSR1 & (1u << ul_id)) != (1u << ul_id)) {
  401488:	4b0a      	ldr	r3, [pc, #40]	; (4014b4 <pmc_enable_periph_clk+0x50>)
  40148a:	f8d3 2108 	ldr.w	r2, [r3, #264]	; 0x108
  40148e:	2301      	movs	r3, #1
  401490:	4083      	lsls	r3, r0
  401492:	4393      	bics	r3, r2
  401494:	d00b      	beq.n	4014ae <pmc_enable_periph_clk+0x4a>
			PMC->PMC_PCER1 = 1 << ul_id;
  401496:	2301      	movs	r3, #1
  401498:	fa03 f000 	lsl.w	r0, r3, r0
  40149c:	4b05      	ldr	r3, [pc, #20]	; (4014b4 <pmc_enable_periph_clk+0x50>)
  40149e:	f8c3 0100 	str.w	r0, [r3, #256]	; 0x100
	return 0;
  4014a2:	2000      	movs	r0, #0
  4014a4:	4770      	bx	lr
		return 1;
  4014a6:	2001      	movs	r0, #1
  4014a8:	4770      	bx	lr
	return 0;
  4014aa:	2000      	movs	r0, #0
  4014ac:	4770      	bx	lr
  4014ae:	2000      	movs	r0, #0
}
  4014b0:	4770      	bx	lr
  4014b2:	bf00      	nop
  4014b4:	400e0600 	.word	0x400e0600

004014b8 <spi_enable_clock>:
 * \brief Enable SPI clock.
 *
 * \param p_spi Pointer to an SPI instance.
 */
void spi_enable_clock(Spi *p_spi)
{
  4014b8:	b508      	push	{r3, lr}
#if (SAM4S || SAM3S || SAM3N || SAM3U || SAM4E || SAM4N || SAMG51|| SAMG53|| SAMG54)
	UNUSED(p_spi);
	sysclk_enable_peripheral_clock(ID_SPI);
#elif (SAM3XA || SAM4C || SAM4CP || SAM4CM || SAMV71 || SAMV70 || SAME70 || SAMS70)
	if (p_spi == SPI0) {
  4014ba:	4b07      	ldr	r3, [pc, #28]	; (4014d8 <spi_enable_clock+0x20>)
  4014bc:	4298      	cmp	r0, r3
  4014be:	d003      	beq.n	4014c8 <spi_enable_clock+0x10>
		sysclk_enable_peripheral_clock(ID_SPI0);
	}
	#ifdef SPI1
	else if (p_spi == SPI1) {
  4014c0:	4b06      	ldr	r3, [pc, #24]	; (4014dc <spi_enable_clock+0x24>)
  4014c2:	4298      	cmp	r0, r3
  4014c4:	d004      	beq.n	4014d0 <spi_enable_clock+0x18>
  4014c6:	bd08      	pop	{r3, pc}
  4014c8:	2015      	movs	r0, #21
  4014ca:	4b05      	ldr	r3, [pc, #20]	; (4014e0 <spi_enable_clock+0x28>)
  4014cc:	4798      	blx	r3
  4014ce:	bd08      	pop	{r3, pc}
  4014d0:	202a      	movs	r0, #42	; 0x2a
  4014d2:	4b03      	ldr	r3, [pc, #12]	; (4014e0 <spi_enable_clock+0x28>)
  4014d4:	4798      	blx	r3
	}
	#endif
#elif SAM4L
	sysclk_enable_peripheral_clock(p_spi);
#endif
}
  4014d6:	e7f6      	b.n	4014c6 <spi_enable_clock+0xe>
  4014d8:	40008000 	.word	0x40008000
  4014dc:	40058000 	.word	0x40058000
  4014e0:	00401465 	.word	0x00401465

004014e4 <spi_set_peripheral_chip_select_value>:
 *                 \ref spi_enable_peripheral_select_decode,
 *                 \ref spi_disable_peripheral_select_decode.
 */
void spi_set_peripheral_chip_select_value(Spi *p_spi, uint32_t ul_value)
{
	p_spi->SPI_MR &= (~SPI_MR_PCS_Msk);
  4014e4:	6843      	ldr	r3, [r0, #4]
  4014e6:	f423 2370 	bic.w	r3, r3, #983040	; 0xf0000
  4014ea:	6043      	str	r3, [r0, #4]
	p_spi->SPI_MR |= SPI_MR_PCS(ul_value);
  4014ec:	6843      	ldr	r3, [r0, #4]
  4014ee:	0409      	lsls	r1, r1, #16
  4014f0:	f401 2170 	and.w	r1, r1, #983040	; 0xf0000
  4014f4:	4319      	orrs	r1, r3
  4014f6:	6041      	str	r1, [r0, #4]
  4014f8:	4770      	bx	lr

004014fa <spi_set_delay_between_chip_select>:
 * \param p_spi Pointer to an SPI instance.
 * \param ul_delay Delay between chip selects (in number of MCK clocks).
 */
void spi_set_delay_between_chip_select(Spi *p_spi, uint32_t ul_delay)
{
	p_spi->SPI_MR &= (~SPI_MR_DLYBCS_Msk);
  4014fa:	6843      	ldr	r3, [r0, #4]
  4014fc:	f023 437f 	bic.w	r3, r3, #4278190080	; 0xff000000
  401500:	6043      	str	r3, [r0, #4]
	p_spi->SPI_MR |= SPI_MR_DLYBCS(ul_delay);
  401502:	6843      	ldr	r3, [r0, #4]
  401504:	ea43 6101 	orr.w	r1, r3, r1, lsl #24
  401508:	6041      	str	r1, [r0, #4]
  40150a:	4770      	bx	lr

0040150c <spi_write>:
 * \retval SPI_OK on Success.
 * \retval SPI_ERROR_TIMEOUT on Time-out.
 */
spi_status_t spi_write(Spi *p_spi, uint16_t us_data,
		uint8_t uc_pcs, uint8_t uc_last)
{
  40150c:	b430      	push	{r4, r5}
	uint32_t timeout = SPI_TIMEOUT;
	uint32_t value;

	while (!(p_spi->SPI_SR & SPI_SR_TDRE)) {
  40150e:	f643 2499 	movw	r4, #15001	; 0x3a99
  401512:	6905      	ldr	r5, [r0, #16]
  401514:	f015 0f02 	tst.w	r5, #2
  401518:	d103      	bne.n	401522 <spi_write+0x16>
		if (!timeout--) {
  40151a:	3c01      	subs	r4, #1
  40151c:	d1f9      	bne.n	401512 <spi_write+0x6>
			return SPI_ERROR_TIMEOUT;
  40151e:	2001      	movs	r0, #1
  401520:	e00c      	b.n	40153c <spi_write+0x30>
	if (p_spi->SPI_MR & SPI_MR_PS) {
  401522:	6844      	ldr	r4, [r0, #4]
		}
	}

	if (spi_get_peripheral_select_mode(p_spi)) {
  401524:	f014 0f02 	tst.w	r4, #2
  401528:	d006      	beq.n	401538 <spi_write+0x2c>
		value = SPI_TDR_TD(us_data) | SPI_TDR_PCS(uc_pcs);
  40152a:	0412      	lsls	r2, r2, #16
  40152c:	f402 2270 	and.w	r2, r2, #983040	; 0xf0000
  401530:	4311      	orrs	r1, r2
		if (uc_last) {
  401532:	b10b      	cbz	r3, 401538 <spi_write+0x2c>
			value |= SPI_TDR_LASTXFER;
  401534:	f041 7180 	orr.w	r1, r1, #16777216	; 0x1000000
		}
	} else {
		value = SPI_TDR_TD(us_data);
	}

	p_spi->SPI_TDR = value;
  401538:	60c1      	str	r1, [r0, #12]

	return SPI_OK;
  40153a:	2000      	movs	r0, #0
}
  40153c:	bc30      	pop	{r4, r5}
  40153e:	4770      	bx	lr

00401540 <spi_set_clock_polarity>:
 * \param ul_polarity Default clock state is logical one(high)/zero(low).
 */
void spi_set_clock_polarity(Spi *p_spi, uint32_t ul_pcs_ch,
		uint32_t ul_polarity)
{
	if (ul_polarity) {
  401540:	b932      	cbnz	r2, 401550 <spi_set_clock_polarity+0x10>
  401542:	eb00 0081 	add.w	r0, r0, r1, lsl #2
		p_spi->SPI_CSR[ul_pcs_ch] |= SPI_CSR_CPOL;
	} else {
		p_spi->SPI_CSR[ul_pcs_ch] &= (~SPI_CSR_CPOL);
  401546:	6b03      	ldr	r3, [r0, #48]	; 0x30
  401548:	f023 0301 	bic.w	r3, r3, #1
  40154c:	6303      	str	r3, [r0, #48]	; 0x30
  40154e:	4770      	bx	lr
  401550:	eb00 0081 	add.w	r0, r0, r1, lsl #2
		p_spi->SPI_CSR[ul_pcs_ch] |= SPI_CSR_CPOL;
  401554:	6b03      	ldr	r3, [r0, #48]	; 0x30
  401556:	f043 0301 	orr.w	r3, r3, #1
  40155a:	6303      	str	r3, [r0, #48]	; 0x30
  40155c:	4770      	bx	lr

0040155e <spi_set_clock_phase>:
 *  \param ul_pcs_ch Peripheral Chip Select channel (0~3).
 *  \param ul_phase Data capture on the rising/falling edge of clock.
 */
void spi_set_clock_phase(Spi *p_spi, uint32_t ul_pcs_ch, uint32_t ul_phase)
{
	if (ul_phase) {
  40155e:	b932      	cbnz	r2, 40156e <spi_set_clock_phase+0x10>
  401560:	eb00 0081 	add.w	r0, r0, r1, lsl #2
		p_spi->SPI_CSR[ul_pcs_ch] |= SPI_CSR_NCPHA;
	} else {
		p_spi->SPI_CSR[ul_pcs_ch] &= (~SPI_CSR_NCPHA);
  401564:	6b03      	ldr	r3, [r0, #48]	; 0x30
  401566:	f023 0302 	bic.w	r3, r3, #2
  40156a:	6303      	str	r3, [r0, #48]	; 0x30
  40156c:	4770      	bx	lr
  40156e:	eb00 0081 	add.w	r0, r0, r1, lsl #2
		p_spi->SPI_CSR[ul_pcs_ch] |= SPI_CSR_NCPHA;
  401572:	6b03      	ldr	r3, [r0, #48]	; 0x30
  401574:	f043 0302 	orr.w	r3, r3, #2
  401578:	6303      	str	r3, [r0, #48]	; 0x30
  40157a:	4770      	bx	lr

0040157c <spi_configure_cs_behavior>:
 * \param ul_cs_behavior Behavior of the Chip Select after transfer.
 */
void spi_configure_cs_behavior(Spi *p_spi, uint32_t ul_pcs_ch,
		uint32_t ul_cs_behavior)
{
	if (ul_cs_behavior == SPI_CS_RISE_FORCED) {
  40157c:	2a04      	cmp	r2, #4
  40157e:	d003      	beq.n	401588 <spi_configure_cs_behavior+0xc>
		p_spi->SPI_CSR[ul_pcs_ch] &= (~SPI_CSR_CSAAT);
		p_spi->SPI_CSR[ul_pcs_ch] |= SPI_CSR_CSNAAT;
	} else if (ul_cs_behavior == SPI_CS_RISE_NO_TX) {
  401580:	b16a      	cbz	r2, 40159e <spi_configure_cs_behavior+0x22>
		p_spi->SPI_CSR[ul_pcs_ch] &= (~SPI_CSR_CSAAT);
		p_spi->SPI_CSR[ul_pcs_ch] &= (~SPI_CSR_CSNAAT);
	} else if (ul_cs_behavior == SPI_CS_KEEP_LOW) {
  401582:	2a08      	cmp	r2, #8
  401584:	d016      	beq.n	4015b4 <spi_configure_cs_behavior+0x38>
  401586:	4770      	bx	lr
  401588:	eb00 0081 	add.w	r0, r0, r1, lsl #2
		p_spi->SPI_CSR[ul_pcs_ch] &= (~SPI_CSR_CSAAT);
  40158c:	6b03      	ldr	r3, [r0, #48]	; 0x30
  40158e:	f023 0308 	bic.w	r3, r3, #8
  401592:	6303      	str	r3, [r0, #48]	; 0x30
		p_spi->SPI_CSR[ul_pcs_ch] |= SPI_CSR_CSNAAT;
  401594:	6b03      	ldr	r3, [r0, #48]	; 0x30
  401596:	f043 0304 	orr.w	r3, r3, #4
  40159a:	6303      	str	r3, [r0, #48]	; 0x30
  40159c:	4770      	bx	lr
  40159e:	eb00 0081 	add.w	r0, r0, r1, lsl #2
		p_spi->SPI_CSR[ul_pcs_ch] &= (~SPI_CSR_CSAAT);
  4015a2:	6b03      	ldr	r3, [r0, #48]	; 0x30
  4015a4:	f023 0308 	bic.w	r3, r3, #8
  4015a8:	6303      	str	r3, [r0, #48]	; 0x30
		p_spi->SPI_CSR[ul_pcs_ch] &= (~SPI_CSR_CSNAAT);
  4015aa:	6b03      	ldr	r3, [r0, #48]	; 0x30
  4015ac:	f023 0304 	bic.w	r3, r3, #4
  4015b0:	6303      	str	r3, [r0, #48]	; 0x30
  4015b2:	4770      	bx	lr
  4015b4:	eb00 0081 	add.w	r0, r0, r1, lsl #2
		p_spi->SPI_CSR[ul_pcs_ch] |= SPI_CSR_CSAAT;
  4015b8:	6b03      	ldr	r3, [r0, #48]	; 0x30
  4015ba:	f043 0308 	orr.w	r3, r3, #8
  4015be:	6303      	str	r3, [r0, #48]	; 0x30
	}
}
  4015c0:	e7e1      	b.n	401586 <spi_configure_cs_behavior+0xa>

004015c2 <spi_set_bits_per_transfer>:
 * \param ul_bits Number of bits (8~16), use the pattern defined
 *        in the device header file.
 */
void spi_set_bits_per_transfer(Spi *p_spi, uint32_t ul_pcs_ch,
		uint32_t ul_bits)
{
  4015c2:	eb00 0181 	add.w	r1, r0, r1, lsl #2
	p_spi->SPI_CSR[ul_pcs_ch] &= (~SPI_CSR_BITS_Msk);
  4015c6:	6b0b      	ldr	r3, [r1, #48]	; 0x30
  4015c8:	f023 03f0 	bic.w	r3, r3, #240	; 0xf0
  4015cc:	630b      	str	r3, [r1, #48]	; 0x30
	p_spi->SPI_CSR[ul_pcs_ch] |= ul_bits;
  4015ce:	6b0b      	ldr	r3, [r1, #48]	; 0x30
  4015d0:	431a      	orrs	r2, r3
  4015d2:	630a      	str	r2, [r1, #48]	; 0x30
  4015d4:	4770      	bx	lr

004015d6 <spi_calc_baudrate_div>:
 *   \retval > 0  Success.
 *   \retval < 0  Error.
 */
int16_t spi_calc_baudrate_div(const uint32_t baudrate, uint32_t mck)
{
	int baud_div = div_ceil(mck, baudrate);
  4015d6:	1e43      	subs	r3, r0, #1
  4015d8:	4419      	add	r1, r3
  4015da:	fbb1 f0f0 	udiv	r0, r1, r0

	/* The value of baud_div is from 1 to 255 in the SCBR field. */
	if (baud_div <= 0 || baud_div > 255) {
  4015de:	1e43      	subs	r3, r0, #1
  4015e0:	2bfe      	cmp	r3, #254	; 0xfe
		return -1;
	}

	return baud_div;
  4015e2:	bf94      	ite	ls
  4015e4:	b200      	sxthls	r0, r0
		return -1;
  4015e6:	f04f 30ff 	movhi.w	r0, #4294967295
}
  4015ea:	4770      	bx	lr

004015ec <spi_set_baudrate_div>:
 */
int16_t spi_set_baudrate_div(Spi *p_spi, uint32_t ul_pcs_ch,
		uint8_t uc_baudrate_divider)
{
    /* Programming the SCBR field to 0 is forbidden */
    if (!uc_baudrate_divider)
  4015ec:	b17a      	cbz	r2, 40160e <spi_set_baudrate_div+0x22>
{
  4015ee:	b410      	push	{r4}
  4015f0:	4614      	mov	r4, r2
  4015f2:	eb00 0181 	add.w	r1, r0, r1, lsl #2
        return -1;

	p_spi->SPI_CSR[ul_pcs_ch] &= (~SPI_CSR_SCBR_Msk);
  4015f6:	6b0b      	ldr	r3, [r1, #48]	; 0x30
  4015f8:	f423 437f 	bic.w	r3, r3, #65280	; 0xff00
  4015fc:	630b      	str	r3, [r1, #48]	; 0x30
	p_spi->SPI_CSR[ul_pcs_ch] |= SPI_CSR_SCBR(uc_baudrate_divider);
  4015fe:	6b0a      	ldr	r2, [r1, #48]	; 0x30
  401600:	ea42 2204 	orr.w	r2, r2, r4, lsl #8
  401604:	630a      	str	r2, [r1, #48]	; 0x30
    return 0;
  401606:	2000      	movs	r0, #0
}
  401608:	f85d 4b04 	ldr.w	r4, [sp], #4
  40160c:	4770      	bx	lr
        return -1;
  40160e:	f04f 30ff 	mov.w	r0, #4294967295
  401612:	4770      	bx	lr

00401614 <spi_set_transfer_delay>:
 * \param uc_dlybs Delay before SPCK (in number of MCK clocks).
 * \param uc_dlybct Delay between consecutive transfers (in number of MCK clocks).
 */
void spi_set_transfer_delay(Spi *p_spi, uint32_t ul_pcs_ch,
		uint8_t uc_dlybs, uint8_t uc_dlybct)
{
  401614:	b410      	push	{r4}
  401616:	eb00 0181 	add.w	r1, r0, r1, lsl #2
	p_spi->SPI_CSR[ul_pcs_ch] &= ~(SPI_CSR_DLYBS_Msk | SPI_CSR_DLYBCT_Msk);
  40161a:	6b08      	ldr	r0, [r1, #48]	; 0x30
  40161c:	b280      	uxth	r0, r0
  40161e:	6308      	str	r0, [r1, #48]	; 0x30
	p_spi->SPI_CSR[ul_pcs_ch] |= SPI_CSR_DLYBS(uc_dlybs)
  401620:	6b0c      	ldr	r4, [r1, #48]	; 0x30
  401622:	ea44 6303 	orr.w	r3, r4, r3, lsl #24
  401626:	ea43 4302 	orr.w	r3, r3, r2, lsl #16
  40162a:	630b      	str	r3, [r1, #48]	; 0x30
			| SPI_CSR_DLYBCT(uc_dlybct);
}
  40162c:	f85d 4b04 	ldr.w	r4, [sp], #4
  401630:	4770      	bx	lr

00401632 <uart_write>:
 * \retval 1 I/O Failure, UART is not ready.
 */
uint32_t uart_write(Uart *p_uart, const uint8_t uc_data)
{
	/* Check if the transmitter is ready */
	if (!(p_uart->UART_SR & UART_SR_TXRDY))
  401632:	6943      	ldr	r3, [r0, #20]
  401634:	f013 0f02 	tst.w	r3, #2
  401638:	d002      	beq.n	401640 <uart_write+0xe>
		return 1;

	/* Send character */
	p_uart->UART_THR = uc_data;
  40163a:	61c1      	str	r1, [r0, #28]
	return 0;
  40163c:	2000      	movs	r0, #0
  40163e:	4770      	bx	lr
		return 1;
  401640:	2001      	movs	r0, #1
}
  401642:	4770      	bx	lr

00401644 <uart_read>:
 * \retval 1 I/O Failure, UART is not ready.
 */
uint32_t uart_read(Uart *p_uart, uint8_t *puc_data)
{
	/* Check if the receiver is ready */
	if ((p_uart->UART_SR & UART_SR_RXRDY) == 0)
  401644:	6943      	ldr	r3, [r0, #20]
  401646:	f013 0f01 	tst.w	r3, #1
  40164a:	d003      	beq.n	401654 <uart_read+0x10>
		return 1;

	/* Read character */
	*puc_data = (uint8_t) p_uart->UART_RHR;
  40164c:	6983      	ldr	r3, [r0, #24]
  40164e:	700b      	strb	r3, [r1, #0]
	return 0;
  401650:	2000      	movs	r0, #0
  401652:	4770      	bx	lr
		return 1;
  401654:	2001      	movs	r0, #1
}
  401656:	4770      	bx	lr

00401658 <usart_set_async_baudrate>:
 * \retval 1 Baud rate set point is out of range for the given input clock
 * frequency.
 */
uint32_t usart_set_async_baudrate(Usart *p_usart,
		uint32_t baudrate, uint32_t ul_mck)
{
  401658:	b410      	push	{r4}
	uint32_t cd_fp;
	uint32_t cd;
	uint32_t fp;

	/* Calculate the receiver sampling divide of baudrate clock. */
	if (ul_mck >= HIGH_FRQ_SAMPLE_DIV * baudrate) {
  40165a:	010b      	lsls	r3, r1, #4
  40165c:	4293      	cmp	r3, r2
  40165e:	d914      	bls.n	40168a <usart_set_async_baudrate+0x32>
	} else {
		over = LOW_FRQ_SAMPLE_DIV;
	}

	/* Calculate clock divider according to the fraction calculated formula. */
	cd_fp = (8 * ul_mck + (over * baudrate) / 2) / (over * baudrate);
  401660:	00c9      	lsls	r1, r1, #3
  401662:	084b      	lsrs	r3, r1, #1
  401664:	eb03 02c2 	add.w	r2, r3, r2, lsl #3
  401668:	fbb2 f2f1 	udiv	r2, r2, r1
	cd = cd_fp >> 3;
  40166c:	08d3      	lsrs	r3, r2, #3
	fp = cd_fp & 0x07;
	if (cd < MIN_CD_VALUE || cd > MAX_CD_VALUE) {
  40166e:	1e5c      	subs	r4, r3, #1
  401670:	f64f 71fe 	movw	r1, #65534	; 0xfffe
  401674:	428c      	cmp	r4, r1
  401676:	d901      	bls.n	40167c <usart_set_async_baudrate+0x24>
		return 1;
  401678:	2001      	movs	r0, #1
  40167a:	e017      	b.n	4016ac <usart_set_async_baudrate+0x54>
	}

	/* Configure the OVER bit in MR register. */
	if (over == 8) {
		p_usart->US_MR |= US_MR_OVER;
  40167c:	6841      	ldr	r1, [r0, #4]
  40167e:	f441 2100 	orr.w	r1, r1, #524288	; 0x80000
  401682:	6041      	str	r1, [r0, #4]
  401684:	e00c      	b.n	4016a0 <usart_set_async_baudrate+0x48>
		return 1;
  401686:	2001      	movs	r0, #1
  401688:	e010      	b.n	4016ac <usart_set_async_baudrate+0x54>
	cd_fp = (8 * ul_mck + (over * baudrate) / 2) / (over * baudrate);
  40168a:	0859      	lsrs	r1, r3, #1
  40168c:	eb01 02c2 	add.w	r2, r1, r2, lsl #3
  401690:	fbb2 f2f3 	udiv	r2, r2, r3
	cd = cd_fp >> 3;
  401694:	08d3      	lsrs	r3, r2, #3
	if (cd < MIN_CD_VALUE || cd > MAX_CD_VALUE) {
  401696:	1e5c      	subs	r4, r3, #1
  401698:	f64f 71fe 	movw	r1, #65534	; 0xfffe
  40169c:	428c      	cmp	r4, r1
  40169e:	d8f2      	bhi.n	401686 <usart_set_async_baudrate+0x2e>
	}

	/* Configure the baudrate generate register. */
	p_usart->US_BRGR = (cd << US_BRGR_CD_Pos) | (fp << US_BRGR_FP_Pos);
  4016a0:	0412      	lsls	r2, r2, #16
  4016a2:	f402 22e0 	and.w	r2, r2, #458752	; 0x70000
  4016a6:	431a      	orrs	r2, r3
  4016a8:	6202      	str	r2, [r0, #32]

	return 0;
  4016aa:	2000      	movs	r0, #0
}
  4016ac:	f85d 4b04 	ldr.w	r4, [sp], #4
  4016b0:	4770      	bx	lr
	...

004016b4 <usart_reset>:
 *
 * \param p_usart Pointer to a USART instance.
 */
void usart_disable_writeprotect(Usart *p_usart)
{
	p_usart->US_WPMR = US_WPMR_WPKEY_PASSWD;
  4016b4:	4b08      	ldr	r3, [pc, #32]	; (4016d8 <usart_reset+0x24>)
  4016b6:	f8c0 30e4 	str.w	r3, [r0, #228]	; 0xe4
	p_usart->US_MR = 0;
  4016ba:	2300      	movs	r3, #0
  4016bc:	6043      	str	r3, [r0, #4]
	p_usart->US_RTOR = 0;
  4016be:	6243      	str	r3, [r0, #36]	; 0x24
	p_usart->US_TTGR = 0;
  4016c0:	6283      	str	r3, [r0, #40]	; 0x28
	p_usart->US_CR = US_CR_RSTTX | US_CR_TXDIS;
  4016c2:	2388      	movs	r3, #136	; 0x88
  4016c4:	6003      	str	r3, [r0, #0]
	p_usart->US_CR = US_CR_RSTRX | US_CR_RXDIS;
  4016c6:	2324      	movs	r3, #36	; 0x24
  4016c8:	6003      	str	r3, [r0, #0]
	p_usart->US_CR = US_CR_RSTSTA;
  4016ca:	f44f 7380 	mov.w	r3, #256	; 0x100
  4016ce:	6003      	str	r3, [r0, #0]
	p_usart->US_CR = US_CR_RTSDIS;
  4016d0:	f44f 2300 	mov.w	r3, #524288	; 0x80000
  4016d4:	6003      	str	r3, [r0, #0]
  4016d6:	4770      	bx	lr
  4016d8:	55534100 	.word	0x55534100

004016dc <usart_init_rs232>:
{
  4016dc:	b570      	push	{r4, r5, r6, lr}
  4016de:	4605      	mov	r5, r0
  4016e0:	460c      	mov	r4, r1
  4016e2:	4616      	mov	r6, r2
	usart_reset(p_usart);
  4016e4:	4b0f      	ldr	r3, [pc, #60]	; (401724 <usart_init_rs232+0x48>)
  4016e6:	4798      	blx	r3
	ul_reg_val = 0;
  4016e8:	2200      	movs	r2, #0
  4016ea:	4b0f      	ldr	r3, [pc, #60]	; (401728 <usart_init_rs232+0x4c>)
  4016ec:	601a      	str	r2, [r3, #0]
	if (!p_usart_opt || usart_set_async_baudrate(p_usart,
  4016ee:	b1a4      	cbz	r4, 40171a <usart_init_rs232+0x3e>
  4016f0:	4632      	mov	r2, r6
  4016f2:	6821      	ldr	r1, [r4, #0]
  4016f4:	4628      	mov	r0, r5
  4016f6:	4b0d      	ldr	r3, [pc, #52]	; (40172c <usart_init_rs232+0x50>)
  4016f8:	4798      	blx	r3
  4016fa:	4602      	mov	r2, r0
  4016fc:	b978      	cbnz	r0, 40171e <usart_init_rs232+0x42>
	ul_reg_val |= p_usart_opt->char_length | p_usart_opt->parity_type |
  4016fe:	6863      	ldr	r3, [r4, #4]
  401700:	68a1      	ldr	r1, [r4, #8]
  401702:	430b      	orrs	r3, r1
  401704:	6921      	ldr	r1, [r4, #16]
  401706:	430b      	orrs	r3, r1
			p_usart_opt->channel_mode | p_usart_opt->stop_bits;
  401708:	68e1      	ldr	r1, [r4, #12]
  40170a:	430b      	orrs	r3, r1
	ul_reg_val |= p_usart_opt->char_length | p_usart_opt->parity_type |
  40170c:	4906      	ldr	r1, [pc, #24]	; (401728 <usart_init_rs232+0x4c>)
  40170e:	600b      	str	r3, [r1, #0]
	p_usart->US_MR |= ul_reg_val;
  401710:	6869      	ldr	r1, [r5, #4]
  401712:	430b      	orrs	r3, r1
  401714:	606b      	str	r3, [r5, #4]
}
  401716:	4610      	mov	r0, r2
  401718:	bd70      	pop	{r4, r5, r6, pc}
		return 1;
  40171a:	2201      	movs	r2, #1
  40171c:	e7fb      	b.n	401716 <usart_init_rs232+0x3a>
  40171e:	2201      	movs	r2, #1
  401720:	e7f9      	b.n	401716 <usart_init_rs232+0x3a>
  401722:	bf00      	nop
  401724:	004016b5 	.word	0x004016b5
  401728:	20400e0c 	.word	0x20400e0c
  40172c:	00401659 	.word	0x00401659

00401730 <usart_enable_tx>:
	p_usart->US_CR = US_CR_TXEN;
  401730:	2340      	movs	r3, #64	; 0x40
  401732:	6003      	str	r3, [r0, #0]
  401734:	4770      	bx	lr

00401736 <usart_enable_rx>:
	p_usart->US_CR = US_CR_RXEN;
  401736:	2310      	movs	r3, #16
  401738:	6003      	str	r3, [r0, #0]
  40173a:	4770      	bx	lr

0040173c <usart_write>:
	if (!(p_usart->US_CSR & US_CSR_TXRDY)) {
  40173c:	6943      	ldr	r3, [r0, #20]
  40173e:	f013 0f02 	tst.w	r3, #2
  401742:	d004      	beq.n	40174e <usart_write+0x12>
	p_usart->US_THR = US_THR_TXCHR(c);
  401744:	f3c1 0108 	ubfx	r1, r1, #0, #9
  401748:	61c1      	str	r1, [r0, #28]
	return 0;
  40174a:	2000      	movs	r0, #0
  40174c:	4770      	bx	lr
		return 1;
  40174e:	2001      	movs	r0, #1
}
  401750:	4770      	bx	lr

00401752 <usart_read>:
	if (!(p_usart->US_CSR & US_CSR_RXRDY)) {
  401752:	6943      	ldr	r3, [r0, #20]
  401754:	f013 0f01 	tst.w	r3, #1
  401758:	d005      	beq.n	401766 <usart_read+0x14>
	*c = p_usart->US_RHR & US_RHR_RXCHR_Msk;
  40175a:	6983      	ldr	r3, [r0, #24]
  40175c:	f3c3 0308 	ubfx	r3, r3, #0, #9
  401760:	600b      	str	r3, [r1, #0]
	return 0;
  401762:	2000      	movs	r0, #0
  401764:	4770      	bx	lr
		return 1;
  401766:	2001      	movs	r0, #1
}
  401768:	4770      	bx	lr

0040176a <Dummy_Handler>:

/**
 * \brief Default interrupt handler for unused IRQs.
 */
void Dummy_Handler(void)
{
  40176a:	e7fe      	b.n	40176a <Dummy_Handler>

0040176c <Reset_Handler>:
{
  40176c:	b500      	push	{lr}
  40176e:	b083      	sub	sp, #12
        if (pSrc != pDest) {
  401770:	4b25      	ldr	r3, [pc, #148]	; (401808 <Reset_Handler+0x9c>)
  401772:	4a26      	ldr	r2, [pc, #152]	; (40180c <Reset_Handler+0xa0>)
  401774:	429a      	cmp	r2, r3
  401776:	d010      	beq.n	40179a <Reset_Handler+0x2e>
                for (; pDest < &_erelocate;) {
  401778:	4b25      	ldr	r3, [pc, #148]	; (401810 <Reset_Handler+0xa4>)
  40177a:	4a23      	ldr	r2, [pc, #140]	; (401808 <Reset_Handler+0x9c>)
  40177c:	429a      	cmp	r2, r3
  40177e:	d20c      	bcs.n	40179a <Reset_Handler+0x2e>
  401780:	3b01      	subs	r3, #1
  401782:	1a9b      	subs	r3, r3, r2
  401784:	f023 0303 	bic.w	r3, r3, #3
  401788:	3304      	adds	r3, #4
  40178a:	4413      	add	r3, r2
  40178c:	491f      	ldr	r1, [pc, #124]	; (40180c <Reset_Handler+0xa0>)
                        *pDest++ = *pSrc++;
  40178e:	f851 0b04 	ldr.w	r0, [r1], #4
  401792:	f842 0b04 	str.w	r0, [r2], #4
                for (; pDest < &_erelocate;) {
  401796:	429a      	cmp	r2, r3
  401798:	d1f9      	bne.n	40178e <Reset_Handler+0x22>
        for (pDest = &_szero; pDest < &_ezero;) {
  40179a:	4b1e      	ldr	r3, [pc, #120]	; (401814 <Reset_Handler+0xa8>)
  40179c:	4a1e      	ldr	r2, [pc, #120]	; (401818 <Reset_Handler+0xac>)
  40179e:	429a      	cmp	r2, r3
  4017a0:	d20a      	bcs.n	4017b8 <Reset_Handler+0x4c>
  4017a2:	3b01      	subs	r3, #1
  4017a4:	1a9b      	subs	r3, r3, r2
  4017a6:	f023 0303 	bic.w	r3, r3, #3
  4017aa:	3304      	adds	r3, #4
  4017ac:	4413      	add	r3, r2
                *pDest++ = 0;
  4017ae:	2100      	movs	r1, #0
  4017b0:	f842 1b04 	str.w	r1, [r2], #4
        for (pDest = &_szero; pDest < &_ezero;) {
  4017b4:	4293      	cmp	r3, r2
  4017b6:	d1fb      	bne.n	4017b0 <Reset_Handler+0x44>
        SCB->VTOR = ((uint32_t) pSrc & SCB_VTOR_TBLOFF_Msk);
  4017b8:	4a18      	ldr	r2, [pc, #96]	; (40181c <Reset_Handler+0xb0>)
  4017ba:	4b19      	ldr	r3, [pc, #100]	; (401820 <Reset_Handler+0xb4>)
  4017bc:	f023 037f 	bic.w	r3, r3, #127	; 0x7f
  4017c0:	6093      	str	r3, [r2, #8]
  __ASM volatile ("MRS %0, primask" : "=r" (result) );
  4017c2:	f3ef 8310 	mrs	r3, PRIMASK
	volatile irqflags_t flags = cpu_irq_is_enabled();
  4017c6:	fab3 f383 	clz	r3, r3
  4017ca:	095b      	lsrs	r3, r3, #5
  4017cc:	9301      	str	r3, [sp, #4]
  __ASM volatile ("cpsid i" : : : "memory");
  4017ce:	b672      	cpsid	i
  4017d0:	f3bf 8f5f 	dmb	sy
	cpu_irq_disable();
  4017d4:	2200      	movs	r2, #0
  4017d6:	4b13      	ldr	r3, [pc, #76]	; (401824 <Reset_Handler+0xb8>)
  4017d8:	701a      	strb	r2, [r3, #0]
	return flags;
  4017da:	9901      	ldr	r1, [sp, #4]
 */
__always_inline static void fpu_enable(void)
{
	irqflags_t flags;
	flags = cpu_irq_save();
	REG_CPACR |=  (0xFu << 20);
  4017dc:	4a12      	ldr	r2, [pc, #72]	; (401828 <Reset_Handler+0xbc>)
  4017de:	6813      	ldr	r3, [r2, #0]
  4017e0:	f443 0370 	orr.w	r3, r3, #15728640	; 0xf00000
  4017e4:	6013      	str	r3, [r2, #0]
  __ASM volatile ("dsb");
  4017e6:	f3bf 8f4f 	dsb	sy
  __ASM volatile ("isb");
  4017ea:	f3bf 8f6f 	isb	sy
	if (cpu_irq_is_enabled_flags(flags))
  4017ee:	b129      	cbz	r1, 4017fc <Reset_Handler+0x90>
		cpu_irq_enable();
  4017f0:	2201      	movs	r2, #1
  4017f2:	4b0c      	ldr	r3, [pc, #48]	; (401824 <Reset_Handler+0xb8>)
  4017f4:	701a      	strb	r2, [r3, #0]
  __ASM volatile ("dmb");
  4017f6:	f3bf 8f5f 	dmb	sy
  __ASM volatile ("cpsie i" : : : "memory");
  4017fa:	b662      	cpsie	i
        __libc_init_array();
  4017fc:	4b0b      	ldr	r3, [pc, #44]	; (40182c <Reset_Handler+0xc0>)
  4017fe:	4798      	blx	r3
        main();
  401800:	4b0b      	ldr	r3, [pc, #44]	; (401830 <Reset_Handler+0xc4>)
  401802:	4798      	blx	r3
  401804:	e7fe      	b.n	401804 <Reset_Handler+0x98>
  401806:	bf00      	nop
  401808:	20400000 	.word	0x20400000
  40180c:	0042358c 	.word	0x0042358c
  401810:	204009c0 	.word	0x204009c0
  401814:	20400fa4 	.word	0x20400fa4
  401818:	204009c0 	.word	0x204009c0
  40181c:	e000ed00 	.word	0xe000ed00
  401820:	00400000 	.word	0x00400000
  401824:	2040000a 	.word	0x2040000a
  401828:	e000ed88 	.word	0xe000ed88
  40182c:	004020f5 	.word	0x004020f5
  401830:	00401e8d 	.word	0x00401e8d

00401834 <SystemCoreClockUpdate>:
}

void SystemCoreClockUpdate( void )
{
  /* Determine clock frequency according to clock register values */
  switch (PMC->PMC_MCKR & (uint32_t) PMC_MCKR_CSS_Msk)
  401834:	4b3b      	ldr	r3, [pc, #236]	; (401924 <SystemCoreClockUpdate+0xf0>)
  401836:	6b1b      	ldr	r3, [r3, #48]	; 0x30
  401838:	f003 0303 	and.w	r3, r3, #3
  40183c:	2b01      	cmp	r3, #1
  40183e:	d01d      	beq.n	40187c <SystemCoreClockUpdate+0x48>
  401840:	b183      	cbz	r3, 401864 <SystemCoreClockUpdate+0x30>
  401842:	2b02      	cmp	r3, #2
  401844:	d036      	beq.n	4018b4 <SystemCoreClockUpdate+0x80>

    default:
    break;
  }

  if ( (PMC->PMC_MCKR & PMC_MCKR_PRES_Msk) == PMC_MCKR_PRES_CLK_3 )
  401846:	4b37      	ldr	r3, [pc, #220]	; (401924 <SystemCoreClockUpdate+0xf0>)
  401848:	6b1b      	ldr	r3, [r3, #48]	; 0x30
  40184a:	f003 0370 	and.w	r3, r3, #112	; 0x70
  40184e:	2b70      	cmp	r3, #112	; 0x70
  401850:	d05f      	beq.n	401912 <SystemCoreClockUpdate+0xde>
  {
    SystemCoreClock /= 3U;
  }
  else
  {
    SystemCoreClock >>= ((PMC->PMC_MCKR & PMC_MCKR_PRES_Msk) >> PMC_MCKR_PRES_Pos);
  401852:	4b34      	ldr	r3, [pc, #208]	; (401924 <SystemCoreClockUpdate+0xf0>)
  401854:	6b1a      	ldr	r2, [r3, #48]	; 0x30
  401856:	4934      	ldr	r1, [pc, #208]	; (401928 <SystemCoreClockUpdate+0xf4>)
  401858:	f3c2 1202 	ubfx	r2, r2, #4, #3
  40185c:	680b      	ldr	r3, [r1, #0]
  40185e:	40d3      	lsrs	r3, r2
  401860:	600b      	str	r3, [r1, #0]
  401862:	4770      	bx	lr
      if ( SUPC->SUPC_SR & SUPC_SR_OSCSEL )
  401864:	4b31      	ldr	r3, [pc, #196]	; (40192c <SystemCoreClockUpdate+0xf8>)
  401866:	695b      	ldr	r3, [r3, #20]
  401868:	f013 0f80 	tst.w	r3, #128	; 0x80
        SystemCoreClock = CHIP_FREQ_XTAL_32K;
  40186c:	bf14      	ite	ne
  40186e:	f44f 4200 	movne.w	r2, #32768	; 0x8000
        SystemCoreClock = CHIP_FREQ_SLCK_RC;
  401872:	f44f 42fa 	moveq.w	r2, #32000	; 0x7d00
  401876:	4b2c      	ldr	r3, [pc, #176]	; (401928 <SystemCoreClockUpdate+0xf4>)
  401878:	601a      	str	r2, [r3, #0]
  40187a:	e7e4      	b.n	401846 <SystemCoreClockUpdate+0x12>
      if ( PMC->CKGR_MOR & CKGR_MOR_MOSCSEL )
  40187c:	4b29      	ldr	r3, [pc, #164]	; (401924 <SystemCoreClockUpdate+0xf0>)
  40187e:	6a1b      	ldr	r3, [r3, #32]
  401880:	f013 7f80 	tst.w	r3, #16777216	; 0x1000000
  401884:	d003      	beq.n	40188e <SystemCoreClockUpdate+0x5a>
        SystemCoreClock = CHIP_FREQ_XTAL_12M;
  401886:	4a2a      	ldr	r2, [pc, #168]	; (401930 <SystemCoreClockUpdate+0xfc>)
  401888:	4b27      	ldr	r3, [pc, #156]	; (401928 <SystemCoreClockUpdate+0xf4>)
  40188a:	601a      	str	r2, [r3, #0]
  40188c:	e7db      	b.n	401846 <SystemCoreClockUpdate+0x12>
        SystemCoreClock = CHIP_FREQ_MAINCK_RC_4MHZ;
  40188e:	4a29      	ldr	r2, [pc, #164]	; (401934 <SystemCoreClockUpdate+0x100>)
  401890:	4b25      	ldr	r3, [pc, #148]	; (401928 <SystemCoreClockUpdate+0xf4>)
  401892:	601a      	str	r2, [r3, #0]
        switch ( PMC->CKGR_MOR & CKGR_MOR_MOSCRCF_Msk )
  401894:	4b23      	ldr	r3, [pc, #140]	; (401924 <SystemCoreClockUpdate+0xf0>)
  401896:	6a1b      	ldr	r3, [r3, #32]
  401898:	f003 0370 	and.w	r3, r3, #112	; 0x70
  40189c:	2b10      	cmp	r3, #16
  40189e:	d005      	beq.n	4018ac <SystemCoreClockUpdate+0x78>
  4018a0:	2b20      	cmp	r3, #32
  4018a2:	d1d0      	bne.n	401846 <SystemCoreClockUpdate+0x12>
            SystemCoreClock *= 3U;
  4018a4:	4a22      	ldr	r2, [pc, #136]	; (401930 <SystemCoreClockUpdate+0xfc>)
  4018a6:	4b20      	ldr	r3, [pc, #128]	; (401928 <SystemCoreClockUpdate+0xf4>)
  4018a8:	601a      	str	r2, [r3, #0]
          break;
  4018aa:	e7cc      	b.n	401846 <SystemCoreClockUpdate+0x12>
            SystemCoreClock *= 2U;
  4018ac:	4a22      	ldr	r2, [pc, #136]	; (401938 <SystemCoreClockUpdate+0x104>)
  4018ae:	4b1e      	ldr	r3, [pc, #120]	; (401928 <SystemCoreClockUpdate+0xf4>)
  4018b0:	601a      	str	r2, [r3, #0]
          break;
  4018b2:	e7c8      	b.n	401846 <SystemCoreClockUpdate+0x12>
      if ( PMC->CKGR_MOR & CKGR_MOR_MOSCSEL )
  4018b4:	4b1b      	ldr	r3, [pc, #108]	; (401924 <SystemCoreClockUpdate+0xf0>)
  4018b6:	6a1b      	ldr	r3, [r3, #32]
  4018b8:	f013 7f80 	tst.w	r3, #16777216	; 0x1000000
  4018bc:	d016      	beq.n	4018ec <SystemCoreClockUpdate+0xb8>
        SystemCoreClock = CHIP_FREQ_XTAL_12M ;
  4018be:	4a1c      	ldr	r2, [pc, #112]	; (401930 <SystemCoreClockUpdate+0xfc>)
  4018c0:	4b19      	ldr	r3, [pc, #100]	; (401928 <SystemCoreClockUpdate+0xf4>)
  4018c2:	601a      	str	r2, [r3, #0]
      if ( (uint32_t) (PMC->PMC_MCKR & (uint32_t) PMC_MCKR_CSS_Msk) == PMC_MCKR_CSS_PLLA_CLK )
  4018c4:	4b17      	ldr	r3, [pc, #92]	; (401924 <SystemCoreClockUpdate+0xf0>)
  4018c6:	6b1b      	ldr	r3, [r3, #48]	; 0x30
  4018c8:	f003 0303 	and.w	r3, r3, #3
  4018cc:	2b02      	cmp	r3, #2
  4018ce:	d1ba      	bne.n	401846 <SystemCoreClockUpdate+0x12>
        SystemCoreClock *= ((((PMC->CKGR_PLLAR) & CKGR_PLLAR_MULA_Msk) >> CKGR_PLLAR_MULA_Pos) + 1U);
  4018d0:	4a14      	ldr	r2, [pc, #80]	; (401924 <SystemCoreClockUpdate+0xf0>)
  4018d2:	6a91      	ldr	r1, [r2, #40]	; 0x28
        SystemCoreClock /= ((((PMC->CKGR_PLLAR) & CKGR_PLLAR_DIVA_Msk) >> CKGR_PLLAR_DIVA_Pos));
  4018d4:	6a92      	ldr	r2, [r2, #40]	; 0x28
  4018d6:	4814      	ldr	r0, [pc, #80]	; (401928 <SystemCoreClockUpdate+0xf4>)
        SystemCoreClock *= ((((PMC->CKGR_PLLAR) & CKGR_PLLAR_MULA_Msk) >> CKGR_PLLAR_MULA_Pos) + 1U);
  4018d8:	f3c1 410a 	ubfx	r1, r1, #16, #11
  4018dc:	6803      	ldr	r3, [r0, #0]
  4018de:	fb01 3303 	mla	r3, r1, r3, r3
        SystemCoreClock /= ((((PMC->CKGR_PLLAR) & CKGR_PLLAR_DIVA_Msk) >> CKGR_PLLAR_DIVA_Pos));
  4018e2:	b2d2      	uxtb	r2, r2
  4018e4:	fbb3 f3f2 	udiv	r3, r3, r2
  4018e8:	6003      	str	r3, [r0, #0]
  4018ea:	e7ac      	b.n	401846 <SystemCoreClockUpdate+0x12>
        SystemCoreClock = CHIP_FREQ_MAINCK_RC_4MHZ;
  4018ec:	4a11      	ldr	r2, [pc, #68]	; (401934 <SystemCoreClockUpdate+0x100>)
  4018ee:	4b0e      	ldr	r3, [pc, #56]	; (401928 <SystemCoreClockUpdate+0xf4>)
  4018f0:	601a      	str	r2, [r3, #0]
        switch ( PMC->CKGR_MOR & CKGR_MOR_MOSCRCF_Msk )
  4018f2:	4b0c      	ldr	r3, [pc, #48]	; (401924 <SystemCoreClockUpdate+0xf0>)
  4018f4:	6a1b      	ldr	r3, [r3, #32]
  4018f6:	f003 0370 	and.w	r3, r3, #112	; 0x70
  4018fa:	2b10      	cmp	r3, #16
  4018fc:	d005      	beq.n	40190a <SystemCoreClockUpdate+0xd6>
  4018fe:	2b20      	cmp	r3, #32
  401900:	d1e0      	bne.n	4018c4 <SystemCoreClockUpdate+0x90>
            SystemCoreClock *= 3U;
  401902:	4a0b      	ldr	r2, [pc, #44]	; (401930 <SystemCoreClockUpdate+0xfc>)
  401904:	4b08      	ldr	r3, [pc, #32]	; (401928 <SystemCoreClockUpdate+0xf4>)
  401906:	601a      	str	r2, [r3, #0]
          break;
  401908:	e7dc      	b.n	4018c4 <SystemCoreClockUpdate+0x90>
            SystemCoreClock *= 2U;
  40190a:	4a0b      	ldr	r2, [pc, #44]	; (401938 <SystemCoreClockUpdate+0x104>)
  40190c:	4b06      	ldr	r3, [pc, #24]	; (401928 <SystemCoreClockUpdate+0xf4>)
  40190e:	601a      	str	r2, [r3, #0]
          break;
  401910:	e7d8      	b.n	4018c4 <SystemCoreClockUpdate+0x90>
    SystemCoreClock /= 3U;
  401912:	4a05      	ldr	r2, [pc, #20]	; (401928 <SystemCoreClockUpdate+0xf4>)
  401914:	6813      	ldr	r3, [r2, #0]
  401916:	4909      	ldr	r1, [pc, #36]	; (40193c <SystemCoreClockUpdate+0x108>)
  401918:	fba1 1303 	umull	r1, r3, r1, r3
  40191c:	085b      	lsrs	r3, r3, #1
  40191e:	6013      	str	r3, [r2, #0]
  401920:	4770      	bx	lr
  401922:	bf00      	nop
  401924:	400e0600 	.word	0x400e0600
  401928:	2040000c 	.word	0x2040000c
  40192c:	400e1810 	.word	0x400e1810
  401930:	00b71b00 	.word	0x00b71b00
  401934:	003d0900 	.word	0x003d0900
  401938:	007a1200 	.word	0x007a1200
  40193c:	aaaaaaab 	.word	0xaaaaaaab

00401940 <system_init_flash>:
 * Initialize flash.
 */
void system_init_flash( uint32_t ul_clk )
{
  /* Set FWS for embedded Flash access according to operating frequency */
  if ( ul_clk < CHIP_FREQ_FWS_0 )
  401940:	4b12      	ldr	r3, [pc, #72]	; (40198c <system_init_flash+0x4c>)
  401942:	4298      	cmp	r0, r3
  401944:	d911      	bls.n	40196a <system_init_flash+0x2a>
  {
    EFC->EEFC_FMR = EEFC_FMR_FWS(0)|EEFC_FMR_CLOE;
  }
  else
  {
    if (ul_clk < CHIP_FREQ_FWS_1)
  401946:	4b12      	ldr	r3, [pc, #72]	; (401990 <system_init_flash+0x50>)
  401948:	4298      	cmp	r0, r3
  40194a:	d913      	bls.n	401974 <system_init_flash+0x34>
    {
      EFC->EEFC_FMR = EEFC_FMR_FWS(1)|EEFC_FMR_CLOE;
    }
    else
    {
      if (ul_clk < CHIP_FREQ_FWS_2)
  40194c:	4b11      	ldr	r3, [pc, #68]	; (401994 <system_init_flash+0x54>)
  40194e:	4298      	cmp	r0, r3
  401950:	d914      	bls.n	40197c <system_init_flash+0x3c>
      {
        EFC->EEFC_FMR = EEFC_FMR_FWS(2)|EEFC_FMR_CLOE;
      }
      else
      {
        if ( ul_clk < CHIP_FREQ_FWS_3 )
  401952:	4b11      	ldr	r3, [pc, #68]	; (401998 <system_init_flash+0x58>)
  401954:	4298      	cmp	r0, r3
  401956:	d915      	bls.n	401984 <system_init_flash+0x44>
        {
          EFC->EEFC_FMR = EEFC_FMR_FWS(3)|EEFC_FMR_CLOE;
        }
        else
        {
          if ( ul_clk < CHIP_FREQ_FWS_4 )
  401958:	4b10      	ldr	r3, [pc, #64]	; (40199c <system_init_flash+0x5c>)
  40195a:	4298      	cmp	r0, r3
          {
            EFC->EEFC_FMR = EEFC_FMR_FWS(4)|EEFC_FMR_CLOE;
  40195c:	bf94      	ite	ls
  40195e:	f04f 2204 	movls.w	r2, #67109888	; 0x4000400
          }
          else
          {
            EFC->EEFC_FMR = EEFC_FMR_FWS(5)|EEFC_FMR_CLOE;
  401962:	4a0f      	ldrhi	r2, [pc, #60]	; (4019a0 <system_init_flash+0x60>)
  401964:	4b0f      	ldr	r3, [pc, #60]	; (4019a4 <system_init_flash+0x64>)
  401966:	601a      	str	r2, [r3, #0]
  401968:	4770      	bx	lr
    EFC->EEFC_FMR = EEFC_FMR_FWS(0)|EEFC_FMR_CLOE;
  40196a:	f04f 6280 	mov.w	r2, #67108864	; 0x4000000
  40196e:	4b0d      	ldr	r3, [pc, #52]	; (4019a4 <system_init_flash+0x64>)
  401970:	601a      	str	r2, [r3, #0]
  401972:	4770      	bx	lr
      EFC->EEFC_FMR = EEFC_FMR_FWS(1)|EEFC_FMR_CLOE;
  401974:	4a0c      	ldr	r2, [pc, #48]	; (4019a8 <system_init_flash+0x68>)
  401976:	4b0b      	ldr	r3, [pc, #44]	; (4019a4 <system_init_flash+0x64>)
  401978:	601a      	str	r2, [r3, #0]
  40197a:	4770      	bx	lr
        EFC->EEFC_FMR = EEFC_FMR_FWS(2)|EEFC_FMR_CLOE;
  40197c:	4a0b      	ldr	r2, [pc, #44]	; (4019ac <system_init_flash+0x6c>)
  40197e:	4b09      	ldr	r3, [pc, #36]	; (4019a4 <system_init_flash+0x64>)
  401980:	601a      	str	r2, [r3, #0]
  401982:	4770      	bx	lr
          EFC->EEFC_FMR = EEFC_FMR_FWS(3)|EEFC_FMR_CLOE;
  401984:	4a0a      	ldr	r2, [pc, #40]	; (4019b0 <system_init_flash+0x70>)
  401986:	4b07      	ldr	r3, [pc, #28]	; (4019a4 <system_init_flash+0x64>)
  401988:	601a      	str	r2, [r3, #0]
  40198a:	4770      	bx	lr
  40198c:	01312cff 	.word	0x01312cff
  401990:	026259ff 	.word	0x026259ff
  401994:	039386ff 	.word	0x039386ff
  401998:	04c4b3ff 	.word	0x04c4b3ff
  40199c:	05f5e0ff 	.word	0x05f5e0ff
  4019a0:	04000500 	.word	0x04000500
  4019a4:	400e0c00 	.word	0x400e0c00
  4019a8:	04000100 	.word	0x04000100
  4019ac:	04000200 	.word	0x04000200
  4019b0:	04000300 	.word	0x04000300

004019b4 <_sbrk>:
{
	static unsigned char *heap = NULL;
	unsigned char *prev_heap;
	int ramend = (int)&__ram_end__;

	if (heap == NULL) {
  4019b4:	4b0a      	ldr	r3, [pc, #40]	; (4019e0 <_sbrk+0x2c>)
  4019b6:	681b      	ldr	r3, [r3, #0]
  4019b8:	b153      	cbz	r3, 4019d0 <_sbrk+0x1c>
		heap = (unsigned char *)&_end;
	}
	prev_heap = heap;
  4019ba:	4b09      	ldr	r3, [pc, #36]	; (4019e0 <_sbrk+0x2c>)
  4019bc:	681b      	ldr	r3, [r3, #0]

	if (((int)prev_heap + incr) > ramend) {
  4019be:	181a      	adds	r2, r3, r0
  4019c0:	4908      	ldr	r1, [pc, #32]	; (4019e4 <_sbrk+0x30>)
  4019c2:	4291      	cmp	r1, r2
  4019c4:	db08      	blt.n	4019d8 <_sbrk+0x24>
		return (caddr_t) -1;	
	}

	heap += incr;
  4019c6:	4610      	mov	r0, r2
  4019c8:	4a05      	ldr	r2, [pc, #20]	; (4019e0 <_sbrk+0x2c>)
  4019ca:	6010      	str	r0, [r2, #0]

	return (caddr_t) prev_heap;
  4019cc:	4618      	mov	r0, r3
  4019ce:	4770      	bx	lr
		heap = (unsigned char *)&_end;
  4019d0:	4a05      	ldr	r2, [pc, #20]	; (4019e8 <_sbrk+0x34>)
  4019d2:	4b03      	ldr	r3, [pc, #12]	; (4019e0 <_sbrk+0x2c>)
  4019d4:	601a      	str	r2, [r3, #0]
  4019d6:	e7f0      	b.n	4019ba <_sbrk+0x6>
		return (caddr_t) -1;	
  4019d8:	f04f 30ff 	mov.w	r0, #4294967295
}
  4019dc:	4770      	bx	lr
  4019de:	bf00      	nop
  4019e0:	20400e10 	.word	0x20400e10
  4019e4:	2045fffc 	.word	0x2045fffc
  4019e8:	204031a8 	.word	0x204031a8

004019ec <_close>:
}

extern int _close(int file)
{
	return -1;
}
  4019ec:	f04f 30ff 	mov.w	r0, #4294967295
  4019f0:	4770      	bx	lr

004019f2 <_fstat>:

extern int _fstat(int file, struct stat *st)
{
	st->st_mode = S_IFCHR;
  4019f2:	f44f 5300 	mov.w	r3, #8192	; 0x2000
  4019f6:	604b      	str	r3, [r1, #4]

	return 0;
}
  4019f8:	2000      	movs	r0, #0
  4019fa:	4770      	bx	lr

004019fc <_isatty>:

extern int _isatty(int file)
{
	return 1;
}
  4019fc:	2001      	movs	r0, #1
  4019fe:	4770      	bx	lr

00401a00 <_lseek>:

extern int _lseek(int file, int ptr, int dir)
{
	return 0;
}
  401a00:	2000      	movs	r0, #0
  401a02:	4770      	bx	lr

00401a04 <vListInsertEnd>:

	/* Insert a new list item into pxList, but rather than sort the list,
	makes the new list item the last item to be removed by a call to
	pvListGetOwnerOfNextEntry.  This means it has to be the item pointed to by
	the pxIndex member. */
	pxIndex = pxList->pxIndex;
  401a04:	6843      	ldr	r3, [r0, #4]

	pxNewListItem->pxNext = pxIndex->pxNext;
  401a06:	685a      	ldr	r2, [r3, #4]
  401a08:	604a      	str	r2, [r1, #4]
	pxNewListItem->pxPrevious = pxList->pxIndex;
  401a0a:	6842      	ldr	r2, [r0, #4]
  401a0c:	608a      	str	r2, [r1, #8]
	pxIndex->pxNext->pxPrevious = ( volatile xListItem * ) pxNewListItem;
  401a0e:	685a      	ldr	r2, [r3, #4]
  401a10:	6091      	str	r1, [r2, #8]
	pxIndex->pxNext = ( volatile xListItem * ) pxNewListItem;
  401a12:	6059      	str	r1, [r3, #4]
	pxList->pxIndex = ( volatile xListItem * ) pxNewListItem;
  401a14:	6041      	str	r1, [r0, #4]

	/* Remember which list the item is in. */
	pxNewListItem->pvContainer = ( void * ) pxList;
  401a16:	6108      	str	r0, [r1, #16]

	( pxList->uxNumberOfItems )++;
  401a18:	6803      	ldr	r3, [r0, #0]
  401a1a:	3301      	adds	r3, #1
  401a1c:	6003      	str	r3, [r0, #0]
  401a1e:	4770      	bx	lr

00401a20 <uxListRemove>:

unsigned portBASE_TYPE uxListRemove( xListItem *pxItemToRemove )
{
xList * pxList;

	pxItemToRemove->pxNext->pxPrevious = pxItemToRemove->pxPrevious;
  401a20:	6843      	ldr	r3, [r0, #4]
  401a22:	6882      	ldr	r2, [r0, #8]
  401a24:	609a      	str	r2, [r3, #8]
	pxItemToRemove->pxPrevious->pxNext = pxItemToRemove->pxNext;
  401a26:	6883      	ldr	r3, [r0, #8]
  401a28:	6842      	ldr	r2, [r0, #4]
  401a2a:	605a      	str	r2, [r3, #4]

	/* The list item knows which list it is in.  Obtain the list from the list
	item. */
	pxList = ( xList * ) pxItemToRemove->pvContainer;
  401a2c:	6903      	ldr	r3, [r0, #16]

	/* Make sure the index is left pointing to a valid item. */
	if( pxList->pxIndex == pxItemToRemove )
  401a2e:	685a      	ldr	r2, [r3, #4]
  401a30:	4290      	cmp	r0, r2
  401a32:	d006      	beq.n	401a42 <uxListRemove+0x22>
	{
		pxList->pxIndex = pxItemToRemove->pxPrevious;
	}

	pxItemToRemove->pvContainer = NULL;
  401a34:	2200      	movs	r2, #0
  401a36:	6102      	str	r2, [r0, #16]
	( pxList->uxNumberOfItems )--;
  401a38:	681a      	ldr	r2, [r3, #0]
  401a3a:	3a01      	subs	r2, #1
  401a3c:	601a      	str	r2, [r3, #0]

	return pxList->uxNumberOfItems;
  401a3e:	6818      	ldr	r0, [r3, #0]
}
  401a40:	4770      	bx	lr
		pxList->pxIndex = pxItemToRemove->pxPrevious;
  401a42:	6882      	ldr	r2, [r0, #8]
  401a44:	605a      	str	r2, [r3, #4]
  401a46:	e7f5      	b.n	401a34 <uxListRemove+0x14>

00401a48 <SVC_Handler>:
/*-----------------------------------------------------------*/

/*void vPortSVCHandler( void )*/ /* ATMEL */
__attribute__ ((naked)) void SVC_Handler( void )
{
	__asm volatile (
  401a48:	4b05      	ldr	r3, [pc, #20]	; (401a60 <pxCurrentTCBConst2>)
  401a4a:	6819      	ldr	r1, [r3, #0]
  401a4c:	6808      	ldr	r0, [r1, #0]
  401a4e:	e8b0 4ff0 	ldmia.w	r0!, {r4, r5, r6, r7, r8, r9, sl, fp, lr}
  401a52:	f380 8809 	msr	PSP, r0
  401a56:	f04f 0000 	mov.w	r0, #0
  401a5a:	f380 8811 	msr	BASEPRI, r0
  401a5e:	4770      	bx	lr

00401a60 <pxCurrentTCBConst2>:
  401a60:	20400e14 	.word	0x20400e14

00401a64 <ulPortSetInterruptMask>:

/*-----------------------------------------------------------*/

__attribute__((naked)) unsigned long ulPortSetInterruptMask( void )
{
	__asm volatile \
  401a64:	f3ef 8011 	mrs	r0, BASEPRI
  401a68:	f04f 01a0 	mov.w	r1, #160	; 0xa0
  401a6c:	f381 8811 	msr	BASEPRI, r1
  401a70:	4770      	bx	lr
	);

	/* This return will not be reached but is necessary to prevent compiler
	 * warnings. */
	return 0;
}
  401a72:	2000      	movs	r0, #0

00401a74 <vPortClearInterruptMask>:
/*-----------------------------------------------------------*/

__attribute__((naked)) void vPortClearInterruptMask(
		unsigned long ulNewMaskValue )
{
	__asm volatile \
  401a74:	f380 8811 	msr	BASEPRI, r0
  401a78:	4770      	bx	lr
	...

00401a7c <PendSV_Handler>:
/*void xPortPendSVHandler( void )*/
__attribute__((naked)) void PendSV_Handler( void )   /* ATMEL */
{
	/* This is a naked function. */

	__asm volatile
  401a7c:	f3ef 8009 	mrs	r0, PSP
  401a80:	4b11      	ldr	r3, [pc, #68]	; (401ac8 <pxCurrentTCBConst>)
  401a82:	681a      	ldr	r2, [r3, #0]
  401a84:	f01e 0f10 	tst.w	lr, #16
  401a88:	bf08      	it	eq
  401a8a:	ed20 8a10 	vstmdbeq	r0!, {s16-s31}
  401a8e:	e920 4ff0 	stmdb	r0!, {r4, r5, r6, r7, r8, r9, sl, fp, lr}
  401a92:	6010      	str	r0, [r2, #0]
  401a94:	e92d 4008 	stmdb	sp!, {r3, lr}
  401a98:	f04f 00a0 	mov.w	r0, #160	; 0xa0
  401a9c:	f380 8811 	msr	BASEPRI, r0
  401aa0:	f000 f8bc 	bl	401c1c <vTaskSwitchContext>
  401aa4:	f04f 0000 	mov.w	r0, #0
  401aa8:	f380 8811 	msr	BASEPRI, r0
  401aac:	e8bd 4008 	ldmia.w	sp!, {r3, lr}
  401ab0:	6819      	ldr	r1, [r3, #0]
  401ab2:	6808      	ldr	r0, [r1, #0]
  401ab4:	e8b0 4ff0 	ldmia.w	r0!, {r4, r5, r6, r7, r8, r9, sl, fp, lr}
  401ab8:	f01e 0f10 	tst.w	lr, #16
  401abc:	bf08      	it	eq
  401abe:	ecb0 8a10 	vldmiaeq	r0!, {s16-s31}
  401ac2:	f380 8809 	msr	PSP, r0
  401ac6:	4770      	bx	lr

00401ac8 <pxCurrentTCBConst>:
  401ac8:	20400e14 	.word	0x20400e14

00401acc <SysTick_Handler>:
	);
}

/*-----------------------------------------------------------*/
void SysTick_Handler( void ) /* ATMEL */
{
  401acc:	b508      	push	{r3, lr}
	/* If using preemption, also force a context switch. */
	#if configUSE_PREEMPTION == 1
	portNVIC_INT_CTRL_REG = portNVIC_PENDSVSET_BIT;
  401ace:	f04f 5280 	mov.w	r2, #268435456	; 0x10000000
  401ad2:	4b05      	ldr	r3, [pc, #20]	; (401ae8 <SysTick_Handler+0x1c>)
  401ad4:	601a      	str	r2, [r3, #0]
	#endif

	(void)portSET_INTERRUPT_MASK_FROM_ISR();
  401ad6:	4b05      	ldr	r3, [pc, #20]	; (401aec <SysTick_Handler+0x20>)
  401ad8:	4798      	blx	r3
	{
		vTaskIncrementTick();
  401ada:	4b05      	ldr	r3, [pc, #20]	; (401af0 <SysTick_Handler+0x24>)
  401adc:	4798      	blx	r3
	}
	portCLEAR_INTERRUPT_MASK_FROM_ISR( 0 );
  401ade:	2000      	movs	r0, #0
  401ae0:	4b04      	ldr	r3, [pc, #16]	; (401af4 <SysTick_Handler+0x28>)
  401ae2:	4798      	blx	r3
  401ae4:	bd08      	pop	{r3, pc}
  401ae6:	bf00      	nop
  401ae8:	e000ed04 	.word	0xe000ed04
  401aec:	00401a65 	.word	0x00401a65
  401af0:	00401af9 	.word	0x00401af9
  401af4:	00401a75 	.word	0x00401a75

00401af8 <vTaskIncrementTick>:

	/* Called by the portable layer each time a tick interrupt occurs.
	Increments the tick then checks to see if the new tick value will cause any
	tasks to be unblocked. */
	traceTASK_INCREMENT_TICK( xTickCount );
	if( uxSchedulerSuspended == ( unsigned portBASE_TYPE ) pdFALSE )
  401af8:	4b3c      	ldr	r3, [pc, #240]	; (401bec <vTaskIncrementTick+0xf4>)
  401afa:	681b      	ldr	r3, [r3, #0]
  401afc:	2b00      	cmp	r3, #0
  401afe:	d16e      	bne.n	401bde <vTaskIncrementTick+0xe6>
{
  401b00:	e92d 41f0 	stmdb	sp!, {r4, r5, r6, r7, r8, lr}
	{
		++xTickCount;
  401b04:	4b3a      	ldr	r3, [pc, #232]	; (401bf0 <vTaskIncrementTick+0xf8>)
  401b06:	681a      	ldr	r2, [r3, #0]
  401b08:	3201      	adds	r2, #1
  401b0a:	601a      	str	r2, [r3, #0]
		if( xTickCount == ( portTickType ) 0U )
  401b0c:	681b      	ldr	r3, [r3, #0]
  401b0e:	b9ab      	cbnz	r3, 401b3c <vTaskIncrementTick+0x44>
			xList *pxTemp;

			/* Tick count has overflowed so we need to swap the delay lists.
			If there are any items in pxDelayedTaskList here then there is
			an error! */
			configASSERT( ( listLIST_IS_EMPTY( pxDelayedTaskList ) ) );
  401b10:	4b38      	ldr	r3, [pc, #224]	; (401bf4 <vTaskIncrementTick+0xfc>)
  401b12:	681b      	ldr	r3, [r3, #0]
  401b14:	681b      	ldr	r3, [r3, #0]
  401b16:	2b00      	cmp	r3, #0
  401b18:	d128      	bne.n	401b6c <vTaskIncrementTick+0x74>

			pxTemp = pxDelayedTaskList;
  401b1a:	4b36      	ldr	r3, [pc, #216]	; (401bf4 <vTaskIncrementTick+0xfc>)
  401b1c:	6819      	ldr	r1, [r3, #0]
			pxDelayedTaskList = pxOverflowDelayedTaskList;
  401b1e:	4a36      	ldr	r2, [pc, #216]	; (401bf8 <vTaskIncrementTick+0x100>)
  401b20:	6810      	ldr	r0, [r2, #0]
  401b22:	6018      	str	r0, [r3, #0]
			pxOverflowDelayedTaskList = pxTemp;
  401b24:	6011      	str	r1, [r2, #0]
			xNumOfOverflows++;
  401b26:	4935      	ldr	r1, [pc, #212]	; (401bfc <vTaskIncrementTick+0x104>)
  401b28:	680a      	ldr	r2, [r1, #0]
  401b2a:	3201      	adds	r2, #1
  401b2c:	600a      	str	r2, [r1, #0]

			if( listLIST_IS_EMPTY( pxDelayedTaskList ) != pdFALSE )
  401b2e:	681b      	ldr	r3, [r3, #0]
  401b30:	681b      	ldr	r3, [r3, #0]
  401b32:	b9fb      	cbnz	r3, 401b74 <vTaskIncrementTick+0x7c>
				/* The new current delayed list is empty.  Set
				xNextTaskUnblockTime to the maximum possible value so it is
				extremely unlikely that the
				if( xTickCount >= xNextTaskUnblockTime ) test will pass until
				there is an item in the delayed list. */
				xNextTaskUnblockTime = portMAX_DELAY;
  401b34:	f04f 32ff 	mov.w	r2, #4294967295
  401b38:	4b31      	ldr	r3, [pc, #196]	; (401c00 <vTaskIncrementTick+0x108>)
  401b3a:	601a      	str	r2, [r3, #0]
				xNextTaskUnblockTime = listGET_LIST_ITEM_VALUE( &( pxTCB->xGenericListItem ) );
			}
		}

		/* See if this tick has made a timeout expire. */
		prvCheckDelayedTasks();
  401b3c:	4b2c      	ldr	r3, [pc, #176]	; (401bf0 <vTaskIncrementTick+0xf8>)
  401b3e:	681a      	ldr	r2, [r3, #0]
  401b40:	4b2f      	ldr	r3, [pc, #188]	; (401c00 <vTaskIncrementTick+0x108>)
  401b42:	681b      	ldr	r3, [r3, #0]
  401b44:	429a      	cmp	r2, r3
  401b46:	d34f      	bcc.n	401be8 <vTaskIncrementTick+0xf0>
  401b48:	4b2a      	ldr	r3, [pc, #168]	; (401bf4 <vTaskIncrementTick+0xfc>)
  401b4a:	681b      	ldr	r3, [r3, #0]
  401b4c:	681b      	ldr	r3, [r3, #0]
  401b4e:	b1cb      	cbz	r3, 401b84 <vTaskIncrementTick+0x8c>
  401b50:	4b28      	ldr	r3, [pc, #160]	; (401bf4 <vTaskIncrementTick+0xfc>)
  401b52:	681b      	ldr	r3, [r3, #0]
  401b54:	68db      	ldr	r3, [r3, #12]
  401b56:	68dc      	ldr	r4, [r3, #12]
  401b58:	6863      	ldr	r3, [r4, #4]
  401b5a:	4a25      	ldr	r2, [pc, #148]	; (401bf0 <vTaskIncrementTick+0xf8>)
  401b5c:	6812      	ldr	r2, [r2, #0]
  401b5e:	4293      	cmp	r3, r2
  401b60:	d816      	bhi.n	401b90 <vTaskIncrementTick+0x98>
  401b62:	4e28      	ldr	r6, [pc, #160]	; (401c04 <vTaskIncrementTick+0x10c>)
  401b64:	4f28      	ldr	r7, [pc, #160]	; (401c08 <vTaskIncrementTick+0x110>)
  401b66:	f8df 80b0 	ldr.w	r8, [pc, #176]	; 401c18 <vTaskIncrementTick+0x120>
  401b6a:	e02a      	b.n	401bc2 <vTaskIncrementTick+0xca>
			configASSERT( ( listLIST_IS_EMPTY( pxDelayedTaskList ) ) );
  401b6c:	4b27      	ldr	r3, [pc, #156]	; (401c0c <vTaskIncrementTick+0x114>)
  401b6e:	4798      	blx	r3
  401b70:	bf00      	nop
  401b72:	e7fd      	b.n	401b70 <vTaskIncrementTick+0x78>
				pxTCB = ( tskTCB * ) listGET_OWNER_OF_HEAD_ENTRY( pxDelayedTaskList );
  401b74:	4b1f      	ldr	r3, [pc, #124]	; (401bf4 <vTaskIncrementTick+0xfc>)
  401b76:	681b      	ldr	r3, [r3, #0]
  401b78:	68db      	ldr	r3, [r3, #12]
  401b7a:	68db      	ldr	r3, [r3, #12]
				xNextTaskUnblockTime = listGET_LIST_ITEM_VALUE( &( pxTCB->xGenericListItem ) );
  401b7c:	685a      	ldr	r2, [r3, #4]
  401b7e:	4b20      	ldr	r3, [pc, #128]	; (401c00 <vTaskIncrementTick+0x108>)
  401b80:	601a      	str	r2, [r3, #0]
  401b82:	e7db      	b.n	401b3c <vTaskIncrementTick+0x44>
		prvCheckDelayedTasks();
  401b84:	f04f 32ff 	mov.w	r2, #4294967295
  401b88:	4b1d      	ldr	r3, [pc, #116]	; (401c00 <vTaskIncrementTick+0x108>)
  401b8a:	601a      	str	r2, [r3, #0]
  401b8c:	e8bd 81f0 	ldmia.w	sp!, {r4, r5, r6, r7, r8, pc}
  401b90:	4a1b      	ldr	r2, [pc, #108]	; (401c00 <vTaskIncrementTick+0x108>)
  401b92:	6013      	str	r3, [r2, #0]
  401b94:	e8bd 81f0 	ldmia.w	sp!, {r4, r5, r6, r7, r8, pc}
  401b98:	eb00 0080 	add.w	r0, r0, r0, lsl #2
  401b9c:	4629      	mov	r1, r5
  401b9e:	eb08 0080 	add.w	r0, r8, r0, lsl #2
  401ba2:	4b1b      	ldr	r3, [pc, #108]	; (401c10 <vTaskIncrementTick+0x118>)
  401ba4:	4798      	blx	r3
  401ba6:	4b13      	ldr	r3, [pc, #76]	; (401bf4 <vTaskIncrementTick+0xfc>)
  401ba8:	681b      	ldr	r3, [r3, #0]
  401baa:	681b      	ldr	r3, [r3, #0]
  401bac:	2b00      	cmp	r3, #0
  401bae:	d0e9      	beq.n	401b84 <vTaskIncrementTick+0x8c>
  401bb0:	4b10      	ldr	r3, [pc, #64]	; (401bf4 <vTaskIncrementTick+0xfc>)
  401bb2:	681b      	ldr	r3, [r3, #0]
  401bb4:	68db      	ldr	r3, [r3, #12]
  401bb6:	68dc      	ldr	r4, [r3, #12]
  401bb8:	6863      	ldr	r3, [r4, #4]
  401bba:	4a0d      	ldr	r2, [pc, #52]	; (401bf0 <vTaskIncrementTick+0xf8>)
  401bbc:	6812      	ldr	r2, [r2, #0]
  401bbe:	4293      	cmp	r3, r2
  401bc0:	d8e6      	bhi.n	401b90 <vTaskIncrementTick+0x98>
  401bc2:	1d25      	adds	r5, r4, #4
  401bc4:	4628      	mov	r0, r5
  401bc6:	47b0      	blx	r6
  401bc8:	6aa3      	ldr	r3, [r4, #40]	; 0x28
  401bca:	b113      	cbz	r3, 401bd2 <vTaskIncrementTick+0xda>
  401bcc:	f104 0018 	add.w	r0, r4, #24
  401bd0:	47b0      	blx	r6
  401bd2:	6ae0      	ldr	r0, [r4, #44]	; 0x2c
  401bd4:	683b      	ldr	r3, [r7, #0]
  401bd6:	4298      	cmp	r0, r3
  401bd8:	d9de      	bls.n	401b98 <vTaskIncrementTick+0xa0>
  401bda:	6038      	str	r0, [r7, #0]
  401bdc:	e7dc      	b.n	401b98 <vTaskIncrementTick+0xa0>
	}
	else
	{
		++uxMissedTicks;
  401bde:	4a0d      	ldr	r2, [pc, #52]	; (401c14 <vTaskIncrementTick+0x11c>)
  401be0:	6813      	ldr	r3, [r2, #0]
  401be2:	3301      	adds	r3, #1
  401be4:	6013      	str	r3, [r2, #0]
		{
			vApplicationTickHook();
		}
	}
	#endif
}
  401be6:	4770      	bx	lr
  401be8:	e8bd 81f0 	ldmia.w	sp!, {r4, r5, r6, r7, r8, pc}
  401bec:	20400e88 	.word	0x20400e88
  401bf0:	20400e98 	.word	0x20400e98
  401bf4:	20400e18 	.word	0x20400e18
  401bf8:	20400e1c 	.word	0x20400e1c
  401bfc:	20400e94 	.word	0x20400e94
  401c00:	20400010 	.word	0x20400010
  401c04:	00401a21 	.word	0x00401a21
  401c08:	20400e8c 	.word	0x20400e8c
  401c0c:	00401a65 	.word	0x00401a65
  401c10:	00401a05 	.word	0x00401a05
  401c14:	20400e84 	.word	0x20400e84
  401c18:	20400e20 	.word	0x20400e20

00401c1c <vTaskSwitchContext>:
#endif
/*-----------------------------------------------------------*/

void vTaskSwitchContext( void )
{
	if( uxSchedulerSuspended != ( unsigned portBASE_TYPE ) pdFALSE )
  401c1c:	4b21      	ldr	r3, [pc, #132]	; (401ca4 <vTaskSwitchContext+0x88>)
  401c1e:	681b      	ldr	r3, [r3, #0]
  401c20:	b9eb      	cbnz	r3, 401c5e <vTaskSwitchContext+0x42>
{
  401c22:	b510      	push	{r4, lr}
		#endif

		taskFIRST_CHECK_FOR_STACK_OVERFLOW();
		taskSECOND_CHECK_FOR_STACK_OVERFLOW();

		taskSELECT_HIGHEST_PRIORITY_TASK();
  401c24:	4b20      	ldr	r3, [pc, #128]	; (401ca8 <vTaskSwitchContext+0x8c>)
  401c26:	681b      	ldr	r3, [r3, #0]
  401c28:	eb03 0383 	add.w	r3, r3, r3, lsl #2
  401c2c:	009b      	lsls	r3, r3, #2
  401c2e:	4a1f      	ldr	r2, [pc, #124]	; (401cac <vTaskSwitchContext+0x90>)
  401c30:	58d3      	ldr	r3, [r2, r3]
  401c32:	b9c3      	cbnz	r3, 401c66 <vTaskSwitchContext+0x4a>
  401c34:	4b1c      	ldr	r3, [pc, #112]	; (401ca8 <vTaskSwitchContext+0x8c>)
  401c36:	681b      	ldr	r3, [r3, #0]
  401c38:	b16b      	cbz	r3, 401c56 <vTaskSwitchContext+0x3a>
  401c3a:	4a1b      	ldr	r2, [pc, #108]	; (401ca8 <vTaskSwitchContext+0x8c>)
  401c3c:	491b      	ldr	r1, [pc, #108]	; (401cac <vTaskSwitchContext+0x90>)
  401c3e:	6813      	ldr	r3, [r2, #0]
  401c40:	3b01      	subs	r3, #1
  401c42:	6013      	str	r3, [r2, #0]
  401c44:	6813      	ldr	r3, [r2, #0]
  401c46:	eb03 0383 	add.w	r3, r3, r3, lsl #2
  401c4a:	f851 3023 	ldr.w	r3, [r1, r3, lsl #2]
  401c4e:	b953      	cbnz	r3, 401c66 <vTaskSwitchContext+0x4a>
  401c50:	6813      	ldr	r3, [r2, #0]
  401c52:	2b00      	cmp	r3, #0
  401c54:	d1f3      	bne.n	401c3e <vTaskSwitchContext+0x22>
  401c56:	4b16      	ldr	r3, [pc, #88]	; (401cb0 <vTaskSwitchContext+0x94>)
  401c58:	4798      	blx	r3
  401c5a:	bf00      	nop
  401c5c:	e7fd      	b.n	401c5a <vTaskSwitchContext+0x3e>
		xMissedYield = pdTRUE;
  401c5e:	2201      	movs	r2, #1
  401c60:	4b14      	ldr	r3, [pc, #80]	; (401cb4 <vTaskSwitchContext+0x98>)
  401c62:	601a      	str	r2, [r3, #0]
  401c64:	4770      	bx	lr
		taskSELECT_HIGHEST_PRIORITY_TASK();
  401c66:	4b10      	ldr	r3, [pc, #64]	; (401ca8 <vTaskSwitchContext+0x8c>)
  401c68:	681b      	ldr	r3, [r3, #0]
  401c6a:	4a10      	ldr	r2, [pc, #64]	; (401cac <vTaskSwitchContext+0x90>)
  401c6c:	0099      	lsls	r1, r3, #2
  401c6e:	18c8      	adds	r0, r1, r3
  401c70:	eb02 0080 	add.w	r0, r2, r0, lsl #2
  401c74:	6844      	ldr	r4, [r0, #4]
  401c76:	6864      	ldr	r4, [r4, #4]
  401c78:	6044      	str	r4, [r0, #4]
  401c7a:	4419      	add	r1, r3
  401c7c:	4602      	mov	r2, r0
  401c7e:	3208      	adds	r2, #8
  401c80:	4294      	cmp	r4, r2
  401c82:	d009      	beq.n	401c98 <vTaskSwitchContext+0x7c>
  401c84:	eb03 0383 	add.w	r3, r3, r3, lsl #2
  401c88:	4a08      	ldr	r2, [pc, #32]	; (401cac <vTaskSwitchContext+0x90>)
  401c8a:	eb02 0383 	add.w	r3, r2, r3, lsl #2
  401c8e:	685b      	ldr	r3, [r3, #4]
  401c90:	68da      	ldr	r2, [r3, #12]
  401c92:	4b09      	ldr	r3, [pc, #36]	; (401cb8 <vTaskSwitchContext+0x9c>)
  401c94:	601a      	str	r2, [r3, #0]
  401c96:	bd10      	pop	{r4, pc}
  401c98:	6860      	ldr	r0, [r4, #4]
  401c9a:	4a04      	ldr	r2, [pc, #16]	; (401cac <vTaskSwitchContext+0x90>)
  401c9c:	eb02 0281 	add.w	r2, r2, r1, lsl #2
  401ca0:	6050      	str	r0, [r2, #4]
  401ca2:	e7ef      	b.n	401c84 <vTaskSwitchContext+0x68>
  401ca4:	20400e88 	.word	0x20400e88
  401ca8:	20400e8c 	.word	0x20400e8c
  401cac:	20400e20 	.word	0x20400e20
  401cb0:	00401a65 	.word	0x00401a65
  401cb4:	20400e90 	.word	0x20400e90
  401cb8:	20400e14 	.word	0x20400e14

00401cbc <AFEC_Temp_callback>:
	afec->AFEC_CSELR = afec_ch;
  401cbc:	4b04      	ldr	r3, [pc, #16]	; (401cd0 <AFEC_Temp_callback+0x14>)
  401cbe:	220b      	movs	r2, #11
  401cc0:	665a      	str	r2, [r3, #100]	; 0x64
	return afec->AFEC_CDR;
  401cc2:	6e9a      	ldr	r2, [r3, #104]	; 0x68
/**
 * \brief AFEC interrupt callback function.
 */
static void AFEC_Temp_callback(void)
{
	g_ul_value = afec_channel_get_value(AFEC0, AFEC_CHANNEL_TEMP_SENSOR);
  401cc4:	4b03      	ldr	r3, [pc, #12]	; (401cd4 <AFEC_Temp_callback+0x18>)
  401cc6:	601a      	str	r2, [r3, #0]
	is_conversion_done = true;
  401cc8:	2201      	movs	r2, #1
  401cca:	4b03      	ldr	r3, [pc, #12]	; (401cd8 <AFEC_Temp_callback+0x1c>)
  401ccc:	701a      	strb	r2, [r3, #0]
  401cce:	4770      	bx	lr
  401cd0:	4003c000 	.word	0x4003c000
  401cd4:	20400e9c 	.word	0x20400e9c
  401cd8:	20400ea0 	.word	0x20400ea0

00401cdc <usart_serial_getchar>:
 * \param p_usart   Base address of the USART instance.
 * \param data   Data to read
 *
 */
static inline void usart_serial_getchar(usart_if p_usart, uint8_t *data)
{
  401cdc:	b5f0      	push	{r4, r5, r6, r7, lr}
  401cde:	b083      	sub	sp, #12
  401ce0:	4605      	mov	r5, r0
  401ce2:	460c      	mov	r4, r1
	uint32_t val = 0;
  401ce4:	2300      	movs	r3, #0
  401ce6:	9301      	str	r3, [sp, #4]
	if (UART == (Uart*)p_usart) {
		while (uart_read((Uart*)p_usart, data));
	}
#else
# ifdef UART0
	if (UART0 == (Uart*)p_usart) {
  401ce8:	4b2a      	ldr	r3, [pc, #168]	; (401d94 <usart_serial_getchar+0xb8>)
  401cea:	4298      	cmp	r0, r3
  401cec:	d013      	beq.n	401d16 <usart_serial_getchar+0x3a>
		while (uart_read((Uart*)p_usart, data));
	}
# endif
# ifdef UART1
	if (UART1 == (Uart*)p_usart) {
  401cee:	4b2a      	ldr	r3, [pc, #168]	; (401d98 <usart_serial_getchar+0xbc>)
  401cf0:	4298      	cmp	r0, r3
  401cf2:	d018      	beq.n	401d26 <usart_serial_getchar+0x4a>
		while (uart_read((Uart*)p_usart, data));
	}
# endif
# ifdef UART2
	if (UART2 == (Uart*)p_usart) {
  401cf4:	4b29      	ldr	r3, [pc, #164]	; (401d9c <usart_serial_getchar+0xc0>)
  401cf6:	4298      	cmp	r0, r3
  401cf8:	d01d      	beq.n	401d36 <usart_serial_getchar+0x5a>
		while (uart_read((Uart*)p_usart, data));
	}
# endif
# ifdef UART3
	if (UART3 == (Uart*)p_usart) {
  401cfa:	4b29      	ldr	r3, [pc, #164]	; (401da0 <usart_serial_getchar+0xc4>)
  401cfc:	429d      	cmp	r5, r3
  401cfe:	d022      	beq.n	401d46 <usart_serial_getchar+0x6a>
		while (usart_read(p_usart, &val));
		*data = (uint8_t)(val & 0xFF);
	}
#else
# ifdef USART0
	if (USART0 == p_usart) {
  401d00:	4b28      	ldr	r3, [pc, #160]	; (401da4 <usart_serial_getchar+0xc8>)
  401d02:	429d      	cmp	r5, r3
  401d04:	d027      	beq.n	401d56 <usart_serial_getchar+0x7a>
		while (usart_read(p_usart, &val));
		*data = (uint8_t)(val & 0xFF);
	}
# endif
# ifdef USART1
	if (USART1 == p_usart) {
  401d06:	4b28      	ldr	r3, [pc, #160]	; (401da8 <usart_serial_getchar+0xcc>)
  401d08:	429d      	cmp	r5, r3
  401d0a:	d02e      	beq.n	401d6a <usart_serial_getchar+0x8e>
		while (usart_read(p_usart, &val));
		*data = (uint8_t)(val & 0xFF);
	}
# endif
# ifdef USART2
	if (USART2 == p_usart) {
  401d0c:	4b27      	ldr	r3, [pc, #156]	; (401dac <usart_serial_getchar+0xd0>)
  401d0e:	429d      	cmp	r5, r3
  401d10:	d035      	beq.n	401d7e <usart_serial_getchar+0xa2>
		*data = (uint8_t)(val & 0xFF);
	}
# endif
#endif /* ifdef USART */

}
  401d12:	b003      	add	sp, #12
  401d14:	bdf0      	pop	{r4, r5, r6, r7, pc}
		while (uart_read((Uart*)p_usart, data));
  401d16:	461f      	mov	r7, r3
  401d18:	4e25      	ldr	r6, [pc, #148]	; (401db0 <usart_serial_getchar+0xd4>)
  401d1a:	4621      	mov	r1, r4
  401d1c:	4638      	mov	r0, r7
  401d1e:	47b0      	blx	r6
  401d20:	2800      	cmp	r0, #0
  401d22:	d1fa      	bne.n	401d1a <usart_serial_getchar+0x3e>
  401d24:	e7e9      	b.n	401cfa <usart_serial_getchar+0x1e>
		while (uart_read((Uart*)p_usart, data));
  401d26:	461f      	mov	r7, r3
  401d28:	4e21      	ldr	r6, [pc, #132]	; (401db0 <usart_serial_getchar+0xd4>)
  401d2a:	4621      	mov	r1, r4
  401d2c:	4638      	mov	r0, r7
  401d2e:	47b0      	blx	r6
  401d30:	2800      	cmp	r0, #0
  401d32:	d1fa      	bne.n	401d2a <usart_serial_getchar+0x4e>
  401d34:	e7e4      	b.n	401d00 <usart_serial_getchar+0x24>
		while (uart_read((Uart*)p_usart, data));
  401d36:	461f      	mov	r7, r3
  401d38:	4e1d      	ldr	r6, [pc, #116]	; (401db0 <usart_serial_getchar+0xd4>)
  401d3a:	4621      	mov	r1, r4
  401d3c:	4638      	mov	r0, r7
  401d3e:	47b0      	blx	r6
  401d40:	2800      	cmp	r0, #0
  401d42:	d1fa      	bne.n	401d3a <usart_serial_getchar+0x5e>
  401d44:	e7df      	b.n	401d06 <usart_serial_getchar+0x2a>
		while (uart_read((Uart*)p_usart, data));
  401d46:	461f      	mov	r7, r3
  401d48:	4e19      	ldr	r6, [pc, #100]	; (401db0 <usart_serial_getchar+0xd4>)
  401d4a:	4621      	mov	r1, r4
  401d4c:	4638      	mov	r0, r7
  401d4e:	47b0      	blx	r6
  401d50:	2800      	cmp	r0, #0
  401d52:	d1fa      	bne.n	401d4a <usart_serial_getchar+0x6e>
  401d54:	e7da      	b.n	401d0c <usart_serial_getchar+0x30>
		while (usart_read(p_usart, &val));
  401d56:	461e      	mov	r6, r3
  401d58:	4d16      	ldr	r5, [pc, #88]	; (401db4 <usart_serial_getchar+0xd8>)
  401d5a:	a901      	add	r1, sp, #4
  401d5c:	4630      	mov	r0, r6
  401d5e:	47a8      	blx	r5
  401d60:	2800      	cmp	r0, #0
  401d62:	d1fa      	bne.n	401d5a <usart_serial_getchar+0x7e>
		*data = (uint8_t)(val & 0xFF);
  401d64:	9b01      	ldr	r3, [sp, #4]
  401d66:	7023      	strb	r3, [r4, #0]
  401d68:	e7d3      	b.n	401d12 <usart_serial_getchar+0x36>
		while (usart_read(p_usart, &val));
  401d6a:	461e      	mov	r6, r3
  401d6c:	4d11      	ldr	r5, [pc, #68]	; (401db4 <usart_serial_getchar+0xd8>)
  401d6e:	a901      	add	r1, sp, #4
  401d70:	4630      	mov	r0, r6
  401d72:	47a8      	blx	r5
  401d74:	2800      	cmp	r0, #0
  401d76:	d1fa      	bne.n	401d6e <usart_serial_getchar+0x92>
		*data = (uint8_t)(val & 0xFF);
  401d78:	9b01      	ldr	r3, [sp, #4]
  401d7a:	7023      	strb	r3, [r4, #0]
  401d7c:	e7c9      	b.n	401d12 <usart_serial_getchar+0x36>
		while (usart_read(p_usart, &val));
  401d7e:	461e      	mov	r6, r3
  401d80:	4d0c      	ldr	r5, [pc, #48]	; (401db4 <usart_serial_getchar+0xd8>)
  401d82:	a901      	add	r1, sp, #4
  401d84:	4630      	mov	r0, r6
  401d86:	47a8      	blx	r5
  401d88:	2800      	cmp	r0, #0
  401d8a:	d1fa      	bne.n	401d82 <usart_serial_getchar+0xa6>
		*data = (uint8_t)(val & 0xFF);
  401d8c:	9b01      	ldr	r3, [sp, #4]
  401d8e:	7023      	strb	r3, [r4, #0]
}
  401d90:	e7bf      	b.n	401d12 <usart_serial_getchar+0x36>
  401d92:	bf00      	nop
  401d94:	400e0800 	.word	0x400e0800
  401d98:	400e0a00 	.word	0x400e0a00
  401d9c:	400e1a00 	.word	0x400e1a00
  401da0:	400e1c00 	.word	0x400e1c00
  401da4:	40024000 	.word	0x40024000
  401da8:	40028000 	.word	0x40028000
  401dac:	4002c000 	.word	0x4002c000
  401db0:	00401645 	.word	0x00401645
  401db4:	00401753 	.word	0x00401753

00401db8 <usart_serial_putchar>:
{
  401db8:	b570      	push	{r4, r5, r6, lr}
  401dba:	460c      	mov	r4, r1
	if (UART0 == (Uart*)p_usart) {
  401dbc:	4b2a      	ldr	r3, [pc, #168]	; (401e68 <usart_serial_putchar+0xb0>)
  401dbe:	4298      	cmp	r0, r3
  401dc0:	d013      	beq.n	401dea <usart_serial_putchar+0x32>
	if (UART1 == (Uart*)p_usart) {
  401dc2:	4b2a      	ldr	r3, [pc, #168]	; (401e6c <usart_serial_putchar+0xb4>)
  401dc4:	4298      	cmp	r0, r3
  401dc6:	d019      	beq.n	401dfc <usart_serial_putchar+0x44>
	if (UART2 == (Uart*)p_usart) {
  401dc8:	4b29      	ldr	r3, [pc, #164]	; (401e70 <usart_serial_putchar+0xb8>)
  401dca:	4298      	cmp	r0, r3
  401dcc:	d01f      	beq.n	401e0e <usart_serial_putchar+0x56>
	if (UART3 == (Uart*)p_usart) {
  401dce:	4b29      	ldr	r3, [pc, #164]	; (401e74 <usart_serial_putchar+0xbc>)
  401dd0:	4298      	cmp	r0, r3
  401dd2:	d025      	beq.n	401e20 <usart_serial_putchar+0x68>
	if (USART0 == p_usart) {
  401dd4:	4b28      	ldr	r3, [pc, #160]	; (401e78 <usart_serial_putchar+0xc0>)
  401dd6:	4298      	cmp	r0, r3
  401dd8:	d02b      	beq.n	401e32 <usart_serial_putchar+0x7a>
	if (USART1 == p_usart) {
  401dda:	4b28      	ldr	r3, [pc, #160]	; (401e7c <usart_serial_putchar+0xc4>)
  401ddc:	4298      	cmp	r0, r3
  401dde:	d031      	beq.n	401e44 <usart_serial_putchar+0x8c>
	if (USART2 == p_usart) {
  401de0:	4b27      	ldr	r3, [pc, #156]	; (401e80 <usart_serial_putchar+0xc8>)
  401de2:	4298      	cmp	r0, r3
  401de4:	d037      	beq.n	401e56 <usart_serial_putchar+0x9e>
	return 0;
  401de6:	2000      	movs	r0, #0
}
  401de8:	bd70      	pop	{r4, r5, r6, pc}
		while (uart_write((Uart*)p_usart, c)!=0);
  401dea:	461e      	mov	r6, r3
  401dec:	4d25      	ldr	r5, [pc, #148]	; (401e84 <usart_serial_putchar+0xcc>)
  401dee:	4621      	mov	r1, r4
  401df0:	4630      	mov	r0, r6
  401df2:	47a8      	blx	r5
  401df4:	2800      	cmp	r0, #0
  401df6:	d1fa      	bne.n	401dee <usart_serial_putchar+0x36>
		return 1;
  401df8:	2001      	movs	r0, #1
  401dfa:	bd70      	pop	{r4, r5, r6, pc}
		while (uart_write((Uart*)p_usart, c)!=0);
  401dfc:	461e      	mov	r6, r3
  401dfe:	4d21      	ldr	r5, [pc, #132]	; (401e84 <usart_serial_putchar+0xcc>)
  401e00:	4621      	mov	r1, r4
  401e02:	4630      	mov	r0, r6
  401e04:	47a8      	blx	r5
  401e06:	2800      	cmp	r0, #0
  401e08:	d1fa      	bne.n	401e00 <usart_serial_putchar+0x48>
		return 1;
  401e0a:	2001      	movs	r0, #1
  401e0c:	bd70      	pop	{r4, r5, r6, pc}
		while (uart_write((Uart*)p_usart, c)!=0);
  401e0e:	461e      	mov	r6, r3
  401e10:	4d1c      	ldr	r5, [pc, #112]	; (401e84 <usart_serial_putchar+0xcc>)
  401e12:	4621      	mov	r1, r4
  401e14:	4630      	mov	r0, r6
  401e16:	47a8      	blx	r5
  401e18:	2800      	cmp	r0, #0
  401e1a:	d1fa      	bne.n	401e12 <usart_serial_putchar+0x5a>
		return 1;
  401e1c:	2001      	movs	r0, #1
  401e1e:	bd70      	pop	{r4, r5, r6, pc}
		while (uart_write((Uart*)p_usart, c)!=0);
  401e20:	461e      	mov	r6, r3
  401e22:	4d18      	ldr	r5, [pc, #96]	; (401e84 <usart_serial_putchar+0xcc>)
  401e24:	4621      	mov	r1, r4
  401e26:	4630      	mov	r0, r6
  401e28:	47a8      	blx	r5
  401e2a:	2800      	cmp	r0, #0
  401e2c:	d1fa      	bne.n	401e24 <usart_serial_putchar+0x6c>
		return 1;
  401e2e:	2001      	movs	r0, #1
  401e30:	bd70      	pop	{r4, r5, r6, pc}
		while (usart_write(p_usart, c)!=0);
  401e32:	461e      	mov	r6, r3
  401e34:	4d14      	ldr	r5, [pc, #80]	; (401e88 <usart_serial_putchar+0xd0>)
  401e36:	4621      	mov	r1, r4
  401e38:	4630      	mov	r0, r6
  401e3a:	47a8      	blx	r5
  401e3c:	2800      	cmp	r0, #0
  401e3e:	d1fa      	bne.n	401e36 <usart_serial_putchar+0x7e>
		return 1;
  401e40:	2001      	movs	r0, #1
  401e42:	bd70      	pop	{r4, r5, r6, pc}
		while (usart_write(p_usart, c)!=0);
  401e44:	461e      	mov	r6, r3
  401e46:	4d10      	ldr	r5, [pc, #64]	; (401e88 <usart_serial_putchar+0xd0>)
  401e48:	4621      	mov	r1, r4
  401e4a:	4630      	mov	r0, r6
  401e4c:	47a8      	blx	r5
  401e4e:	2800      	cmp	r0, #0
  401e50:	d1fa      	bne.n	401e48 <usart_serial_putchar+0x90>
		return 1;
  401e52:	2001      	movs	r0, #1
  401e54:	bd70      	pop	{r4, r5, r6, pc}
		while (usart_write(p_usart, c)!=0);
  401e56:	461e      	mov	r6, r3
  401e58:	4d0b      	ldr	r5, [pc, #44]	; (401e88 <usart_serial_putchar+0xd0>)
  401e5a:	4621      	mov	r1, r4
  401e5c:	4630      	mov	r0, r6
  401e5e:	47a8      	blx	r5
  401e60:	2800      	cmp	r0, #0
  401e62:	d1fa      	bne.n	401e5a <usart_serial_putchar+0xa2>
		return 1;
  401e64:	2001      	movs	r0, #1
  401e66:	bd70      	pop	{r4, r5, r6, pc}
  401e68:	400e0800 	.word	0x400e0800
  401e6c:	400e0a00 	.word	0x400e0a00
  401e70:	400e1a00 	.word	0x400e1a00
  401e74:	400e1c00 	.word	0x400e1c00
  401e78:	40024000 	.word	0x40024000
  401e7c:	40028000 	.word	0x40028000
  401e80:	4002c000 	.word	0x4002c000
  401e84:	00401633 	.word	0x00401633
  401e88:	0040173d 	.word	0x0040173d

00401e8c <main>:
 * \brief Application entry point.
 *
 * \return Unused (ANSI-C compatibility).
 */
int main(void)
{
  401e8c:	b580      	push	{r7, lr}
  401e8e:	b08c      	sub	sp, #48	; 0x30

	/* Initialize the SAM system. */
	sysclk_init();
  401e90:	4b6d      	ldr	r3, [pc, #436]	; (402048 <main+0x1bc>)
  401e92:	4798      	blx	r3
  401e94:	200a      	movs	r0, #10
  401e96:	4d6d      	ldr	r5, [pc, #436]	; (40204c <main+0x1c0>)
  401e98:	47a8      	blx	r5
  401e9a:	200b      	movs	r0, #11
  401e9c:	47a8      	blx	r5
  401e9e:	200c      	movs	r0, #12
  401ea0:	47a8      	blx	r5
  401ea2:	2010      	movs	r0, #16
  401ea4:	47a8      	blx	r5
  401ea6:	2011      	movs	r0, #17
  401ea8:	47a8      	blx	r5
	ioport_init();
	board_init();
  401eaa:	4b69      	ldr	r3, [pc, #420]	; (402050 <main+0x1c4>)
  401eac:	4798      	blx	r3
  401eae:	200e      	movs	r0, #14
  401eb0:	47a8      	blx	r5
 * \param opt         Options needed to set up RS232 communication (see \ref usart_options_t).
 *
 */
static inline void stdio_serial_init(volatile void *usart, const usart_serial_options_t *opt)
{
	stdio_base = (void *)usart;
  401eb2:	4e68      	ldr	r6, [pc, #416]	; (402054 <main+0x1c8>)
  401eb4:	4b68      	ldr	r3, [pc, #416]	; (402058 <main+0x1cc>)
  401eb6:	601e      	str	r6, [r3, #0]
	ptr_put = (int (*)(void volatile*,char))&usart_serial_putchar;
  401eb8:	4a68      	ldr	r2, [pc, #416]	; (40205c <main+0x1d0>)
  401eba:	4b69      	ldr	r3, [pc, #420]	; (402060 <main+0x1d4>)
  401ebc:	601a      	str	r2, [r3, #0]
	ptr_get = (void (*)(void volatile*,char*))&usart_serial_getchar;
  401ebe:	4a69      	ldr	r2, [pc, #420]	; (402064 <main+0x1d8>)
  401ec0:	4b69      	ldr	r3, [pc, #420]	; (402068 <main+0x1dc>)
  401ec2:	601a      	str	r2, [r3, #0]
	usart_settings.baudrate = opt->baudrate;
  401ec4:	f44f 33e1 	mov.w	r3, #115200	; 0x1c200
  401ec8:	9306      	str	r3, [sp, #24]
	usart_settings.char_length = opt->charlength;
  401eca:	23c0      	movs	r3, #192	; 0xc0
  401ecc:	9307      	str	r3, [sp, #28]
	usart_settings.parity_type = opt->paritytype;
  401ece:	f44f 6700 	mov.w	r7, #2048	; 0x800
  401ed2:	9708      	str	r7, [sp, #32]
	usart_settings.stop_bits= opt->stopbits;
  401ed4:	2400      	movs	r4, #0
  401ed6:	9409      	str	r4, [sp, #36]	; 0x24
	usart_settings.channel_mode= US_MR_CHMODE_NORMAL;
  401ed8:	940a      	str	r4, [sp, #40]	; 0x28
  401eda:	200e      	movs	r0, #14
  401edc:	47a8      	blx	r5
		usart_init_rs232(p_usart, &usart_settings,
  401ede:	4a63      	ldr	r2, [pc, #396]	; (40206c <main+0x1e0>)
  401ee0:	a906      	add	r1, sp, #24
  401ee2:	4630      	mov	r0, r6
  401ee4:	4b62      	ldr	r3, [pc, #392]	; (402070 <main+0x1e4>)
  401ee6:	4798      	blx	r3
		usart_enable_tx(p_usart);
  401ee8:	4630      	mov	r0, r6
  401eea:	4b62      	ldr	r3, [pc, #392]	; (402074 <main+0x1e8>)
  401eec:	4798      	blx	r3
		usart_enable_rx(p_usart);
  401eee:	4630      	mov	r0, r6
  401ef0:	4b61      	ldr	r3, [pc, #388]	; (402078 <main+0x1ec>)
  401ef2:	4798      	blx	r3
	fdevopen((int (*)(char, FILE*))(_write),(int (*)(FILE*))(_read));
#  endif
#  if UC3 || SAM
	// For AVR32 and SAM GCC
	// Specify that stdout and stdin should not be buffered.
	setbuf(stdout, NULL);
  401ef4:	4e61      	ldr	r6, [pc, #388]	; (40207c <main+0x1f0>)
  401ef6:	6833      	ldr	r3, [r6, #0]
  401ef8:	4621      	mov	r1, r4
  401efa:	6898      	ldr	r0, [r3, #8]
  401efc:	4d60      	ldr	r5, [pc, #384]	; (402080 <main+0x1f4>)
  401efe:	47a8      	blx	r5
	setbuf(stdin, NULL);
  401f00:	6833      	ldr	r3, [r6, #0]
  401f02:	4621      	mov	r1, r4
  401f04:	6858      	ldr	r0, [r3, #4]
  401f06:	47a8      	blx	r5
	/* inicializa delay */
	delay_init(sysclk_get_cpu_hz());

	/* inicializa console (printf) */
	configure_console();
	printf(STRING_HEADER);
  401f08:	4e5e      	ldr	r6, [pc, #376]	; (402084 <main+0x1f8>)
  401f0a:	4630      	mov	r0, r6
  401f0c:	4b5e      	ldr	r3, [pc, #376]	; (402088 <main+0x1fc>)
  401f0e:	4798      	blx	r3
	g_ili9488_display_opt.ul_width = ILI9488_LCD_WIDTH;
  401f10:	485e      	ldr	r0, [pc, #376]	; (40208c <main+0x200>)
  401f12:	f44f 73a0 	mov.w	r3, #320	; 0x140
  401f16:	6003      	str	r3, [r0, #0]
	g_ili9488_display_opt.ul_height = ILI9488_LCD_HEIGHT;
  401f18:	f44f 73f0 	mov.w	r3, #480	; 0x1e0
  401f1c:	6043      	str	r3, [r0, #4]
	g_ili9488_display_opt.foreground_color = COLOR_CONVERT(COLOR_WHITE);
  401f1e:	f8df 91c4 	ldr.w	r9, [pc, #452]	; 4020e4 <main+0x258>
  401f22:	f8c0 9008 	str.w	r9, [r0, #8]
	g_ili9488_display_opt.background_color = COLOR_CONVERT(COLOR_WHITE);
  401f26:	f8c0 900c 	str.w	r9, [r0, #12]
	ili9488_init(&g_ili9488_display_opt);
  401f2a:	4b59      	ldr	r3, [pc, #356]	; (402090 <main+0x204>)
  401f2c:	4798      	blx	r3
	ili9488_draw_filled_rectangle(0, 0, ILI9488_LCD_WIDTH-1, ILI9488_LCD_HEIGHT-1);
  401f2e:	f240 13df 	movw	r3, #479	; 0x1df
  401f32:	f240 123f 	movw	r2, #319	; 0x13f
  401f36:	4621      	mov	r1, r4
  401f38:	4620      	mov	r0, r4
  401f3a:	4d56      	ldr	r5, [pc, #344]	; (402094 <main+0x208>)
  401f3c:	47a8      	blx	r5
	ili9488_set_foreground_color(COLOR_CONVERT(COLOR_TOMATO));
  401f3e:	4856      	ldr	r0, [pc, #344]	; (402098 <main+0x20c>)
  401f40:	f8df 81a4 	ldr.w	r8, [pc, #420]	; 4020e8 <main+0x25c>
  401f44:	47c0      	blx	r8
	ili9488_draw_filled_rectangle(0, 0, ILI9488_LCD_WIDTH-1, 120-1);
  401f46:	2377      	movs	r3, #119	; 0x77
  401f48:	f240 123f 	movw	r2, #319	; 0x13f
  401f4c:	4621      	mov	r1, r4
  401f4e:	4620      	mov	r0, r4
  401f50:	47a8      	blx	r5
	ili9488_draw_filled_rectangle(0, 360, ILI9488_LCD_WIDTH-1, 480-1);
  401f52:	f240 13df 	movw	r3, #479	; 0x1df
  401f56:	f240 123f 	movw	r2, #319	; 0x13f
  401f5a:	f44f 71b4 	mov.w	r1, #360	; 0x168
  401f5e:	4620      	mov	r0, r4
  401f60:	47a8      	blx	r5
	ili9488_draw_pixmap(0, 50, 319, 129, logoImage);
  401f62:	4b4e      	ldr	r3, [pc, #312]	; (40209c <main+0x210>)
  401f64:	9300      	str	r3, [sp, #0]
  401f66:	2381      	movs	r3, #129	; 0x81
  401f68:	f240 123f 	movw	r2, #319	; 0x13f
  401f6c:	2132      	movs	r1, #50	; 0x32
  401f6e:	4620      	mov	r0, r4
  401f70:	f8df a178 	ldr.w	sl, [pc, #376]	; 4020ec <main+0x260>
  401f74:	47d0      	blx	sl

    /* Inicializa e configura o LCD */
	configure_lcd();

    /* Escreve na tela Computacao Embarcada 2018 */
	ili9488_set_foreground_color(COLOR_CONVERT(COLOR_WHITE));
  401f76:	4648      	mov	r0, r9
  401f78:	47c0      	blx	r8
	ili9488_draw_filled_rectangle(0, 300, ILI9488_LCD_WIDTH-1, 315);
  401f7a:	f240 133b 	movw	r3, #315	; 0x13b
  401f7e:	f240 123f 	movw	r2, #319	; 0x13f
  401f82:	f44f 7196 	mov.w	r1, #300	; 0x12c
  401f86:	4620      	mov	r0, r4
  401f88:	47a8      	blx	r5
	ili9488_set_foreground_color(COLOR_CONVERT(COLOR_BLACK));
  401f8a:	4620      	mov	r0, r4
  401f8c:	47c0      	blx	r8
	afec_enable(AFEC0);
  401f8e:	4d44      	ldr	r5, [pc, #272]	; (4020a0 <main+0x214>)
  401f90:	4628      	mov	r0, r5
  401f92:	4b44      	ldr	r3, [pc, #272]	; (4020a4 <main+0x218>)
  401f94:	4798      	blx	r3
	afec_get_config_defaults(&afec_cfg);
  401f96:	a806      	add	r0, sp, #24
  401f98:	4b43      	ldr	r3, [pc, #268]	; (4020a8 <main+0x21c>)
  401f9a:	4798      	blx	r3
	afec_init(AFEC0, &afec_cfg);
  401f9c:	a906      	add	r1, sp, #24
  401f9e:	4628      	mov	r0, r5
  401fa0:	4b42      	ldr	r3, [pc, #264]	; (4020ac <main+0x220>)
  401fa2:	4798      	blx	r3
	reg = afec->AFEC_MR;
  401fa4:	686b      	ldr	r3, [r5, #4]
		reg &= ~(AFEC_MR_TRGSEL_Msk | AFEC_MR_TRGEN | AFEC_MR_FREERUN_ON);
  401fa6:	f023 038f 	bic.w	r3, r3, #143	; 0x8f
	afec->AFEC_MR = reg;
  401faa:	606b      	str	r3, [r5, #4]
	afec_set_callback(AFEC0, AFEC_INTERRUPT_EOC_11,	AFEC_Temp_callback, 1); 
  401fac:	2301      	movs	r3, #1
  401fae:	4a40      	ldr	r2, [pc, #256]	; (4020b0 <main+0x224>)
  401fb0:	210b      	movs	r1, #11
  401fb2:	4628      	mov	r0, r5
  401fb4:	f8df 8138 	ldr.w	r8, [pc, #312]	; 4020f0 <main+0x264>
  401fb8:	47c0      	blx	r8
	afec_ch_get_config_defaults(&afec_ch_cfg);
  401fba:	a803      	add	r0, sp, #12
  401fbc:	4b3d      	ldr	r3, [pc, #244]	; (4020b4 <main+0x228>)
  401fbe:	4798      	blx	r3
	afec_ch_cfg.gain = AFEC_GAINVALUE_0;
  401fc0:	f88d 400d 	strb.w	r4, [sp, #13]
	afec_ch_set_config(AFEC0, AFEC_CHANNEL_TEMP_SENSOR, &afec_ch_cfg);
  401fc4:	aa03      	add	r2, sp, #12
  401fc6:	210b      	movs	r1, #11
  401fc8:	4628      	mov	r0, r5
  401fca:	4b3b      	ldr	r3, [pc, #236]	; (4020b8 <main+0x22c>)
  401fcc:	4798      	blx	r3
	afec->AFEC_CSELR = afec_ch;
  401fce:	230b      	movs	r3, #11
  401fd0:	666b      	str	r3, [r5, #100]	; 0x64
