
FREERTOS_SAM_EXAMPLE1.elf:     file format elf32-littlearm

Sections:
Idx Name          Size      VMA       LMA       File off  Algn
  0 .text         00006004  00400000  00400000  00010000  2**6
                  CONTENTS, ALLOC, LOAD, READONLY, CODE
  1 .ARM.exidx    00000008  00406004  00406004  00016004  2**2
                  CONTENTS, ALLOC, LOAD, READONLY, DATA
  2 .relocate     000009c0  20400000  0040600c  00020000  2**3
                  CONTENTS, ALLOC, LOAD, CODE
  3 .bss          00000290  204009c0  004069cc  000209c0  2**2
                  ALLOC
  4 .stack        00002000  20400c50  00406c5c  000209c0  2**0
                  ALLOC
  5 .heap         00000200  20402c50  00408c5c  000209c0  2**0
                  ALLOC
  6 .ARM.attributes 0000002e  00000000  00000000  000209c0  2**0
                  CONTENTS, READONLY
  7 .comment      00000059  00000000  00000000  000209ee  2**0
                  CONTENTS, READONLY
  8 .debug_info   0001e69a  00000000  00000000  00020a47  2**0
                  CONTENTS, READONLY, DEBUGGING
  9 .debug_abbrev 00004054  00000000  00000000  0003f0e1  2**0
                  CONTENTS, READONLY, DEBUGGING
 10 .debug_loc    000089f8  00000000  00000000  00043135  2**0
                  CONTENTS, READONLY, DEBUGGING
 11 .debug_aranges 00000e40  00000000  00000000  0004bb2d  2**0
                  CONTENTS, READONLY, DEBUGGING
 12 .debug_ranges 00001000  00000000  00000000  0004c96d  2**0
                  CONTENTS, READONLY, DEBUGGING
 13 .debug_macro  00021f0d  00000000  00000000  0004d96d  2**0
                  CONTENTS, READONLY, DEBUGGING
 14 .debug_line   000102a1  00000000  00000000  0006f87a  2**0
                  CONTENTS, READONLY, DEBUGGING
 15 .debug_str    00093758  00000000  00000000  0007fb1b  2**0
                  CONTENTS, READONLY, DEBUGGING
 16 .debug_frame  00002de4  00000000  00000000  00113274  2**2
                  CONTENTS, READONLY, DEBUGGING

Disassembly of section .text:

00400000 <exception_table>:
  400000:	50 2c 40 20 b9 0c 40 00 b7 0c 40 00 b7 0c 40 00     P,@ ..@...@...@.
  400010:	b7 0c 40 00 b7 0c 40 00 b7 0c 40 00 00 00 00 00     ..@...@...@.....
	...
  40002c:	69 10 40 00 b7 0c 40 00 00 00 00 00 c5 10 40 00     i.@...@.......@.
  40003c:	2d 11 40 00 b7 0c 40 00 b7 0c 40 00 b7 0c 40 00     -.@...@...@...@.
  40004c:	b7 0c 40 00 b7 0c 40 00 b7 0c 40 00 b7 0c 40 00     ..@...@...@...@.
  40005c:	b7 0c 40 00 b7 0c 40 00 00 00 00 00 dd 06 40 00     ..@...@.......@.
  40006c:	f1 06 40 00 05 07 40 00 b7 0c 40 00 5d 2b 40 00     ..@...@...@.]+@.
  40007c:	b7 0c 40 00 19 07 40 00 2d 07 40 00 b7 0c 40 00     ..@...@.-.@...@.
  40008c:	b7 0c 40 00 b7 0c 40 00 b7 0c 40 00 b7 0c 40 00     ..@...@...@...@.
  40009c:	b7 0c 40 00 b7 0c 40 00 b7 0c 40 00 b7 0c 40 00     ..@...@...@...@.
  4000ac:	b7 0c 40 00 b7 0c 40 00 b7 0c 40 00 b7 0c 40 00     ..@...@...@...@.
  4000bc:	b7 0c 40 00 b7 0c 40 00 b7 0c 40 00 b7 0c 40 00     ..@...@...@...@.
  4000cc:	b7 0c 40 00 00 00 00 00 b7 0c 40 00 00 00 00 00     ..@.......@.....
  4000dc:	b7 0c 40 00 b7 0c 40 00 b7 0c 40 00 b7 0c 40 00     ..@...@...@...@.
  4000ec:	b7 0c 40 00 b7 0c 40 00 b7 0c 40 00 b7 0c 40 00     ..@...@...@...@.
  4000fc:	b7 0c 40 00 b7 0c 40 00 b7 0c 40 00 b7 0c 40 00     ..@...@...@...@.
  40010c:	b7 0c 40 00 b7 0c 40 00 00 00 00 00 00 00 00 00     ..@...@.........
  40011c:	00 00 00 00 b7 0c 40 00 b7 0c 40 00 b7 0c 40 00     ......@...@...@.
  40012c:	b7 0c 40 00 b7 0c 40 00 00 00 00 00 b7 0c 40 00     ..@...@.......@.
  40013c:	b7 0c 40 00                                         ..@.

00400140 <__do_global_dtors_aux>:
  400140:	b510      	push	{r4, lr}
  400142:	4c05      	ldr	r4, [pc, #20]	; (400158 <__do_global_dtors_aux+0x18>)
  400144:	7823      	ldrb	r3, [r4, #0]
  400146:	b933      	cbnz	r3, 400156 <__do_global_dtors_aux+0x16>
  400148:	4b04      	ldr	r3, [pc, #16]	; (40015c <__do_global_dtors_aux+0x1c>)
  40014a:	b113      	cbz	r3, 400152 <__do_global_dtors_aux+0x12>
  40014c:	4804      	ldr	r0, [pc, #16]	; (400160 <__do_global_dtors_aux+0x20>)
  40014e:	f3af 8000 	nop.w
  400152:	2301      	movs	r3, #1
  400154:	7023      	strb	r3, [r4, #0]
  400156:	bd10      	pop	{r4, pc}
  400158:	204009c0 	.word	0x204009c0
  40015c:	00000000 	.word	0x00000000
  400160:	0040600c 	.word	0x0040600c

00400164 <frame_dummy>:
  400164:	4b0c      	ldr	r3, [pc, #48]	; (400198 <frame_dummy+0x34>)
  400166:	b143      	cbz	r3, 40017a <frame_dummy+0x16>
  400168:	480c      	ldr	r0, [pc, #48]	; (40019c <frame_dummy+0x38>)
  40016a:	490d      	ldr	r1, [pc, #52]	; (4001a0 <frame_dummy+0x3c>)
  40016c:	b510      	push	{r4, lr}
  40016e:	f3af 8000 	nop.w
  400172:	480c      	ldr	r0, [pc, #48]	; (4001a4 <frame_dummy+0x40>)
  400174:	6803      	ldr	r3, [r0, #0]
  400176:	b923      	cbnz	r3, 400182 <frame_dummy+0x1e>
  400178:	bd10      	pop	{r4, pc}
  40017a:	480a      	ldr	r0, [pc, #40]	; (4001a4 <frame_dummy+0x40>)
  40017c:	6803      	ldr	r3, [r0, #0]
  40017e:	b933      	cbnz	r3, 40018e <frame_dummy+0x2a>
  400180:	4770      	bx	lr
  400182:	4b09      	ldr	r3, [pc, #36]	; (4001a8 <frame_dummy+0x44>)
  400184:	2b00      	cmp	r3, #0
  400186:	d0f7      	beq.n	400178 <frame_dummy+0x14>
  400188:	e8bd 4010 	ldmia.w	sp!, {r4, lr}
  40018c:	4718      	bx	r3
  40018e:	4b06      	ldr	r3, [pc, #24]	; (4001a8 <frame_dummy+0x44>)
  400190:	2b00      	cmp	r3, #0
  400192:	d0f5      	beq.n	400180 <frame_dummy+0x1c>
  400194:	4718      	bx	r3
  400196:	bf00      	nop
  400198:	00000000 	.word	0x00000000
  40019c:	0040600c 	.word	0x0040600c
  4001a0:	204009c4 	.word	0x204009c4
  4001a4:	0040600c 	.word	0x0040600c
  4001a8:	00000000 	.word	0x00000000

004001ac <sysclk_init>:
	pmc_disable_udpck();
}
#endif // CONFIG_USBCLK_SOURCE

void sysclk_init(void)
{
  4001ac:	b510      	push	{r4, lr}
	struct pll_config pllcfg;

	/* Set flash wait state to max in case the below clock switching. */
	system_init_flash(CHIP_FREQ_CPU_MAX);
  4001ae:	4810      	ldr	r0, [pc, #64]	; (4001f0 <sysclk_init+0x44>)
  4001b0:	4b10      	ldr	r3, [pc, #64]	; (4001f4 <sysclk_init+0x48>)
  4001b2:	4798      	blx	r3
		pmc_switch_mainck_to_fastrc(CKGR_MOR_MOSCRCF_12_MHz);
		break;


	case OSC_MAINCK_XTAL:
		pmc_switch_mainck_to_xtal(PMC_OSC_XTAL,
  4001b4:	213e      	movs	r1, #62	; 0x3e
  4001b6:	2000      	movs	r0, #0
  4001b8:	4b0f      	ldr	r3, [pc, #60]	; (4001f8 <sysclk_init+0x4c>)
  4001ba:	4798      	blx	r3
	case OSC_MAINCK_4M_RC:
	case OSC_MAINCK_8M_RC:
	case OSC_MAINCK_12M_RC:
	case OSC_MAINCK_XTAL:
	case OSC_MAINCK_BYPASS:
		return pmc_osc_is_ready_mainck();
  4001bc:	4c0f      	ldr	r4, [pc, #60]	; (4001fc <sysclk_init+0x50>)
  4001be:	47a0      	blx	r4
 *
 * \param id A number identifying the oscillator to wait for.
 */
static inline void osc_wait_ready(uint8_t id)
{
	while (!osc_is_ready(id)) {
  4001c0:	2800      	cmp	r0, #0
  4001c2:	d0fc      	beq.n	4001be <sysclk_init+0x12>
static inline void pll_enable(const struct pll_config *p_cfg, uint32_t ul_pll_id)
{
	Assert(ul_pll_id < NR_PLLS);

	if (ul_pll_id == PLLA_ID) {
		pmc_disable_pllack(); // Always stop PLL first!
  4001c4:	4b0e      	ldr	r3, [pc, #56]	; (400200 <sysclk_init+0x54>)
  4001c6:	4798      	blx	r3
		PMC->CKGR_PLLAR = CKGR_PLLAR_ONE | p_cfg->ctrl;
  4001c8:	4a0e      	ldr	r2, [pc, #56]	; (400204 <sysclk_init+0x58>)
  4001ca:	4b0f      	ldr	r3, [pc, #60]	; (400208 <sysclk_init+0x5c>)
  4001cc:	629a      	str	r2, [r3, #40]	; 0x28
static inline uint32_t pll_is_locked(uint32_t ul_pll_id)
{
	Assert(ul_pll_id < NR_PLLS);

	if (ul_pll_id == PLLA_ID) {
	return pmc_is_locked_pllack();
  4001ce:	4c0f      	ldr	r4, [pc, #60]	; (40020c <sysclk_init+0x60>)
  4001d0:	47a0      	blx	r4
 */
static inline int pll_wait_for_lock(unsigned int pll_id)
{
	Assert(pll_id < NR_PLLS);

	while (!pll_is_locked(pll_id)) {
  4001d2:	2800      	cmp	r0, #0
  4001d4:	d0fc      	beq.n	4001d0 <sysclk_init+0x24>
	else if (CONFIG_SYSCLK_SOURCE == SYSCLK_SRC_PLLACK) {
		pll_enable_source(CONFIG_PLL0_SOURCE);
		pll_config_defaults(&pllcfg, 0);
		pll_enable(&pllcfg, 0);
		pll_wait_for_lock(0);
		pmc_mck_set_division(CONFIG_SYSCLK_DIV);
  4001d6:	2002      	movs	r0, #2
  4001d8:	4b0d      	ldr	r3, [pc, #52]	; (400210 <sysclk_init+0x64>)
  4001da:	4798      	blx	r3
		pmc_switch_mck_to_pllack(CONFIG_SYSCLK_PRES);
  4001dc:	2000      	movs	r0, #0
  4001de:	4b0d      	ldr	r3, [pc, #52]	; (400214 <sysclk_init+0x68>)
  4001e0:	4798      	blx	r3
		pll_wait_for_lock(1);
		pmc_mck_set_division(CONFIG_SYSCLK_DIV);
		pmc_switch_mck_to_upllck(CONFIG_SYSCLK_PRES);
	}
	/* Update the SystemFrequency variable */
	SystemCoreClockUpdate();
  4001e2:	4b0d      	ldr	r3, [pc, #52]	; (400218 <sysclk_init+0x6c>)
  4001e4:	4798      	blx	r3

	/* Set a flash wait state depending on the new cpu frequency */
	system_init_flash(sysclk_get_cpu_hz());
  4001e6:	4802      	ldr	r0, [pc, #8]	; (4001f0 <sysclk_init+0x44>)
  4001e8:	4b02      	ldr	r3, [pc, #8]	; (4001f4 <sysclk_init+0x48>)
  4001ea:	4798      	blx	r3
  4001ec:	bd10      	pop	{r4, pc}
  4001ee:	bf00      	nop
  4001f0:	11e1a300 	.word	0x11e1a300
  4001f4:	00400e8d 	.word	0x00400e8d
  4001f8:	004007dd 	.word	0x004007dd
  4001fc:	00400831 	.word	0x00400831
  400200:	00400841 	.word	0x00400841
  400204:	20183f01 	.word	0x20183f01
  400208:	400e0600 	.word	0x400e0600
  40020c:	00400851 	.word	0x00400851
  400210:	00400741 	.word	0x00400741
  400214:	00400779 	.word	0x00400779
  400218:	00400d81 	.word	0x00400d81

0040021c <_read>:
int __attribute__((weak))
_read (int file, char * ptr, int len); // Remove GCC compiler warning

int __attribute__((weak))
_read (int file, char * ptr, int len)
{
  40021c:	e92d 41f0 	stmdb	sp!, {r4, r5, r6, r7, r8, lr}
	int nChars = 0;

	if (file != 0) {
  400220:	b980      	cbnz	r0, 400244 <_read+0x28>
  400222:	460c      	mov	r4, r1
  400224:	4690      	mov	r8, r2
		return -1;
	}

	for (; len > 0; --len) {
  400226:	2a00      	cmp	r2, #0
  400228:	dd0f      	ble.n	40024a <_read+0x2e>
  40022a:	188f      	adds	r7, r1, r2
		ptr_get(stdio_base, ptr);
  40022c:	4e08      	ldr	r6, [pc, #32]	; (400250 <_read+0x34>)
  40022e:	4d09      	ldr	r5, [pc, #36]	; (400254 <_read+0x38>)
  400230:	6830      	ldr	r0, [r6, #0]
  400232:	4621      	mov	r1, r4
  400234:	682b      	ldr	r3, [r5, #0]
  400236:	4798      	blx	r3
		ptr++;
  400238:	3401      	adds	r4, #1
	for (; len > 0; --len) {
  40023a:	42bc      	cmp	r4, r7
  40023c:	d1f8      	bne.n	400230 <_read+0x14>
		nChars++;
	}
	return nChars;
}
  40023e:	4640      	mov	r0, r8
  400240:	e8bd 81f0 	ldmia.w	sp!, {r4, r5, r6, r7, r8, pc}
		return -1;
  400244:	f04f 38ff 	mov.w	r8, #4294967295
  400248:	e7f9      	b.n	40023e <_read+0x22>
	for (; len > 0; --len) {
  40024a:	4680      	mov	r8, r0
  40024c:	e7f7      	b.n	40023e <_read+0x22>
  40024e:	bf00      	nop
  400250:	20400bd4 	.word	0x20400bd4
  400254:	20400bcc 	.word	0x20400bcc

00400258 <_write>:
int __attribute__((weak))
_write (int file, const char *ptr, int len)
{
	int nChars = 0;

	if ((file != 1) && (file != 2) && (file!=3)) {
  400258:	3801      	subs	r0, #1
  40025a:	2802      	cmp	r0, #2
  40025c:	d815      	bhi.n	40028a <_write+0x32>
{
  40025e:	e92d 41f0 	stmdb	sp!, {r4, r5, r6, r7, r8, lr}
  400262:	460e      	mov	r6, r1
  400264:	4614      	mov	r4, r2
		return -1;
	}

	for (; len != 0; --len) {
  400266:	b19a      	cbz	r2, 400290 <_write+0x38>
  400268:	460d      	mov	r5, r1
		if (ptr_put(stdio_base, *ptr++) < 0) {
  40026a:	f8df 8038 	ldr.w	r8, [pc, #56]	; 4002a4 <_write+0x4c>
  40026e:	4f0c      	ldr	r7, [pc, #48]	; (4002a0 <_write+0x48>)
  400270:	f8d8 0000 	ldr.w	r0, [r8]
  400274:	f815 1b01 	ldrb.w	r1, [r5], #1
  400278:	683b      	ldr	r3, [r7, #0]
  40027a:	4798      	blx	r3
  40027c:	2800      	cmp	r0, #0
  40027e:	db0a      	blt.n	400296 <_write+0x3e>
  400280:	1ba8      	subs	r0, r5, r6
	for (; len != 0; --len) {
  400282:	3c01      	subs	r4, #1
  400284:	d1f4      	bne.n	400270 <_write+0x18>
  400286:	e8bd 81f0 	ldmia.w	sp!, {r4, r5, r6, r7, r8, pc}
		return -1;
  40028a:	f04f 30ff 	mov.w	r0, #4294967295
  40028e:	4770      	bx	lr
	for (; len != 0; --len) {
  400290:	4610      	mov	r0, r2
  400292:	e8bd 81f0 	ldmia.w	sp!, {r4, r5, r6, r7, r8, pc}
			return -1;
  400296:	f04f 30ff 	mov.w	r0, #4294967295
		}
		++nChars;
	}
	return nChars;
}
  40029a:	e8bd 81f0 	ldmia.w	sp!, {r4, r5, r6, r7, r8, pc}
  40029e:	bf00      	nop
  4002a0:	20400bd0 	.word	0x20400bd0
  4002a4:	20400bd4 	.word	0x20400bd4

004002a8 <board_init>:
	__ISB();
}
#endif

void board_init(void)
{
  4002a8:	b5f8      	push	{r3, r4, r5, r6, r7, lr}
#ifndef CONF_BOARD_KEEP_WATCHDOG_AT_INIT
	/* Disable the watchdog */
	WDT->WDT_MR = WDT_MR_WDDIS;
  4002aa:	f44f 4200 	mov.w	r2, #32768	; 0x8000
  4002ae:	4b5c      	ldr	r3, [pc, #368]	; (400420 <board_init+0x178>)
  4002b0:	605a      	str	r2, [r3, #4]
    This function acts as a special kind of Data Memory Barrier.
    It completes when all explicit memory accesses before this instruction complete.
 */
__attribute__( ( always_inline ) ) __STATIC_INLINE void __DSB(void)
{
  __ASM volatile ("dsb");
  4002b2:	f3bf 8f4f 	dsb	sy
  __ASM volatile ("isb");
  4002b6:	f3bf 8f6f 	isb	sy
__STATIC_INLINE void SCB_EnableICache(void)
{
  #if (__ICACHE_PRESENT == 1)
    __DSB();
    __ISB();
    SCB->ICIALLU = 0;                       // invalidate I-Cache
  4002ba:	4b5a      	ldr	r3, [pc, #360]	; (400424 <board_init+0x17c>)
  4002bc:	2200      	movs	r2, #0
  4002be:	f8c3 2250 	str.w	r2, [r3, #592]	; 0x250
    SCB->CCR |=  SCB_CCR_IC_Msk;            // enable I-Cache
  4002c2:	695a      	ldr	r2, [r3, #20]
  4002c4:	f442 3200 	orr.w	r2, r2, #131072	; 0x20000
  4002c8:	615a      	str	r2, [r3, #20]
  __ASM volatile ("dsb");
  4002ca:	f3bf 8f4f 	dsb	sy
  __ASM volatile ("isb");
  4002ce:	f3bf 8f6f 	isb	sy
{
  #if (__DCACHE_PRESENT == 1)
    uint32_t ccsidr, sshift, wshift, sw;
    uint32_t sets, ways;

    ccsidr  = SCB->CCSIDR;
  4002d2:	f8d3 7080 	ldr.w	r7, [r3, #128]	; 0x80
    sets    = CCSIDR_SETS(ccsidr);
  4002d6:	f3c7 364e 	ubfx	r6, r7, #13, #15
    sshift  = CCSIDR_LSSHIFT(ccsidr) + 4;
  4002da:	f007 0007 	and.w	r0, r7, #7
  4002de:	3004      	adds	r0, #4
    ways    = CCSIDR_WAYS(ccsidr);
  4002e0:	f3c7 07c9 	ubfx	r7, r7, #3, #10
 */
__attribute__( ( always_inline ) ) __STATIC_INLINE uint8_t __CLZ(uint32_t value)
{
  uint32_t result;

  __ASM volatile ("clz %0, %1" : "=r" (result) : "r" (value) );
  4002e4:	fab7 fe87 	clz	lr, r7
    wshift  = __CLZ(ways) & 0x1f;
  4002e8:	f00e 0e1f 	and.w	lr, lr, #31
  __ASM volatile ("dsb");
  4002ec:	f3bf 8f4f 	dsb	sy
  4002f0:	f04f 34ff 	mov.w	r4, #4294967295
  4002f4:	fa04 fc00 	lsl.w	ip, r4, r0
  4002f8:	fa06 f000 	lsl.w	r0, r6, r0
  4002fc:	fa04 f40e 	lsl.w	r4, r4, lr
  400300:	fa07 fe0e 	lsl.w	lr, r7, lr

    do {                                    // invalidate D-Cache
         int32_t tmpways = ways;
         do {
              sw = ((tmpways << wshift) | (sets << sshift));
              SCB->DCISW = sw;
  400304:	461d      	mov	r5, r3
         int32_t tmpways = ways;
  400306:	463a      	mov	r2, r7
  400308:	4673      	mov	r3, lr
              sw = ((tmpways << wshift) | (sets << sshift));
  40030a:	ea40 0103 	orr.w	r1, r0, r3
              SCB->DCISW = sw;
  40030e:	f8c5 1260 	str.w	r1, [r5, #608]	; 0x260
            } while(tmpways--);
  400312:	3a01      	subs	r2, #1
  400314:	4423      	add	r3, r4
  400316:	f1b2 3fff 	cmp.w	r2, #4294967295
  40031a:	d1f6      	bne.n	40030a <board_init+0x62>
        } while(sets--);
  40031c:	3e01      	subs	r6, #1
  40031e:	4460      	add	r0, ip
  400320:	f1b6 3fff 	cmp.w	r6, #4294967295
  400324:	d1ef      	bne.n	400306 <board_init+0x5e>
  400326:	f3bf 8f4f 	dsb	sy
    __DSB();

    SCB->CCR |=  SCB_CCR_DC_Msk;            // enable D-Cache
  40032a:	4b3e      	ldr	r3, [pc, #248]	; (400424 <board_init+0x17c>)
  40032c:	695a      	ldr	r2, [r3, #20]
  40032e:	f442 3280 	orr.w	r2, r2, #65536	; 0x10000
  400332:	615a      	str	r2, [r3, #20]
  400334:	f3bf 8f4f 	dsb	sy
  __ASM volatile ("isb");
  400338:	f3bf 8f6f 	isb	sy
		*dst++ = *src++;
	}
#endif
#else
	/* TCM Configuration */
	EFC->EEFC_FCR = (EEFC_FCR_FKEY_PASSWD | EEFC_FCR_FCMD_CGPB 
  40033c:	4a3a      	ldr	r2, [pc, #232]	; (400428 <board_init+0x180>)
  40033e:	493b      	ldr	r1, [pc, #236]	; (40042c <board_init+0x184>)
  400340:	6051      	str	r1, [r2, #4]
					| EEFC_FCR_FARG(8));
	EFC->EEFC_FCR = (EEFC_FCR_FKEY_PASSWD | EEFC_FCR_FCMD_CGPB 
  400342:	f5a1 7180 	sub.w	r1, r1, #256	; 0x100
  400346:	6051      	str	r1, [r2, #4]
  __ASM volatile ("dsb");
  400348:	f3bf 8f4f 	dsb	sy
  __ASM volatile ("isb");
  40034c:	f3bf 8f6f 	isb	sy
	SCB->ITCMCR &= ~(uint32_t)(1UL);
  400350:	f8d3 2290 	ldr.w	r2, [r3, #656]	; 0x290
  400354:	f022 0201 	bic.w	r2, r2, #1
  400358:	f8c3 2290 	str.w	r2, [r3, #656]	; 0x290
	SCB->DTCMCR &= ~(uint32_t)SCB_DTCMCR_EN_Msk;
  40035c:	f8d3 2294 	ldr.w	r2, [r3, #660]	; 0x294
  400360:	f022 0201 	bic.w	r2, r2, #1
  400364:	f8c3 2294 	str.w	r2, [r3, #660]	; 0x294
  __ASM volatile ("dsb");
  400368:	f3bf 8f4f 	dsb	sy
  __ASM volatile ("isb");
  40036c:	f3bf 8f6f 	isb	sy
 *
 * \param ul_id Id (number) of the peripheral clock.
 */
static inline void sysclk_enable_peripheral_clock(uint32_t ul_id)
{
	pmc_enable_periph_clk(ul_id);
  400370:	200a      	movs	r0, #10
  400372:	4c2f      	ldr	r4, [pc, #188]	; (400430 <board_init+0x188>)
  400374:	47a0      	blx	r4
  400376:	200b      	movs	r0, #11
  400378:	47a0      	blx	r4
  40037a:	200c      	movs	r0, #12
  40037c:	47a0      	blx	r4
  40037e:	2010      	movs	r0, #16
  400380:	47a0      	blx	r4
  400382:	2011      	movs	r0, #17
  400384:	47a0      	blx	r4
		enum ioport_direction dir)
{
	Pio *base = arch_ioport_pin_to_base(pin);

	if (dir == IOPORT_DIR_OUTPUT) {
		base->PIO_OER = arch_ioport_pin_to_mask(pin);
  400386:	4b2b      	ldr	r3, [pc, #172]	; (400434 <board_init+0x18c>)
  400388:	f44f 7280 	mov.w	r2, #256	; 0x100
  40038c:	611a      	str	r2, [r3, #16]
	} else if (dir == IOPORT_DIR_INPUT) {
		base->PIO_ODR = arch_ioport_pin_to_mask(pin);
	}

	base->PIO_OWER = arch_ioport_pin_to_mask(pin);
  40038e:	f8c3 20a0 	str.w	r2, [r3, #160]	; 0xa0
		bool level)
{
	Pio *base = arch_ioport_pin_to_base(pin);

	if (level) {
		base->PIO_SODR = arch_ioport_pin_to_mask(pin);
  400392:	631a      	str	r2, [r3, #48]	; 0x30
		base->PIO_ODR = arch_ioport_pin_to_mask(pin);
  400394:	f5a3 6380 	sub.w	r3, r3, #1024	; 0x400
  400398:	f44f 6200 	mov.w	r2, #2048	; 0x800
  40039c:	615a      	str	r2, [r3, #20]
	base->PIO_OWER = arch_ioport_pin_to_mask(pin);
  40039e:	f8c3 20a0 	str.w	r2, [r3, #160]	; 0xa0
		base->PIO_PUER = mask;
  4003a2:	665a      	str	r2, [r3, #100]	; 0x64
		base->PIO_PPDDR = mask;
  4003a4:	f8c3 2090 	str.w	r2, [r3, #144]	; 0x90
		base->PIO_MDDR = mask;
  4003a8:	655a      	str	r2, [r3, #84]	; 0x54
		base->PIO_IFER = mask;
  4003aa:	621a      	str	r2, [r3, #32]
		base->PIO_IFSCER = mask;
  4003ac:	f8c3 2084 	str.w	r2, [r3, #132]	; 0x84
		base->PIO_ABCDSR[0] &= ~mask;
  4003b0:	6f19      	ldr	r1, [r3, #112]	; 0x70
  4003b2:	f421 6100 	bic.w	r1, r1, #2048	; 0x800
  4003b6:	6719      	str	r1, [r3, #112]	; 0x70
		base->PIO_ABCDSR[1] &= ~mask;
  4003b8:	6f59      	ldr	r1, [r3, #116]	; 0x74
  4003ba:	f421 6100 	bic.w	r1, r1, #2048	; 0x800
  4003be:	6759      	str	r1, [r3, #116]	; 0x74
	case IOPORT_SENSE_FALLING:
		base->PIO_ESR = mask;
		base->PIO_FELLSR = mask;
		break;
	case IOPORT_SENSE_RISING:
		base->PIO_ESR = mask;
  4003c0:	f8c3 20c0 	str.w	r2, [r3, #192]	; 0xc0
		base->PIO_REHLSR = mask;
  4003c4:	f8c3 20d4 	str.w	r2, [r3, #212]	; 0xd4
		break;
	default:
		base->PIO_AIMDR = mask;
		return;
	}
	base->PIO_AIMER = mask;
  4003c8:	f8c3 20b0 	str.w	r2, [r3, #176]	; 0xb0
		base->PIO_PUDR = mask;
  4003cc:	f44f 1200 	mov.w	r2, #2097152	; 0x200000
  4003d0:	661a      	str	r2, [r3, #96]	; 0x60
		base->PIO_PPDDR = mask;
  4003d2:	f8c3 2090 	str.w	r2, [r3, #144]	; 0x90
		base->PIO_MDDR = mask;
  4003d6:	655a      	str	r2, [r3, #84]	; 0x54
		base->PIO_IFDR = mask;
  4003d8:	625a      	str	r2, [r3, #36]	; 0x24
		base->PIO_IFSCDR = mask;
  4003da:	f8c3 2080 	str.w	r2, [r3, #128]	; 0x80
		base->PIO_ABCDSR[0] &= ~mask;
  4003de:	6f19      	ldr	r1, [r3, #112]	; 0x70
  4003e0:	f421 1100 	bic.w	r1, r1, #2097152	; 0x200000
  4003e4:	6719      	str	r1, [r3, #112]	; 0x70
		base->PIO_ABCDSR[1] &= ~mask;
  4003e6:	6f59      	ldr	r1, [r3, #116]	; 0x74
  4003e8:	f421 1100 	bic.w	r1, r1, #2097152	; 0x200000
  4003ec:	6759      	str	r1, [r3, #116]	; 0x74
	arch_ioport_port_to_base(port)->PIO_PDR = mask;
  4003ee:	605a      	str	r2, [r3, #4]
			GPIO_PUSH_BUTTON_1_SENSE);

#ifdef CONF_BOARD_UART_CONSOLE
	/* Configure UART pins */
	ioport_set_pin_peripheral_mode(USART1_RXD_GPIO, USART1_RXD_FLAGS);
	MATRIX->CCFG_SYSIO |= CCFG_SYSIO_SYSIO4;
  4003f0:	4a11      	ldr	r2, [pc, #68]	; (400438 <board_init+0x190>)
  4003f2:	f8d2 3114 	ldr.w	r3, [r2, #276]	; 0x114
  4003f6:	f043 0310 	orr.w	r3, r3, #16
  4003fa:	f8c2 3114 	str.w	r3, [r2, #276]	; 0x114
		base->PIO_PUDR = mask;
  4003fe:	4b0f      	ldr	r3, [pc, #60]	; (40043c <board_init+0x194>)
  400400:	2210      	movs	r2, #16
  400402:	661a      	str	r2, [r3, #96]	; 0x60
		base->PIO_PPDDR = mask;
  400404:	f8c3 2090 	str.w	r2, [r3, #144]	; 0x90
		base->PIO_MDDR = mask;
  400408:	655a      	str	r2, [r3, #84]	; 0x54
		base->PIO_IFDR = mask;
  40040a:	625a      	str	r2, [r3, #36]	; 0x24
		base->PIO_IFSCDR = mask;
  40040c:	f8c3 2080 	str.w	r2, [r3, #128]	; 0x80
		base->PIO_ABCDSR[0] |= mask;
  400410:	6f19      	ldr	r1, [r3, #112]	; 0x70
  400412:	4311      	orrs	r1, r2
  400414:	6719      	str	r1, [r3, #112]	; 0x70
		base->PIO_ABCDSR[1] |= mask;
  400416:	6f59      	ldr	r1, [r3, #116]	; 0x74
  400418:	4311      	orrs	r1, r2
  40041a:	6759      	str	r1, [r3, #116]	; 0x74
	arch_ioport_port_to_base(port)->PIO_PDR = mask;
  40041c:	605a      	str	r2, [r3, #4]
  40041e:	bdf8      	pop	{r3, r4, r5, r6, r7, pc}
  400420:	400e1850 	.word	0x400e1850
  400424:	e000ed00 	.word	0xe000ed00
  400428:	400e0c00 	.word	0x400e0c00
  40042c:	5a00080c 	.word	0x5a00080c
  400430:	00400861 	.word	0x00400861
  400434:	400e1200 	.word	0x400e1200
  400438:	40088000 	.word	0x40088000
  40043c:	400e1000 	.word	0x400e1000

00400440 <pio_set_debounce_filter>:
void pio_set_debounce_filter(Pio *p_pio, const uint32_t ul_mask,
		const uint32_t ul_cut_off)
{
#if (SAM3S || SAM3N || SAM4S || SAM4E || SAM4N || SAM4C || SAMG || SAM4CP || SAM4CM || SAMV71 || SAMV70 || SAME70 || SAMS70)
	/* Set Debouncing, 0 bit field no effect */
	p_pio->PIO_IFSCER = ul_mask;
  400440:	f8c0 1084 	str.w	r1, [r0, #132]	; 0x84
	/*
	 * The debouncing filter can filter a pulse of less than 1/2 Period of a
	 * programmable Divided Slow Clock:
	 * Tdiv_slclk = ((DIV+1)*2).Tslow_clock
	 */
	p_pio->PIO_SCDR = PIO_SCDR_DIV((FREQ_SLOW_CLOCK_EXT /
  400444:	0053      	lsls	r3, r2, #1
  400446:	f44f 4200 	mov.w	r2, #32768	; 0x8000
  40044a:	fbb2 f2f3 	udiv	r2, r2, r3
  40044e:	3a01      	subs	r2, #1
  400450:	f3c2 020d 	ubfx	r2, r2, #0, #14
  400454:	f8c0 208c 	str.w	r2, [r0, #140]	; 0x8c
  400458:	4770      	bx	lr

0040045a <pio_set_peripheral>:
		const uint32_t ul_mask)
{
	uint32_t ul_sr;

	/* Disable interrupts on the pin(s) */
	p_pio->PIO_IDR = ul_mask;
  40045a:	6442      	str	r2, [r0, #68]	; 0x44

#if (SAM3S || SAM3N || SAM4S || SAM4E || SAM4N || SAM4C || SAMG || SAM4CP || SAM4CM || SAMV71 || SAMV70 || SAME70 || SAMS70)
	switch (ul_type) {
  40045c:	f1b1 5fc0 	cmp.w	r1, #402653184	; 0x18000000
  400460:	d03a      	beq.n	4004d8 <pio_set_peripheral+0x7e>
  400462:	d813      	bhi.n	40048c <pio_set_peripheral+0x32>
  400464:	f1b1 6f00 	cmp.w	r1, #134217728	; 0x8000000
  400468:	d025      	beq.n	4004b6 <pio_set_peripheral+0x5c>
  40046a:	f1b1 5f80 	cmp.w	r1, #268435456	; 0x10000000
  40046e:	d10a      	bne.n	400486 <pio_set_peripheral+0x2c>

		ul_sr = p_pio->PIO_ABCDSR[1];
		p_pio->PIO_ABCDSR[1] &= (~ul_mask & ul_sr);
		break;
	case PIO_PERIPH_B:
		ul_sr = p_pio->PIO_ABCDSR[0];
  400470:	6f03      	ldr	r3, [r0, #112]	; 0x70
		p_pio->PIO_ABCDSR[0] = (ul_mask | ul_sr);
  400472:	4313      	orrs	r3, r2
  400474:	6703      	str	r3, [r0, #112]	; 0x70

		ul_sr = p_pio->PIO_ABCDSR[1];
  400476:	6f43      	ldr	r3, [r0, #116]	; 0x74
		p_pio->PIO_ABCDSR[1] &= (~ul_mask & ul_sr);
  400478:	6f41      	ldr	r1, [r0, #116]	; 0x74
  40047a:	400b      	ands	r3, r1
  40047c:	ea23 0302 	bic.w	r3, r3, r2
  400480:	6743      	str	r3, [r0, #116]	; 0x74
#else
#error "Unsupported device"
#endif

	/* Remove the pins from under the control of PIO */
	p_pio->PIO_PDR = ul_mask;
  400482:	6042      	str	r2, [r0, #4]
  400484:	4770      	bx	lr
	switch (ul_type) {
  400486:	2900      	cmp	r1, #0
  400488:	d1fb      	bne.n	400482 <pio_set_peripheral+0x28>
  40048a:	4770      	bx	lr
  40048c:	f1b1 5f20 	cmp.w	r1, #671088640	; 0x28000000
  400490:	d021      	beq.n	4004d6 <pio_set_peripheral+0x7c>
  400492:	d809      	bhi.n	4004a8 <pio_set_peripheral+0x4e>
  400494:	f1b1 5f00 	cmp.w	r1, #536870912	; 0x20000000
  400498:	d1f3      	bne.n	400482 <pio_set_peripheral+0x28>
		ul_sr = p_pio->PIO_ABCDSR[0];
  40049a:	6f03      	ldr	r3, [r0, #112]	; 0x70
		p_pio->PIO_ABCDSR[0] = (ul_mask | ul_sr);
  40049c:	4313      	orrs	r3, r2
  40049e:	6703      	str	r3, [r0, #112]	; 0x70
		ul_sr = p_pio->PIO_ABCDSR[1];
  4004a0:	6f43      	ldr	r3, [r0, #116]	; 0x74
		p_pio->PIO_ABCDSR[1] = (ul_mask | ul_sr);
  4004a2:	4313      	orrs	r3, r2
  4004a4:	6743      	str	r3, [r0, #116]	; 0x74
		break;
  4004a6:	e7ec      	b.n	400482 <pio_set_peripheral+0x28>
	switch (ul_type) {
  4004a8:	f1b1 5f40 	cmp.w	r1, #805306368	; 0x30000000
  4004ac:	d013      	beq.n	4004d6 <pio_set_peripheral+0x7c>
  4004ae:	f1b1 5f60 	cmp.w	r1, #939524096	; 0x38000000
  4004b2:	d010      	beq.n	4004d6 <pio_set_peripheral+0x7c>
  4004b4:	e7e5      	b.n	400482 <pio_set_peripheral+0x28>
{
  4004b6:	b410      	push	{r4}
		ul_sr = p_pio->PIO_ABCDSR[0];
  4004b8:	6f01      	ldr	r1, [r0, #112]	; 0x70
		p_pio->PIO_ABCDSR[0] &= (~ul_mask & ul_sr);
  4004ba:	6f04      	ldr	r4, [r0, #112]	; 0x70
  4004bc:	43d3      	mvns	r3, r2
  4004be:	4021      	ands	r1, r4
  4004c0:	461c      	mov	r4, r3
  4004c2:	4019      	ands	r1, r3
  4004c4:	6701      	str	r1, [r0, #112]	; 0x70
		ul_sr = p_pio->PIO_ABCDSR[1];
  4004c6:	6f43      	ldr	r3, [r0, #116]	; 0x74
		p_pio->PIO_ABCDSR[1] &= (~ul_mask & ul_sr);
  4004c8:	6f41      	ldr	r1, [r0, #116]	; 0x74
  4004ca:	400b      	ands	r3, r1
  4004cc:	4023      	ands	r3, r4
  4004ce:	6743      	str	r3, [r0, #116]	; 0x74
	p_pio->PIO_PDR = ul_mask;
  4004d0:	6042      	str	r2, [r0, #4]
}
  4004d2:	f85d 4b04 	ldr.w	r4, [sp], #4
  4004d6:	4770      	bx	lr
		ul_sr = p_pio->PIO_ABCDSR[0];
  4004d8:	6f03      	ldr	r3, [r0, #112]	; 0x70
		p_pio->PIO_ABCDSR[0] &= (~ul_mask & ul_sr);
  4004da:	6f01      	ldr	r1, [r0, #112]	; 0x70
  4004dc:	400b      	ands	r3, r1
  4004de:	ea23 0302 	bic.w	r3, r3, r2
  4004e2:	6703      	str	r3, [r0, #112]	; 0x70
		ul_sr = p_pio->PIO_ABCDSR[1];
  4004e4:	6f43      	ldr	r3, [r0, #116]	; 0x74
		p_pio->PIO_ABCDSR[1] = (ul_mask | ul_sr);
  4004e6:	4313      	orrs	r3, r2
  4004e8:	6743      	str	r3, [r0, #116]	; 0x74
		break;
  4004ea:	e7ca      	b.n	400482 <pio_set_peripheral+0x28>

004004ec <pio_set_input>:
 * \param p_pio Pointer to a PIO instance.
 * \param ul_mask Interrupt sources bit map.
 */
void pio_disable_interrupt(Pio *p_pio, const uint32_t ul_mask)
{
	p_pio->PIO_IDR = ul_mask;
  4004ec:	6441      	str	r1, [r0, #68]	; 0x44
	if (ul_pull_up_enable) {
  4004ee:	f012 0f01 	tst.w	r2, #1
  4004f2:	d10d      	bne.n	400510 <pio_set_input+0x24>
		p_pio->PIO_PUDR = ul_mask;
  4004f4:	6601      	str	r1, [r0, #96]	; 0x60
	if (ul_attribute & (PIO_DEGLITCH | PIO_DEBOUNCE)) {
  4004f6:	f012 0f0a 	tst.w	r2, #10
  4004fa:	d00b      	beq.n	400514 <pio_set_input+0x28>
		p_pio->PIO_IFER = ul_mask;
  4004fc:	6201      	str	r1, [r0, #32]
	if (ul_attribute & PIO_DEGLITCH) {
  4004fe:	f012 0f02 	tst.w	r2, #2
  400502:	d109      	bne.n	400518 <pio_set_input+0x2c>
		if (ul_attribute & PIO_DEBOUNCE) {
  400504:	f012 0f08 	tst.w	r2, #8
  400508:	d008      	beq.n	40051c <pio_set_input+0x30>
			p_pio->PIO_IFSCER = ul_mask;
  40050a:	f8c0 1084 	str.w	r1, [r0, #132]	; 0x84
  40050e:	e005      	b.n	40051c <pio_set_input+0x30>
		p_pio->PIO_PUER = ul_mask;
  400510:	6641      	str	r1, [r0, #100]	; 0x64
  400512:	e7f0      	b.n	4004f6 <pio_set_input+0xa>
		p_pio->PIO_IFDR = ul_mask;
  400514:	6241      	str	r1, [r0, #36]	; 0x24
  400516:	e7f2      	b.n	4004fe <pio_set_input+0x12>
		p_pio->PIO_IFSCDR = ul_mask;
  400518:	f8c0 1080 	str.w	r1, [r0, #128]	; 0x80
	p_pio->PIO_ODR = ul_mask;
  40051c:	6141      	str	r1, [r0, #20]
	p_pio->PIO_PER = ul_mask;
  40051e:	6001      	str	r1, [r0, #0]
  400520:	4770      	bx	lr

00400522 <pio_set_output>:
{
  400522:	b410      	push	{r4}
  400524:	9c01      	ldr	r4, [sp, #4]
	p_pio->PIO_IDR = ul_mask;
  400526:	6441      	str	r1, [r0, #68]	; 0x44
	if (ul_pull_up_enable) {
  400528:	b94c      	cbnz	r4, 40053e <pio_set_output+0x1c>
		p_pio->PIO_PUDR = ul_mask;
  40052a:	6601      	str	r1, [r0, #96]	; 0x60
	if (ul_multidrive_enable) {
  40052c:	b14b      	cbz	r3, 400542 <pio_set_output+0x20>
		p_pio->PIO_MDER = ul_mask;
  40052e:	6501      	str	r1, [r0, #80]	; 0x50
	if (ul_default_level) {
  400530:	b94a      	cbnz	r2, 400546 <pio_set_output+0x24>
		p_pio->PIO_CODR = ul_mask;
  400532:	6341      	str	r1, [r0, #52]	; 0x34
	p_pio->PIO_OER = ul_mask;
  400534:	6101      	str	r1, [r0, #16]
	p_pio->PIO_PER = ul_mask;
  400536:	6001      	str	r1, [r0, #0]
}
  400538:	f85d 4b04 	ldr.w	r4, [sp], #4
  40053c:	4770      	bx	lr
		p_pio->PIO_PUER = ul_mask;
  40053e:	6641      	str	r1, [r0, #100]	; 0x64
  400540:	e7f4      	b.n	40052c <pio_set_output+0xa>
		p_pio->PIO_MDDR = ul_mask;
  400542:	6541      	str	r1, [r0, #84]	; 0x54
  400544:	e7f4      	b.n	400530 <pio_set_output+0xe>
		p_pio->PIO_SODR = ul_mask;
  400546:	6301      	str	r1, [r0, #48]	; 0x30
  400548:	e7f4      	b.n	400534 <pio_set_output+0x12>
	...

0040054c <pio_configure>:
{
  40054c:	b570      	push	{r4, r5, r6, lr}
  40054e:	b082      	sub	sp, #8
  400550:	4605      	mov	r5, r0
  400552:	4616      	mov	r6, r2
  400554:	461c      	mov	r4, r3
	switch (ul_type) {
  400556:	f1b1 5f00 	cmp.w	r1, #536870912	; 0x20000000
  40055a:	d014      	beq.n	400586 <pio_configure+0x3a>
  40055c:	d90a      	bls.n	400574 <pio_configure+0x28>
  40055e:	f1b1 5f40 	cmp.w	r1, #805306368	; 0x30000000
  400562:	d024      	beq.n	4005ae <pio_configure+0x62>
  400564:	f1b1 5f60 	cmp.w	r1, #939524096	; 0x38000000
  400568:	d021      	beq.n	4005ae <pio_configure+0x62>
  40056a:	f1b1 5f20 	cmp.w	r1, #671088640	; 0x28000000
  40056e:	d017      	beq.n	4005a0 <pio_configure+0x54>
		return 0;
  400570:	2000      	movs	r0, #0
  400572:	e01a      	b.n	4005aa <pio_configure+0x5e>
	switch (ul_type) {
  400574:	f1b1 5f80 	cmp.w	r1, #268435456	; 0x10000000
  400578:	d005      	beq.n	400586 <pio_configure+0x3a>
  40057a:	f1b1 5fc0 	cmp.w	r1, #402653184	; 0x18000000
  40057e:	d002      	beq.n	400586 <pio_configure+0x3a>
  400580:	f1b1 6f00 	cmp.w	r1, #134217728	; 0x8000000
  400584:	d1f4      	bne.n	400570 <pio_configure+0x24>
		pio_set_peripheral(p_pio, ul_type, ul_mask);
  400586:	4632      	mov	r2, r6
  400588:	4628      	mov	r0, r5
  40058a:	4b11      	ldr	r3, [pc, #68]	; (4005d0 <pio_configure+0x84>)
  40058c:	4798      	blx	r3
	if (ul_pull_up_enable) {
  40058e:	f014 0f01 	tst.w	r4, #1
  400592:	d102      	bne.n	40059a <pio_configure+0x4e>
		p_pio->PIO_PUDR = ul_mask;
  400594:	662e      	str	r6, [r5, #96]	; 0x60
	return 1;
  400596:	2001      	movs	r0, #1
  400598:	e007      	b.n	4005aa <pio_configure+0x5e>
		p_pio->PIO_PUER = ul_mask;
  40059a:	666e      	str	r6, [r5, #100]	; 0x64
	return 1;
  40059c:	2001      	movs	r0, #1
  40059e:	e004      	b.n	4005aa <pio_configure+0x5e>
		pio_set_input(p_pio, ul_mask, ul_attribute);
  4005a0:	461a      	mov	r2, r3
  4005a2:	4631      	mov	r1, r6
  4005a4:	4b0b      	ldr	r3, [pc, #44]	; (4005d4 <pio_configure+0x88>)
  4005a6:	4798      	blx	r3
	return 1;
  4005a8:	2001      	movs	r0, #1
}
  4005aa:	b002      	add	sp, #8
  4005ac:	bd70      	pop	{r4, r5, r6, pc}
		pio_set_output(p_pio, ul_mask, (ul_type == PIO_OUTPUT_1),
  4005ae:	f004 0301 	and.w	r3, r4, #1
  4005b2:	9300      	str	r3, [sp, #0]
  4005b4:	f3c4 0380 	ubfx	r3, r4, #2, #1
  4005b8:	f1b1 5f60 	cmp.w	r1, #939524096	; 0x38000000
  4005bc:	bf14      	ite	ne
  4005be:	2200      	movne	r2, #0
  4005c0:	2201      	moveq	r2, #1
  4005c2:	4631      	mov	r1, r6
  4005c4:	4628      	mov	r0, r5
  4005c6:	4c04      	ldr	r4, [pc, #16]	; (4005d8 <pio_configure+0x8c>)
  4005c8:	47a0      	blx	r4
	return 1;
  4005ca:	2001      	movs	r0, #1
		break;
  4005cc:	e7ed      	b.n	4005aa <pio_configure+0x5e>
  4005ce:	bf00      	nop
  4005d0:	0040045b 	.word	0x0040045b
  4005d4:	004004ed 	.word	0x004004ed
  4005d8:	00400523 	.word	0x00400523

004005dc <pio_configure_interrupt>:
	if (ul_attr & PIO_IT_AIME) {
  4005dc:	f012 0f10 	tst.w	r2, #16
  4005e0:	d012      	beq.n	400608 <pio_configure_interrupt+0x2c>
		p_pio->PIO_AIMER = ul_mask;
  4005e2:	f8c0 10b0 	str.w	r1, [r0, #176]	; 0xb0
		if (ul_attr & PIO_IT_RE_OR_HL) {
  4005e6:	f012 0f20 	tst.w	r2, #32
  4005ea:	d007      	beq.n	4005fc <pio_configure_interrupt+0x20>
			p_pio->PIO_REHLSR = ul_mask;
  4005ec:	f8c0 10d4 	str.w	r1, [r0, #212]	; 0xd4
		if (ul_attr & PIO_IT_EDGE) {
  4005f0:	f012 0f40 	tst.w	r2, #64	; 0x40
  4005f4:	d005      	beq.n	400602 <pio_configure_interrupt+0x26>
			p_pio->PIO_ESR = ul_mask;
  4005f6:	f8c0 10c0 	str.w	r1, [r0, #192]	; 0xc0
  4005fa:	4770      	bx	lr
			p_pio->PIO_FELLSR = ul_mask;
  4005fc:	f8c0 10d0 	str.w	r1, [r0, #208]	; 0xd0
  400600:	e7f6      	b.n	4005f0 <pio_configure_interrupt+0x14>
			p_pio->PIO_LSR = ul_mask;
  400602:	f8c0 10c4 	str.w	r1, [r0, #196]	; 0xc4
  400606:	4770      	bx	lr
		p_pio->PIO_AIMDR = ul_mask;
  400608:	f8c0 10b4 	str.w	r1, [r0, #180]	; 0xb4
  40060c:	4770      	bx	lr

0040060e <pio_enable_interrupt>:
	p_pio->PIO_IER = ul_mask;
  40060e:	6401      	str	r1, [r0, #64]	; 0x40
  400610:	4770      	bx	lr

00400612 <pio_get_interrupt_status>:
 *
 * \return The interrupt status value.
 */
uint32_t pio_get_interrupt_status(const Pio *p_pio)
{
	return p_pio->PIO_ISR;
  400612:	6cc0      	ldr	r0, [r0, #76]	; 0x4c
}
  400614:	4770      	bx	lr

00400616 <pio_get_interrupt_mask>:
 *
 * \return The interrupt mask value.
 */
uint32_t pio_get_interrupt_mask(const Pio *p_pio)
{
	return p_pio->PIO_IMR;
  400616:	6c80      	ldr	r0, [r0, #72]	; 0x48
}
  400618:	4770      	bx	lr
	...

0040061c <pio_handler_process>:
 *
 * \param p_pio PIO controller base address.
 * \param ul_id PIO controller ID.
 */
void pio_handler_process(Pio *p_pio, uint32_t ul_id)
{
  40061c:	e92d 41f0 	stmdb	sp!, {r4, r5, r6, r7, r8, lr}
  400620:	4604      	mov	r4, r0
  400622:	4688      	mov	r8, r1
	uint32_t status;
	uint32_t i;

	/* Read PIO controller status */
	status = pio_get_interrupt_status(p_pio);
  400624:	4b0e      	ldr	r3, [pc, #56]	; (400660 <pio_handler_process+0x44>)
  400626:	4798      	blx	r3
  400628:	4605      	mov	r5, r0
	status &= pio_get_interrupt_mask(p_pio);
  40062a:	4620      	mov	r0, r4
  40062c:	4b0d      	ldr	r3, [pc, #52]	; (400664 <pio_handler_process+0x48>)
  40062e:	4798      	blx	r3

	/* Check pending events */
	if (status != 0) {
  400630:	4005      	ands	r5, r0
  400632:	d013      	beq.n	40065c <pio_handler_process+0x40>
  400634:	4c0c      	ldr	r4, [pc, #48]	; (400668 <pio_handler_process+0x4c>)
  400636:	f104 0660 	add.w	r6, r4, #96	; 0x60
  40063a:	e003      	b.n	400644 <pio_handler_process+0x28>
							gs_interrupt_sources[i].mask);
					status &= ~(gs_interrupt_sources[i].mask);
				}
			}
			i++;
			if (i >= MAX_INTERRUPT_SOURCES) {
  40063c:	42b4      	cmp	r4, r6
  40063e:	d00d      	beq.n	40065c <pio_handler_process+0x40>
  400640:	3410      	adds	r4, #16
		while (status != 0) {
  400642:	b15d      	cbz	r5, 40065c <pio_handler_process+0x40>
			if (gs_interrupt_sources[i].id == ul_id) {
  400644:	6820      	ldr	r0, [r4, #0]
  400646:	4540      	cmp	r0, r8
  400648:	d1f8      	bne.n	40063c <pio_handler_process+0x20>
				if ((status & gs_interrupt_sources[i].mask) != 0) {
  40064a:	6861      	ldr	r1, [r4, #4]
  40064c:	4229      	tst	r1, r5
  40064e:	d0f5      	beq.n	40063c <pio_handler_process+0x20>
					gs_interrupt_sources[i].handler(gs_interrupt_sources[i].id,
  400650:	68e3      	ldr	r3, [r4, #12]
  400652:	4798      	blx	r3
					status &= ~(gs_interrupt_sources[i].mask);
  400654:	6863      	ldr	r3, [r4, #4]
  400656:	ea25 0503 	bic.w	r5, r5, r3
  40065a:	e7ef      	b.n	40063c <pio_handler_process+0x20>
  40065c:	e8bd 81f0 	ldmia.w	sp!, {r4, r5, r6, r7, r8, pc}
  400660:	00400613 	.word	0x00400613
  400664:	00400617 	.word	0x00400617
  400668:	204009dc 	.word	0x204009dc

0040066c <pio_handler_set>:
 *
 * \return 0 if successful, 1 if the maximum number of sources has been defined.
 */
uint32_t pio_handler_set(Pio *p_pio, uint32_t ul_id, uint32_t ul_mask,
		uint32_t ul_attr, void (*p_handler) (uint32_t, uint32_t))
{
  40066c:	b5f8      	push	{r3, r4, r5, r6, r7, lr}
    uint8_t i;
	struct s_interrupt_source *pSource;

	if (gs_ul_nb_sources >= MAX_INTERRUPT_SOURCES)
  40066e:	4c18      	ldr	r4, [pc, #96]	; (4006d0 <pio_handler_set+0x64>)
  400670:	6826      	ldr	r6, [r4, #0]
  400672:	2e06      	cmp	r6, #6
  400674:	d82a      	bhi.n	4006cc <pio_handler_set+0x60>
  400676:	f04f 0c00 	mov.w	ip, #0
  40067a:	4664      	mov	r4, ip
		return 1;

    /* Check interrupt for this pin, if already defined, redefine it. */
	for (i = 0; i <= gs_ul_nb_sources; i++) {
		pSource = &(gs_interrupt_sources[i]);
		if (pSource->id == ul_id && pSource->mask == ul_mask) {
  40067c:	4f15      	ldr	r7, [pc, #84]	; (4006d4 <pio_handler_set+0x68>)
  40067e:	e004      	b.n	40068a <pio_handler_set+0x1e>
	for (i = 0; i <= gs_ul_nb_sources; i++) {
  400680:	3401      	adds	r4, #1
  400682:	b2e4      	uxtb	r4, r4
  400684:	46a4      	mov	ip, r4
  400686:	42a6      	cmp	r6, r4
  400688:	d309      	bcc.n	40069e <pio_handler_set+0x32>
		pSource = &(gs_interrupt_sources[i]);
  40068a:	46a6      	mov	lr, r4
		if (pSource->id == ul_id && pSource->mask == ul_mask) {
  40068c:	0125      	lsls	r5, r4, #4
  40068e:	597d      	ldr	r5, [r7, r5]
  400690:	428d      	cmp	r5, r1
  400692:	d1f5      	bne.n	400680 <pio_handler_set+0x14>
  400694:	eb07 1504 	add.w	r5, r7, r4, lsl #4
  400698:	686d      	ldr	r5, [r5, #4]
  40069a:	4295      	cmp	r5, r2
  40069c:	d1f0      	bne.n	400680 <pio_handler_set+0x14>
			break;
		}
	}

	/* Define new source */
	pSource->id = ul_id;
  40069e:	4d0d      	ldr	r5, [pc, #52]	; (4006d4 <pio_handler_set+0x68>)
  4006a0:	ea4f 1e0e 	mov.w	lr, lr, lsl #4
  4006a4:	eb05 040e 	add.w	r4, r5, lr
  4006a8:	f845 100e 	str.w	r1, [r5, lr]
	pSource->mask = ul_mask;
  4006ac:	6062      	str	r2, [r4, #4]
	pSource->attr = ul_attr;
  4006ae:	60a3      	str	r3, [r4, #8]
	pSource->handler = p_handler;
  4006b0:	9906      	ldr	r1, [sp, #24]
  4006b2:	60e1      	str	r1, [r4, #12]
	if (i == gs_ul_nb_sources + 1) {
  4006b4:	3601      	adds	r6, #1
  4006b6:	4566      	cmp	r6, ip
  4006b8:	d005      	beq.n	4006c6 <pio_handler_set+0x5a>
  4006ba:	4611      	mov	r1, r2
		gs_ul_nb_sources++;
	}

	/* Configure interrupt mode */
	pio_configure_interrupt(p_pio, ul_mask, ul_attr);
  4006bc:	461a      	mov	r2, r3
  4006be:	4b06      	ldr	r3, [pc, #24]	; (4006d8 <pio_handler_set+0x6c>)
  4006c0:	4798      	blx	r3

	return 0;
  4006c2:	2000      	movs	r0, #0
  4006c4:	bdf8      	pop	{r3, r4, r5, r6, r7, pc}
		gs_ul_nb_sources++;
  4006c6:	4902      	ldr	r1, [pc, #8]	; (4006d0 <pio_handler_set+0x64>)
  4006c8:	600e      	str	r6, [r1, #0]
  4006ca:	e7f6      	b.n	4006ba <pio_handler_set+0x4e>
		return 1;
  4006cc:	2001      	movs	r0, #1
}
  4006ce:	bdf8      	pop	{r3, r4, r5, r6, r7, pc}
  4006d0:	20400a4c 	.word	0x20400a4c
  4006d4:	204009dc 	.word	0x204009dc
  4006d8:	004005dd 	.word	0x004005dd

004006dc <PIOA_Handler>:
/**
 * \brief Parallel IO Controller A interrupt handler.
 * Redefined PIOA interrupt handler for NVIC interrupt table.
 */
void PIOA_Handler(void)
{
  4006dc:	b508      	push	{r3, lr}
	pio_handler_process(PIOA, ID_PIOA);
  4006de:	210a      	movs	r1, #10
  4006e0:	4801      	ldr	r0, [pc, #4]	; (4006e8 <PIOA_Handler+0xc>)
  4006e2:	4b02      	ldr	r3, [pc, #8]	; (4006ec <PIOA_Handler+0x10>)
  4006e4:	4798      	blx	r3
  4006e6:	bd08      	pop	{r3, pc}
  4006e8:	400e0e00 	.word	0x400e0e00
  4006ec:	0040061d 	.word	0x0040061d

004006f0 <PIOB_Handler>:
/**
 * \brief Parallel IO Controller B interrupt handler
 * Redefined PIOB interrupt handler for NVIC interrupt table.
 */
void PIOB_Handler(void)
{
  4006f0:	b508      	push	{r3, lr}
    pio_handler_process(PIOB, ID_PIOB);
  4006f2:	210b      	movs	r1, #11
  4006f4:	4801      	ldr	r0, [pc, #4]	; (4006fc <PIOB_Handler+0xc>)
  4006f6:	4b02      	ldr	r3, [pc, #8]	; (400700 <PIOB_Handler+0x10>)
  4006f8:	4798      	blx	r3
  4006fa:	bd08      	pop	{r3, pc}
  4006fc:	400e1000 	.word	0x400e1000
  400700:	0040061d 	.word	0x0040061d

00400704 <PIOC_Handler>:
/**
 * \brief Parallel IO Controller C interrupt handler.
 * Redefined PIOC interrupt handler for NVIC interrupt table.
 */
void PIOC_Handler(void)
{
  400704:	b508      	push	{r3, lr}
	pio_handler_process(PIOC, ID_PIOC);
  400706:	210c      	movs	r1, #12
  400708:	4801      	ldr	r0, [pc, #4]	; (400710 <PIOC_Handler+0xc>)
  40070a:	4b02      	ldr	r3, [pc, #8]	; (400714 <PIOC_Handler+0x10>)
  40070c:	4798      	blx	r3
  40070e:	bd08      	pop	{r3, pc}
  400710:	400e1200 	.word	0x400e1200
  400714:	0040061d 	.word	0x0040061d

00400718 <PIOD_Handler>:
/**
 * \brief Parallel IO Controller D interrupt handler.
 * Redefined PIOD interrupt handler for NVIC interrupt table.
 */
void PIOD_Handler(void)
{
  400718:	b508      	push	{r3, lr}
	pio_handler_process(PIOD, ID_PIOD);
  40071a:	2110      	movs	r1, #16
  40071c:	4801      	ldr	r0, [pc, #4]	; (400724 <PIOD_Handler+0xc>)
  40071e:	4b02      	ldr	r3, [pc, #8]	; (400728 <PIOD_Handler+0x10>)
  400720:	4798      	blx	r3
  400722:	bd08      	pop	{r3, pc}
  400724:	400e1400 	.word	0x400e1400
  400728:	0040061d 	.word	0x0040061d

0040072c <PIOE_Handler>:
/**
 * \brief Parallel IO Controller E interrupt handler.
 * Redefined PIOE interrupt handler for NVIC interrupt table.
 */
void PIOE_Handler(void)
{
  40072c:	b508      	push	{r3, lr}
	pio_handler_process(PIOE, ID_PIOE);
  40072e:	2111      	movs	r1, #17
  400730:	4801      	ldr	r0, [pc, #4]	; (400738 <PIOE_Handler+0xc>)
  400732:	4b02      	ldr	r3, [pc, #8]	; (40073c <PIOE_Handler+0x10>)
  400734:	4798      	blx	r3
  400736:	bd08      	pop	{r3, pc}
  400738:	400e1600 	.word	0x400e1600
  40073c:	0040061d 	.word	0x0040061d

00400740 <pmc_mck_set_division>:
 *
 * \param ul_div Division value.
 */
void pmc_mck_set_division(uint32_t ul_div)
{
	switch (ul_div) {
  400740:	2803      	cmp	r0, #3
  400742:	d011      	beq.n	400768 <pmc_mck_set_division+0x28>
  400744:	2804      	cmp	r0, #4
  400746:	d012      	beq.n	40076e <pmc_mck_set_division+0x2e>
		case 1:
			ul_div = PMC_MCKR_MDIV_EQ_PCK;
  400748:	2802      	cmp	r0, #2
  40074a:	bf0c      	ite	eq
  40074c:	f44f 7180 	moveq.w	r1, #256	; 0x100
  400750:	2100      	movne	r1, #0
		default:
			ul_div = PMC_MCKR_MDIV_EQ_PCK;
			break;
	}
	PMC->PMC_MCKR =
			(PMC->PMC_MCKR & (~PMC_MCKR_MDIV_Msk)) | ul_div;
  400752:	4a08      	ldr	r2, [pc, #32]	; (400774 <pmc_mck_set_division+0x34>)
  400754:	6b13      	ldr	r3, [r2, #48]	; 0x30
  400756:	f423 7340 	bic.w	r3, r3, #768	; 0x300
  40075a:	430b      	orrs	r3, r1
	PMC->PMC_MCKR =
  40075c:	6313      	str	r3, [r2, #48]	; 0x30
	while (!(PMC->PMC_SR & PMC_SR_MCKRDY));
  40075e:	6e93      	ldr	r3, [r2, #104]	; 0x68
  400760:	f013 0f08 	tst.w	r3, #8
  400764:	d0fb      	beq.n	40075e <pmc_mck_set_division+0x1e>
}
  400766:	4770      	bx	lr
			ul_div = PMC_MCKR_MDIV_PCK_DIV3;
  400768:	f44f 7140 	mov.w	r1, #768	; 0x300
			break;
  40076c:	e7f1      	b.n	400752 <pmc_mck_set_division+0x12>
			ul_div = PMC_MCKR_MDIV_PCK_DIV4;
  40076e:	f44f 7100 	mov.w	r1, #512	; 0x200
			break;
  400772:	e7ee      	b.n	400752 <pmc_mck_set_division+0x12>
  400774:	400e0600 	.word	0x400e0600

00400778 <pmc_switch_mck_to_pllack>:
 */
uint32_t pmc_switch_mck_to_pllack(uint32_t ul_pres)
{
	uint32_t ul_timeout;

	PMC->PMC_MCKR = (PMC->PMC_MCKR & (~PMC_MCKR_PRES_Msk)) | ul_pres;
  400778:	4a17      	ldr	r2, [pc, #92]	; (4007d8 <pmc_switch_mck_to_pllack+0x60>)
  40077a:	6b13      	ldr	r3, [r2, #48]	; 0x30
  40077c:	f023 0370 	bic.w	r3, r3, #112	; 0x70
  400780:	4318      	orrs	r0, r3
  400782:	6310      	str	r0, [r2, #48]	; 0x30
	for (ul_timeout = PMC_TIMEOUT; !(PMC->PMC_SR & PMC_SR_MCKRDY);
  400784:	6e93      	ldr	r3, [r2, #104]	; 0x68
  400786:	f013 0f08 	tst.w	r3, #8
  40078a:	d10a      	bne.n	4007a2 <pmc_switch_mck_to_pllack+0x2a>
  40078c:	f44f 5380 	mov.w	r3, #4096	; 0x1000
  400790:	4911      	ldr	r1, [pc, #68]	; (4007d8 <pmc_switch_mck_to_pllack+0x60>)
  400792:	6e8a      	ldr	r2, [r1, #104]	; 0x68
  400794:	f012 0f08 	tst.w	r2, #8
  400798:	d103      	bne.n	4007a2 <pmc_switch_mck_to_pllack+0x2a>
			--ul_timeout) {
		if (ul_timeout == 0) {
  40079a:	3b01      	subs	r3, #1
  40079c:	d1f9      	bne.n	400792 <pmc_switch_mck_to_pllack+0x1a>
			return 1;
  40079e:	2001      	movs	r0, #1
  4007a0:	4770      	bx	lr
		}
	}

	PMC->PMC_MCKR = (PMC->PMC_MCKR & (~PMC_MCKR_CSS_Msk)) |
  4007a2:	4a0d      	ldr	r2, [pc, #52]	; (4007d8 <pmc_switch_mck_to_pllack+0x60>)
  4007a4:	6b13      	ldr	r3, [r2, #48]	; 0x30
  4007a6:	f023 0303 	bic.w	r3, r3, #3
  4007aa:	f043 0302 	orr.w	r3, r3, #2
  4007ae:	6313      	str	r3, [r2, #48]	; 0x30
			PMC_MCKR_CSS_PLLA_CLK;

	for (ul_timeout = PMC_TIMEOUT; !(PMC->PMC_SR & PMC_SR_MCKRDY);
  4007b0:	6e93      	ldr	r3, [r2, #104]	; 0x68
  4007b2:	f013 0f08 	tst.w	r3, #8
  4007b6:	d10a      	bne.n	4007ce <pmc_switch_mck_to_pllack+0x56>
  4007b8:	f44f 5380 	mov.w	r3, #4096	; 0x1000
  4007bc:	4906      	ldr	r1, [pc, #24]	; (4007d8 <pmc_switch_mck_to_pllack+0x60>)
  4007be:	6e8a      	ldr	r2, [r1, #104]	; 0x68
  4007c0:	f012 0f08 	tst.w	r2, #8
  4007c4:	d105      	bne.n	4007d2 <pmc_switch_mck_to_pllack+0x5a>
			--ul_timeout) {
		if (ul_timeout == 0) {
  4007c6:	3b01      	subs	r3, #1
  4007c8:	d1f9      	bne.n	4007be <pmc_switch_mck_to_pllack+0x46>
			return 1;
  4007ca:	2001      	movs	r0, #1
		}
	}

	return 0;
}
  4007cc:	4770      	bx	lr
	return 0;
  4007ce:	2000      	movs	r0, #0
  4007d0:	4770      	bx	lr
  4007d2:	2000      	movs	r0, #0
  4007d4:	4770      	bx	lr
  4007d6:	bf00      	nop
  4007d8:	400e0600 	.word	0x400e0600

004007dc <pmc_switch_mainck_to_xtal>:
 */
void pmc_switch_mainck_to_xtal(uint32_t ul_bypass,
		uint32_t ul_xtal_startup_time)
{
	/* Enable Main Xtal oscillator */
	if (ul_bypass) {
  4007dc:	b9a0      	cbnz	r0, 400808 <pmc_switch_mainck_to_xtal+0x2c>
		PMC->CKGR_MOR = (PMC->CKGR_MOR & ~CKGR_MOR_MOSCXTEN) |
				CKGR_MOR_KEY_PASSWD | CKGR_MOR_MOSCXTBY |
				CKGR_MOR_MOSCSEL;
	} else {
		PMC->CKGR_MOR = (PMC->CKGR_MOR & ~CKGR_MOR_MOSCXTBY) |
  4007de:	480e      	ldr	r0, [pc, #56]	; (400818 <pmc_switch_mainck_to_xtal+0x3c>)
  4007e0:	6a03      	ldr	r3, [r0, #32]
				CKGR_MOR_KEY_PASSWD | CKGR_MOR_MOSCXTEN |
				CKGR_MOR_MOSCXTST(ul_xtal_startup_time);
  4007e2:	0209      	lsls	r1, r1, #8
  4007e4:	b289      	uxth	r1, r1
				CKGR_MOR_KEY_PASSWD | CKGR_MOR_MOSCXTEN |
  4007e6:	4a0d      	ldr	r2, [pc, #52]	; (40081c <pmc_switch_mainck_to_xtal+0x40>)
  4007e8:	401a      	ands	r2, r3
  4007ea:	4b0d      	ldr	r3, [pc, #52]	; (400820 <pmc_switch_mainck_to_xtal+0x44>)
  4007ec:	4313      	orrs	r3, r2
  4007ee:	4319      	orrs	r1, r3
		PMC->CKGR_MOR = (PMC->CKGR_MOR & ~CKGR_MOR_MOSCXTBY) |
  4007f0:	6201      	str	r1, [r0, #32]
		/* Wait the Xtal to stabilize */
		while (!(PMC->PMC_SR & PMC_SR_MOSCXTS));
  4007f2:	4602      	mov	r2, r0
  4007f4:	6e93      	ldr	r3, [r2, #104]	; 0x68
  4007f6:	f013 0f01 	tst.w	r3, #1
  4007fa:	d0fb      	beq.n	4007f4 <pmc_switch_mainck_to_xtal+0x18>

		PMC->CKGR_MOR |= CKGR_MOR_KEY_PASSWD | CKGR_MOR_MOSCSEL;
  4007fc:	4a06      	ldr	r2, [pc, #24]	; (400818 <pmc_switch_mainck_to_xtal+0x3c>)
  4007fe:	6a11      	ldr	r1, [r2, #32]
  400800:	4b08      	ldr	r3, [pc, #32]	; (400824 <pmc_switch_mainck_to_xtal+0x48>)
  400802:	430b      	orrs	r3, r1
  400804:	6213      	str	r3, [r2, #32]
  400806:	4770      	bx	lr
		PMC->CKGR_MOR = (PMC->CKGR_MOR & ~CKGR_MOR_MOSCXTEN) |
  400808:	4903      	ldr	r1, [pc, #12]	; (400818 <pmc_switch_mainck_to_xtal+0x3c>)
  40080a:	6a0b      	ldr	r3, [r1, #32]
				CKGR_MOR_KEY_PASSWD | CKGR_MOR_MOSCXTBY |
  40080c:	4a06      	ldr	r2, [pc, #24]	; (400828 <pmc_switch_mainck_to_xtal+0x4c>)
  40080e:	401a      	ands	r2, r3
  400810:	4b06      	ldr	r3, [pc, #24]	; (40082c <pmc_switch_mainck_to_xtal+0x50>)
  400812:	4313      	orrs	r3, r2
		PMC->CKGR_MOR = (PMC->CKGR_MOR & ~CKGR_MOR_MOSCXTEN) |
  400814:	620b      	str	r3, [r1, #32]
  400816:	4770      	bx	lr
  400818:	400e0600 	.word	0x400e0600
  40081c:	ffc8fffc 	.word	0xffc8fffc
  400820:	00370001 	.word	0x00370001
  400824:	01370000 	.word	0x01370000
  400828:	fec8fffc 	.word	0xfec8fffc
  40082c:	01370002 	.word	0x01370002

00400830 <pmc_osc_is_ready_mainck>:
 * \retval 1 Xtal is ready.
 * \retval 0 Xtal is not ready.
 */
uint32_t pmc_osc_is_ready_mainck(void)
{
	return PMC->PMC_SR & PMC_SR_MOSCSELS;
  400830:	4b02      	ldr	r3, [pc, #8]	; (40083c <pmc_osc_is_ready_mainck+0xc>)
  400832:	6e98      	ldr	r0, [r3, #104]	; 0x68
}
  400834:	f400 3080 	and.w	r0, r0, #65536	; 0x10000
  400838:	4770      	bx	lr
  40083a:	bf00      	nop
  40083c:	400e0600 	.word	0x400e0600

00400840 <pmc_disable_pllack>:
void pmc_disable_pllack(void)
{
#if (SAM4C || SAM4CM || SAM4CP || SAMG)
	PMC->CKGR_PLLAR = CKGR_PLLAR_MULA(0);
#else
	PMC->CKGR_PLLAR = CKGR_PLLAR_ONE | CKGR_PLLAR_MULA(0);
  400840:	f04f 5200 	mov.w	r2, #536870912	; 0x20000000
  400844:	4b01      	ldr	r3, [pc, #4]	; (40084c <pmc_disable_pllack+0xc>)
  400846:	629a      	str	r2, [r3, #40]	; 0x28
  400848:	4770      	bx	lr
  40084a:	bf00      	nop
  40084c:	400e0600 	.word	0x400e0600

00400850 <pmc_is_locked_pllack>:
 * \retval 0 Not locked.
 * \retval 1 Locked.
 */
uint32_t pmc_is_locked_pllack(void)
{
	return (PMC->PMC_SR & PMC_SR_LOCKA);
  400850:	4b02      	ldr	r3, [pc, #8]	; (40085c <pmc_is_locked_pllack+0xc>)
  400852:	6e98      	ldr	r0, [r3, #104]	; 0x68
}
  400854:	f000 0002 	and.w	r0, r0, #2
  400858:	4770      	bx	lr
  40085a:	bf00      	nop
  40085c:	400e0600 	.word	0x400e0600

00400860 <pmc_enable_periph_clk>:
 * \retval 0 Success.
 * \retval 1 Invalid parameter.
 */
uint32_t pmc_enable_periph_clk(uint32_t ul_id)
{
	if (ul_id > MAX_PERIPH_ID) {
  400860:	283f      	cmp	r0, #63	; 0x3f
  400862:	d81e      	bhi.n	4008a2 <pmc_enable_periph_clk+0x42>
		return 1;
	}

	if (ul_id < 32) {
  400864:	281f      	cmp	r0, #31
  400866:	d80c      	bhi.n	400882 <pmc_enable_periph_clk+0x22>
		if ((PMC->PMC_PCSR0 & (1u << ul_id)) != (1u << ul_id)) {
  400868:	4b11      	ldr	r3, [pc, #68]	; (4008b0 <pmc_enable_periph_clk+0x50>)
  40086a:	699a      	ldr	r2, [r3, #24]
  40086c:	2301      	movs	r3, #1
  40086e:	4083      	lsls	r3, r0
  400870:	4393      	bics	r3, r2
  400872:	d018      	beq.n	4008a6 <pmc_enable_periph_clk+0x46>
			PMC->PMC_PCER0 = 1 << ul_id;
  400874:	2301      	movs	r3, #1
  400876:	fa03 f000 	lsl.w	r0, r3, r0
  40087a:	4b0d      	ldr	r3, [pc, #52]	; (4008b0 <pmc_enable_periph_clk+0x50>)
  40087c:	6118      	str	r0, [r3, #16]
			PMC->PMC_PCER1 = 1 << ul_id;
		}
#endif
	}

	return 0;
  40087e:	2000      	movs	r0, #0
  400880:	4770      	bx	lr
		ul_id -= 32;
  400882:	3820      	subs	r0, #32
		if ((PMC->PMC_PCSR1 & (1u << ul_id)) != (1u << ul_id)) {
  400884:	4b0a      	ldr	r3, [pc, #40]	; (4008b0 <pmc_enable_periph_clk+0x50>)
  400886:	f8d3 2108 	ldr.w	r2, [r3, #264]	; 0x108
  40088a:	2301      	movs	r3, #1
  40088c:	4083      	lsls	r3, r0
  40088e:	4393      	bics	r3, r2
  400890:	d00b      	beq.n	4008aa <pmc_enable_periph_clk+0x4a>
			PMC->PMC_PCER1 = 1 << ul_id;
  400892:	2301      	movs	r3, #1
  400894:	fa03 f000 	lsl.w	r0, r3, r0
  400898:	4b05      	ldr	r3, [pc, #20]	; (4008b0 <pmc_enable_periph_clk+0x50>)
  40089a:	f8c3 0100 	str.w	r0, [r3, #256]	; 0x100
	return 0;
  40089e:	2000      	movs	r0, #0
  4008a0:	4770      	bx	lr
		return 1;
  4008a2:	2001      	movs	r0, #1
  4008a4:	4770      	bx	lr
	return 0;
  4008a6:	2000      	movs	r0, #0
  4008a8:	4770      	bx	lr
  4008aa:	2000      	movs	r0, #0
}
  4008ac:	4770      	bx	lr
  4008ae:	bf00      	nop
  4008b0:	400e0600 	.word	0x400e0600

004008b4 <pmc_set_flash_in_wait_mode>:
 *
 * \param ul_flash_state PMC_WAIT_MODE_FLASH_STANDBY flash in standby mode,
 * PMC_WAIT_MODE_FLASH_DEEP_POWERDOWN flash in deep power down mode.
 */
void pmc_set_flash_in_wait_mode(uint32_t ul_flash_state)
{
  4008b4:	4770      	bx	lr
	...

004008b8 <pmc_enable_waitmode>:
void pmc_enable_waitmode(void)
{
	uint32_t i;

	/* Flash in wait mode */
	i = PMC->PMC_FSMR;
  4008b8:	4a10      	ldr	r2, [pc, #64]	; (4008fc <pmc_enable_waitmode+0x44>)
  4008ba:	6f13      	ldr	r3, [r2, #112]	; 0x70
	i &= ~PMC_FSMR_FLPM_Msk;
  4008bc:	f423 03c0 	bic.w	r3, r3, #6291456	; 0x600000
#if !(SAMV71 || SAMV70 || SAME70 || SAMS70)
	i |= ul_flash_in_wait_mode;
#else
	i |= PMC_WAIT_MODE_FLASH_IDLE;
  4008c0:	f443 0380 	orr.w	r3, r3, #4194304	; 0x400000
#endif
	PMC->PMC_FSMR = i;
  4008c4:	6713      	str	r3, [r2, #112]	; 0x70

	/* Set the WAITMODE bit = 1 */
	PMC->CKGR_MOR |= CKGR_MOR_KEY_PASSWD | CKGR_MOR_WAITMODE;
  4008c6:	6a11      	ldr	r1, [r2, #32]
  4008c8:	4b0d      	ldr	r3, [pc, #52]	; (400900 <pmc_enable_waitmode+0x48>)
  4008ca:	430b      	orrs	r3, r1
  4008cc:	6213      	str	r3, [r2, #32]

	/* Waiting for Master Clock Ready MCKRDY = 1 */
	while (!(PMC->PMC_SR & PMC_SR_MCKRDY));
  4008ce:	6e93      	ldr	r3, [r2, #104]	; 0x68
  4008d0:	f013 0f08 	tst.w	r3, #8
  4008d4:	d0fb      	beq.n	4008ce <pmc_enable_waitmode+0x16>
  4008d6:	f44f 73fa 	mov.w	r3, #500	; 0x1f4
  __ASM volatile ("nop");
  4008da:	bf00      	nop

	/* Waiting for MOSCRCEN bit cleared is strongly recommended
	 * to ensure that the core will not execute undesired instructions
	 */
	for (i = 0; i < 500; i++) {
  4008dc:	3b01      	subs	r3, #1
  4008de:	d1fc      	bne.n	4008da <pmc_enable_waitmode+0x22>
		__NOP();
	}
	while (!(PMC->CKGR_MOR & CKGR_MOR_MOSCRCEN));
  4008e0:	4a06      	ldr	r2, [pc, #24]	; (4008fc <pmc_enable_waitmode+0x44>)
  4008e2:	6a13      	ldr	r3, [r2, #32]
  4008e4:	f013 0f08 	tst.w	r3, #8
  4008e8:	d0fb      	beq.n	4008e2 <pmc_enable_waitmode+0x2a>

#if (!SAMG)
	/* Restore Flash in idle mode */
	i = PMC->PMC_FSMR;
  4008ea:	4a04      	ldr	r2, [pc, #16]	; (4008fc <pmc_enable_waitmode+0x44>)
  4008ec:	6f13      	ldr	r3, [r2, #112]	; 0x70
	i &= ~PMC_FSMR_FLPM_Msk;
  4008ee:	f423 03c0 	bic.w	r3, r3, #6291456	; 0x600000
	i |= PMC_WAIT_MODE_FLASH_IDLE;
  4008f2:	f443 0380 	orr.w	r3, r3, #4194304	; 0x400000
	PMC->PMC_FSMR = i;
  4008f6:	6713      	str	r3, [r2, #112]	; 0x70
  4008f8:	4770      	bx	lr
  4008fa:	bf00      	nop
  4008fc:	400e0600 	.word	0x400e0600
  400900:	00370004 	.word	0x00370004

00400904 <pmc_sleep>:
static volatile bool b_is_sleep_clock_used = false;
/** Callback invoked once when clocks are restored */
static pmc_callback_wakeup_clocks_restored_t callback_clocks_restored = NULL;

void pmc_sleep(int sleep_mode)
{
  400904:	e92d 43f8 	stmdb	sp!, {r3, r4, r5, r6, r7, r8, r9, lr}
	switch (sleep_mode) {
  400908:	1e43      	subs	r3, r0, #1
  40090a:	2b04      	cmp	r3, #4
  40090c:	f200 8107 	bhi.w	400b1e <pmc_sleep+0x21a>
  400910:	e8df f013 	tbh	[pc, r3, lsl #1]
  400914:	00050005 	.word	0x00050005
  400918:	00150015 	.word	0x00150015
  40091c:	00f6      	.short	0x00f6
	case SAM_PM_SMODE_SLEEP_WFI:
	case SAM_PM_SMODE_SLEEP_WFE:
#if (SAM4S || SAM4E || SAM4N || SAM4C || SAM4CM || SAM4CP || SAMG || SAMV71 || SAMV70 || SAMS70 || SAME70)
		SCB->SCR &= (uint32_t)~SCR_SLEEPDEEP;
  40091e:	4a81      	ldr	r2, [pc, #516]	; (400b24 <pmc_sleep+0x220>)
  400920:	6913      	ldr	r3, [r2, #16]
  400922:	f023 0304 	bic.w	r3, r3, #4
  400926:	6113      	str	r3, [r2, #16]
		cpu_irq_enable();
  400928:	2201      	movs	r2, #1
  40092a:	4b7f      	ldr	r3, [pc, #508]	; (400b28 <pmc_sleep+0x224>)
  40092c:	701a      	strb	r2, [r3, #0]
  __ASM volatile ("dmb");
  40092e:	f3bf 8f5f 	dmb	sy
  This function enables IRQ interrupts by clearing the I-bit in the CPSR.
  Can only be executed in Privileged modes.
 */
__attribute__( ( always_inline ) ) __STATIC_INLINE void __enable_irq(void)
{
  __ASM volatile ("cpsie i" : : : "memory");
  400932:	b662      	cpsie	i
  __ASM volatile ("dsb");
  400934:	f3bf 8f4f 	dsb	sy
  __ASM volatile ("wfi");
  400938:	bf30      	wfi
  40093a:	e8bd 83f8 	ldmia.w	sp!, {r3, r4, r5, r6, r7, r8, r9, pc}
  40093e:	4604      	mov	r4, r0
#if defined(EFC1)
		uint32_t fmr1;
#endif
#if (SAM4S || SAM4E || SAM4N || SAM4C || SAM4CM || SAM4CP || SAMG || SAMV71 || SAMV70 || SAMS70 || SAME70)
		(sleep_mode == SAM_PM_SMODE_WAIT_FAST) ?
				pmc_set_flash_in_wait_mode(PMC_FSMR_FLPM_FLASH_STANDBY) :
  400940:	2803      	cmp	r0, #3
  400942:	bf0c      	ite	eq
  400944:	2000      	moveq	r0, #0
				pmc_set_flash_in_wait_mode(PMC_FSMR_FLPM_FLASH_DEEP_POWERDOWN);
  400946:	f44f 1000 	movne.w	r0, #2097152	; 0x200000
  40094a:	4b78      	ldr	r3, [pc, #480]	; (400b2c <pmc_sleep+0x228>)
  40094c:	4798      	blx	r3
  This function disables IRQ interrupts by setting the I-bit in the CPSR.
  Can only be executed in Privileged modes.
 */
__attribute__( ( always_inline ) ) __STATIC_INLINE void __disable_irq(void)
{
  __ASM volatile ("cpsid i" : : : "memory");
  40094e:	b672      	cpsid	i
  __ASM volatile ("dmb");
  400950:	f3bf 8f5f 	dmb	sy
#endif
		cpu_irq_disable();
  400954:	2200      	movs	r2, #0
  400956:	4b74      	ldr	r3, [pc, #464]	; (400b28 <pmc_sleep+0x224>)
  400958:	701a      	strb	r2, [r3, #0]
		b_is_sleep_clock_used = true;
  40095a:	2201      	movs	r2, #1
  40095c:	4b74      	ldr	r3, [pc, #464]	; (400b30 <pmc_sleep+0x22c>)
  40095e:	701a      	strb	r2, [r3, #0]
	uint32_t mor  = PMC->CKGR_MOR;
  400960:	4b74      	ldr	r3, [pc, #464]	; (400b34 <pmc_sleep+0x230>)
  400962:	6a1f      	ldr	r7, [r3, #32]
	uint32_t mckr = PMC->PMC_MCKR;
  400964:	6b1d      	ldr	r5, [r3, #48]	; 0x30
	uint32_t fmr  = EFC0->EEFC_FMR;
  400966:	4a74      	ldr	r2, [pc, #464]	; (400b38 <pmc_sleep+0x234>)
  400968:	f8d2 8000 	ldr.w	r8, [r2]
		*p_pll0_setting = PMC->CKGR_PLLAR;
  40096c:	6a9e      	ldr	r6, [r3, #40]	; 0x28
	PMC->CKGR_MOR = CKGR_MOR_KEY_PASSWD | mor | CKGR_MOR_MOSCRCEN;
  40096e:	4a73      	ldr	r2, [pc, #460]	; (400b3c <pmc_sleep+0x238>)
  400970:	433a      	orrs	r2, r7
  400972:	621a      	str	r2, [r3, #32]
	if ((mckr & PMC_MCKR_CSS_Msk) > PMC_MCKR_CSS_MAIN_CLK) {
  400974:	f005 0903 	and.w	r9, r5, #3
  400978:	f1b9 0f01 	cmp.w	r9, #1
  40097c:	f240 8089 	bls.w	400a92 <pmc_sleep+0x18e>
		mckr = (mckr & (~PMC_MCKR_CSS_Msk)) | PMC_MCKR_CSS_MAIN_CLK;
  400980:	f025 0103 	bic.w	r1, r5, #3
  400984:	f041 0101 	orr.w	r1, r1, #1
		PMC->PMC_MCKR = mckr;
  400988:	6319      	str	r1, [r3, #48]	; 0x30
		while(!(PMC->PMC_SR & PMC_SR_MCKRDY));
  40098a:	461a      	mov	r2, r3
  40098c:	6e93      	ldr	r3, [r2, #104]	; 0x68
  40098e:	f013 0f08 	tst.w	r3, #8
  400992:	d0fb      	beq.n	40098c <pmc_sleep+0x88>
	if (mckr & PMC_MCKR_PRES_Msk) {
  400994:	f011 0f70 	tst.w	r1, #112	; 0x70
  400998:	d008      	beq.n	4009ac <pmc_sleep+0xa8>
		mckr = (mckr & (~PMC_MCKR_PRES_Msk));
  40099a:	f021 0170 	bic.w	r1, r1, #112	; 0x70
		PMC->PMC_MCKR = mckr;
  40099e:	4b65      	ldr	r3, [pc, #404]	; (400b34 <pmc_sleep+0x230>)
  4009a0:	6319      	str	r1, [r3, #48]	; 0x30
		while(!(PMC->PMC_SR & PMC_SR_MCKRDY));
  4009a2:	461a      	mov	r2, r3
  4009a4:	6e93      	ldr	r3, [r2, #104]	; 0x68
  4009a6:	f013 0f08 	tst.w	r3, #8
  4009aa:	d0fb      	beq.n	4009a4 <pmc_sleep+0xa0>
	pmc_disable_pllack();
  4009ac:	4b64      	ldr	r3, [pc, #400]	; (400b40 <pmc_sleep+0x23c>)
  4009ae:	4798      	blx	r3
	while (!(PMC->PMC_SR & PMC_SR_MOSCRCS));
  4009b0:	4a60      	ldr	r2, [pc, #384]	; (400b34 <pmc_sleep+0x230>)
  4009b2:	6e93      	ldr	r3, [r2, #104]	; 0x68
  4009b4:	f413 3f00 	tst.w	r3, #131072	; 0x20000
  4009b8:	d0fb      	beq.n	4009b2 <pmc_sleep+0xae>
	PMC->CKGR_MOR = (PMC->CKGR_MOR & ~CKGR_MOR_MOSCSEL) |
  4009ba:	4a5e      	ldr	r2, [pc, #376]	; (400b34 <pmc_sleep+0x230>)
  4009bc:	6a11      	ldr	r1, [r2, #32]
  4009be:	4b61      	ldr	r3, [pc, #388]	; (400b44 <pmc_sleep+0x240>)
  4009c0:	400b      	ands	r3, r1
  4009c2:	f443 135c 	orr.w	r3, r3, #3604480	; 0x370000
  4009c6:	6213      	str	r3, [r2, #32]
	while (!(PMC->PMC_SR & PMC_SR_MOSCSELS));
  4009c8:	6e93      	ldr	r3, [r2, #104]	; 0x68
  4009ca:	f413 3f80 	tst.w	r3, #65536	; 0x10000
  4009ce:	d0fb      	beq.n	4009c8 <pmc_sleep+0xc4>
	EFC0->EEFC_FMR = fmr & (~EEFC_FMR_FWS_Msk);
  4009d0:	f428 6370 	bic.w	r3, r8, #3840	; 0xf00
  4009d4:	4a58      	ldr	r2, [pc, #352]	; (400b38 <pmc_sleep+0x234>)
  4009d6:	6013      	str	r3, [r2, #0]
	if (disable_xtal) {
  4009d8:	2c04      	cmp	r4, #4
  4009da:	d05c      	beq.n	400a96 <pmc_sleep+0x192>
				&fmr1,
#endif
				(sleep_mode == SAM_PM_SMODE_WAIT));

		/* Enter wait mode */
		cpu_irq_enable();
  4009dc:	4c52      	ldr	r4, [pc, #328]	; (400b28 <pmc_sleep+0x224>)
  4009de:	2301      	movs	r3, #1
  4009e0:	7023      	strb	r3, [r4, #0]
  4009e2:	f3bf 8f5f 	dmb	sy
  __ASM volatile ("cpsie i" : : : "memory");
  4009e6:	b662      	cpsie	i

		pmc_enable_waitmode();
  4009e8:	4b57      	ldr	r3, [pc, #348]	; (400b48 <pmc_sleep+0x244>)
  4009ea:	4798      	blx	r3
  __ASM volatile ("cpsid i" : : : "memory");
  4009ec:	b672      	cpsid	i
  4009ee:	f3bf 8f5f 	dmb	sy

		cpu_irq_disable();
  4009f2:	2300      	movs	r3, #0
  4009f4:	7023      	strb	r3, [r4, #0]
	if (CKGR_MOR_MOSCXTBY == (osc_setting & CKGR_MOR_MOSCXTBY)) {
  4009f6:	f017 0f02 	tst.w	r7, #2
  4009fa:	d055      	beq.n	400aa8 <pmc_sleep+0x1a4>
		PMC->CKGR_MOR = (PMC->CKGR_MOR & ~CKGR_MOR_MOSCXTEN) |
  4009fc:	4a4d      	ldr	r2, [pc, #308]	; (400b34 <pmc_sleep+0x230>)
  4009fe:	6a13      	ldr	r3, [r2, #32]
				CKGR_MOR_KEY_PASSWD | CKGR_MOR_MOSCXTBY |
  400a00:	4952      	ldr	r1, [pc, #328]	; (400b4c <pmc_sleep+0x248>)
  400a02:	4019      	ands	r1, r3
  400a04:	4b52      	ldr	r3, [pc, #328]	; (400b50 <pmc_sleep+0x24c>)
  400a06:	430b      	orrs	r3, r1
		PMC->CKGR_MOR = (PMC->CKGR_MOR & ~CKGR_MOR_MOSCXTEN) |
  400a08:	6213      	str	r3, [r2, #32]
		PMC->CKGR_MOR = (PMC->CKGR_MOR & ~CKGR_MOR_MOSCRCEN &
  400a0a:	6a11      	ldr	r1, [r2, #32]
				| CKGR_MOR_KEY_PASSWD;
  400a0c:	4b51      	ldr	r3, [pc, #324]	; (400b54 <pmc_sleep+0x250>)
  400a0e:	400b      	ands	r3, r1
  400a10:	f443 135c 	orr.w	r3, r3, #3604480	; 0x370000
		PMC->CKGR_MOR = (PMC->CKGR_MOR & ~CKGR_MOR_MOSCRCEN &
  400a14:	6213      	str	r3, [r2, #32]
	if (pll0_setting & CKGR_PLLAR_MULA_Msk) {
  400a16:	4b50      	ldr	r3, [pc, #320]	; (400b58 <pmc_sleep+0x254>)
  400a18:	4033      	ands	r3, r6
  400a1a:	2b00      	cmp	r3, #0
  400a1c:	d06e      	beq.n	400afc <pmc_sleep+0x1f8>
		PMC->CKGR_PLLAR = CKGR_PLLAR_ONE | pll0_setting;
  400a1e:	f046 5600 	orr.w	r6, r6, #536870912	; 0x20000000
  400a22:	4b44      	ldr	r3, [pc, #272]	; (400b34 <pmc_sleep+0x230>)
  400a24:	629e      	str	r6, [r3, #40]	; 0x28
		pll_sr |= PMC_SR_LOCKA;
  400a26:	2102      	movs	r1, #2
	switch(mck_setting & PMC_MCKR_CSS_Msk) {
  400a28:	f1b9 0f02 	cmp.w	r9, #2
  400a2c:	d104      	bne.n	400a38 <pmc_sleep+0x134>
		while (!(PMC->PMC_SR & PMC_SR_LOCKA));
  400a2e:	4a41      	ldr	r2, [pc, #260]	; (400b34 <pmc_sleep+0x230>)
  400a30:	6e93      	ldr	r3, [r2, #104]	; 0x68
  400a32:	f013 0f02 	tst.w	r3, #2
  400a36:	d0fb      	beq.n	400a30 <pmc_sleep+0x12c>
	mckr = PMC->PMC_MCKR;
  400a38:	4a3e      	ldr	r2, [pc, #248]	; (400b34 <pmc_sleep+0x230>)
  400a3a:	6b13      	ldr	r3, [r2, #48]	; 0x30
	PMC->PMC_MCKR = (mckr & ~PMC_MCKR_PRES_Msk)
  400a3c:	f023 0370 	bic.w	r3, r3, #112	; 0x70
		| (mck_setting & PMC_MCKR_PRES_Msk);
  400a40:	f005 0070 	and.w	r0, r5, #112	; 0x70
  400a44:	4303      	orrs	r3, r0
	PMC->PMC_MCKR = (mckr & ~PMC_MCKR_PRES_Msk)
  400a46:	6313      	str	r3, [r2, #48]	; 0x30
	while (!(PMC->PMC_SR & PMC_SR_MCKRDY));
  400a48:	6e93      	ldr	r3, [r2, #104]	; 0x68
  400a4a:	f013 0f08 	tst.w	r3, #8
  400a4e:	d0fb      	beq.n	400a48 <pmc_sleep+0x144>
	EFC0->EEFC_FMR = fmr_setting;
  400a50:	4b39      	ldr	r3, [pc, #228]	; (400b38 <pmc_sleep+0x234>)
  400a52:	f8c3 8000 	str.w	r8, [r3]
	PMC->PMC_MCKR = mck_setting;
  400a56:	f5a3 63c0 	sub.w	r3, r3, #1536	; 0x600
  400a5a:	631d      	str	r5, [r3, #48]	; 0x30
	while (!(PMC->PMC_SR & PMC_SR_MCKRDY));
  400a5c:	461a      	mov	r2, r3
  400a5e:	6e93      	ldr	r3, [r2, #104]	; 0x68
  400a60:	f013 0f08 	tst.w	r3, #8
  400a64:	d0fb      	beq.n	400a5e <pmc_sleep+0x15a>
	while (!(PMC->PMC_SR & pll_sr));
  400a66:	4a33      	ldr	r2, [pc, #204]	; (400b34 <pmc_sleep+0x230>)
  400a68:	6e93      	ldr	r3, [r2, #104]	; 0x68
  400a6a:	420b      	tst	r3, r1
  400a6c:	d0fc      	beq.n	400a68 <pmc_sleep+0x164>

#if (SAM4C || SAM4CM || SAM4CP)
		/* Restore the sub-system 1 */
		PMC->PMC_SCER = cpclk_backup | PMC_SCER_CPKEY_PASSWD;
#endif
		b_is_sleep_clock_used = false;
  400a6e:	2200      	movs	r2, #0
  400a70:	4b2f      	ldr	r3, [pc, #188]	; (400b30 <pmc_sleep+0x22c>)
  400a72:	701a      	strb	r2, [r3, #0]
		if (callback_clocks_restored) {
  400a74:	4b39      	ldr	r3, [pc, #228]	; (400b5c <pmc_sleep+0x258>)
  400a76:	681b      	ldr	r3, [r3, #0]
  400a78:	b11b      	cbz	r3, 400a82 <pmc_sleep+0x17e>
			callback_clocks_restored();
  400a7a:	4798      	blx	r3
			callback_clocks_restored = NULL;
  400a7c:	2200      	movs	r2, #0
  400a7e:	4b37      	ldr	r3, [pc, #220]	; (400b5c <pmc_sleep+0x258>)
  400a80:	601a      	str	r2, [r3, #0]
		}
		cpu_irq_enable();
  400a82:	2201      	movs	r2, #1
  400a84:	4b28      	ldr	r3, [pc, #160]	; (400b28 <pmc_sleep+0x224>)
  400a86:	701a      	strb	r2, [r3, #0]
  400a88:	f3bf 8f5f 	dmb	sy
  __ASM volatile ("cpsie i" : : : "memory");
  400a8c:	b662      	cpsie	i
  400a8e:	e8bd 83f8 	ldmia.w	sp!, {r3, r4, r5, r6, r7, r8, r9, pc}
	uint32_t mckr = PMC->PMC_MCKR;
  400a92:	4629      	mov	r1, r5
  400a94:	e77e      	b.n	400994 <pmc_sleep+0x90>
		PMC->CKGR_MOR = (PMC->CKGR_MOR & ~CKGR_MOR_MOSCXTEN) |
  400a96:	f5a2 62c0 	sub.w	r2, r2, #1536	; 0x600
  400a9a:	6a11      	ldr	r1, [r2, #32]
  400a9c:	4b30      	ldr	r3, [pc, #192]	; (400b60 <pmc_sleep+0x25c>)
  400a9e:	400b      	ands	r3, r1
  400aa0:	f443 135c 	orr.w	r3, r3, #3604480	; 0x370000
  400aa4:	6213      	str	r3, [r2, #32]
  400aa6:	e799      	b.n	4009dc <pmc_sleep+0xd8>
	} else if (CKGR_MOR_MOSCXTEN == (osc_setting & CKGR_MOR_MOSCXTEN)) {
  400aa8:	f017 0f01 	tst.w	r7, #1
  400aac:	d0b3      	beq.n	400a16 <pmc_sleep+0x112>
		if (!(PMC->CKGR_MOR & CKGR_MOR_MOSCXTEN)) {
  400aae:	4b21      	ldr	r3, [pc, #132]	; (400b34 <pmc_sleep+0x230>)
  400ab0:	6a1b      	ldr	r3, [r3, #32]
  400ab2:	f013 0f01 	tst.w	r3, #1
  400ab6:	d10b      	bne.n	400ad0 <pmc_sleep+0x1cc>
			PMC->CKGR_MOR = (PMC->CKGR_MOR & ~CKGR_MOR_MOSCXTBY) |
  400ab8:	491e      	ldr	r1, [pc, #120]	; (400b34 <pmc_sleep+0x230>)
  400aba:	6a0b      	ldr	r3, [r1, #32]
					CKGR_MOR_KEY_PASSWD | CKGR_MOR_MOSCXTEN;
  400abc:	4a29      	ldr	r2, [pc, #164]	; (400b64 <pmc_sleep+0x260>)
  400abe:	401a      	ands	r2, r3
  400ac0:	4b29      	ldr	r3, [pc, #164]	; (400b68 <pmc_sleep+0x264>)
  400ac2:	4313      	orrs	r3, r2
			PMC->CKGR_MOR = (PMC->CKGR_MOR & ~CKGR_MOR_MOSCXTBY) |
  400ac4:	620b      	str	r3, [r1, #32]
			while (!(PMC->PMC_SR & PMC_SR_MOSCXTS));
  400ac6:	460a      	mov	r2, r1
  400ac8:	6e93      	ldr	r3, [r2, #104]	; 0x68
  400aca:	f013 0f01 	tst.w	r3, #1
  400ace:	d0fb      	beq.n	400ac8 <pmc_sleep+0x1c4>
		if (!(PMC->CKGR_MOR & CKGR_MOR_MOSCSEL)) {
  400ad0:	4b18      	ldr	r3, [pc, #96]	; (400b34 <pmc_sleep+0x230>)
  400ad2:	6a1b      	ldr	r3, [r3, #32]
  400ad4:	f013 7f80 	tst.w	r3, #16777216	; 0x1000000
  400ad8:	d108      	bne.n	400aec <pmc_sleep+0x1e8>
			PMC->CKGR_MOR |= CKGR_MOR_KEY_PASSWD | CKGR_MOR_MOSCSEL;
  400ada:	4a16      	ldr	r2, [pc, #88]	; (400b34 <pmc_sleep+0x230>)
  400adc:	6a11      	ldr	r1, [r2, #32]
  400ade:	4b23      	ldr	r3, [pc, #140]	; (400b6c <pmc_sleep+0x268>)
  400ae0:	430b      	orrs	r3, r1
  400ae2:	6213      	str	r3, [r2, #32]
			while (!(PMC->PMC_SR & PMC_SR_MOSCSELS));
  400ae4:	6e93      	ldr	r3, [r2, #104]	; 0x68
  400ae6:	f413 3f80 	tst.w	r3, #65536	; 0x10000
  400aea:	d0fb      	beq.n	400ae4 <pmc_sleep+0x1e0>
		PMC->CKGR_MOR = (PMC->CKGR_MOR & ~CKGR_MOR_MOSCRCEN &
  400aec:	4a11      	ldr	r2, [pc, #68]	; (400b34 <pmc_sleep+0x230>)
  400aee:	6a11      	ldr	r1, [r2, #32]
					| CKGR_MOR_KEY_PASSWD;
  400af0:	4b18      	ldr	r3, [pc, #96]	; (400b54 <pmc_sleep+0x250>)
  400af2:	400b      	ands	r3, r1
  400af4:	f443 135c 	orr.w	r3, r3, #3604480	; 0x370000
		PMC->CKGR_MOR = (PMC->CKGR_MOR & ~CKGR_MOR_MOSCRCEN &
  400af8:	6213      	str	r3, [r2, #32]
  400afa:	e78c      	b.n	400a16 <pmc_sleep+0x112>
	uint32_t pll_sr = 0;
  400afc:	2100      	movs	r1, #0
  400afe:	e793      	b.n	400a28 <pmc_sleep+0x124>

		break;
	}
#if (!(SAMG51 || SAMG53 || SAMG54))
	case SAM_PM_SMODE_BACKUP:
		SCB->SCR |= SCR_SLEEPDEEP;
  400b00:	4a08      	ldr	r2, [pc, #32]	; (400b24 <pmc_sleep+0x220>)
  400b02:	6913      	ldr	r3, [r2, #16]
  400b04:	f043 0304 	orr.w	r3, r3, #4
  400b08:	6113      	str	r3, [r2, #16]
#if (SAM4S || SAM4E || SAM4N || SAM4C || SAM4CM || SAM4CP || SAMG55 || SAMV71 || SAMV70 || SAMS70 || SAME70)
		SUPC->SUPC_CR = SUPC_CR_KEY_PASSWD | SUPC_CR_VROFF_STOP_VREG;
  400b0a:	4a19      	ldr	r2, [pc, #100]	; (400b70 <pmc_sleep+0x26c>)
  400b0c:	4b19      	ldr	r3, [pc, #100]	; (400b74 <pmc_sleep+0x270>)
  400b0e:	601a      	str	r2, [r3, #0]
		cpu_irq_enable();
  400b10:	2201      	movs	r2, #1
  400b12:	4b05      	ldr	r3, [pc, #20]	; (400b28 <pmc_sleep+0x224>)
  400b14:	701a      	strb	r2, [r3, #0]
  400b16:	f3bf 8f5f 	dmb	sy
  400b1a:	b662      	cpsie	i
  __ASM volatile ("wfi");
  400b1c:	bf30      	wfi
  400b1e:	e8bd 83f8 	ldmia.w	sp!, {r3, r4, r5, r6, r7, r8, r9, pc}
  400b22:	bf00      	nop
  400b24:	e000ed00 	.word	0xe000ed00
  400b28:	2040000a 	.word	0x2040000a
  400b2c:	004008b5 	.word	0x004008b5
  400b30:	20400a50 	.word	0x20400a50
  400b34:	400e0600 	.word	0x400e0600
  400b38:	400e0c00 	.word	0x400e0c00
  400b3c:	00370008 	.word	0x00370008
  400b40:	00400841 	.word	0x00400841
  400b44:	fec8ffff 	.word	0xfec8ffff
  400b48:	004008b9 	.word	0x004008b9
  400b4c:	fec8fffc 	.word	0xfec8fffc
  400b50:	01370002 	.word	0x01370002
  400b54:	ffc8ff87 	.word	0xffc8ff87
  400b58:	07ff0000 	.word	0x07ff0000
  400b5c:	20400a54 	.word	0x20400a54
  400b60:	ffc8fffe 	.word	0xffc8fffe
  400b64:	ffc8fffc 	.word	0xffc8fffc
  400b68:	00370001 	.word	0x00370001
  400b6c:	01370000 	.word	0x01370000
  400b70:	a5000004 	.word	0xa5000004
  400b74:	400e1810 	.word	0x400e1810

00400b78 <uart_write>:
 * \retval 1 I/O Failure, UART is not ready.
 */
uint32_t uart_write(Uart *p_uart, const uint8_t uc_data)
{
	/* Check if the transmitter is ready */
	if (!(p_uart->UART_SR & UART_SR_TXRDY))
  400b78:	6943      	ldr	r3, [r0, #20]
  400b7a:	f013 0f02 	tst.w	r3, #2
  400b7e:	d002      	beq.n	400b86 <uart_write+0xe>
		return 1;

	/* Send character */
	p_uart->UART_THR = uc_data;
  400b80:	61c1      	str	r1, [r0, #28]
	return 0;
  400b82:	2000      	movs	r0, #0
  400b84:	4770      	bx	lr
		return 1;
  400b86:	2001      	movs	r0, #1
}
  400b88:	4770      	bx	lr

00400b8a <uart_read>:
 * \retval 1 I/O Failure, UART is not ready.
 */
uint32_t uart_read(Uart *p_uart, uint8_t *puc_data)
{
	/* Check if the receiver is ready */
	if ((p_uart->UART_SR & UART_SR_RXRDY) == 0)
  400b8a:	6943      	ldr	r3, [r0, #20]
  400b8c:	f013 0f01 	tst.w	r3, #1
  400b90:	d003      	beq.n	400b9a <uart_read+0x10>
		return 1;

	/* Read character */
	*puc_data = (uint8_t) p_uart->UART_RHR;
  400b92:	6983      	ldr	r3, [r0, #24]
  400b94:	700b      	strb	r3, [r1, #0]
	return 0;
  400b96:	2000      	movs	r0, #0
  400b98:	4770      	bx	lr
		return 1;
  400b9a:	2001      	movs	r0, #1
}
  400b9c:	4770      	bx	lr

00400b9e <usart_set_async_baudrate>:
 * \retval 1 Baud rate set point is out of range for the given input clock
 * frequency.
 */
uint32_t usart_set_async_baudrate(Usart *p_usart,
		uint32_t baudrate, uint32_t ul_mck)
{
  400b9e:	b410      	push	{r4}
	uint32_t cd_fp;
	uint32_t cd;
	uint32_t fp;

	/* Calculate the receiver sampling divide of baudrate clock. */
	if (ul_mck >= HIGH_FRQ_SAMPLE_DIV * baudrate) {
  400ba0:	010b      	lsls	r3, r1, #4
  400ba2:	4293      	cmp	r3, r2
  400ba4:	d914      	bls.n	400bd0 <usart_set_async_baudrate+0x32>
	} else {
		over = LOW_FRQ_SAMPLE_DIV;
	}

	/* Calculate clock divider according to the fraction calculated formula. */
	cd_fp = (8 * ul_mck + (over * baudrate) / 2) / (over * baudrate);
  400ba6:	00c9      	lsls	r1, r1, #3
  400ba8:	084b      	lsrs	r3, r1, #1
  400baa:	eb03 02c2 	add.w	r2, r3, r2, lsl #3
  400bae:	fbb2 f2f1 	udiv	r2, r2, r1
	cd = cd_fp >> 3;
  400bb2:	08d3      	lsrs	r3, r2, #3
	fp = cd_fp & 0x07;
	if (cd < MIN_CD_VALUE || cd > MAX_CD_VALUE) {
  400bb4:	1e5c      	subs	r4, r3, #1
  400bb6:	f64f 71fe 	movw	r1, #65534	; 0xfffe
  400bba:	428c      	cmp	r4, r1
  400bbc:	d901      	bls.n	400bc2 <usart_set_async_baudrate+0x24>
		return 1;
  400bbe:	2001      	movs	r0, #1
  400bc0:	e017      	b.n	400bf2 <usart_set_async_baudrate+0x54>
	}

	/* Configure the OVER bit in MR register. */
	if (over == 8) {
		p_usart->US_MR |= US_MR_OVER;
  400bc2:	6841      	ldr	r1, [r0, #4]
  400bc4:	f441 2100 	orr.w	r1, r1, #524288	; 0x80000
  400bc8:	6041      	str	r1, [r0, #4]
  400bca:	e00c      	b.n	400be6 <usart_set_async_baudrate+0x48>
		return 1;
  400bcc:	2001      	movs	r0, #1
  400bce:	e010      	b.n	400bf2 <usart_set_async_baudrate+0x54>
	cd_fp = (8 * ul_mck + (over * baudrate) / 2) / (over * baudrate);
  400bd0:	0859      	lsrs	r1, r3, #1
  400bd2:	eb01 02c2 	add.w	r2, r1, r2, lsl #3
  400bd6:	fbb2 f2f3 	udiv	r2, r2, r3
	cd = cd_fp >> 3;
  400bda:	08d3      	lsrs	r3, r2, #3
	if (cd < MIN_CD_VALUE || cd > MAX_CD_VALUE) {
  400bdc:	1e5c      	subs	r4, r3, #1
  400bde:	f64f 71fe 	movw	r1, #65534	; 0xfffe
  400be2:	428c      	cmp	r4, r1
  400be4:	d8f2      	bhi.n	400bcc <usart_set_async_baudrate+0x2e>
	}

	/* Configure the baudrate generate register. */
	p_usart->US_BRGR = (cd << US_BRGR_CD_Pos) | (fp << US_BRGR_FP_Pos);
  400be6:	0412      	lsls	r2, r2, #16
  400be8:	f402 22e0 	and.w	r2, r2, #458752	; 0x70000
  400bec:	431a      	orrs	r2, r3
  400bee:	6202      	str	r2, [r0, #32]

	return 0;
  400bf0:	2000      	movs	r0, #0
}
  400bf2:	f85d 4b04 	ldr.w	r4, [sp], #4
  400bf6:	4770      	bx	lr

00400bf8 <usart_reset>:
 *
 * \param p_usart Pointer to a USART instance.
 */
void usart_disable_writeprotect(Usart *p_usart)
{
	p_usart->US_WPMR = US_WPMR_WPKEY_PASSWD;
  400bf8:	4b08      	ldr	r3, [pc, #32]	; (400c1c <usart_reset+0x24>)
  400bfa:	f8c0 30e4 	str.w	r3, [r0, #228]	; 0xe4
	p_usart->US_MR = 0;
  400bfe:	2300      	movs	r3, #0
  400c00:	6043      	str	r3, [r0, #4]
	p_usart->US_RTOR = 0;
  400c02:	6243      	str	r3, [r0, #36]	; 0x24
	p_usart->US_TTGR = 0;
  400c04:	6283      	str	r3, [r0, #40]	; 0x28
	p_usart->US_CR = US_CR_RSTTX | US_CR_TXDIS;
  400c06:	2388      	movs	r3, #136	; 0x88
  400c08:	6003      	str	r3, [r0, #0]
	p_usart->US_CR = US_CR_RSTRX | US_CR_RXDIS;
  400c0a:	2324      	movs	r3, #36	; 0x24
  400c0c:	6003      	str	r3, [r0, #0]
	p_usart->US_CR = US_CR_RSTSTA;
  400c0e:	f44f 7380 	mov.w	r3, #256	; 0x100
  400c12:	6003      	str	r3, [r0, #0]
	p_usart->US_CR = US_CR_RTSDIS;
  400c14:	f44f 2300 	mov.w	r3, #524288	; 0x80000
  400c18:	6003      	str	r3, [r0, #0]
  400c1a:	4770      	bx	lr
  400c1c:	55534100 	.word	0x55534100

00400c20 <usart_init_rs232>:
{
  400c20:	b570      	push	{r4, r5, r6, lr}
  400c22:	4605      	mov	r5, r0
  400c24:	460c      	mov	r4, r1
  400c26:	4616      	mov	r6, r2
	usart_reset(p_usart);
  400c28:	4b0f      	ldr	r3, [pc, #60]	; (400c68 <usart_init_rs232+0x48>)
  400c2a:	4798      	blx	r3
	ul_reg_val = 0;
  400c2c:	2200      	movs	r2, #0
  400c2e:	4b0f      	ldr	r3, [pc, #60]	; (400c6c <usart_init_rs232+0x4c>)
  400c30:	601a      	str	r2, [r3, #0]
	if (!p_usart_opt || usart_set_async_baudrate(p_usart,
  400c32:	b1a4      	cbz	r4, 400c5e <usart_init_rs232+0x3e>
  400c34:	4632      	mov	r2, r6
  400c36:	6821      	ldr	r1, [r4, #0]
  400c38:	4628      	mov	r0, r5
  400c3a:	4b0d      	ldr	r3, [pc, #52]	; (400c70 <usart_init_rs232+0x50>)
  400c3c:	4798      	blx	r3
  400c3e:	4602      	mov	r2, r0
  400c40:	b978      	cbnz	r0, 400c62 <usart_init_rs232+0x42>
	ul_reg_val |= p_usart_opt->char_length | p_usart_opt->parity_type |
  400c42:	6863      	ldr	r3, [r4, #4]
  400c44:	68a1      	ldr	r1, [r4, #8]
  400c46:	430b      	orrs	r3, r1
  400c48:	6921      	ldr	r1, [r4, #16]
  400c4a:	430b      	orrs	r3, r1
			p_usart_opt->channel_mode | p_usart_opt->stop_bits;
  400c4c:	68e1      	ldr	r1, [r4, #12]
  400c4e:	430b      	orrs	r3, r1
	ul_reg_val |= p_usart_opt->char_length | p_usart_opt->parity_type |
  400c50:	4906      	ldr	r1, [pc, #24]	; (400c6c <usart_init_rs232+0x4c>)
  400c52:	600b      	str	r3, [r1, #0]
	p_usart->US_MR |= ul_reg_val;
  400c54:	6869      	ldr	r1, [r5, #4]
  400c56:	430b      	orrs	r3, r1
  400c58:	606b      	str	r3, [r5, #4]
}
  400c5a:	4610      	mov	r0, r2
  400c5c:	bd70      	pop	{r4, r5, r6, pc}
		return 1;
  400c5e:	2201      	movs	r2, #1
  400c60:	e7fb      	b.n	400c5a <usart_init_rs232+0x3a>
  400c62:	2201      	movs	r2, #1
  400c64:	e7f9      	b.n	400c5a <usart_init_rs232+0x3a>
  400c66:	bf00      	nop
  400c68:	00400bf9 	.word	0x00400bf9
  400c6c:	20400a58 	.word	0x20400a58
  400c70:	00400b9f 	.word	0x00400b9f

00400c74 <usart_enable_tx>:
	p_usart->US_CR = US_CR_TXEN;
  400c74:	2340      	movs	r3, #64	; 0x40
  400c76:	6003      	str	r3, [r0, #0]
  400c78:	4770      	bx	lr

00400c7a <usart_enable_rx>:
	p_usart->US_CR = US_CR_RXEN;
  400c7a:	2310      	movs	r3, #16
  400c7c:	6003      	str	r3, [r0, #0]
  400c7e:	4770      	bx	lr

00400c80 <usart_enable_interrupt>:
	p_usart->US_IER = ul_sources;
  400c80:	6081      	str	r1, [r0, #8]
  400c82:	4770      	bx	lr

00400c84 <usart_get_status>:
	return p_usart->US_CSR;
  400c84:	6940      	ldr	r0, [r0, #20]
}
  400c86:	4770      	bx	lr

00400c88 <usart_write>:
	if (!(p_usart->US_CSR & US_CSR_TXRDY)) {
  400c88:	6943      	ldr	r3, [r0, #20]
  400c8a:	f013 0f02 	tst.w	r3, #2
  400c8e:	d004      	beq.n	400c9a <usart_write+0x12>
	p_usart->US_THR = US_THR_TXCHR(c);
  400c90:	f3c1 0108 	ubfx	r1, r1, #0, #9
  400c94:	61c1      	str	r1, [r0, #28]
	return 0;
  400c96:	2000      	movs	r0, #0
  400c98:	4770      	bx	lr
		return 1;
  400c9a:	2001      	movs	r0, #1
}
  400c9c:	4770      	bx	lr

00400c9e <usart_read>:
	if (!(p_usart->US_CSR & US_CSR_RXRDY)) {
  400c9e:	6943      	ldr	r3, [r0, #20]
  400ca0:	f013 0f01 	tst.w	r3, #1
  400ca4:	d005      	beq.n	400cb2 <usart_read+0x14>
	*c = p_usart->US_RHR & US_RHR_RXCHR_Msk;
  400ca6:	6983      	ldr	r3, [r0, #24]
  400ca8:	f3c3 0308 	ubfx	r3, r3, #0, #9
  400cac:	600b      	str	r3, [r1, #0]
	return 0;
  400cae:	2000      	movs	r0, #0
  400cb0:	4770      	bx	lr
		return 1;
  400cb2:	2001      	movs	r0, #1
}
  400cb4:	4770      	bx	lr

00400cb6 <Dummy_Handler>:

/**
 * \brief Default interrupt handler for unused IRQs.
 */
void Dummy_Handler(void)
{
  400cb6:	e7fe      	b.n	400cb6 <Dummy_Handler>

00400cb8 <Reset_Handler>:
{
  400cb8:	b500      	push	{lr}
  400cba:	b083      	sub	sp, #12
        if (pSrc != pDest) {
  400cbc:	4b25      	ldr	r3, [pc, #148]	; (400d54 <Reset_Handler+0x9c>)
  400cbe:	4a26      	ldr	r2, [pc, #152]	; (400d58 <Reset_Handler+0xa0>)
  400cc0:	429a      	cmp	r2, r3
  400cc2:	d010      	beq.n	400ce6 <Reset_Handler+0x2e>
                for (; pDest < &_erelocate;) {
  400cc4:	4b25      	ldr	r3, [pc, #148]	; (400d5c <Reset_Handler+0xa4>)
  400cc6:	4a23      	ldr	r2, [pc, #140]	; (400d54 <Reset_Handler+0x9c>)
  400cc8:	429a      	cmp	r2, r3
  400cca:	d20c      	bcs.n	400ce6 <Reset_Handler+0x2e>
  400ccc:	3b01      	subs	r3, #1
  400cce:	1a9b      	subs	r3, r3, r2
  400cd0:	f023 0303 	bic.w	r3, r3, #3
  400cd4:	3304      	adds	r3, #4
  400cd6:	4413      	add	r3, r2
  400cd8:	491f      	ldr	r1, [pc, #124]	; (400d58 <Reset_Handler+0xa0>)
                        *pDest++ = *pSrc++;
  400cda:	f851 0b04 	ldr.w	r0, [r1], #4
  400cde:	f842 0b04 	str.w	r0, [r2], #4
                for (; pDest < &_erelocate;) {
  400ce2:	429a      	cmp	r2, r3
  400ce4:	d1f9      	bne.n	400cda <Reset_Handler+0x22>
        for (pDest = &_szero; pDest < &_ezero;) {
  400ce6:	4b1e      	ldr	r3, [pc, #120]	; (400d60 <Reset_Handler+0xa8>)
  400ce8:	4a1e      	ldr	r2, [pc, #120]	; (400d64 <Reset_Handler+0xac>)
  400cea:	429a      	cmp	r2, r3
  400cec:	d20a      	bcs.n	400d04 <Reset_Handler+0x4c>
  400cee:	3b01      	subs	r3, #1
  400cf0:	1a9b      	subs	r3, r3, r2
  400cf2:	f023 0303 	bic.w	r3, r3, #3
  400cf6:	3304      	adds	r3, #4
  400cf8:	4413      	add	r3, r2
                *pDest++ = 0;
  400cfa:	2100      	movs	r1, #0
  400cfc:	f842 1b04 	str.w	r1, [r2], #4
        for (pDest = &_szero; pDest < &_ezero;) {
  400d00:	4293      	cmp	r3, r2
  400d02:	d1fb      	bne.n	400cfc <Reset_Handler+0x44>
        SCB->VTOR = ((uint32_t) pSrc & SCB_VTOR_TBLOFF_Msk);
  400d04:	4a18      	ldr	r2, [pc, #96]	; (400d68 <Reset_Handler+0xb0>)
  400d06:	4b19      	ldr	r3, [pc, #100]	; (400d6c <Reset_Handler+0xb4>)
  400d08:	f023 037f 	bic.w	r3, r3, #127	; 0x7f
  400d0c:	6093      	str	r3, [r2, #8]
 */
__attribute__( ( always_inline ) ) __STATIC_INLINE uint32_t __get_PRIMASK(void)
{
  uint32_t result;

  __ASM volatile ("MRS %0, primask" : "=r" (result) );
  400d0e:	f3ef 8310 	mrs	r3, PRIMASK
static volatile uint32_t cpu_irq_critical_section_counter;
static volatile bool     cpu_irq_prev_interrupt_state;

static inline irqflags_t cpu_irq_save(void)
{
	volatile irqflags_t flags = cpu_irq_is_enabled();
  400d12:	fab3 f383 	clz	r3, r3
  400d16:	095b      	lsrs	r3, r3, #5
  400d18:	9301      	str	r3, [sp, #4]
  __ASM volatile ("cpsid i" : : : "memory");
  400d1a:	b672      	cpsid	i
  __ASM volatile ("dmb");
  400d1c:	f3bf 8f5f 	dmb	sy
	cpu_irq_disable();
  400d20:	2200      	movs	r2, #0
  400d22:	4b13      	ldr	r3, [pc, #76]	; (400d70 <Reset_Handler+0xb8>)
  400d24:	701a      	strb	r2, [r3, #0]
	return flags;
  400d26:	9901      	ldr	r1, [sp, #4]
 */
__always_inline static void fpu_enable(void)
{
	irqflags_t flags;
	flags = cpu_irq_save();
	REG_CPACR |=  (0xFu << 20);
  400d28:	4a12      	ldr	r2, [pc, #72]	; (400d74 <Reset_Handler+0xbc>)
  400d2a:	6813      	ldr	r3, [r2, #0]
  400d2c:	f443 0370 	orr.w	r3, r3, #15728640	; 0xf00000
  400d30:	6013      	str	r3, [r2, #0]
  __ASM volatile ("dsb");
  400d32:	f3bf 8f4f 	dsb	sy
  __ASM volatile ("isb");
  400d36:	f3bf 8f6f 	isb	sy
	return (flags);
}

static inline void cpu_irq_restore(irqflags_t flags)
{
	if (cpu_irq_is_enabled_flags(flags))
  400d3a:	b129      	cbz	r1, 400d48 <Reset_Handler+0x90>
		cpu_irq_enable();
  400d3c:	2201      	movs	r2, #1
  400d3e:	4b0c      	ldr	r3, [pc, #48]	; (400d70 <Reset_Handler+0xb8>)
  400d40:	701a      	strb	r2, [r3, #0]
  __ASM volatile ("dmb");
  400d42:	f3bf 8f5f 	dmb	sy
  __ASM volatile ("cpsie i" : : : "memory");
  400d46:	b662      	cpsie	i
        __libc_init_array();
  400d48:	4b0b      	ldr	r3, [pc, #44]	; (400d78 <Reset_Handler+0xc0>)
  400d4a:	4798      	blx	r3
        main();
  400d4c:	4b0b      	ldr	r3, [pc, #44]	; (400d7c <Reset_Handler+0xc4>)
  400d4e:	4798      	blx	r3
  400d50:	e7fe      	b.n	400d50 <Reset_Handler+0x98>
  400d52:	bf00      	nop
  400d54:	20400000 	.word	0x20400000
  400d58:	0040600c 	.word	0x0040600c
  400d5c:	204009c0 	.word	0x204009c0
  400d60:	20400c50 	.word	0x20400c50
  400d64:	204009c0 	.word	0x204009c0
  400d68:	e000ed00 	.word	0xe000ed00
  400d6c:	00400000 	.word	0x00400000
  400d70:	2040000a 	.word	0x2040000a
  400d74:	e000ed88 	.word	0xe000ed88
  400d78:	00402dfd 	.word	0x00402dfd
  400d7c:	00402bb9 	.word	0x00402bb9

00400d80 <SystemCoreClockUpdate>:
}

void SystemCoreClockUpdate( void )
{
  /* Determine clock frequency according to clock register values */
  switch (PMC->PMC_MCKR & (uint32_t) PMC_MCKR_CSS_Msk)
  400d80:	4b3b      	ldr	r3, [pc, #236]	; (400e70 <SystemCoreClockUpdate+0xf0>)
  400d82:	6b1b      	ldr	r3, [r3, #48]	; 0x30
  400d84:	f003 0303 	and.w	r3, r3, #3
  400d88:	2b01      	cmp	r3, #1
  400d8a:	d01d      	beq.n	400dc8 <SystemCoreClockUpdate+0x48>
  400d8c:	b183      	cbz	r3, 400db0 <SystemCoreClockUpdate+0x30>
  400d8e:	2b02      	cmp	r3, #2
  400d90:	d036      	beq.n	400e00 <SystemCoreClockUpdate+0x80>

    default:
    break;
  }

  if ( (PMC->PMC_MCKR & PMC_MCKR_PRES_Msk) == PMC_MCKR_PRES_CLK_3 )
  400d92:	4b37      	ldr	r3, [pc, #220]	; (400e70 <SystemCoreClockUpdate+0xf0>)
  400d94:	6b1b      	ldr	r3, [r3, #48]	; 0x30
  400d96:	f003 0370 	and.w	r3, r3, #112	; 0x70
  400d9a:	2b70      	cmp	r3, #112	; 0x70
  400d9c:	d05f      	beq.n	400e5e <SystemCoreClockUpdate+0xde>
  {
    SystemCoreClock /= 3U;
  }
  else
  {
    SystemCoreClock >>= ((PMC->PMC_MCKR & PMC_MCKR_PRES_Msk) >> PMC_MCKR_PRES_Pos);
  400d9e:	4b34      	ldr	r3, [pc, #208]	; (400e70 <SystemCoreClockUpdate+0xf0>)
  400da0:	6b1a      	ldr	r2, [r3, #48]	; 0x30
  400da2:	4934      	ldr	r1, [pc, #208]	; (400e74 <SystemCoreClockUpdate+0xf4>)
  400da4:	f3c2 1202 	ubfx	r2, r2, #4, #3
  400da8:	680b      	ldr	r3, [r1, #0]
  400daa:	40d3      	lsrs	r3, r2
  400dac:	600b      	str	r3, [r1, #0]
  400dae:	4770      	bx	lr
      if ( SUPC->SUPC_SR & SUPC_SR_OSCSEL )
  400db0:	4b31      	ldr	r3, [pc, #196]	; (400e78 <SystemCoreClockUpdate+0xf8>)
  400db2:	695b      	ldr	r3, [r3, #20]
  400db4:	f013 0f80 	tst.w	r3, #128	; 0x80
        SystemCoreClock = CHIP_FREQ_XTAL_32K;
  400db8:	bf14      	ite	ne
  400dba:	f44f 4200 	movne.w	r2, #32768	; 0x8000
        SystemCoreClock = CHIP_FREQ_SLCK_RC;
  400dbe:	f44f 42fa 	moveq.w	r2, #32000	; 0x7d00
  400dc2:	4b2c      	ldr	r3, [pc, #176]	; (400e74 <SystemCoreClockUpdate+0xf4>)
  400dc4:	601a      	str	r2, [r3, #0]
  400dc6:	e7e4      	b.n	400d92 <SystemCoreClockUpdate+0x12>
      if ( PMC->CKGR_MOR & CKGR_MOR_MOSCSEL )
  400dc8:	4b29      	ldr	r3, [pc, #164]	; (400e70 <SystemCoreClockUpdate+0xf0>)
  400dca:	6a1b      	ldr	r3, [r3, #32]
  400dcc:	f013 7f80 	tst.w	r3, #16777216	; 0x1000000
  400dd0:	d003      	beq.n	400dda <SystemCoreClockUpdate+0x5a>
        SystemCoreClock = CHIP_FREQ_XTAL_12M;
  400dd2:	4a2a      	ldr	r2, [pc, #168]	; (400e7c <SystemCoreClockUpdate+0xfc>)
  400dd4:	4b27      	ldr	r3, [pc, #156]	; (400e74 <SystemCoreClockUpdate+0xf4>)
  400dd6:	601a      	str	r2, [r3, #0]
  400dd8:	e7db      	b.n	400d92 <SystemCoreClockUpdate+0x12>
        SystemCoreClock = CHIP_FREQ_MAINCK_RC_4MHZ;
  400dda:	4a29      	ldr	r2, [pc, #164]	; (400e80 <SystemCoreClockUpdate+0x100>)
  400ddc:	4b25      	ldr	r3, [pc, #148]	; (400e74 <SystemCoreClockUpdate+0xf4>)
  400dde:	601a      	str	r2, [r3, #0]
        switch ( PMC->CKGR_MOR & CKGR_MOR_MOSCRCF_Msk )
  400de0:	4b23      	ldr	r3, [pc, #140]	; (400e70 <SystemCoreClockUpdate+0xf0>)
  400de2:	6a1b      	ldr	r3, [r3, #32]
  400de4:	f003 0370 	and.w	r3, r3, #112	; 0x70
  400de8:	2b10      	cmp	r3, #16
  400dea:	d005      	beq.n	400df8 <SystemCoreClockUpdate+0x78>
  400dec:	2b20      	cmp	r3, #32
  400dee:	d1d0      	bne.n	400d92 <SystemCoreClockUpdate+0x12>
            SystemCoreClock *= 3U;
  400df0:	4a22      	ldr	r2, [pc, #136]	; (400e7c <SystemCoreClockUpdate+0xfc>)
  400df2:	4b20      	ldr	r3, [pc, #128]	; (400e74 <SystemCoreClockUpdate+0xf4>)
  400df4:	601a      	str	r2, [r3, #0]
          break;
  400df6:	e7cc      	b.n	400d92 <SystemCoreClockUpdate+0x12>
            SystemCoreClock *= 2U;
  400df8:	4a22      	ldr	r2, [pc, #136]	; (400e84 <SystemCoreClockUpdate+0x104>)
  400dfa:	4b1e      	ldr	r3, [pc, #120]	; (400e74 <SystemCoreClockUpdate+0xf4>)
  400dfc:	601a      	str	r2, [r3, #0]
          break;
  400dfe:	e7c8      	b.n	400d92 <SystemCoreClockUpdate+0x12>
      if ( PMC->CKGR_MOR & CKGR_MOR_MOSCSEL )
  400e00:	4b1b      	ldr	r3, [pc, #108]	; (400e70 <SystemCoreClockUpdate+0xf0>)
  400e02:	6a1b      	ldr	r3, [r3, #32]
  400e04:	f013 7f80 	tst.w	r3, #16777216	; 0x1000000
  400e08:	d016      	beq.n	400e38 <SystemCoreClockUpdate+0xb8>
        SystemCoreClock = CHIP_FREQ_XTAL_12M ;
  400e0a:	4a1c      	ldr	r2, [pc, #112]	; (400e7c <SystemCoreClockUpdate+0xfc>)
  400e0c:	4b19      	ldr	r3, [pc, #100]	; (400e74 <SystemCoreClockUpdate+0xf4>)
  400e0e:	601a      	str	r2, [r3, #0]
      if ( (uint32_t) (PMC->PMC_MCKR & (uint32_t) PMC_MCKR_CSS_Msk) == PMC_MCKR_CSS_PLLA_CLK )
  400e10:	4b17      	ldr	r3, [pc, #92]	; (400e70 <SystemCoreClockUpdate+0xf0>)
  400e12:	6b1b      	ldr	r3, [r3, #48]	; 0x30
  400e14:	f003 0303 	and.w	r3, r3, #3
  400e18:	2b02      	cmp	r3, #2
  400e1a:	d1ba      	bne.n	400d92 <SystemCoreClockUpdate+0x12>
        SystemCoreClock *= ((((PMC->CKGR_PLLAR) & CKGR_PLLAR_MULA_Msk) >> CKGR_PLLAR_MULA_Pos) + 1U);
  400e1c:	4a14      	ldr	r2, [pc, #80]	; (400e70 <SystemCoreClockUpdate+0xf0>)
  400e1e:	6a91      	ldr	r1, [r2, #40]	; 0x28
        SystemCoreClock /= ((((PMC->CKGR_PLLAR) & CKGR_PLLAR_DIVA_Msk) >> CKGR_PLLAR_DIVA_Pos));
  400e20:	6a92      	ldr	r2, [r2, #40]	; 0x28
  400e22:	4814      	ldr	r0, [pc, #80]	; (400e74 <SystemCoreClockUpdate+0xf4>)
        SystemCoreClock *= ((((PMC->CKGR_PLLAR) & CKGR_PLLAR_MULA_Msk) >> CKGR_PLLAR_MULA_Pos) + 1U);
  400e24:	f3c1 410a 	ubfx	r1, r1, #16, #11
  400e28:	6803      	ldr	r3, [r0, #0]
  400e2a:	fb01 3303 	mla	r3, r1, r3, r3
        SystemCoreClock /= ((((PMC->CKGR_PLLAR) & CKGR_PLLAR_DIVA_Msk) >> CKGR_PLLAR_DIVA_Pos));
  400e2e:	b2d2      	uxtb	r2, r2
  400e30:	fbb3 f3f2 	udiv	r3, r3, r2
  400e34:	6003      	str	r3, [r0, #0]
  400e36:	e7ac      	b.n	400d92 <SystemCoreClockUpdate+0x12>
        SystemCoreClock = CHIP_FREQ_MAINCK_RC_4MHZ;
  400e38:	4a11      	ldr	r2, [pc, #68]	; (400e80 <SystemCoreClockUpdate+0x100>)
  400e3a:	4b0e      	ldr	r3, [pc, #56]	; (400e74 <SystemCoreClockUpdate+0xf4>)
  400e3c:	601a      	str	r2, [r3, #0]
        switch ( PMC->CKGR_MOR & CKGR_MOR_MOSCRCF_Msk )
  400e3e:	4b0c      	ldr	r3, [pc, #48]	; (400e70 <SystemCoreClockUpdate+0xf0>)
  400e40:	6a1b      	ldr	r3, [r3, #32]
  400e42:	f003 0370 	and.w	r3, r3, #112	; 0x70
  400e46:	2b10      	cmp	r3, #16
  400e48:	d005      	beq.n	400e56 <SystemCoreClockUpdate+0xd6>
  400e4a:	2b20      	cmp	r3, #32
  400e4c:	d1e0      	bne.n	400e10 <SystemCoreClockUpdate+0x90>
            SystemCoreClock *= 3U;
  400e4e:	4a0b      	ldr	r2, [pc, #44]	; (400e7c <SystemCoreClockUpdate+0xfc>)
  400e50:	4b08      	ldr	r3, [pc, #32]	; (400e74 <SystemCoreClockUpdate+0xf4>)
  400e52:	601a      	str	r2, [r3, #0]
          break;
  400e54:	e7dc      	b.n	400e10 <SystemCoreClockUpdate+0x90>
            SystemCoreClock *= 2U;
  400e56:	4a0b      	ldr	r2, [pc, #44]	; (400e84 <SystemCoreClockUpdate+0x104>)
  400e58:	4b06      	ldr	r3, [pc, #24]	; (400e74 <SystemCoreClockUpdate+0xf4>)
  400e5a:	601a      	str	r2, [r3, #0]
          break;
  400e5c:	e7d8      	b.n	400e10 <SystemCoreClockUpdate+0x90>
    SystemCoreClock /= 3U;
  400e5e:	4a05      	ldr	r2, [pc, #20]	; (400e74 <SystemCoreClockUpdate+0xf4>)
  400e60:	6813      	ldr	r3, [r2, #0]
  400e62:	4909      	ldr	r1, [pc, #36]	; (400e88 <SystemCoreClockUpdate+0x108>)
  400e64:	fba1 1303 	umull	r1, r3, r1, r3
  400e68:	085b      	lsrs	r3, r3, #1
  400e6a:	6013      	str	r3, [r2, #0]
  400e6c:	4770      	bx	lr
  400e6e:	bf00      	nop
  400e70:	400e0600 	.word	0x400e0600
  400e74:	2040000c 	.word	0x2040000c
  400e78:	400e1810 	.word	0x400e1810
  400e7c:	00b71b00 	.word	0x00b71b00
  400e80:	003d0900 	.word	0x003d0900
  400e84:	007a1200 	.word	0x007a1200
  400e88:	aaaaaaab 	.word	0xaaaaaaab

00400e8c <system_init_flash>:
 * Initialize flash.
 */
void system_init_flash( uint32_t ul_clk )
{
  /* Set FWS for embedded Flash access according to operating frequency */
  if ( ul_clk < CHIP_FREQ_FWS_0 )
  400e8c:	4b16      	ldr	r3, [pc, #88]	; (400ee8 <system_init_flash+0x5c>)
  400e8e:	4298      	cmp	r0, r3
  400e90:	d913      	bls.n	400eba <system_init_flash+0x2e>
  {
    EFC->EEFC_FMR = EEFC_FMR_FWS(0)|EEFC_FMR_CLOE;
  }
  else
  {
    if (ul_clk < CHIP_FREQ_FWS_1)
  400e92:	4b16      	ldr	r3, [pc, #88]	; (400eec <system_init_flash+0x60>)
  400e94:	4298      	cmp	r0, r3
  400e96:	d915      	bls.n	400ec4 <system_init_flash+0x38>
    {
      EFC->EEFC_FMR = EEFC_FMR_FWS(1)|EEFC_FMR_CLOE;
    }
    else
    {
      if (ul_clk < CHIP_FREQ_FWS_2)
  400e98:	4b15      	ldr	r3, [pc, #84]	; (400ef0 <system_init_flash+0x64>)
  400e9a:	4298      	cmp	r0, r3
  400e9c:	d916      	bls.n	400ecc <system_init_flash+0x40>
      {
        EFC->EEFC_FMR = EEFC_FMR_FWS(2)|EEFC_FMR_CLOE;
      }
      else
      {
        if ( ul_clk < CHIP_FREQ_FWS_3 )
  400e9e:	4b15      	ldr	r3, [pc, #84]	; (400ef4 <system_init_flash+0x68>)
  400ea0:	4298      	cmp	r0, r3
  400ea2:	d917      	bls.n	400ed4 <system_init_flash+0x48>
        {
          EFC->EEFC_FMR = EEFC_FMR_FWS(3)|EEFC_FMR_CLOE;
        }
        else
        {
          if ( ul_clk < CHIP_FREQ_FWS_4 )
  400ea4:	4b14      	ldr	r3, [pc, #80]	; (400ef8 <system_init_flash+0x6c>)
  400ea6:	4298      	cmp	r0, r3
  400ea8:	d918      	bls.n	400edc <system_init_flash+0x50>
          {
            EFC->EEFC_FMR = EEFC_FMR_FWS(4)|EEFC_FMR_CLOE;
          }
          else
          {
            if ( ul_clk < CHIP_FREQ_FWS_5 )
  400eaa:	4b14      	ldr	r3, [pc, #80]	; (400efc <system_init_flash+0x70>)
  400eac:	4298      	cmp	r0, r3
            {
              EFC->EEFC_FMR = EEFC_FMR_FWS(5)|EEFC_FMR_CLOE;
  400eae:	bf94      	ite	ls
  400eb0:	4a13      	ldrls	r2, [pc, #76]	; (400f00 <system_init_flash+0x74>)
            }
            else
            {
              EFC->EEFC_FMR = EEFC_FMR_FWS(6)|EEFC_FMR_CLOE;
  400eb2:	4a14      	ldrhi	r2, [pc, #80]	; (400f04 <system_init_flash+0x78>)
  400eb4:	4b14      	ldr	r3, [pc, #80]	; (400f08 <system_init_flash+0x7c>)
  400eb6:	601a      	str	r2, [r3, #0]
  400eb8:	4770      	bx	lr
    EFC->EEFC_FMR = EEFC_FMR_FWS(0)|EEFC_FMR_CLOE;
  400eba:	f04f 6280 	mov.w	r2, #67108864	; 0x4000000
  400ebe:	4b12      	ldr	r3, [pc, #72]	; (400f08 <system_init_flash+0x7c>)
  400ec0:	601a      	str	r2, [r3, #0]
  400ec2:	4770      	bx	lr
      EFC->EEFC_FMR = EEFC_FMR_FWS(1)|EEFC_FMR_CLOE;
  400ec4:	4a11      	ldr	r2, [pc, #68]	; (400f0c <system_init_flash+0x80>)
  400ec6:	4b10      	ldr	r3, [pc, #64]	; (400f08 <system_init_flash+0x7c>)
  400ec8:	601a      	str	r2, [r3, #0]
  400eca:	4770      	bx	lr
        EFC->EEFC_FMR = EEFC_FMR_FWS(2)|EEFC_FMR_CLOE;
  400ecc:	4a10      	ldr	r2, [pc, #64]	; (400f10 <system_init_flash+0x84>)
  400ece:	4b0e      	ldr	r3, [pc, #56]	; (400f08 <system_init_flash+0x7c>)
  400ed0:	601a      	str	r2, [r3, #0]
  400ed2:	4770      	bx	lr
          EFC->EEFC_FMR = EEFC_FMR_FWS(3)|EEFC_FMR_CLOE;
  400ed4:	4a0f      	ldr	r2, [pc, #60]	; (400f14 <system_init_flash+0x88>)
  400ed6:	4b0c      	ldr	r3, [pc, #48]	; (400f08 <system_init_flash+0x7c>)
  400ed8:	601a      	str	r2, [r3, #0]
  400eda:	4770      	bx	lr
            EFC->EEFC_FMR = EEFC_FMR_FWS(4)|EEFC_FMR_CLOE;
  400edc:	f04f 2204 	mov.w	r2, #67109888	; 0x4000400
  400ee0:	4b09      	ldr	r3, [pc, #36]	; (400f08 <system_init_flash+0x7c>)
  400ee2:	601a      	str	r2, [r3, #0]
  400ee4:	4770      	bx	lr
  400ee6:	bf00      	nop
  400ee8:	015ef3bf 	.word	0x015ef3bf
  400eec:	02bde77f 	.word	0x02bde77f
  400ef0:	041cdb3f 	.word	0x041cdb3f
  400ef4:	057bceff 	.word	0x057bceff
  400ef8:	06dac2bf 	.word	0x06dac2bf
  400efc:	0839b67f 	.word	0x0839b67f
  400f00:	04000500 	.word	0x04000500
  400f04:	04000600 	.word	0x04000600
  400f08:	400e0c00 	.word	0x400e0c00
  400f0c:	04000100 	.word	0x04000100
  400f10:	04000200 	.word	0x04000200
  400f14:	04000300 	.word	0x04000300

00400f18 <_sbrk>:
{
	static unsigned char *heap = NULL;
	unsigned char *prev_heap;
	int ramend = (int)&__ram_end__;

	if (heap == NULL) {
  400f18:	4b0a      	ldr	r3, [pc, #40]	; (400f44 <_sbrk+0x2c>)
  400f1a:	681b      	ldr	r3, [r3, #0]
  400f1c:	b153      	cbz	r3, 400f34 <_sbrk+0x1c>
		heap = (unsigned char *)&_end;
	}
	prev_heap = heap;
  400f1e:	4b09      	ldr	r3, [pc, #36]	; (400f44 <_sbrk+0x2c>)
  400f20:	681b      	ldr	r3, [r3, #0]

	if (((int)prev_heap + incr) > ramend) {
  400f22:	181a      	adds	r2, r3, r0
  400f24:	4908      	ldr	r1, [pc, #32]	; (400f48 <_sbrk+0x30>)
  400f26:	4291      	cmp	r1, r2
  400f28:	db08      	blt.n	400f3c <_sbrk+0x24>
		return (caddr_t) -1;	
	}

	heap += incr;
  400f2a:	4610      	mov	r0, r2
  400f2c:	4a05      	ldr	r2, [pc, #20]	; (400f44 <_sbrk+0x2c>)
  400f2e:	6010      	str	r0, [r2, #0]

	return (caddr_t) prev_heap;
  400f30:	4618      	mov	r0, r3
  400f32:	4770      	bx	lr
		heap = (unsigned char *)&_end;
  400f34:	4a05      	ldr	r2, [pc, #20]	; (400f4c <_sbrk+0x34>)
  400f36:	4b03      	ldr	r3, [pc, #12]	; (400f44 <_sbrk+0x2c>)
  400f38:	601a      	str	r2, [r3, #0]
  400f3a:	e7f0      	b.n	400f1e <_sbrk+0x6>
		return (caddr_t) -1;	
  400f3c:	f04f 30ff 	mov.w	r0, #4294967295
}
  400f40:	4770      	bx	lr
  400f42:	bf00      	nop
  400f44:	20400a5c 	.word	0x20400a5c
  400f48:	2045fffc 	.word	0x2045fffc
  400f4c:	20402e50 	.word	0x20402e50

00400f50 <_close>:
}

extern int _close(int file)
{
	return -1;
}
  400f50:	f04f 30ff 	mov.w	r0, #4294967295
  400f54:	4770      	bx	lr

00400f56 <_fstat>:

extern int _fstat(int file, struct stat *st)
{
	st->st_mode = S_IFCHR;
  400f56:	f44f 5300 	mov.w	r3, #8192	; 0x2000
  400f5a:	604b      	str	r3, [r1, #4]

	return 0;
}
  400f5c:	2000      	movs	r0, #0
  400f5e:	4770      	bx	lr

00400f60 <_isatty>:

extern int _isatty(int file)
{
	return 1;
}
  400f60:	2001      	movs	r0, #1
  400f62:	4770      	bx	lr

00400f64 <_lseek>:

extern int _lseek(int file, int ptr, int dir)
{
	return 0;
}
  400f64:	2000      	movs	r0, #0
  400f66:	4770      	bx	lr

00400f68 <vListInitialise>:
void vListInitialise( List_t * const pxList )
{
	/* The list structure contains a list item which is used to mark the
	end of the list.  To initialise the list the list end is inserted
	as the only list entry. */
	pxList->pxIndex = ( ListItem_t * ) &( pxList->xListEnd );			/*lint !e826 !e740 The mini list structure is used as the list end to save RAM.  This is checked and valid. */
  400f68:	f100 0308 	add.w	r3, r0, #8
  400f6c:	6043      	str	r3, [r0, #4]

	/* The list end value is the highest possible value in the list to
	ensure it remains at the end of the list. */
	pxList->xListEnd.xItemValue = portMAX_DELAY;
  400f6e:	f04f 32ff 	mov.w	r2, #4294967295
  400f72:	6082      	str	r2, [r0, #8]

	/* The list end next and previous pointers point to itself so we know
	when the list is empty. */
	pxList->xListEnd.pxNext = ( ListItem_t * ) &( pxList->xListEnd );	/*lint !e826 !e740 The mini list structure is used as the list end to save RAM.  This is checked and valid. */
  400f74:	60c3      	str	r3, [r0, #12]
	pxList->xListEnd.pxPrevious = ( ListItem_t * ) &( pxList->xListEnd );/*lint !e826 !e740 The mini list structure is used as the list end to save RAM.  This is checked and valid. */
  400f76:	6103      	str	r3, [r0, #16]

	pxList->uxNumberOfItems = ( UBaseType_t ) 0U;
  400f78:	2300      	movs	r3, #0
  400f7a:	6003      	str	r3, [r0, #0]
  400f7c:	4770      	bx	lr

00400f7e <vListInitialiseItem>:
/*-----------------------------------------------------------*/

void vListInitialiseItem( ListItem_t * const pxItem )
{
	/* Make sure the list item is not recorded as being on a list. */
	pxItem->pvContainer = NULL;
  400f7e:	2300      	movs	r3, #0
  400f80:	6103      	str	r3, [r0, #16]
  400f82:	4770      	bx	lr

00400f84 <vListInsertEnd>:
}
/*-----------------------------------------------------------*/

void vListInsertEnd( List_t * const pxList, ListItem_t * const pxNewListItem )
{
ListItem_t * const pxIndex = pxList->pxIndex;
  400f84:	6843      	ldr	r3, [r0, #4]
	listTEST_LIST_ITEM_INTEGRITY( pxNewListItem );

	/* Insert a new list item into pxList, but rather than sort the list,
	makes the new list item the last item to be removed by a call to
	listGET_OWNER_OF_NEXT_ENTRY(). */
	pxNewListItem->pxNext = pxIndex;
  400f86:	604b      	str	r3, [r1, #4]
	pxNewListItem->pxPrevious = pxIndex->pxPrevious;
  400f88:	689a      	ldr	r2, [r3, #8]
  400f8a:	608a      	str	r2, [r1, #8]

	/* Only used during decision coverage testing. */
	mtCOVERAGE_TEST_DELAY();

	pxIndex->pxPrevious->pxNext = pxNewListItem;
  400f8c:	689a      	ldr	r2, [r3, #8]
  400f8e:	6051      	str	r1, [r2, #4]
	pxIndex->pxPrevious = pxNewListItem;
  400f90:	6099      	str	r1, [r3, #8]

	/* Remember which list the item is in. */
	pxNewListItem->pvContainer = ( void * ) pxList;
  400f92:	6108      	str	r0, [r1, #16]

	( pxList->uxNumberOfItems )++;
  400f94:	6803      	ldr	r3, [r0, #0]
  400f96:	3301      	adds	r3, #1
  400f98:	6003      	str	r3, [r0, #0]
  400f9a:	4770      	bx	lr

00400f9c <vListInsert>:
}
/*-----------------------------------------------------------*/

void vListInsert( List_t * const pxList, ListItem_t * const pxNewListItem )
{
  400f9c:	b430      	push	{r4, r5}
ListItem_t *pxIterator;
const TickType_t xValueOfInsertion = pxNewListItem->xItemValue;
  400f9e:	680d      	ldr	r5, [r1, #0]
	new list item should be placed after it.  This ensures that TCB's which are
	stored in ready lists (all of which have the same xItemValue value) get a
	share of the CPU.  However, if the xItemValue is the same as the back marker
	the iteration loop below will not end.  Therefore the value is checked
	first, and the algorithm slightly modified if necessary. */
	if( xValueOfInsertion == portMAX_DELAY )
  400fa0:	f1b5 3fff 	cmp.w	r5, #4294967295
  400fa4:	d002      	beq.n	400fac <vListInsert+0x10>
			4) Using a queue or semaphore before it has been initialised or
			   before the scheduler has been started (are interrupts firing
			   before vTaskStartScheduler() has been called?).
		**********************************************************************/

		for( pxIterator = ( ListItem_t * ) &( pxList->xListEnd ); pxIterator->pxNext->xItemValue <= xValueOfInsertion; pxIterator = pxIterator->pxNext ) /*lint !e826 !e740 The mini list structure is used as the list end to save RAM.  This is checked and valid. */
  400fa6:	f100 0208 	add.w	r2, r0, #8
  400faa:	e002      	b.n	400fb2 <vListInsert+0x16>
		pxIterator = pxList->xListEnd.pxPrevious;
  400fac:	6902      	ldr	r2, [r0, #16]
  400fae:	e004      	b.n	400fba <vListInsert+0x1e>
		for( pxIterator = ( ListItem_t * ) &( pxList->xListEnd ); pxIterator->pxNext->xItemValue <= xValueOfInsertion; pxIterator = pxIterator->pxNext ) /*lint !e826 !e740 The mini list structure is used as the list end to save RAM.  This is checked and valid. */
  400fb0:	461a      	mov	r2, r3
  400fb2:	6853      	ldr	r3, [r2, #4]
  400fb4:	681c      	ldr	r4, [r3, #0]
  400fb6:	42a5      	cmp	r5, r4
  400fb8:	d2fa      	bcs.n	400fb0 <vListInsert+0x14>
			/* There is nothing to do here, just iterating to the wanted
			insertion position. */
		}
	}

	pxNewListItem->pxNext = pxIterator->pxNext;
  400fba:	6853      	ldr	r3, [r2, #4]
  400fbc:	604b      	str	r3, [r1, #4]
	pxNewListItem->pxNext->pxPrevious = pxNewListItem;
  400fbe:	6099      	str	r1, [r3, #8]
	pxNewListItem->pxPrevious = pxIterator;
  400fc0:	608a      	str	r2, [r1, #8]
	pxIterator->pxNext = pxNewListItem;
  400fc2:	6051      	str	r1, [r2, #4]

	/* Remember which list the item is in.  This allows fast removal of the
	item later. */
	pxNewListItem->pvContainer = ( void * ) pxList;
  400fc4:	6108      	str	r0, [r1, #16]

	( pxList->uxNumberOfItems )++;
  400fc6:	6803      	ldr	r3, [r0, #0]
  400fc8:	3301      	adds	r3, #1
  400fca:	6003      	str	r3, [r0, #0]
}
  400fcc:	bc30      	pop	{r4, r5}
  400fce:	4770      	bx	lr

00400fd0 <uxListRemove>:

UBaseType_t uxListRemove( ListItem_t * const pxItemToRemove )
{
/* The list item knows which list it is in.  Obtain the list from the list
item. */
List_t * const pxList = ( List_t * ) pxItemToRemove->pvContainer;
  400fd0:	6903      	ldr	r3, [r0, #16]

	pxItemToRemove->pxNext->pxPrevious = pxItemToRemove->pxPrevious;
  400fd2:	6842      	ldr	r2, [r0, #4]
  400fd4:	6881      	ldr	r1, [r0, #8]
  400fd6:	6091      	str	r1, [r2, #8]
	pxItemToRemove->pxPrevious->pxNext = pxItemToRemove->pxNext;
  400fd8:	6882      	ldr	r2, [r0, #8]
  400fda:	6841      	ldr	r1, [r0, #4]
  400fdc:	6051      	str	r1, [r2, #4]

	/* Only used during decision coverage testing. */
	mtCOVERAGE_TEST_DELAY();

	/* Make sure the index is left pointing to a valid item. */
	if( pxList->pxIndex == pxItemToRemove )
  400fde:	685a      	ldr	r2, [r3, #4]
  400fe0:	4290      	cmp	r0, r2
  400fe2:	d005      	beq.n	400ff0 <uxListRemove+0x20>
	else
	{
		mtCOVERAGE_TEST_MARKER();
	}

	pxItemToRemove->pvContainer = NULL;
  400fe4:	2200      	movs	r2, #0
  400fe6:	6102      	str	r2, [r0, #16]
	( pxList->uxNumberOfItems )--;
  400fe8:	6818      	ldr	r0, [r3, #0]
  400fea:	3801      	subs	r0, #1
  400fec:	6018      	str	r0, [r3, #0]

	return pxList->uxNumberOfItems;
}
  400fee:	4770      	bx	lr
		pxList->pxIndex = pxItemToRemove->pxPrevious;
  400ff0:	6882      	ldr	r2, [r0, #8]
  400ff2:	605a      	str	r2, [r3, #4]
  400ff4:	e7f6      	b.n	400fe4 <uxListRemove+0x14>

00400ff6 <prvTaskExitError>:

portFORCE_INLINE static void vPortRaiseBASEPRI( void )
{
uint32_t ulNewBASEPRI;

	__asm volatile
  400ff6:	f04f 0380 	mov.w	r3, #128	; 0x80
  400ffa:	b672      	cpsid	i
  400ffc:	f383 8811 	msr	BASEPRI, r3
  401000:	f3bf 8f6f 	isb	sy
  401004:	f3bf 8f4f 	dsb	sy
  401008:	b662      	cpsie	i
  40100a:	e7fe      	b.n	40100a <prvTaskExitError+0x14>

0040100c <prvPortStartFirstTask>:
}
/*-----------------------------------------------------------*/

static void prvPortStartFirstTask( void )
{
	__asm volatile(
  40100c:	4806      	ldr	r0, [pc, #24]	; (401028 <prvPortStartFirstTask+0x1c>)
  40100e:	6800      	ldr	r0, [r0, #0]
  401010:	6800      	ldr	r0, [r0, #0]
  401012:	f380 8808 	msr	MSP, r0
  401016:	b662      	cpsie	i
  401018:	b661      	cpsie	f
  40101a:	f3bf 8f4f 	dsb	sy
  40101e:	f3bf 8f6f 	isb	sy
  401022:	df00      	svc	0
  401024:	bf00      	nop
  401026:	0000      	.short	0x0000
  401028:	e000ed08 	.word	0xe000ed08

0040102c <vPortEnableVFP>:
/*-----------------------------------------------------------*/

/* This is a naked function. */
static void vPortEnableVFP( void )
{
	__asm volatile
  40102c:	f8df 000c 	ldr.w	r0, [pc, #12]	; 40103c <vPortEnableVFP+0x10>
  401030:	6801      	ldr	r1, [r0, #0]
  401032:	f441 0170 	orr.w	r1, r1, #15728640	; 0xf00000
  401036:	6001      	str	r1, [r0, #0]
  401038:	4770      	bx	lr
  40103a:	0000      	.short	0x0000
  40103c:	e000ed88 	.word	0xe000ed88

00401040 <pxPortInitialiseStack>:
	*pxTopOfStack = portINITIAL_XPSR;	/* xPSR */
  401040:	f04f 7380 	mov.w	r3, #16777216	; 0x1000000
  401044:	f840 3c04 	str.w	r3, [r0, #-4]
	*pxTopOfStack = ( StackType_t ) pxCode;	/* PC */
  401048:	f840 1c08 	str.w	r1, [r0, #-8]
	*pxTopOfStack = ( StackType_t ) portTASK_RETURN_ADDRESS;	/* LR */
  40104c:	4b05      	ldr	r3, [pc, #20]	; (401064 <pxPortInitialiseStack+0x24>)
  40104e:	f840 3c0c 	str.w	r3, [r0, #-12]
	*pxTopOfStack = ( StackType_t ) pvParameters;	/* R0 */
  401052:	f840 2c20 	str.w	r2, [r0, #-32]
	*pxTopOfStack = portINITIAL_EXEC_RETURN;
  401056:	f06f 0302 	mvn.w	r3, #2
  40105a:	f840 3c24 	str.w	r3, [r0, #-36]
}
  40105e:	3844      	subs	r0, #68	; 0x44
  401060:	4770      	bx	lr
  401062:	bf00      	nop
  401064:	00400ff7 	.word	0x00400ff7

00401068 <SVC_Handler>:
	__asm volatile (
  401068:	4b06      	ldr	r3, [pc, #24]	; (401084 <pxCurrentTCBConst2>)
  40106a:	6819      	ldr	r1, [r3, #0]
  40106c:	6808      	ldr	r0, [r1, #0]
  40106e:	e8b0 4ff0 	ldmia.w	r0!, {r4, r5, r6, r7, r8, r9, sl, fp, lr}
  401072:	f380 8809 	msr	PSP, r0
  401076:	f3bf 8f6f 	isb	sy
  40107a:	f04f 0000 	mov.w	r0, #0
  40107e:	f380 8811 	msr	BASEPRI, r0
  401082:	4770      	bx	lr

00401084 <pxCurrentTCBConst2>:
  401084:	20400a60 	.word	0x20400a60
  401088:	4770      	bx	lr
  40108a:	bf00      	nop

0040108c <vPortEnterCritical>:
  40108c:	f04f 0380 	mov.w	r3, #128	; 0x80
  401090:	b672      	cpsid	i
  401092:	f383 8811 	msr	BASEPRI, r3
  401096:	f3bf 8f6f 	isb	sy
  40109a:	f3bf 8f4f 	dsb	sy
  40109e:	b662      	cpsie	i
	uxCriticalNesting++;
  4010a0:	4a02      	ldr	r2, [pc, #8]	; (4010ac <vPortEnterCritical+0x20>)
  4010a2:	6813      	ldr	r3, [r2, #0]
  4010a4:	3301      	adds	r3, #1
  4010a6:	6013      	str	r3, [r2, #0]
  4010a8:	4770      	bx	lr
  4010aa:	bf00      	nop
  4010ac:	20400010 	.word	0x20400010

004010b0 <vPortExitCritical>:
	uxCriticalNesting--;
  4010b0:	4a03      	ldr	r2, [pc, #12]	; (4010c0 <vPortExitCritical+0x10>)
  4010b2:	6813      	ldr	r3, [r2, #0]
  4010b4:	3b01      	subs	r3, #1
  4010b6:	6013      	str	r3, [r2, #0]
	if( uxCriticalNesting == 0 )
  4010b8:	b90b      	cbnz	r3, 4010be <vPortExitCritical+0xe>
}
/*-----------------------------------------------------------*/

portFORCE_INLINE static void vPortSetBASEPRI( uint32_t ulNewMaskValue )
{
	__asm volatile
  4010ba:	f383 8811 	msr	BASEPRI, r3
  4010be:	4770      	bx	lr
  4010c0:	20400010 	.word	0x20400010

004010c4 <PendSV_Handler>:
	__asm volatile
  4010c4:	f3ef 8009 	mrs	r0, PSP
  4010c8:	f3bf 8f6f 	isb	sy
  4010cc:	4b15      	ldr	r3, [pc, #84]	; (401124 <pxCurrentTCBConst>)
  4010ce:	681a      	ldr	r2, [r3, #0]
  4010d0:	f01e 0f10 	tst.w	lr, #16
  4010d4:	bf08      	it	eq
  4010d6:	ed20 8a10 	vstmdbeq	r0!, {s16-s31}
  4010da:	e920 4ff0 	stmdb	r0!, {r4, r5, r6, r7, r8, r9, sl, fp, lr}
  4010de:	6010      	str	r0, [r2, #0]
  4010e0:	f84d 3d04 	str.w	r3, [sp, #-4]!
  4010e4:	f04f 0080 	mov.w	r0, #128	; 0x80
  4010e8:	b672      	cpsid	i
  4010ea:	f380 8811 	msr	BASEPRI, r0
  4010ee:	f3bf 8f4f 	dsb	sy
  4010f2:	f3bf 8f6f 	isb	sy
  4010f6:	b662      	cpsie	i
  4010f8:	f000 ff38 	bl	401f6c <vTaskSwitchContext>
  4010fc:	f04f 0000 	mov.w	r0, #0
  401100:	f380 8811 	msr	BASEPRI, r0
  401104:	bc08      	pop	{r3}
  401106:	6819      	ldr	r1, [r3, #0]
  401108:	6808      	ldr	r0, [r1, #0]
  40110a:	e8b0 4ff0 	ldmia.w	r0!, {r4, r5, r6, r7, r8, r9, sl, fp, lr}
  40110e:	f01e 0f10 	tst.w	lr, #16
  401112:	bf08      	it	eq
  401114:	ecb0 8a10 	vldmiaeq	r0!, {s16-s31}
  401118:	f380 8809 	msr	PSP, r0
  40111c:	f3bf 8f6f 	isb	sy
  401120:	4770      	bx	lr
  401122:	bf00      	nop

00401124 <pxCurrentTCBConst>:
  401124:	20400a60 	.word	0x20400a60
  401128:	4770      	bx	lr
  40112a:	bf00      	nop

0040112c <SysTick_Handler>:
{
  40112c:	b508      	push	{r3, lr}
	__asm volatile
  40112e:	f3ef 8311 	mrs	r3, BASEPRI
  401132:	f04f 0280 	mov.w	r2, #128	; 0x80
  401136:	b672      	cpsid	i
  401138:	f382 8811 	msr	BASEPRI, r2
  40113c:	f3bf 8f6f 	isb	sy
  401140:	f3bf 8f4f 	dsb	sy
  401144:	b662      	cpsie	i
		if( xTaskIncrementTick() != pdFALSE )
  401146:	4b05      	ldr	r3, [pc, #20]	; (40115c <SysTick_Handler+0x30>)
  401148:	4798      	blx	r3
  40114a:	b118      	cbz	r0, 401154 <SysTick_Handler+0x28>
			portNVIC_INT_CTRL_REG = portNVIC_PENDSVSET_BIT;
  40114c:	f04f 5280 	mov.w	r2, #268435456	; 0x10000000
  401150:	4b03      	ldr	r3, [pc, #12]	; (401160 <SysTick_Handler+0x34>)
  401152:	601a      	str	r2, [r3, #0]
	__asm volatile
  401154:	2300      	movs	r3, #0
  401156:	f383 8811 	msr	BASEPRI, r3
  40115a:	bd08      	pop	{r3, pc}
  40115c:	00401c29 	.word	0x00401c29
  401160:	e000ed04 	.word	0xe000ed04

00401164 <vPortSetupTimerInterrupt>:
	portNVIC_SYSTICK_LOAD_REG = ( configSYSTICK_CLOCK_HZ / configTICK_RATE_HZ ) - 1UL;
  401164:	4a03      	ldr	r2, [pc, #12]	; (401174 <vPortSetupTimerInterrupt+0x10>)
  401166:	4b04      	ldr	r3, [pc, #16]	; (401178 <vPortSetupTimerInterrupt+0x14>)
  401168:	601a      	str	r2, [r3, #0]
	portNVIC_SYSTICK_CTRL_REG = ( portNVIC_SYSTICK_CLK_BIT | portNVIC_SYSTICK_INT_BIT | portNVIC_SYSTICK_ENABLE_BIT );
  40116a:	2207      	movs	r2, #7
  40116c:	3b04      	subs	r3, #4
  40116e:	601a      	str	r2, [r3, #0]
  401170:	4770      	bx	lr
  401172:	bf00      	nop
  401174:	00124f7f 	.word	0x00124f7f
  401178:	e000e014 	.word	0xe000e014

0040117c <xPortStartScheduler>:
{
  40117c:	b508      	push	{r3, lr}
	portNVIC_SYSPRI2_REG |= portNVIC_PENDSV_PRI;
  40117e:	4b0c      	ldr	r3, [pc, #48]	; (4011b0 <xPortStartScheduler+0x34>)
  401180:	681a      	ldr	r2, [r3, #0]
  401182:	f442 0260 	orr.w	r2, r2, #14680064	; 0xe00000
  401186:	601a      	str	r2, [r3, #0]
	portNVIC_SYSPRI2_REG |= portNVIC_SYSTICK_PRI;
  401188:	681a      	ldr	r2, [r3, #0]
  40118a:	f042 4260 	orr.w	r2, r2, #3758096384	; 0xe0000000
  40118e:	601a      	str	r2, [r3, #0]
	vPortSetupTimerInterrupt();
  401190:	4b08      	ldr	r3, [pc, #32]	; (4011b4 <xPortStartScheduler+0x38>)
  401192:	4798      	blx	r3
	uxCriticalNesting = 0;
  401194:	2200      	movs	r2, #0
  401196:	4b08      	ldr	r3, [pc, #32]	; (4011b8 <xPortStartScheduler+0x3c>)
  401198:	601a      	str	r2, [r3, #0]
	vPortEnableVFP();
  40119a:	4b08      	ldr	r3, [pc, #32]	; (4011bc <xPortStartScheduler+0x40>)
  40119c:	4798      	blx	r3
	*( portFPCCR ) |= portASPEN_AND_LSPEN_BITS;
  40119e:	4a08      	ldr	r2, [pc, #32]	; (4011c0 <xPortStartScheduler+0x44>)
  4011a0:	6813      	ldr	r3, [r2, #0]
  4011a2:	f043 4340 	orr.w	r3, r3, #3221225472	; 0xc0000000
  4011a6:	6013      	str	r3, [r2, #0]
	prvPortStartFirstTask();
  4011a8:	4b06      	ldr	r3, [pc, #24]	; (4011c4 <xPortStartScheduler+0x48>)
  4011aa:	4798      	blx	r3
	prvTaskExitError();
  4011ac:	4b06      	ldr	r3, [pc, #24]	; (4011c8 <xPortStartScheduler+0x4c>)
  4011ae:	4798      	blx	r3
  4011b0:	e000ed20 	.word	0xe000ed20
  4011b4:	00401165 	.word	0x00401165
  4011b8:	20400010 	.word	0x20400010
  4011bc:	0040102d 	.word	0x0040102d
  4011c0:	e000ef34 	.word	0xe000ef34
  4011c4:	0040100d 	.word	0x0040100d
  4011c8:	00400ff7 	.word	0x00400ff7

004011cc <pvPortMalloc>:
#undef MPU_WRAPPERS_INCLUDED_FROM_API_FILE

/*-----------------------------------------------------------*/

void *pvPortMalloc( size_t xWantedSize )
{
  4011cc:	b510      	push	{r4, lr}
  4011ce:	4604      	mov	r4, r0
void *pvReturn;

	vTaskSuspendAll();
  4011d0:	4b06      	ldr	r3, [pc, #24]	; (4011ec <pvPortMalloc+0x20>)
  4011d2:	4798      	blx	r3
	{
		pvReturn = malloc( xWantedSize );
  4011d4:	4620      	mov	r0, r4
  4011d6:	4b06      	ldr	r3, [pc, #24]	; (4011f0 <pvPortMalloc+0x24>)
  4011d8:	4798      	blx	r3
  4011da:	4604      	mov	r4, r0
		traceMALLOC( pvReturn, xWantedSize );
	}
	( void ) xTaskResumeAll();
  4011dc:	4b05      	ldr	r3, [pc, #20]	; (4011f4 <pvPortMalloc+0x28>)
  4011de:	4798      	blx	r3

	#if( configUSE_MALLOC_FAILED_HOOK == 1 )
	{
		if( pvReturn == NULL )
  4011e0:	b10c      	cbz	r4, 4011e6 <pvPortMalloc+0x1a>
		}
	}
	#endif

	return pvReturn;
}
  4011e2:	4620      	mov	r0, r4
  4011e4:	bd10      	pop	{r4, pc}
			vApplicationMallocFailedHook();
  4011e6:	4b04      	ldr	r3, [pc, #16]	; (4011f8 <pvPortMalloc+0x2c>)
  4011e8:	4798      	blx	r3
	return pvReturn;
  4011ea:	e7fa      	b.n	4011e2 <pvPortMalloc+0x16>
  4011ec:	00401c0d 	.word	0x00401c0d
  4011f0:	00402e75 	.word	0x00402e75
  4011f4:	00401d61 	.word	0x00401d61
  4011f8:	00402b5b 	.word	0x00402b5b

004011fc <vPortFree>:
/*-----------------------------------------------------------*/

void vPortFree( void *pv )
{
	if( pv )
  4011fc:	b148      	cbz	r0, 401212 <vPortFree+0x16>
{
  4011fe:	b510      	push	{r4, lr}
  401200:	4604      	mov	r4, r0
	{
		vTaskSuspendAll();
  401202:	4b04      	ldr	r3, [pc, #16]	; (401214 <vPortFree+0x18>)
  401204:	4798      	blx	r3
		{
			free( pv );
  401206:	4620      	mov	r0, r4
  401208:	4b03      	ldr	r3, [pc, #12]	; (401218 <vPortFree+0x1c>)
  40120a:	4798      	blx	r3
			traceFREE( pv, 0 );
		}
		( void ) xTaskResumeAll();
  40120c:	4b03      	ldr	r3, [pc, #12]	; (40121c <vPortFree+0x20>)
  40120e:	4798      	blx	r3
  401210:	bd10      	pop	{r4, pc}
  401212:	4770      	bx	lr
  401214:	00401c0d 	.word	0x00401c0d
  401218:	00402e85 	.word	0x00402e85
  40121c:	00401d61 	.word	0x00401d61

00401220 <prvCopyDataToQueue>:

#endif /* configUSE_TRACE_FACILITY */
/*-----------------------------------------------------------*/

static BaseType_t prvCopyDataToQueue( Queue_t * const pxQueue, const void *pvItemToQueue, const BaseType_t xPosition )
{
  401220:	b538      	push	{r3, r4, r5, lr}
  401222:	4604      	mov	r4, r0
  401224:	4615      	mov	r5, r2
BaseType_t xReturn = pdFALSE;

	if( pxQueue->uxItemSize == ( UBaseType_t ) 0 )
  401226:	6c02      	ldr	r2, [r0, #64]	; 0x40
  401228:	b962      	cbnz	r2, 401244 <prvCopyDataToQueue+0x24>
	{
		#if ( configUSE_MUTEXES == 1 )
		{
			if( pxQueue->uxQueueType == queueQUEUE_IS_MUTEX )
  40122a:	6803      	ldr	r3, [r0, #0]
  40122c:	b123      	cbz	r3, 401238 <prvCopyDataToQueue+0x18>
BaseType_t xReturn = pdFALSE;
  40122e:	2000      	movs	r0, #0
		{
			mtCOVERAGE_TEST_MARKER();
		}
	}

	++( pxQueue->uxMessagesWaiting );
  401230:	6ba3      	ldr	r3, [r4, #56]	; 0x38
  401232:	3301      	adds	r3, #1
  401234:	63a3      	str	r3, [r4, #56]	; 0x38

	return xReturn;
}
  401236:	bd38      	pop	{r3, r4, r5, pc}
				xReturn = xTaskPriorityDisinherit( ( void * ) pxQueue->pxMutexHolder );
  401238:	6840      	ldr	r0, [r0, #4]
  40123a:	4b18      	ldr	r3, [pc, #96]	; (40129c <prvCopyDataToQueue+0x7c>)
  40123c:	4798      	blx	r3
				pxQueue->pxMutexHolder = NULL;
  40123e:	2300      	movs	r3, #0
  401240:	6063      	str	r3, [r4, #4]
  401242:	e7f5      	b.n	401230 <prvCopyDataToQueue+0x10>
	else if( xPosition == queueSEND_TO_BACK )
  401244:	b96d      	cbnz	r5, 401262 <prvCopyDataToQueue+0x42>
		( void ) memcpy( ( void * ) pxQueue->pcWriteTo, pvItemToQueue, ( size_t ) pxQueue->uxItemSize ); /*lint !e961 !e418 MISRA exception as the casts are only redundant for some ports, plus previous logic ensures a null pointer can only be passed to memcpy() if the copy size is 0. */
  401246:	6880      	ldr	r0, [r0, #8]
  401248:	4b15      	ldr	r3, [pc, #84]	; (4012a0 <prvCopyDataToQueue+0x80>)
  40124a:	4798      	blx	r3
		pxQueue->pcWriteTo += pxQueue->uxItemSize;
  40124c:	68a3      	ldr	r3, [r4, #8]
  40124e:	6c22      	ldr	r2, [r4, #64]	; 0x40
  401250:	4413      	add	r3, r2
  401252:	60a3      	str	r3, [r4, #8]
		if( pxQueue->pcWriteTo >= pxQueue->pcTail ) /*lint !e946 MISRA exception justified as comparison of pointers is the cleanest solution. */
  401254:	6862      	ldr	r2, [r4, #4]
  401256:	4293      	cmp	r3, r2
  401258:	d31c      	bcc.n	401294 <prvCopyDataToQueue+0x74>
			pxQueue->pcWriteTo = pxQueue->pcHead;
  40125a:	6823      	ldr	r3, [r4, #0]
  40125c:	60a3      	str	r3, [r4, #8]
BaseType_t xReturn = pdFALSE;
  40125e:	2000      	movs	r0, #0
  401260:	e7e6      	b.n	401230 <prvCopyDataToQueue+0x10>
		( void ) memcpy( ( void * ) pxQueue->u.pcReadFrom, pvItemToQueue, ( size_t ) pxQueue->uxItemSize ); /*lint !e961 MISRA exception as the casts are only redundant for some ports. */
  401262:	68c0      	ldr	r0, [r0, #12]
  401264:	4b0e      	ldr	r3, [pc, #56]	; (4012a0 <prvCopyDataToQueue+0x80>)
  401266:	4798      	blx	r3
		pxQueue->u.pcReadFrom -= pxQueue->uxItemSize;
  401268:	6c22      	ldr	r2, [r4, #64]	; 0x40
  40126a:	4252      	negs	r2, r2
  40126c:	68e3      	ldr	r3, [r4, #12]
  40126e:	4413      	add	r3, r2
  401270:	60e3      	str	r3, [r4, #12]
		if( pxQueue->u.pcReadFrom < pxQueue->pcHead ) /*lint !e946 MISRA exception justified as comparison of pointers is the cleanest solution. */
  401272:	6821      	ldr	r1, [r4, #0]
  401274:	428b      	cmp	r3, r1
  401276:	d202      	bcs.n	40127e <prvCopyDataToQueue+0x5e>
			pxQueue->u.pcReadFrom = ( pxQueue->pcTail - pxQueue->uxItemSize );
  401278:	6863      	ldr	r3, [r4, #4]
  40127a:	441a      	add	r2, r3
  40127c:	60e2      	str	r2, [r4, #12]
		if( xPosition == queueOVERWRITE )
  40127e:	2d02      	cmp	r5, #2
  401280:	d001      	beq.n	401286 <prvCopyDataToQueue+0x66>
BaseType_t xReturn = pdFALSE;
  401282:	2000      	movs	r0, #0
  401284:	e7d4      	b.n	401230 <prvCopyDataToQueue+0x10>
			if( pxQueue->uxMessagesWaiting > ( UBaseType_t ) 0 )
  401286:	6ba3      	ldr	r3, [r4, #56]	; 0x38
  401288:	b133      	cbz	r3, 401298 <prvCopyDataToQueue+0x78>
				--( pxQueue->uxMessagesWaiting );
  40128a:	6ba3      	ldr	r3, [r4, #56]	; 0x38
  40128c:	3b01      	subs	r3, #1
  40128e:	63a3      	str	r3, [r4, #56]	; 0x38
BaseType_t xReturn = pdFALSE;
  401290:	2000      	movs	r0, #0
  401292:	e7cd      	b.n	401230 <prvCopyDataToQueue+0x10>
  401294:	2000      	movs	r0, #0
  401296:	e7cb      	b.n	401230 <prvCopyDataToQueue+0x10>
  401298:	2000      	movs	r0, #0
  40129a:	e7c9      	b.n	401230 <prvCopyDataToQueue+0x10>
  40129c:	004022bd 	.word	0x004022bd
  4012a0:	004033f5 	.word	0x004033f5

004012a4 <prvNotifyQueueSetContainer>:
/*-----------------------------------------------------------*/

#if ( configUSE_QUEUE_SETS == 1 )

	static BaseType_t prvNotifyQueueSetContainer( const Queue_t * const pxQueue, const BaseType_t xCopyPosition )
	{
  4012a4:	b530      	push	{r4, r5, lr}
  4012a6:	b083      	sub	sp, #12
  4012a8:	9001      	str	r0, [sp, #4]
	Queue_t *pxQueueSetContainer = pxQueue->pxQueueSetContainer;
  4012aa:	6d44      	ldr	r4, [r0, #84]	; 0x54
		/* This function must be called form a critical section. */

		configASSERT( pxQueueSetContainer );
		configASSERT( pxQueueSetContainer->uxMessagesWaiting < pxQueueSetContainer->uxLength );

		if( pxQueueSetContainer->uxMessagesWaiting < pxQueueSetContainer->uxLength )
  4012ac:	6ba2      	ldr	r2, [r4, #56]	; 0x38
  4012ae:	6be3      	ldr	r3, [r4, #60]	; 0x3c
  4012b0:	429a      	cmp	r2, r3
  4012b2:	d303      	bcc.n	4012bc <prvNotifyQueueSetContainer+0x18>
	BaseType_t xReturn = pdFALSE;
  4012b4:	2500      	movs	r5, #0
		{
			mtCOVERAGE_TEST_MARKER();
		}

		return xReturn;
	}
  4012b6:	4628      	mov	r0, r5
  4012b8:	b003      	add	sp, #12
  4012ba:	bd30      	pop	{r4, r5, pc}
  4012bc:	460a      	mov	r2, r1
			xReturn = prvCopyDataToQueue( pxQueueSetContainer, &pxQueue, xCopyPosition );
  4012be:	a901      	add	r1, sp, #4
  4012c0:	4620      	mov	r0, r4
  4012c2:	4b0b      	ldr	r3, [pc, #44]	; (4012f0 <prvNotifyQueueSetContainer+0x4c>)
  4012c4:	4798      	blx	r3
  4012c6:	4605      	mov	r5, r0
			if( pxQueueSetContainer->xTxLock == queueUNLOCKED )
  4012c8:	6ca3      	ldr	r3, [r4, #72]	; 0x48
  4012ca:	f1b3 3fff 	cmp.w	r3, #4294967295
  4012ce:	d003      	beq.n	4012d8 <prvNotifyQueueSetContainer+0x34>
				( pxQueueSetContainer->xTxLock )++;
  4012d0:	6ca3      	ldr	r3, [r4, #72]	; 0x48
  4012d2:	3301      	adds	r3, #1
  4012d4:	64a3      	str	r3, [r4, #72]	; 0x48
  4012d6:	e7ee      	b.n	4012b6 <prvNotifyQueueSetContainer+0x12>
				if( listLIST_IS_EMPTY( &( pxQueueSetContainer->xTasksWaitingToReceive ) ) == pdFALSE )
  4012d8:	6a63      	ldr	r3, [r4, #36]	; 0x24
  4012da:	2b00      	cmp	r3, #0
  4012dc:	d0eb      	beq.n	4012b6 <prvNotifyQueueSetContainer+0x12>
					if( xTaskRemoveFromEventList( &( pxQueueSetContainer->xTasksWaitingToReceive ) ) != pdFALSE )
  4012de:	f104 0024 	add.w	r0, r4, #36	; 0x24
  4012e2:	4b04      	ldr	r3, [pc, #16]	; (4012f4 <prvNotifyQueueSetContainer+0x50>)
  4012e4:	4798      	blx	r3
  4012e6:	2800      	cmp	r0, #0
						xReturn = pdTRUE;
  4012e8:	bf18      	it	ne
  4012ea:	2501      	movne	r5, #1
  4012ec:	e7e3      	b.n	4012b6 <prvNotifyQueueSetContainer+0x12>
  4012ee:	bf00      	nop
  4012f0:	00401221 	.word	0x00401221
  4012f4:	004020f1 	.word	0x004020f1

004012f8 <prvCopyDataFromQueue>:
	if( pxQueue->uxItemSize != ( UBaseType_t ) 0 )
  4012f8:	6c02      	ldr	r2, [r0, #64]	; 0x40
  4012fa:	b172      	cbz	r2, 40131a <prvCopyDataFromQueue+0x22>
{
  4012fc:	b510      	push	{r4, lr}
		pxQueue->u.pcReadFrom += pxQueue->uxItemSize;
  4012fe:	68c3      	ldr	r3, [r0, #12]
  401300:	4413      	add	r3, r2
  401302:	60c3      	str	r3, [r0, #12]
		if( pxQueue->u.pcReadFrom >= pxQueue->pcTail ) /*lint !e946 MISRA exception justified as use of the relational operator is the cleanest solutions. */
  401304:	6844      	ldr	r4, [r0, #4]
  401306:	42a3      	cmp	r3, r4
  401308:	d301      	bcc.n	40130e <prvCopyDataFromQueue+0x16>
			pxQueue->u.pcReadFrom = pxQueue->pcHead;
  40130a:	6803      	ldr	r3, [r0, #0]
  40130c:	60c3      	str	r3, [r0, #12]
  40130e:	460c      	mov	r4, r1
		( void ) memcpy( ( void * ) pvBuffer, ( void * ) pxQueue->u.pcReadFrom, ( size_t ) pxQueue->uxItemSize ); /*lint !e961 !e418 MISRA exception as the casts are only redundant for some ports.  Also previous logic ensures a null pointer can only be passed to memcpy() when the count is 0. */
  401310:	68c1      	ldr	r1, [r0, #12]
  401312:	4620      	mov	r0, r4
  401314:	4b01      	ldr	r3, [pc, #4]	; (40131c <prvCopyDataFromQueue+0x24>)
  401316:	4798      	blx	r3
  401318:	bd10      	pop	{r4, pc}
  40131a:	4770      	bx	lr
  40131c:	004033f5 	.word	0x004033f5

00401320 <prvUnlockQueue>:
{
  401320:	b5f8      	push	{r3, r4, r5, r6, r7, lr}
  401322:	4604      	mov	r4, r0
	taskENTER_CRITICAL();
  401324:	4b22      	ldr	r3, [pc, #136]	; (4013b0 <prvUnlockQueue+0x90>)
  401326:	4798      	blx	r3
		while( pxQueue->xTxLock > queueLOCKED_UNMODIFIED )
  401328:	6ca3      	ldr	r3, [r4, #72]	; 0x48
  40132a:	2b00      	cmp	r3, #0
  40132c:	dd1b      	ble.n	401366 <prvUnlockQueue+0x46>
					if( prvNotifyQueueSetContainer( pxQueue, queueSEND_TO_BACK ) == pdTRUE )
  40132e:	4d21      	ldr	r5, [pc, #132]	; (4013b4 <prvUnlockQueue+0x94>)
						vTaskMissedYield();
  401330:	4f21      	ldr	r7, [pc, #132]	; (4013b8 <prvUnlockQueue+0x98>)
						if( xTaskRemoveFromEventList( &( pxQueue->xTasksWaitingToReceive ) ) != pdFALSE )
  401332:	4e22      	ldr	r6, [pc, #136]	; (4013bc <prvUnlockQueue+0x9c>)
  401334:	e00b      	b.n	40134e <prvUnlockQueue+0x2e>
					if( listLIST_IS_EMPTY( &( pxQueue->xTasksWaitingToReceive ) ) == pdFALSE )
  401336:	6a63      	ldr	r3, [r4, #36]	; 0x24
  401338:	b1ab      	cbz	r3, 401366 <prvUnlockQueue+0x46>
						if( xTaskRemoveFromEventList( &( pxQueue->xTasksWaitingToReceive ) ) != pdFALSE )
  40133a:	f104 0024 	add.w	r0, r4, #36	; 0x24
  40133e:	47b0      	blx	r6
  401340:	b978      	cbnz	r0, 401362 <prvUnlockQueue+0x42>
			--( pxQueue->xTxLock );
  401342:	6ca3      	ldr	r3, [r4, #72]	; 0x48
  401344:	3b01      	subs	r3, #1
  401346:	64a3      	str	r3, [r4, #72]	; 0x48
		while( pxQueue->xTxLock > queueLOCKED_UNMODIFIED )
  401348:	6ca3      	ldr	r3, [r4, #72]	; 0x48
  40134a:	2b00      	cmp	r3, #0
  40134c:	dd0b      	ble.n	401366 <prvUnlockQueue+0x46>
				if( pxQueue->pxQueueSetContainer != NULL )
  40134e:	6d63      	ldr	r3, [r4, #84]	; 0x54
  401350:	2b00      	cmp	r3, #0
  401352:	d0f0      	beq.n	401336 <prvUnlockQueue+0x16>
					if( prvNotifyQueueSetContainer( pxQueue, queueSEND_TO_BACK ) == pdTRUE )
  401354:	2100      	movs	r1, #0
  401356:	4620      	mov	r0, r4
  401358:	47a8      	blx	r5
  40135a:	2801      	cmp	r0, #1
  40135c:	d1f1      	bne.n	401342 <prvUnlockQueue+0x22>
						vTaskMissedYield();
  40135e:	47b8      	blx	r7
  401360:	e7ef      	b.n	401342 <prvUnlockQueue+0x22>
							vTaskMissedYield();
  401362:	47b8      	blx	r7
  401364:	e7ed      	b.n	401342 <prvUnlockQueue+0x22>
		pxQueue->xTxLock = queueUNLOCKED;
  401366:	f04f 33ff 	mov.w	r3, #4294967295
  40136a:	64a3      	str	r3, [r4, #72]	; 0x48
	taskEXIT_CRITICAL();
  40136c:	4b14      	ldr	r3, [pc, #80]	; (4013c0 <prvUnlockQueue+0xa0>)
  40136e:	4798      	blx	r3
	taskENTER_CRITICAL();
  401370:	4b0f      	ldr	r3, [pc, #60]	; (4013b0 <prvUnlockQueue+0x90>)
  401372:	4798      	blx	r3
		while( pxQueue->xRxLock > queueLOCKED_UNMODIFIED )
  401374:	6c63      	ldr	r3, [r4, #68]	; 0x44
  401376:	2b00      	cmp	r3, #0
  401378:	dd14      	ble.n	4013a4 <prvUnlockQueue+0x84>
			if( listLIST_IS_EMPTY( &( pxQueue->xTasksWaitingToSend ) ) == pdFALSE )
  40137a:	6923      	ldr	r3, [r4, #16]
  40137c:	b193      	cbz	r3, 4013a4 <prvUnlockQueue+0x84>
				if( xTaskRemoveFromEventList( &( pxQueue->xTasksWaitingToSend ) ) != pdFALSE )
  40137e:	f104 0610 	add.w	r6, r4, #16
  401382:	4d0e      	ldr	r5, [pc, #56]	; (4013bc <prvUnlockQueue+0x9c>)
					vTaskMissedYield();
  401384:	4f0c      	ldr	r7, [pc, #48]	; (4013b8 <prvUnlockQueue+0x98>)
  401386:	e007      	b.n	401398 <prvUnlockQueue+0x78>
				--( pxQueue->xRxLock );
  401388:	6c63      	ldr	r3, [r4, #68]	; 0x44
  40138a:	3b01      	subs	r3, #1
  40138c:	6463      	str	r3, [r4, #68]	; 0x44
		while( pxQueue->xRxLock > queueLOCKED_UNMODIFIED )
  40138e:	6c63      	ldr	r3, [r4, #68]	; 0x44
  401390:	2b00      	cmp	r3, #0
  401392:	dd07      	ble.n	4013a4 <prvUnlockQueue+0x84>
			if( listLIST_IS_EMPTY( &( pxQueue->xTasksWaitingToSend ) ) == pdFALSE )
  401394:	6923      	ldr	r3, [r4, #16]
  401396:	b12b      	cbz	r3, 4013a4 <prvUnlockQueue+0x84>
				if( xTaskRemoveFromEventList( &( pxQueue->xTasksWaitingToSend ) ) != pdFALSE )
  401398:	4630      	mov	r0, r6
  40139a:	47a8      	blx	r5
  40139c:	2800      	cmp	r0, #0
  40139e:	d0f3      	beq.n	401388 <prvUnlockQueue+0x68>
					vTaskMissedYield();
  4013a0:	47b8      	blx	r7
  4013a2:	e7f1      	b.n	401388 <prvUnlockQueue+0x68>
		pxQueue->xRxLock = queueUNLOCKED;
  4013a4:	f04f 33ff 	mov.w	r3, #4294967295
  4013a8:	6463      	str	r3, [r4, #68]	; 0x44
	taskEXIT_CRITICAL();
  4013aa:	4b05      	ldr	r3, [pc, #20]	; (4013c0 <prvUnlockQueue+0xa0>)
  4013ac:	4798      	blx	r3
  4013ae:	bdf8      	pop	{r3, r4, r5, r6, r7, pc}
  4013b0:	0040108d 	.word	0x0040108d
  4013b4:	004012a5 	.word	0x004012a5
  4013b8:	004021ed 	.word	0x004021ed
  4013bc:	004020f1 	.word	0x004020f1
  4013c0:	004010b1 	.word	0x004010b1

004013c4 <xQueueGenericReset>:
{
  4013c4:	b538      	push	{r3, r4, r5, lr}
  4013c6:	4604      	mov	r4, r0
  4013c8:	460d      	mov	r5, r1
	taskENTER_CRITICAL();
  4013ca:	4b18      	ldr	r3, [pc, #96]	; (40142c <xQueueGenericReset+0x68>)
  4013cc:	4798      	blx	r3
		pxQueue->pcTail = pxQueue->pcHead + ( pxQueue->uxLength * pxQueue->uxItemSize );
  4013ce:	6822      	ldr	r2, [r4, #0]
  4013d0:	6c21      	ldr	r1, [r4, #64]	; 0x40
  4013d2:	6be3      	ldr	r3, [r4, #60]	; 0x3c
  4013d4:	fb03 f301 	mul.w	r3, r3, r1
  4013d8:	18d0      	adds	r0, r2, r3
  4013da:	6060      	str	r0, [r4, #4]
		pxQueue->uxMessagesWaiting = ( UBaseType_t ) 0U;
  4013dc:	2000      	movs	r0, #0
  4013de:	63a0      	str	r0, [r4, #56]	; 0x38
		pxQueue->pcWriteTo = pxQueue->pcHead;
  4013e0:	60a2      	str	r2, [r4, #8]
		pxQueue->u.pcReadFrom = pxQueue->pcHead + ( ( pxQueue->uxLength - ( UBaseType_t ) 1U ) * pxQueue->uxItemSize );
  4013e2:	1a5b      	subs	r3, r3, r1
  4013e4:	4413      	add	r3, r2
  4013e6:	60e3      	str	r3, [r4, #12]
		pxQueue->xRxLock = queueUNLOCKED;
  4013e8:	f04f 33ff 	mov.w	r3, #4294967295
  4013ec:	6463      	str	r3, [r4, #68]	; 0x44
		pxQueue->xTxLock = queueUNLOCKED;
  4013ee:	64a3      	str	r3, [r4, #72]	; 0x48
		if( xNewQueue == pdFALSE )
  4013f0:	b9a5      	cbnz	r5, 40141c <xQueueGenericReset+0x58>
			if( listLIST_IS_EMPTY( &( pxQueue->xTasksWaitingToSend ) ) == pdFALSE )
  4013f2:	6923      	ldr	r3, [r4, #16]
  4013f4:	b91b      	cbnz	r3, 4013fe <xQueueGenericReset+0x3a>
	taskEXIT_CRITICAL();
  4013f6:	4b0e      	ldr	r3, [pc, #56]	; (401430 <xQueueGenericReset+0x6c>)
  4013f8:	4798      	blx	r3
}
  4013fa:	2001      	movs	r0, #1
  4013fc:	bd38      	pop	{r3, r4, r5, pc}
				if( xTaskRemoveFromEventList( &( pxQueue->xTasksWaitingToSend ) ) == pdTRUE )
  4013fe:	f104 0010 	add.w	r0, r4, #16
  401402:	4b0c      	ldr	r3, [pc, #48]	; (401434 <xQueueGenericReset+0x70>)
  401404:	4798      	blx	r3
  401406:	2801      	cmp	r0, #1
  401408:	d1f5      	bne.n	4013f6 <xQueueGenericReset+0x32>
					queueYIELD_IF_USING_PREEMPTION();
  40140a:	f04f 5280 	mov.w	r2, #268435456	; 0x10000000
  40140e:	4b0a      	ldr	r3, [pc, #40]	; (401438 <xQueueGenericReset+0x74>)
  401410:	601a      	str	r2, [r3, #0]
  401412:	f3bf 8f4f 	dsb	sy
  401416:	f3bf 8f6f 	isb	sy
  40141a:	e7ec      	b.n	4013f6 <xQueueGenericReset+0x32>
			vListInitialise( &( pxQueue->xTasksWaitingToSend ) );
  40141c:	f104 0010 	add.w	r0, r4, #16
  401420:	4d06      	ldr	r5, [pc, #24]	; (40143c <xQueueGenericReset+0x78>)
  401422:	47a8      	blx	r5
			vListInitialise( &( pxQueue->xTasksWaitingToReceive ) );
  401424:	f104 0024 	add.w	r0, r4, #36	; 0x24
  401428:	47a8      	blx	r5
  40142a:	e7e4      	b.n	4013f6 <xQueueGenericReset+0x32>
  40142c:	0040108d 	.word	0x0040108d
  401430:	004010b1 	.word	0x004010b1
  401434:	004020f1 	.word	0x004020f1
  401438:	e000ed04 	.word	0xe000ed04
  40143c:	00400f69 	.word	0x00400f69

00401440 <xQueueGenericCreate>:
{
  401440:	b5f8      	push	{r3, r4, r5, r6, r7, lr}
  401442:	4605      	mov	r5, r0
  401444:	4617      	mov	r7, r2
	if( uxItemSize == ( UBaseType_t ) 0 )
  401446:	460e      	mov	r6, r1
  401448:	b159      	cbz	r1, 401462 <xQueueGenericCreate+0x22>
		xQueueSizeInBytes = ( size_t ) ( uxQueueLength * uxItemSize ) + ( size_t ) 1; /*lint !e961 MISRA exception as the casts are only redundant for some ports. */
  40144a:	fb00 f001 	mul.w	r0, r0, r1
	pxNewQueue = ( Queue_t * ) pvPortMalloc( sizeof( Queue_t ) + xQueueSizeInBytes );
  40144e:	3059      	adds	r0, #89	; 0x59
  401450:	4b0d      	ldr	r3, [pc, #52]	; (401488 <xQueueGenericCreate+0x48>)
  401452:	4798      	blx	r3
	if( pxNewQueue != NULL )
  401454:	4604      	mov	r4, r0
  401456:	b118      	cbz	r0, 401460 <xQueueGenericCreate+0x20>
			pxNewQueue->pcHead = ( ( int8_t * ) pxNewQueue ) + sizeof( Queue_t );
  401458:	f100 0358 	add.w	r3, r0, #88	; 0x58
  40145c:	6003      	str	r3, [r0, #0]
  40145e:	e006      	b.n	40146e <xQueueGenericCreate+0x2e>
  401460:	bdf8      	pop	{r3, r4, r5, r6, r7, pc}
	pxNewQueue = ( Queue_t * ) pvPortMalloc( sizeof( Queue_t ) + xQueueSizeInBytes );
  401462:	2058      	movs	r0, #88	; 0x58
  401464:	4b08      	ldr	r3, [pc, #32]	; (401488 <xQueueGenericCreate+0x48>)
  401466:	4798      	blx	r3
	if( pxNewQueue != NULL )
  401468:	4604      	mov	r4, r0
  40146a:	b160      	cbz	r0, 401486 <xQueueGenericCreate+0x46>
			pxNewQueue->pcHead = ( int8_t * ) pxNewQueue;
  40146c:	6024      	str	r4, [r4, #0]
		pxNewQueue->uxLength = uxQueueLength;
  40146e:	63e5      	str	r5, [r4, #60]	; 0x3c
		pxNewQueue->uxItemSize = uxItemSize;
  401470:	6426      	str	r6, [r4, #64]	; 0x40
		( void ) xQueueGenericReset( pxNewQueue, pdTRUE );
  401472:	2101      	movs	r1, #1
  401474:	4620      	mov	r0, r4
  401476:	4b05      	ldr	r3, [pc, #20]	; (40148c <xQueueGenericCreate+0x4c>)
  401478:	4798      	blx	r3
			pxNewQueue->ucQueueType = ucQueueType;
  40147a:	f884 7050 	strb.w	r7, [r4, #80]	; 0x50
			pxNewQueue->pxQueueSetContainer = NULL;
  40147e:	2300      	movs	r3, #0
  401480:	6563      	str	r3, [r4, #84]	; 0x54
  401482:	4620      	mov	r0, r4
	return xReturn;
  401484:	bdf8      	pop	{r3, r4, r5, r6, r7, pc}
}
  401486:	bdf8      	pop	{r3, r4, r5, r6, r7, pc}
  401488:	004011cd 	.word	0x004011cd
  40148c:	004013c5 	.word	0x004013c5

00401490 <xQueueGenericSend>:
{
  401490:	e92d 4ff0 	stmdb	sp!, {r4, r5, r6, r7, r8, r9, sl, fp, lr}
  401494:	b085      	sub	sp, #20
  401496:	4604      	mov	r4, r0
  401498:	468a      	mov	sl, r1
  40149a:	9201      	str	r2, [sp, #4]
  40149c:	461f      	mov	r7, r3
BaseType_t xEntryTimeSet = pdFALSE, xYieldRequired;
  40149e:	2600      	movs	r6, #0
		taskENTER_CRITICAL();
  4014a0:	4d4a      	ldr	r5, [pc, #296]	; (4015cc <xQueueGenericSend+0x13c>)
					vTaskSetTimeOutState( &xTimeOut );
  4014a2:	f8df 8154 	ldr.w	r8, [pc, #340]	; 4015f8 <xQueueGenericSend+0x168>
					portYIELD_WITHIN_API();
  4014a6:	f8df 9134 	ldr.w	r9, [pc, #308]	; 4015dc <xQueueGenericSend+0x14c>
  4014aa:	e04a      	b.n	401542 <xQueueGenericSend+0xb2>
				xYieldRequired = prvCopyDataToQueue( pxQueue, pvItemToQueue, xCopyPosition );
  4014ac:	463a      	mov	r2, r7
  4014ae:	4651      	mov	r1, sl
  4014b0:	4620      	mov	r0, r4
  4014b2:	4b47      	ldr	r3, [pc, #284]	; (4015d0 <xQueueGenericSend+0x140>)
  4014b4:	4798      	blx	r3
					if( pxQueue->pxQueueSetContainer != NULL )
  4014b6:	6d63      	ldr	r3, [r4, #84]	; 0x54
  4014b8:	b1a3      	cbz	r3, 4014e4 <xQueueGenericSend+0x54>
						if( prvNotifyQueueSetContainer( pxQueue, xCopyPosition ) == pdTRUE )
  4014ba:	4639      	mov	r1, r7
  4014bc:	4620      	mov	r0, r4
  4014be:	4b45      	ldr	r3, [pc, #276]	; (4015d4 <xQueueGenericSend+0x144>)
  4014c0:	4798      	blx	r3
  4014c2:	2801      	cmp	r0, #1
  4014c4:	d005      	beq.n	4014d2 <xQueueGenericSend+0x42>
				taskEXIT_CRITICAL();
  4014c6:	4b44      	ldr	r3, [pc, #272]	; (4015d8 <xQueueGenericSend+0x148>)
  4014c8:	4798      	blx	r3
				return pdPASS;
  4014ca:	2001      	movs	r0, #1
}
  4014cc:	b005      	add	sp, #20
  4014ce:	e8bd 8ff0 	ldmia.w	sp!, {r4, r5, r6, r7, r8, r9, sl, fp, pc}
							queueYIELD_IF_USING_PREEMPTION();
  4014d2:	f04f 5280 	mov.w	r2, #268435456	; 0x10000000
  4014d6:	4b41      	ldr	r3, [pc, #260]	; (4015dc <xQueueGenericSend+0x14c>)
  4014d8:	601a      	str	r2, [r3, #0]
  4014da:	f3bf 8f4f 	dsb	sy
  4014de:	f3bf 8f6f 	isb	sy
  4014e2:	e7f0      	b.n	4014c6 <xQueueGenericSend+0x36>
						if( listLIST_IS_EMPTY( &( pxQueue->xTasksWaitingToReceive ) ) == pdFALSE )
  4014e4:	6a63      	ldr	r3, [r4, #36]	; 0x24
  4014e6:	b953      	cbnz	r3, 4014fe <xQueueGenericSend+0x6e>
						else if( xYieldRequired != pdFALSE )
  4014e8:	2800      	cmp	r0, #0
  4014ea:	d0ec      	beq.n	4014c6 <xQueueGenericSend+0x36>
							queueYIELD_IF_USING_PREEMPTION();
  4014ec:	f04f 5280 	mov.w	r2, #268435456	; 0x10000000
  4014f0:	4b3a      	ldr	r3, [pc, #232]	; (4015dc <xQueueGenericSend+0x14c>)
  4014f2:	601a      	str	r2, [r3, #0]
  4014f4:	f3bf 8f4f 	dsb	sy
  4014f8:	f3bf 8f6f 	isb	sy
  4014fc:	e7e3      	b.n	4014c6 <xQueueGenericSend+0x36>
							if( xTaskRemoveFromEventList( &( pxQueue->xTasksWaitingToReceive ) ) == pdTRUE )
  4014fe:	f104 0024 	add.w	r0, r4, #36	; 0x24
  401502:	4b37      	ldr	r3, [pc, #220]	; (4015e0 <xQueueGenericSend+0x150>)
  401504:	4798      	blx	r3
  401506:	2801      	cmp	r0, #1
  401508:	d1dd      	bne.n	4014c6 <xQueueGenericSend+0x36>
								queueYIELD_IF_USING_PREEMPTION();
  40150a:	f04f 5280 	mov.w	r2, #268435456	; 0x10000000
  40150e:	4b33      	ldr	r3, [pc, #204]	; (4015dc <xQueueGenericSend+0x14c>)
  401510:	601a      	str	r2, [r3, #0]
  401512:	f3bf 8f4f 	dsb	sy
  401516:	f3bf 8f6f 	isb	sy
  40151a:	e7d4      	b.n	4014c6 <xQueueGenericSend+0x36>
					taskEXIT_CRITICAL();
  40151c:	4b2e      	ldr	r3, [pc, #184]	; (4015d8 <xQueueGenericSend+0x148>)
  40151e:	4798      	blx	r3
					return errQUEUE_FULL;
  401520:	2000      	movs	r0, #0
  401522:	e7d3      	b.n	4014cc <xQueueGenericSend+0x3c>
					vTaskSetTimeOutState( &xTimeOut );
  401524:	a802      	add	r0, sp, #8
  401526:	47c0      	blx	r8
  401528:	e017      	b.n	40155a <xQueueGenericSend+0xca>
		prvLockQueue( pxQueue );
  40152a:	2300      	movs	r3, #0
  40152c:	6463      	str	r3, [r4, #68]	; 0x44
  40152e:	e01d      	b.n	40156c <xQueueGenericSend+0xdc>
  401530:	2300      	movs	r3, #0
  401532:	64a3      	str	r3, [r4, #72]	; 0x48
  401534:	e01e      	b.n	401574 <xQueueGenericSend+0xe4>
				prvUnlockQueue( pxQueue );
  401536:	4620      	mov	r0, r4
  401538:	4b2a      	ldr	r3, [pc, #168]	; (4015e4 <xQueueGenericSend+0x154>)
  40153a:	4798      	blx	r3
				( void ) xTaskResumeAll();
  40153c:	4b2a      	ldr	r3, [pc, #168]	; (4015e8 <xQueueGenericSend+0x158>)
  40153e:	4798      	blx	r3
  401540:	2601      	movs	r6, #1
		taskENTER_CRITICAL();
  401542:	47a8      	blx	r5
			if( ( pxQueue->uxMessagesWaiting < pxQueue->uxLength ) || ( xCopyPosition == queueOVERWRITE ) )
  401544:	6ba2      	ldr	r2, [r4, #56]	; 0x38
  401546:	6be3      	ldr	r3, [r4, #60]	; 0x3c
  401548:	429a      	cmp	r2, r3
  40154a:	d3af      	bcc.n	4014ac <xQueueGenericSend+0x1c>
  40154c:	2f02      	cmp	r7, #2
  40154e:	d0ad      	beq.n	4014ac <xQueueGenericSend+0x1c>
				if( xTicksToWait == ( TickType_t ) 0 )
  401550:	9b01      	ldr	r3, [sp, #4]
  401552:	2b00      	cmp	r3, #0
  401554:	d0e2      	beq.n	40151c <xQueueGenericSend+0x8c>
				else if( xEntryTimeSet == pdFALSE )
  401556:	2e00      	cmp	r6, #0
  401558:	d0e4      	beq.n	401524 <xQueueGenericSend+0x94>
		taskEXIT_CRITICAL();
  40155a:	4b1f      	ldr	r3, [pc, #124]	; (4015d8 <xQueueGenericSend+0x148>)
  40155c:	4798      	blx	r3
		vTaskSuspendAll();
  40155e:	4b23      	ldr	r3, [pc, #140]	; (4015ec <xQueueGenericSend+0x15c>)
  401560:	4798      	blx	r3
		prvLockQueue( pxQueue );
  401562:	47a8      	blx	r5
  401564:	6c63      	ldr	r3, [r4, #68]	; 0x44
  401566:	f1b3 3fff 	cmp.w	r3, #4294967295
  40156a:	d0de      	beq.n	40152a <xQueueGenericSend+0x9a>
  40156c:	6ca3      	ldr	r3, [r4, #72]	; 0x48
  40156e:	f1b3 3fff 	cmp.w	r3, #4294967295
  401572:	d0dd      	beq.n	401530 <xQueueGenericSend+0xa0>
  401574:	4b18      	ldr	r3, [pc, #96]	; (4015d8 <xQueueGenericSend+0x148>)
  401576:	4798      	blx	r3
		if( xTaskCheckForTimeOut( &xTimeOut, &xTicksToWait ) == pdFALSE )
  401578:	a901      	add	r1, sp, #4
  40157a:	a802      	add	r0, sp, #8
  40157c:	4b1c      	ldr	r3, [pc, #112]	; (4015f0 <xQueueGenericSend+0x160>)
  40157e:	4798      	blx	r3
  401580:	b9e0      	cbnz	r0, 4015bc <xQueueGenericSend+0x12c>
	taskENTER_CRITICAL();
  401582:	47a8      	blx	r5
		if( pxQueue->uxMessagesWaiting == pxQueue->uxLength )
  401584:	f8d4 b038 	ldr.w	fp, [r4, #56]	; 0x38
  401588:	6be6      	ldr	r6, [r4, #60]	; 0x3c
	taskEXIT_CRITICAL();
  40158a:	4b13      	ldr	r3, [pc, #76]	; (4015d8 <xQueueGenericSend+0x148>)
  40158c:	4798      	blx	r3
			if( prvIsQueueFull( pxQueue ) != pdFALSE )
  40158e:	45b3      	cmp	fp, r6
  401590:	d1d1      	bne.n	401536 <xQueueGenericSend+0xa6>
				vTaskPlaceOnEventList( &( pxQueue->xTasksWaitingToSend ), xTicksToWait );
  401592:	9901      	ldr	r1, [sp, #4]
  401594:	f104 0010 	add.w	r0, r4, #16
  401598:	4b16      	ldr	r3, [pc, #88]	; (4015f4 <xQueueGenericSend+0x164>)
  40159a:	4798      	blx	r3
				prvUnlockQueue( pxQueue );
  40159c:	4620      	mov	r0, r4
  40159e:	4b11      	ldr	r3, [pc, #68]	; (4015e4 <xQueueGenericSend+0x154>)
  4015a0:	4798      	blx	r3
				if( xTaskResumeAll() == pdFALSE )
  4015a2:	4b11      	ldr	r3, [pc, #68]	; (4015e8 <xQueueGenericSend+0x158>)
  4015a4:	4798      	blx	r3
  4015a6:	2800      	cmp	r0, #0
  4015a8:	d1ca      	bne.n	401540 <xQueueGenericSend+0xb0>
					portYIELD_WITHIN_API();
  4015aa:	f04f 5380 	mov.w	r3, #268435456	; 0x10000000
  4015ae:	f8c9 3000 	str.w	r3, [r9]
  4015b2:	f3bf 8f4f 	dsb	sy
  4015b6:	f3bf 8f6f 	isb	sy
  4015ba:	e7c1      	b.n	401540 <xQueueGenericSend+0xb0>
			prvUnlockQueue( pxQueue );
  4015bc:	4620      	mov	r0, r4
  4015be:	4b09      	ldr	r3, [pc, #36]	; (4015e4 <xQueueGenericSend+0x154>)
  4015c0:	4798      	blx	r3
			( void ) xTaskResumeAll();
  4015c2:	4b09      	ldr	r3, [pc, #36]	; (4015e8 <xQueueGenericSend+0x158>)
  4015c4:	4798      	blx	r3
			return errQUEUE_FULL;
  4015c6:	2000      	movs	r0, #0
  4015c8:	e780      	b.n	4014cc <xQueueGenericSend+0x3c>
  4015ca:	bf00      	nop
  4015cc:	0040108d 	.word	0x0040108d
  4015d0:	00401221 	.word	0x00401221
  4015d4:	004012a5 	.word	0x004012a5
  4015d8:	004010b1 	.word	0x004010b1
  4015dc:	e000ed04 	.word	0xe000ed04
  4015e0:	004020f1 	.word	0x004020f1
  4015e4:	00401321 	.word	0x00401321
  4015e8:	00401d61 	.word	0x00401d61
  4015ec:	00401c0d 	.word	0x00401c0d
  4015f0:	00402189 	.word	0x00402189
  4015f4:	0040201d 	.word	0x0040201d
  4015f8:	00402171 	.word	0x00402171

004015fc <xQueueGenericSendFromISR>:
{
  4015fc:	b5f8      	push	{r3, r4, r5, r6, r7, lr}
	__asm volatile
  4015fe:	f3ef 8711 	mrs	r7, BASEPRI
  401602:	f04f 0480 	mov.w	r4, #128	; 0x80
  401606:	b672      	cpsid	i
  401608:	f384 8811 	msr	BASEPRI, r4
  40160c:	f3bf 8f6f 	isb	sy
  401610:	f3bf 8f4f 	dsb	sy
  401614:	b662      	cpsie	i
		if( ( pxQueue->uxMessagesWaiting < pxQueue->uxLength ) || ( xCopyPosition == queueOVERWRITE ) )
  401616:	6b85      	ldr	r5, [r0, #56]	; 0x38
  401618:	6bc4      	ldr	r4, [r0, #60]	; 0x3c
  40161a:	42a5      	cmp	r5, r4
  40161c:	d305      	bcc.n	40162a <xQueueGenericSendFromISR+0x2e>
  40161e:	2b02      	cmp	r3, #2
  401620:	d003      	beq.n	40162a <xQueueGenericSendFromISR+0x2e>
			xReturn = errQUEUE_FULL;
  401622:	2000      	movs	r0, #0
	__asm volatile
  401624:	f387 8811 	msr	BASEPRI, r7
}
  401628:	bdf8      	pop	{r3, r4, r5, r6, r7, pc}
  40162a:	461d      	mov	r5, r3
  40162c:	4616      	mov	r6, r2
  40162e:	4604      	mov	r4, r0
			( void ) prvCopyDataToQueue( pxQueue, pvItemToQueue, xCopyPosition );
  401630:	461a      	mov	r2, r3
  401632:	4b13      	ldr	r3, [pc, #76]	; (401680 <xQueueGenericSendFromISR+0x84>)
  401634:	4798      	blx	r3
			if( pxQueue->xTxLock == queueUNLOCKED )
  401636:	6ca3      	ldr	r3, [r4, #72]	; 0x48
  401638:	f1b3 3fff 	cmp.w	r3, #4294967295
  40163c:	d004      	beq.n	401648 <xQueueGenericSendFromISR+0x4c>
				++( pxQueue->xTxLock );
  40163e:	6ca3      	ldr	r3, [r4, #72]	; 0x48
  401640:	3301      	adds	r3, #1
  401642:	64a3      	str	r3, [r4, #72]	; 0x48
			xReturn = pdPASS;
  401644:	2001      	movs	r0, #1
  401646:	e7ed      	b.n	401624 <xQueueGenericSendFromISR+0x28>
					if( pxQueue->pxQueueSetContainer != NULL )
  401648:	6d63      	ldr	r3, [r4, #84]	; 0x54
  40164a:	b143      	cbz	r3, 40165e <xQueueGenericSendFromISR+0x62>
						if( prvNotifyQueueSetContainer( pxQueue, xCopyPosition ) == pdTRUE )
  40164c:	4629      	mov	r1, r5
  40164e:	4620      	mov	r0, r4
  401650:	4b0c      	ldr	r3, [pc, #48]	; (401684 <xQueueGenericSendFromISR+0x88>)
  401652:	4798      	blx	r3
							if( pxHigherPriorityTaskWoken != NULL )
  401654:	b186      	cbz	r6, 401678 <xQueueGenericSendFromISR+0x7c>
  401656:	2801      	cmp	r0, #1
  401658:	d10e      	bne.n	401678 <xQueueGenericSendFromISR+0x7c>
								*pxHigherPriorityTaskWoken = pdTRUE;
  40165a:	6030      	str	r0, [r6, #0]
  40165c:	e7e2      	b.n	401624 <xQueueGenericSendFromISR+0x28>
						if( listLIST_IS_EMPTY( &( pxQueue->xTasksWaitingToReceive ) ) == pdFALSE )
  40165e:	6a63      	ldr	r3, [r4, #36]	; 0x24
  401660:	b90b      	cbnz	r3, 401666 <xQueueGenericSendFromISR+0x6a>
			xReturn = pdPASS;
  401662:	2001      	movs	r0, #1
  401664:	e7de      	b.n	401624 <xQueueGenericSendFromISR+0x28>
							if( xTaskRemoveFromEventList( &( pxQueue->xTasksWaitingToReceive ) ) != pdFALSE )
  401666:	f104 0024 	add.w	r0, r4, #36	; 0x24
  40166a:	4b07      	ldr	r3, [pc, #28]	; (401688 <xQueueGenericSendFromISR+0x8c>)
  40166c:	4798      	blx	r3
								if( pxHigherPriorityTaskWoken != NULL )
  40166e:	b12e      	cbz	r6, 40167c <xQueueGenericSendFromISR+0x80>
  401670:	b120      	cbz	r0, 40167c <xQueueGenericSendFromISR+0x80>
									*pxHigherPriorityTaskWoken = pdTRUE;
  401672:	2001      	movs	r0, #1
  401674:	6030      	str	r0, [r6, #0]
  401676:	e7d5      	b.n	401624 <xQueueGenericSendFromISR+0x28>
			xReturn = pdPASS;
  401678:	2001      	movs	r0, #1
  40167a:	e7d3      	b.n	401624 <xQueueGenericSendFromISR+0x28>
  40167c:	2001      	movs	r0, #1
  40167e:	e7d1      	b.n	401624 <xQueueGenericSendFromISR+0x28>
  401680:	00401221 	.word	0x00401221
  401684:	004012a5 	.word	0x004012a5
  401688:	004020f1 	.word	0x004020f1

0040168c <xQueueGiveFromISR>:
{
  40168c:	b538      	push	{r3, r4, r5, lr}
	__asm volatile
  40168e:	f3ef 8411 	mrs	r4, BASEPRI
  401692:	f04f 0380 	mov.w	r3, #128	; 0x80
  401696:	b672      	cpsid	i
  401698:	f383 8811 	msr	BASEPRI, r3
  40169c:	f3bf 8f6f 	isb	sy
  4016a0:	f3bf 8f4f 	dsb	sy
  4016a4:	b662      	cpsie	i
		if( pxQueue->uxMessagesWaiting < pxQueue->uxLength )
  4016a6:	6b82      	ldr	r2, [r0, #56]	; 0x38
  4016a8:	6bc3      	ldr	r3, [r0, #60]	; 0x3c
  4016aa:	429a      	cmp	r2, r3
  4016ac:	d224      	bcs.n	4016f8 <xQueueGiveFromISR+0x6c>
			++( pxQueue->uxMessagesWaiting );
  4016ae:	6b83      	ldr	r3, [r0, #56]	; 0x38
  4016b0:	3301      	adds	r3, #1
  4016b2:	6383      	str	r3, [r0, #56]	; 0x38
			if( pxQueue->xTxLock == queueUNLOCKED )
  4016b4:	6c83      	ldr	r3, [r0, #72]	; 0x48
  4016b6:	f1b3 3fff 	cmp.w	r3, #4294967295
  4016ba:	d006      	beq.n	4016ca <xQueueGiveFromISR+0x3e>
				++( pxQueue->xTxLock );
  4016bc:	6c83      	ldr	r3, [r0, #72]	; 0x48
  4016be:	3301      	adds	r3, #1
  4016c0:	6483      	str	r3, [r0, #72]	; 0x48
			xReturn = pdPASS;
  4016c2:	2001      	movs	r0, #1
	__asm volatile
  4016c4:	f384 8811 	msr	BASEPRI, r4
}
  4016c8:	bd38      	pop	{r3, r4, r5, pc}
  4016ca:	460d      	mov	r5, r1
					if( pxQueue->pxQueueSetContainer != NULL )
  4016cc:	6d43      	ldr	r3, [r0, #84]	; 0x54
  4016ce:	b13b      	cbz	r3, 4016e0 <xQueueGiveFromISR+0x54>
						if( prvNotifyQueueSetContainer( pxQueue, queueSEND_TO_BACK ) == pdTRUE )
  4016d0:	2100      	movs	r1, #0
  4016d2:	4b0c      	ldr	r3, [pc, #48]	; (401704 <xQueueGiveFromISR+0x78>)
  4016d4:	4798      	blx	r3
							if( pxHigherPriorityTaskWoken != NULL )
  4016d6:	b18d      	cbz	r5, 4016fc <xQueueGiveFromISR+0x70>
  4016d8:	2801      	cmp	r0, #1
  4016da:	d10f      	bne.n	4016fc <xQueueGiveFromISR+0x70>
								*pxHigherPriorityTaskWoken = pdTRUE;
  4016dc:	6028      	str	r0, [r5, #0]
  4016de:	e7f1      	b.n	4016c4 <xQueueGiveFromISR+0x38>
						if( listLIST_IS_EMPTY( &( pxQueue->xTasksWaitingToReceive ) ) == pdFALSE )
  4016e0:	6a43      	ldr	r3, [r0, #36]	; 0x24
  4016e2:	b90b      	cbnz	r3, 4016e8 <xQueueGiveFromISR+0x5c>
			xReturn = pdPASS;
  4016e4:	2001      	movs	r0, #1
  4016e6:	e7ed      	b.n	4016c4 <xQueueGiveFromISR+0x38>
							if( xTaskRemoveFromEventList( &( pxQueue->xTasksWaitingToReceive ) ) != pdFALSE )
  4016e8:	3024      	adds	r0, #36	; 0x24
  4016ea:	4b07      	ldr	r3, [pc, #28]	; (401708 <xQueueGiveFromISR+0x7c>)
  4016ec:	4798      	blx	r3
								if( pxHigherPriorityTaskWoken != NULL )
  4016ee:	b13d      	cbz	r5, 401700 <xQueueGiveFromISR+0x74>
  4016f0:	b130      	cbz	r0, 401700 <xQueueGiveFromISR+0x74>
									*pxHigherPriorityTaskWoken = pdTRUE;
  4016f2:	2001      	movs	r0, #1
  4016f4:	6028      	str	r0, [r5, #0]
  4016f6:	e7e5      	b.n	4016c4 <xQueueGiveFromISR+0x38>
			xReturn = errQUEUE_FULL;
  4016f8:	2000      	movs	r0, #0
  4016fa:	e7e3      	b.n	4016c4 <xQueueGiveFromISR+0x38>
			xReturn = pdPASS;
  4016fc:	2001      	movs	r0, #1
  4016fe:	e7e1      	b.n	4016c4 <xQueueGiveFromISR+0x38>
  401700:	2001      	movs	r0, #1
  401702:	e7df      	b.n	4016c4 <xQueueGiveFromISR+0x38>
  401704:	004012a5 	.word	0x004012a5
  401708:	004020f1 	.word	0x004020f1

0040170c <xQueueGenericReceive>:
{
  40170c:	e92d 47f0 	stmdb	sp!, {r4, r5, r6, r7, r8, r9, sl, lr}
  401710:	b084      	sub	sp, #16
  401712:	4604      	mov	r4, r0
  401714:	468a      	mov	sl, r1
  401716:	9201      	str	r2, [sp, #4]
  401718:	4699      	mov	r9, r3
BaseType_t xEntryTimeSet = pdFALSE;
  40171a:	2600      	movs	r6, #0
		taskENTER_CRITICAL();
  40171c:	4d4d      	ldr	r5, [pc, #308]	; (401854 <xQueueGenericReceive+0x148>)
					vTaskSetTimeOutState( &xTimeOut );
  40171e:	f8df 8164 	ldr.w	r8, [pc, #356]	; 401884 <xQueueGenericReceive+0x178>
					portYIELD_WITHIN_API();
  401722:	4f4d      	ldr	r7, [pc, #308]	; (401858 <xQueueGenericReceive+0x14c>)
  401724:	e054      	b.n	4017d0 <xQueueGenericReceive+0xc4>
				pcOriginalReadPosition = pxQueue->u.pcReadFrom;
  401726:	68e5      	ldr	r5, [r4, #12]
				prvCopyDataFromQueue( pxQueue, pvBuffer );
  401728:	4651      	mov	r1, sl
  40172a:	4620      	mov	r0, r4
  40172c:	4b4b      	ldr	r3, [pc, #300]	; (40185c <xQueueGenericReceive+0x150>)
  40172e:	4798      	blx	r3
				if( xJustPeeking == pdFALSE )
  401730:	f1b9 0f00 	cmp.w	r9, #0
  401734:	d11f      	bne.n	401776 <xQueueGenericReceive+0x6a>
					--( pxQueue->uxMessagesWaiting );
  401736:	6ba3      	ldr	r3, [r4, #56]	; 0x38
  401738:	3b01      	subs	r3, #1
  40173a:	63a3      	str	r3, [r4, #56]	; 0x38
						if( pxQueue->uxQueueType == queueQUEUE_IS_MUTEX )
  40173c:	6823      	ldr	r3, [r4, #0]
  40173e:	b13b      	cbz	r3, 401750 <xQueueGenericReceive+0x44>
					if( listLIST_IS_EMPTY( &( pxQueue->xTasksWaitingToSend ) ) == pdFALSE )
  401740:	6923      	ldr	r3, [r4, #16]
  401742:	b94b      	cbnz	r3, 401758 <xQueueGenericReceive+0x4c>
				taskEXIT_CRITICAL();
  401744:	4b46      	ldr	r3, [pc, #280]	; (401860 <xQueueGenericReceive+0x154>)
  401746:	4798      	blx	r3
				return pdPASS;
  401748:	2001      	movs	r0, #1
}
  40174a:	b004      	add	sp, #16
  40174c:	e8bd 87f0 	ldmia.w	sp!, {r4, r5, r6, r7, r8, r9, sl, pc}
							pxQueue->pxMutexHolder = ( int8_t * ) pvTaskIncrementMutexHeldCount(); /*lint !e961 Cast is not redundant as TaskHandle_t is a typedef. */
  401750:	4b44      	ldr	r3, [pc, #272]	; (401864 <xQueueGenericReceive+0x158>)
  401752:	4798      	blx	r3
  401754:	6060      	str	r0, [r4, #4]
  401756:	e7f3      	b.n	401740 <xQueueGenericReceive+0x34>
						if( xTaskRemoveFromEventList( &( pxQueue->xTasksWaitingToSend ) ) == pdTRUE )
  401758:	f104 0010 	add.w	r0, r4, #16
  40175c:	4b42      	ldr	r3, [pc, #264]	; (401868 <xQueueGenericReceive+0x15c>)
  40175e:	4798      	blx	r3
  401760:	2801      	cmp	r0, #1
  401762:	d1ef      	bne.n	401744 <xQueueGenericReceive+0x38>
							queueYIELD_IF_USING_PREEMPTION();
  401764:	f04f 5280 	mov.w	r2, #268435456	; 0x10000000
  401768:	4b3b      	ldr	r3, [pc, #236]	; (401858 <xQueueGenericReceive+0x14c>)
  40176a:	601a      	str	r2, [r3, #0]
  40176c:	f3bf 8f4f 	dsb	sy
  401770:	f3bf 8f6f 	isb	sy
  401774:	e7e6      	b.n	401744 <xQueueGenericReceive+0x38>
					pxQueue->u.pcReadFrom = pcOriginalReadPosition;
  401776:	60e5      	str	r5, [r4, #12]
					if( listLIST_IS_EMPTY( &( pxQueue->xTasksWaitingToReceive ) ) == pdFALSE )
  401778:	6a63      	ldr	r3, [r4, #36]	; 0x24
  40177a:	2b00      	cmp	r3, #0
  40177c:	d0e2      	beq.n	401744 <xQueueGenericReceive+0x38>
						if( xTaskRemoveFromEventList( &( pxQueue->xTasksWaitingToReceive ) ) != pdFALSE )
  40177e:	f104 0024 	add.w	r0, r4, #36	; 0x24
  401782:	4b39      	ldr	r3, [pc, #228]	; (401868 <xQueueGenericReceive+0x15c>)
  401784:	4798      	blx	r3
  401786:	2800      	cmp	r0, #0
  401788:	d0dc      	beq.n	401744 <xQueueGenericReceive+0x38>
							queueYIELD_IF_USING_PREEMPTION();
  40178a:	f04f 5280 	mov.w	r2, #268435456	; 0x10000000
  40178e:	4b32      	ldr	r3, [pc, #200]	; (401858 <xQueueGenericReceive+0x14c>)
  401790:	601a      	str	r2, [r3, #0]
  401792:	f3bf 8f4f 	dsb	sy
  401796:	f3bf 8f6f 	isb	sy
  40179a:	e7d3      	b.n	401744 <xQueueGenericReceive+0x38>
					taskEXIT_CRITICAL();
  40179c:	4b30      	ldr	r3, [pc, #192]	; (401860 <xQueueGenericReceive+0x154>)
  40179e:	4798      	blx	r3
					return errQUEUE_EMPTY;
  4017a0:	2000      	movs	r0, #0
  4017a2:	e7d2      	b.n	40174a <xQueueGenericReceive+0x3e>
					vTaskSetTimeOutState( &xTimeOut );
  4017a4:	a802      	add	r0, sp, #8
  4017a6:	47c0      	blx	r8
  4017a8:	e01b      	b.n	4017e2 <xQueueGenericReceive+0xd6>
		prvLockQueue( pxQueue );
  4017aa:	2300      	movs	r3, #0
  4017ac:	6463      	str	r3, [r4, #68]	; 0x44
  4017ae:	e021      	b.n	4017f4 <xQueueGenericReceive+0xe8>
  4017b0:	2300      	movs	r3, #0
  4017b2:	64a3      	str	r3, [r4, #72]	; 0x48
  4017b4:	e022      	b.n	4017fc <xQueueGenericReceive+0xf0>
						taskENTER_CRITICAL();
  4017b6:	47a8      	blx	r5
							vTaskPriorityInherit( ( void * ) pxQueue->pxMutexHolder );
  4017b8:	6860      	ldr	r0, [r4, #4]
  4017ba:	4b2c      	ldr	r3, [pc, #176]	; (40186c <xQueueGenericReceive+0x160>)
  4017bc:	4798      	blx	r3
						taskEXIT_CRITICAL();
  4017be:	4b28      	ldr	r3, [pc, #160]	; (401860 <xQueueGenericReceive+0x154>)
  4017c0:	4798      	blx	r3
  4017c2:	e02b      	b.n	40181c <xQueueGenericReceive+0x110>
				prvUnlockQueue( pxQueue );
  4017c4:	4620      	mov	r0, r4
  4017c6:	4b2a      	ldr	r3, [pc, #168]	; (401870 <xQueueGenericReceive+0x164>)
  4017c8:	4798      	blx	r3
				( void ) xTaskResumeAll();
  4017ca:	4b2a      	ldr	r3, [pc, #168]	; (401874 <xQueueGenericReceive+0x168>)
  4017cc:	4798      	blx	r3
  4017ce:	2601      	movs	r6, #1
		taskENTER_CRITICAL();
  4017d0:	47a8      	blx	r5
			if( pxQueue->uxMessagesWaiting > ( UBaseType_t ) 0 )
  4017d2:	6ba3      	ldr	r3, [r4, #56]	; 0x38
  4017d4:	2b00      	cmp	r3, #0
  4017d6:	d1a6      	bne.n	401726 <xQueueGenericReceive+0x1a>
				if( xTicksToWait == ( TickType_t ) 0 )
  4017d8:	9b01      	ldr	r3, [sp, #4]
  4017da:	2b00      	cmp	r3, #0
  4017dc:	d0de      	beq.n	40179c <xQueueGenericReceive+0x90>
				else if( xEntryTimeSet == pdFALSE )
  4017de:	2e00      	cmp	r6, #0
  4017e0:	d0e0      	beq.n	4017a4 <xQueueGenericReceive+0x98>
		taskEXIT_CRITICAL();
  4017e2:	4b1f      	ldr	r3, [pc, #124]	; (401860 <xQueueGenericReceive+0x154>)
  4017e4:	4798      	blx	r3
		vTaskSuspendAll();
  4017e6:	4b24      	ldr	r3, [pc, #144]	; (401878 <xQueueGenericReceive+0x16c>)
  4017e8:	4798      	blx	r3
		prvLockQueue( pxQueue );
  4017ea:	47a8      	blx	r5
  4017ec:	6c63      	ldr	r3, [r4, #68]	; 0x44
  4017ee:	f1b3 3fff 	cmp.w	r3, #4294967295
  4017f2:	d0da      	beq.n	4017aa <xQueueGenericReceive+0x9e>
  4017f4:	6ca3      	ldr	r3, [r4, #72]	; 0x48
  4017f6:	f1b3 3fff 	cmp.w	r3, #4294967295
  4017fa:	d0d9      	beq.n	4017b0 <xQueueGenericReceive+0xa4>
  4017fc:	4b18      	ldr	r3, [pc, #96]	; (401860 <xQueueGenericReceive+0x154>)
  4017fe:	4798      	blx	r3
		if( xTaskCheckForTimeOut( &xTimeOut, &xTicksToWait ) == pdFALSE )
  401800:	a901      	add	r1, sp, #4
  401802:	a802      	add	r0, sp, #8
  401804:	4b1d      	ldr	r3, [pc, #116]	; (40187c <xQueueGenericReceive+0x170>)
  401806:	4798      	blx	r3
  401808:	b9e0      	cbnz	r0, 401844 <xQueueGenericReceive+0x138>
	taskENTER_CRITICAL();
  40180a:	47a8      	blx	r5
		if( pxQueue->uxMessagesWaiting == ( UBaseType_t )  0 )
  40180c:	6ba6      	ldr	r6, [r4, #56]	; 0x38
	taskEXIT_CRITICAL();
  40180e:	4b14      	ldr	r3, [pc, #80]	; (401860 <xQueueGenericReceive+0x154>)
  401810:	4798      	blx	r3
			if( prvIsQueueEmpty( pxQueue ) != pdFALSE )
  401812:	2e00      	cmp	r6, #0
  401814:	d1d6      	bne.n	4017c4 <xQueueGenericReceive+0xb8>
					if( pxQueue->uxQueueType == queueQUEUE_IS_MUTEX )
  401816:	6823      	ldr	r3, [r4, #0]
  401818:	2b00      	cmp	r3, #0
  40181a:	d0cc      	beq.n	4017b6 <xQueueGenericReceive+0xaa>
				vTaskPlaceOnEventList( &( pxQueue->xTasksWaitingToReceive ), xTicksToWait );
  40181c:	9901      	ldr	r1, [sp, #4]
  40181e:	f104 0024 	add.w	r0, r4, #36	; 0x24
  401822:	4b17      	ldr	r3, [pc, #92]	; (401880 <xQueueGenericReceive+0x174>)
  401824:	4798      	blx	r3
				prvUnlockQueue( pxQueue );
  401826:	4620      	mov	r0, r4
  401828:	4b11      	ldr	r3, [pc, #68]	; (401870 <xQueueGenericReceive+0x164>)
  40182a:	4798      	blx	r3
				if( xTaskResumeAll() == pdFALSE )
  40182c:	4b11      	ldr	r3, [pc, #68]	; (401874 <xQueueGenericReceive+0x168>)
  40182e:	4798      	blx	r3
  401830:	2800      	cmp	r0, #0
  401832:	d1cc      	bne.n	4017ce <xQueueGenericReceive+0xc2>
					portYIELD_WITHIN_API();
  401834:	f04f 5380 	mov.w	r3, #268435456	; 0x10000000
  401838:	603b      	str	r3, [r7, #0]
  40183a:	f3bf 8f4f 	dsb	sy
  40183e:	f3bf 8f6f 	isb	sy
  401842:	e7c4      	b.n	4017ce <xQueueGenericReceive+0xc2>
			prvUnlockQueue( pxQueue );
  401844:	4620      	mov	r0, r4
  401846:	4b0a      	ldr	r3, [pc, #40]	; (401870 <xQueueGenericReceive+0x164>)
  401848:	4798      	blx	r3
			( void ) xTaskResumeAll();
  40184a:	4b0a      	ldr	r3, [pc, #40]	; (401874 <xQueueGenericReceive+0x168>)
  40184c:	4798      	blx	r3
			return errQUEUE_EMPTY;
  40184e:	2000      	movs	r0, #0
  401850:	e77b      	b.n	40174a <xQueueGenericReceive+0x3e>
  401852:	bf00      	nop
  401854:	0040108d 	.word	0x0040108d
  401858:	e000ed04 	.word	0xe000ed04
  40185c:	004012f9 	.word	0x004012f9
  401860:	004010b1 	.word	0x004010b1
  401864:	00402341 	.word	0x00402341
  401868:	004020f1 	.word	0x004020f1
  40186c:	00402219 	.word	0x00402219
  401870:	00401321 	.word	0x00401321
  401874:	00401d61 	.word	0x00401d61
  401878:	00401c0d 	.word	0x00401c0d
  40187c:	00402189 	.word	0x00402189
  401880:	0040201d 	.word	0x0040201d
  401884:	00402171 	.word	0x00402171

00401888 <vQueueAddToRegistry>:
	{
  401888:	b410      	push	{r4}
			if( xQueueRegistry[ ux ].pcQueueName == NULL )
  40188a:	4b0b      	ldr	r3, [pc, #44]	; (4018b8 <vQueueAddToRegistry+0x30>)
  40188c:	681b      	ldr	r3, [r3, #0]
  40188e:	b153      	cbz	r3, 4018a6 <vQueueAddToRegistry+0x1e>
  401890:	2301      	movs	r3, #1
  401892:	4c09      	ldr	r4, [pc, #36]	; (4018b8 <vQueueAddToRegistry+0x30>)
  401894:	f854 2033 	ldr.w	r2, [r4, r3, lsl #3]
  401898:	b132      	cbz	r2, 4018a8 <vQueueAddToRegistry+0x20>
		for( ux = ( UBaseType_t ) 0U; ux < ( UBaseType_t ) configQUEUE_REGISTRY_SIZE; ux++ )
  40189a:	3301      	adds	r3, #1
  40189c:	2b08      	cmp	r3, #8
  40189e:	d1f9      	bne.n	401894 <vQueueAddToRegistry+0xc>
	}
  4018a0:	f85d 4b04 	ldr.w	r4, [sp], #4
  4018a4:	4770      	bx	lr
		for( ux = ( UBaseType_t ) 0U; ux < ( UBaseType_t ) configQUEUE_REGISTRY_SIZE; ux++ )
  4018a6:	2300      	movs	r3, #0
				xQueueRegistry[ ux ].pcQueueName = pcQueueName;
  4018a8:	4a03      	ldr	r2, [pc, #12]	; (4018b8 <vQueueAddToRegistry+0x30>)
  4018aa:	f842 1033 	str.w	r1, [r2, r3, lsl #3]
				xQueueRegistry[ ux ].xHandle = xQueue;
  4018ae:	eb02 03c3 	add.w	r3, r2, r3, lsl #3
  4018b2:	6058      	str	r0, [r3, #4]
				break;
  4018b4:	e7f4      	b.n	4018a0 <vQueueAddToRegistry+0x18>
  4018b6:	bf00      	nop
  4018b8:	20400bd8 	.word	0x20400bd8

004018bc <vQueueWaitForMessageRestricted>:
	{
  4018bc:	b570      	push	{r4, r5, r6, lr}
  4018be:	4604      	mov	r4, r0
  4018c0:	460d      	mov	r5, r1
  4018c2:	4616      	mov	r6, r2
		prvLockQueue( pxQueue );
  4018c4:	4b0f      	ldr	r3, [pc, #60]	; (401904 <vQueueWaitForMessageRestricted+0x48>)
  4018c6:	4798      	blx	r3
  4018c8:	6c63      	ldr	r3, [r4, #68]	; 0x44
  4018ca:	f1b3 3fff 	cmp.w	r3, #4294967295
  4018ce:	d00b      	beq.n	4018e8 <vQueueWaitForMessageRestricted+0x2c>
  4018d0:	6ca3      	ldr	r3, [r4, #72]	; 0x48
  4018d2:	f1b3 3fff 	cmp.w	r3, #4294967295
  4018d6:	d00a      	beq.n	4018ee <vQueueWaitForMessageRestricted+0x32>
  4018d8:	4b0b      	ldr	r3, [pc, #44]	; (401908 <vQueueWaitForMessageRestricted+0x4c>)
  4018da:	4798      	blx	r3
		if( pxQueue->uxMessagesWaiting == ( UBaseType_t ) 0U )
  4018dc:	6ba3      	ldr	r3, [r4, #56]	; 0x38
  4018de:	b14b      	cbz	r3, 4018f4 <vQueueWaitForMessageRestricted+0x38>
		prvUnlockQueue( pxQueue );
  4018e0:	4620      	mov	r0, r4
  4018e2:	4b0a      	ldr	r3, [pc, #40]	; (40190c <vQueueWaitForMessageRestricted+0x50>)
  4018e4:	4798      	blx	r3
  4018e6:	bd70      	pop	{r4, r5, r6, pc}
		prvLockQueue( pxQueue );
  4018e8:	2300      	movs	r3, #0
  4018ea:	6463      	str	r3, [r4, #68]	; 0x44
  4018ec:	e7f0      	b.n	4018d0 <vQueueWaitForMessageRestricted+0x14>
  4018ee:	2300      	movs	r3, #0
  4018f0:	64a3      	str	r3, [r4, #72]	; 0x48
  4018f2:	e7f1      	b.n	4018d8 <vQueueWaitForMessageRestricted+0x1c>
			vTaskPlaceOnEventListRestricted( &( pxQueue->xTasksWaitingToReceive ), xTicksToWait, xWaitIndefinitely );
  4018f4:	4632      	mov	r2, r6
  4018f6:	4629      	mov	r1, r5
  4018f8:	f104 0024 	add.w	r0, r4, #36	; 0x24
  4018fc:	4b04      	ldr	r3, [pc, #16]	; (401910 <vQueueWaitForMessageRestricted+0x54>)
  4018fe:	4798      	blx	r3
  401900:	e7ee      	b.n	4018e0 <vQueueWaitForMessageRestricted+0x24>
  401902:	bf00      	nop
  401904:	0040108d 	.word	0x0040108d
  401908:	004010b1 	.word	0x004010b1
  40190c:	00401321 	.word	0x00401321
  401910:	00402089 	.word	0x00402089

00401914 <prvResetNextTaskUnblockTime>:

static void prvResetNextTaskUnblockTime( void )
{
TCB_t *pxTCB;

	if( listLIST_IS_EMPTY( pxDelayedTaskList ) != pdFALSE )
  401914:	4b08      	ldr	r3, [pc, #32]	; (401938 <prvResetNextTaskUnblockTime+0x24>)
  401916:	681b      	ldr	r3, [r3, #0]
  401918:	681b      	ldr	r3, [r3, #0]
  40191a:	b13b      	cbz	r3, 40192c <prvResetNextTaskUnblockTime+0x18>
	{
		/* The new current delayed list is not empty, get the value of
		the item at the head of the delayed list.  This is the time at
		which the task at the head of the delayed list should be removed
		from the Blocked state. */
		( pxTCB ) = ( TCB_t * ) listGET_OWNER_OF_HEAD_ENTRY( pxDelayedTaskList );
  40191c:	4b06      	ldr	r3, [pc, #24]	; (401938 <prvResetNextTaskUnblockTime+0x24>)
  40191e:	681b      	ldr	r3, [r3, #0]
  401920:	68db      	ldr	r3, [r3, #12]
		xNextTaskUnblockTime = listGET_LIST_ITEM_VALUE( &( ( pxTCB )->xGenericListItem ) );
  401922:	68db      	ldr	r3, [r3, #12]
  401924:	685a      	ldr	r2, [r3, #4]
  401926:	4b05      	ldr	r3, [pc, #20]	; (40193c <prvResetNextTaskUnblockTime+0x28>)
  401928:	601a      	str	r2, [r3, #0]
  40192a:	4770      	bx	lr
		xNextTaskUnblockTime = portMAX_DELAY;
  40192c:	f04f 32ff 	mov.w	r2, #4294967295
  401930:	4b02      	ldr	r3, [pc, #8]	; (40193c <prvResetNextTaskUnblockTime+0x28>)
  401932:	601a      	str	r2, [r3, #0]
  401934:	4770      	bx	lr
  401936:	bf00      	nop
  401938:	20400a64 	.word	0x20400a64
  40193c:	20400b10 	.word	0x20400b10

00401940 <prvAddCurrentTaskToDelayedList>:
{
  401940:	b510      	push	{r4, lr}
	listSET_LIST_ITEM_VALUE( &( pxCurrentTCB->xGenericListItem ), xTimeToWake );
  401942:	4b0f      	ldr	r3, [pc, #60]	; (401980 <prvAddCurrentTaskToDelayedList+0x40>)
  401944:	681b      	ldr	r3, [r3, #0]
  401946:	6058      	str	r0, [r3, #4]
	if( xTimeToWake < xTickCount )
  401948:	4b0e      	ldr	r3, [pc, #56]	; (401984 <prvAddCurrentTaskToDelayedList+0x44>)
  40194a:	681b      	ldr	r3, [r3, #0]
  40194c:	4298      	cmp	r0, r3
  40194e:	d30e      	bcc.n	40196e <prvAddCurrentTaskToDelayedList+0x2e>
  401950:	4604      	mov	r4, r0
		vListInsert( pxDelayedTaskList, &( pxCurrentTCB->xGenericListItem ) );
  401952:	4b0d      	ldr	r3, [pc, #52]	; (401988 <prvAddCurrentTaskToDelayedList+0x48>)
  401954:	6818      	ldr	r0, [r3, #0]
  401956:	4b0a      	ldr	r3, [pc, #40]	; (401980 <prvAddCurrentTaskToDelayedList+0x40>)
  401958:	6819      	ldr	r1, [r3, #0]
  40195a:	3104      	adds	r1, #4
  40195c:	4b0b      	ldr	r3, [pc, #44]	; (40198c <prvAddCurrentTaskToDelayedList+0x4c>)
  40195e:	4798      	blx	r3
		if( xTimeToWake < xNextTaskUnblockTime )
  401960:	4b0b      	ldr	r3, [pc, #44]	; (401990 <prvAddCurrentTaskToDelayedList+0x50>)
  401962:	681b      	ldr	r3, [r3, #0]
  401964:	429c      	cmp	r4, r3
  401966:	d201      	bcs.n	40196c <prvAddCurrentTaskToDelayedList+0x2c>
			xNextTaskUnblockTime = xTimeToWake;
  401968:	4b09      	ldr	r3, [pc, #36]	; (401990 <prvAddCurrentTaskToDelayedList+0x50>)
  40196a:	601c      	str	r4, [r3, #0]
  40196c:	bd10      	pop	{r4, pc}
		vListInsert( pxOverflowDelayedTaskList, &( pxCurrentTCB->xGenericListItem ) );
  40196e:	4b09      	ldr	r3, [pc, #36]	; (401994 <prvAddCurrentTaskToDelayedList+0x54>)
  401970:	6818      	ldr	r0, [r3, #0]
  401972:	4b03      	ldr	r3, [pc, #12]	; (401980 <prvAddCurrentTaskToDelayedList+0x40>)
  401974:	6819      	ldr	r1, [r3, #0]
  401976:	3104      	adds	r1, #4
  401978:	4b04      	ldr	r3, [pc, #16]	; (40198c <prvAddCurrentTaskToDelayedList+0x4c>)
  40197a:	4798      	blx	r3
  40197c:	bd10      	pop	{r4, pc}
  40197e:	bf00      	nop
  401980:	20400a60 	.word	0x20400a60
  401984:	20400b58 	.word	0x20400b58
  401988:	20400a64 	.word	0x20400a64
  40198c:	00400f9d 	.word	0x00400f9d
  401990:	20400b10 	.word	0x20400b10
  401994:	20400a68 	.word	0x20400a68

00401998 <xTaskGenericCreate>:
{
  401998:	e92d 4ff0 	stmdb	sp!, {r4, r5, r6, r7, r8, r9, sl, fp, lr}
  40199c:	b083      	sub	sp, #12
  40199e:	9000      	str	r0, [sp, #0]
  4019a0:	460e      	mov	r6, r1
  4019a2:	4617      	mov	r7, r2
  4019a4:	9301      	str	r3, [sp, #4]
  4019a6:	f8dd b030 	ldr.w	fp, [sp, #48]	; 0x30
  4019aa:	f8dd a034 	ldr.w	sl, [sp, #52]	; 0x34
  4019ae:	9d0e      	ldr	r5, [sp, #56]	; 0x38
		pxStack = ( StackType_t * ) pvPortMallocAligned( ( ( ( size_t ) usStackDepth ) * sizeof( StackType_t ) ), puxStackBuffer ); /*lint !e961 MISRA exception as the casts are only redundant for some ports. */
  4019b0:	2d00      	cmp	r5, #0
  4019b2:	f000 8089 	beq.w	401ac8 <xTaskGenericCreate+0x130>
			pxNewTCB = ( TCB_t * ) pvPortMalloc( sizeof( TCB_t ) );
  4019b6:	2058      	movs	r0, #88	; 0x58
  4019b8:	4b5f      	ldr	r3, [pc, #380]	; (401b38 <xTaskGenericCreate+0x1a0>)
  4019ba:	4798      	blx	r3
			if( pxNewTCB != NULL )
  4019bc:	4604      	mov	r4, r0
  4019be:	2800      	cmp	r0, #0
  4019c0:	f000 8088 	beq.w	401ad4 <xTaskGenericCreate+0x13c>
				pxNewTCB->pxStack = pxStack;
  4019c4:	6305      	str	r5, [r0, #48]	; 0x30
			( void ) memset( pxNewTCB->pxStack, ( int ) tskSTACK_FILL_BYTE, ( size_t ) usStackDepth * sizeof( StackType_t ) );
  4019c6:	00ba      	lsls	r2, r7, #2
  4019c8:	21a5      	movs	r1, #165	; 0xa5
  4019ca:	4628      	mov	r0, r5
  4019cc:	4b5b      	ldr	r3, [pc, #364]	; (401b3c <xTaskGenericCreate+0x1a4>)
  4019ce:	4798      	blx	r3
			pxTopOfStack = pxNewTCB->pxStack + ( usStackDepth - ( uint16_t ) 1 );
  4019d0:	f06f 4340 	mvn.w	r3, #3221225472	; 0xc0000000
  4019d4:	443b      	add	r3, r7
  4019d6:	6b25      	ldr	r5, [r4, #48]	; 0x30
  4019d8:	eb05 0583 	add.w	r5, r5, r3, lsl #2
			pxTopOfStack = ( StackType_t * ) ( ( ( portPOINTER_SIZE_TYPE ) pxTopOfStack ) & ( ~( ( portPOINTER_SIZE_TYPE ) portBYTE_ALIGNMENT_MASK ) ) ); /*lint !e923 MISRA exception.  Avoiding casts between pointers and integers is not practical.  Size differences accounted for using portPOINTER_SIZE_TYPE type. */
  4019dc:	f025 0507 	bic.w	r5, r5, #7
		pxTCB->pcTaskName[ x ] = pcName[ x ];
  4019e0:	7833      	ldrb	r3, [r6, #0]
  4019e2:	f884 3034 	strb.w	r3, [r4, #52]	; 0x34
		if( pcName[ x ] == 0x00 )
  4019e6:	7833      	ldrb	r3, [r6, #0]
  4019e8:	b15b      	cbz	r3, 401a02 <xTaskGenericCreate+0x6a>
  4019ea:	4633      	mov	r3, r6
  4019ec:	f104 0234 	add.w	r2, r4, #52	; 0x34
  4019f0:	3609      	adds	r6, #9
		pxTCB->pcTaskName[ x ] = pcName[ x ];
  4019f2:	7859      	ldrb	r1, [r3, #1]
  4019f4:	f802 1f01 	strb.w	r1, [r2, #1]!
		if( pcName[ x ] == 0x00 )
  4019f8:	f813 1f01 	ldrb.w	r1, [r3, #1]!
  4019fc:	b109      	cbz	r1, 401a02 <xTaskGenericCreate+0x6a>
	for( x = ( UBaseType_t ) 0; x < ( UBaseType_t ) configMAX_TASK_NAME_LEN; x++ )
  4019fe:	42b3      	cmp	r3, r6
  401a00:	d1f7      	bne.n	4019f2 <xTaskGenericCreate+0x5a>
	pxTCB->pcTaskName[ configMAX_TASK_NAME_LEN - 1 ] = '\0';
  401a02:	2700      	movs	r7, #0
  401a04:	f884 703d 	strb.w	r7, [r4, #61]	; 0x3d
  401a08:	465e      	mov	r6, fp
  401a0a:	2e04      	cmp	r6, #4
  401a0c:	bf28      	it	cs
  401a0e:	2604      	movcs	r6, #4
	pxTCB->uxPriority = uxPriority;
  401a10:	62e6      	str	r6, [r4, #44]	; 0x2c
		pxTCB->uxBasePriority = uxPriority;
  401a12:	64a6      	str	r6, [r4, #72]	; 0x48
		pxTCB->uxMutexesHeld = 0;
  401a14:	64e7      	str	r7, [r4, #76]	; 0x4c
	vListInitialiseItem( &( pxTCB->xGenericListItem ) );
  401a16:	f104 0804 	add.w	r8, r4, #4
  401a1a:	4640      	mov	r0, r8
  401a1c:	f8df 9170 	ldr.w	r9, [pc, #368]	; 401b90 <xTaskGenericCreate+0x1f8>
  401a20:	47c8      	blx	r9
	vListInitialiseItem( &( pxTCB->xEventListItem ) );
  401a22:	f104 0018 	add.w	r0, r4, #24
  401a26:	47c8      	blx	r9
	listSET_LIST_ITEM_OWNER( &( pxTCB->xGenericListItem ), pxTCB );
  401a28:	6124      	str	r4, [r4, #16]
	listSET_LIST_ITEM_VALUE( &( pxTCB->xEventListItem ), ( TickType_t ) configMAX_PRIORITIES - ( TickType_t ) uxPriority ); /*lint !e961 MISRA exception as the casts are only redundant for some ports. */
  401a2a:	f1c6 0605 	rsb	r6, r6, #5
  401a2e:	61a6      	str	r6, [r4, #24]
	listSET_LIST_ITEM_OWNER( &( pxTCB->xEventListItem ), pxTCB );
  401a30:	6264      	str	r4, [r4, #36]	; 0x24
		pxTCB->ulNotifiedValue = 0;
  401a32:	6527      	str	r7, [r4, #80]	; 0x50
		pxTCB->eNotifyState = eNotWaitingNotification;
  401a34:	f884 7054 	strb.w	r7, [r4, #84]	; 0x54
			pxNewTCB->pxTopOfStack = pxPortInitialiseStack( pxTopOfStack, pxTaskCode, pvParameters );
  401a38:	9a01      	ldr	r2, [sp, #4]
  401a3a:	9900      	ldr	r1, [sp, #0]
  401a3c:	4628      	mov	r0, r5
  401a3e:	4b40      	ldr	r3, [pc, #256]	; (401b40 <xTaskGenericCreate+0x1a8>)
  401a40:	4798      	blx	r3
  401a42:	6020      	str	r0, [r4, #0]
		if( ( void * ) pxCreatedTask != NULL )
  401a44:	f1ba 0f00 	cmp.w	sl, #0
  401a48:	d001      	beq.n	401a4e <xTaskGenericCreate+0xb6>
			*pxCreatedTask = ( TaskHandle_t ) pxNewTCB;
  401a4a:	f8ca 4000 	str.w	r4, [sl]
		taskENTER_CRITICAL();
  401a4e:	4b3d      	ldr	r3, [pc, #244]	; (401b44 <xTaskGenericCreate+0x1ac>)
  401a50:	4798      	blx	r3
			uxCurrentNumberOfTasks++;
  401a52:	4a3d      	ldr	r2, [pc, #244]	; (401b48 <xTaskGenericCreate+0x1b0>)
  401a54:	6813      	ldr	r3, [r2, #0]
  401a56:	3301      	adds	r3, #1
  401a58:	6013      	str	r3, [r2, #0]
			if( pxCurrentTCB == NULL )
  401a5a:	4b3c      	ldr	r3, [pc, #240]	; (401b4c <xTaskGenericCreate+0x1b4>)
  401a5c:	681b      	ldr	r3, [r3, #0]
  401a5e:	2b00      	cmp	r3, #0
  401a60:	d03e      	beq.n	401ae0 <xTaskGenericCreate+0x148>
				if( xSchedulerRunning == pdFALSE )
  401a62:	4b3b      	ldr	r3, [pc, #236]	; (401b50 <xTaskGenericCreate+0x1b8>)
  401a64:	681b      	ldr	r3, [r3, #0]
  401a66:	b933      	cbnz	r3, 401a76 <xTaskGenericCreate+0xde>
					if( pxCurrentTCB->uxPriority <= uxPriority )
  401a68:	4b38      	ldr	r3, [pc, #224]	; (401b4c <xTaskGenericCreate+0x1b4>)
  401a6a:	681b      	ldr	r3, [r3, #0]
  401a6c:	6adb      	ldr	r3, [r3, #44]	; 0x2c
  401a6e:	459b      	cmp	fp, r3
  401a70:	d301      	bcc.n	401a76 <xTaskGenericCreate+0xde>
						pxCurrentTCB = pxNewTCB;
  401a72:	4b36      	ldr	r3, [pc, #216]	; (401b4c <xTaskGenericCreate+0x1b4>)
  401a74:	601c      	str	r4, [r3, #0]
			uxTaskNumber++;
  401a76:	4a37      	ldr	r2, [pc, #220]	; (401b54 <xTaskGenericCreate+0x1bc>)
  401a78:	6813      	ldr	r3, [r2, #0]
  401a7a:	3301      	adds	r3, #1
  401a7c:	6013      	str	r3, [r2, #0]
				pxNewTCB->uxTCBNumber = uxTaskNumber;
  401a7e:	6423      	str	r3, [r4, #64]	; 0x40
			prvAddTaskToReadyList( pxNewTCB );
  401a80:	6ae0      	ldr	r0, [r4, #44]	; 0x2c
  401a82:	4a35      	ldr	r2, [pc, #212]	; (401b58 <xTaskGenericCreate+0x1c0>)
  401a84:	6811      	ldr	r1, [r2, #0]
  401a86:	2301      	movs	r3, #1
  401a88:	4083      	lsls	r3, r0
  401a8a:	430b      	orrs	r3, r1
  401a8c:	6013      	str	r3, [r2, #0]
  401a8e:	eb00 0080 	add.w	r0, r0, r0, lsl #2
  401a92:	4641      	mov	r1, r8
  401a94:	4b31      	ldr	r3, [pc, #196]	; (401b5c <xTaskGenericCreate+0x1c4>)
  401a96:	eb03 0080 	add.w	r0, r3, r0, lsl #2
  401a9a:	4b31      	ldr	r3, [pc, #196]	; (401b60 <xTaskGenericCreate+0x1c8>)
  401a9c:	4798      	blx	r3
		taskEXIT_CRITICAL();
  401a9e:	4b31      	ldr	r3, [pc, #196]	; (401b64 <xTaskGenericCreate+0x1cc>)
  401aa0:	4798      	blx	r3
		if( xSchedulerRunning != pdFALSE )
  401aa2:	4b2b      	ldr	r3, [pc, #172]	; (401b50 <xTaskGenericCreate+0x1b8>)
  401aa4:	681b      	ldr	r3, [r3, #0]
  401aa6:	2b00      	cmp	r3, #0
  401aa8:	d040      	beq.n	401b2c <xTaskGenericCreate+0x194>
			if( pxCurrentTCB->uxPriority < uxPriority )
  401aaa:	4b28      	ldr	r3, [pc, #160]	; (401b4c <xTaskGenericCreate+0x1b4>)
  401aac:	681b      	ldr	r3, [r3, #0]
  401aae:	6adb      	ldr	r3, [r3, #44]	; 0x2c
  401ab0:	459b      	cmp	fp, r3
  401ab2:	d93f      	bls.n	401b34 <xTaskGenericCreate+0x19c>
				taskYIELD_IF_USING_PREEMPTION();
  401ab4:	f04f 5280 	mov.w	r2, #268435456	; 0x10000000
  401ab8:	4b2b      	ldr	r3, [pc, #172]	; (401b68 <xTaskGenericCreate+0x1d0>)
  401aba:	601a      	str	r2, [r3, #0]
  401abc:	f3bf 8f4f 	dsb	sy
  401ac0:	f3bf 8f6f 	isb	sy
			xReturn = pdPASS;
  401ac4:	2001      	movs	r0, #1
  401ac6:	e032      	b.n	401b2e <xTaskGenericCreate+0x196>
		pxStack = ( StackType_t * ) pvPortMallocAligned( ( ( ( size_t ) usStackDepth ) * sizeof( StackType_t ) ), puxStackBuffer ); /*lint !e961 MISRA exception as the casts are only redundant for some ports. */
  401ac8:	0090      	lsls	r0, r2, #2
  401aca:	4b1b      	ldr	r3, [pc, #108]	; (401b38 <xTaskGenericCreate+0x1a0>)
  401acc:	4798      	blx	r3
		if( pxStack != NULL )
  401ace:	4605      	mov	r5, r0
  401ad0:	b118      	cbz	r0, 401ada <xTaskGenericCreate+0x142>
  401ad2:	e770      	b.n	4019b6 <xTaskGenericCreate+0x1e>
				vPortFree( pxStack );
  401ad4:	4628      	mov	r0, r5
  401ad6:	4b25      	ldr	r3, [pc, #148]	; (401b6c <xTaskGenericCreate+0x1d4>)
  401ad8:	4798      	blx	r3
		xReturn = errCOULD_NOT_ALLOCATE_REQUIRED_MEMORY;
  401ada:	f04f 30ff 	mov.w	r0, #4294967295
  401ade:	e026      	b.n	401b2e <xTaskGenericCreate+0x196>
				pxCurrentTCB =  pxNewTCB;
  401ae0:	4b1a      	ldr	r3, [pc, #104]	; (401b4c <xTaskGenericCreate+0x1b4>)
  401ae2:	601c      	str	r4, [r3, #0]
				if( uxCurrentNumberOfTasks == ( UBaseType_t ) 1 )
  401ae4:	6813      	ldr	r3, [r2, #0]
  401ae6:	2b01      	cmp	r3, #1
  401ae8:	d1c5      	bne.n	401a76 <xTaskGenericCreate+0xde>
		vListInitialise( &( pxReadyTasksLists[ uxPriority ] ) );
  401aea:	4e1c      	ldr	r6, [pc, #112]	; (401b5c <xTaskGenericCreate+0x1c4>)
  401aec:	4630      	mov	r0, r6
  401aee:	4d20      	ldr	r5, [pc, #128]	; (401b70 <xTaskGenericCreate+0x1d8>)
  401af0:	47a8      	blx	r5
  401af2:	f106 0014 	add.w	r0, r6, #20
  401af6:	47a8      	blx	r5
  401af8:	f106 0028 	add.w	r0, r6, #40	; 0x28
  401afc:	47a8      	blx	r5
  401afe:	f106 003c 	add.w	r0, r6, #60	; 0x3c
  401b02:	47a8      	blx	r5
  401b04:	f106 0050 	add.w	r0, r6, #80	; 0x50
  401b08:	47a8      	blx	r5
	vListInitialise( &xDelayedTaskList1 );
  401b0a:	4f1a      	ldr	r7, [pc, #104]	; (401b74 <xTaskGenericCreate+0x1dc>)
  401b0c:	4638      	mov	r0, r7
  401b0e:	47a8      	blx	r5
	vListInitialise( &xDelayedTaskList2 );
  401b10:	4e19      	ldr	r6, [pc, #100]	; (401b78 <xTaskGenericCreate+0x1e0>)
  401b12:	4630      	mov	r0, r6
  401b14:	47a8      	blx	r5
	vListInitialise( &xPendingReadyList );
  401b16:	4819      	ldr	r0, [pc, #100]	; (401b7c <xTaskGenericCreate+0x1e4>)
  401b18:	47a8      	blx	r5
		vListInitialise( &xTasksWaitingTermination );
  401b1a:	4819      	ldr	r0, [pc, #100]	; (401b80 <xTaskGenericCreate+0x1e8>)
  401b1c:	47a8      	blx	r5
		vListInitialise( &xSuspendedTaskList );
  401b1e:	4819      	ldr	r0, [pc, #100]	; (401b84 <xTaskGenericCreate+0x1ec>)
  401b20:	47a8      	blx	r5
	pxDelayedTaskList = &xDelayedTaskList1;
  401b22:	4b19      	ldr	r3, [pc, #100]	; (401b88 <xTaskGenericCreate+0x1f0>)
  401b24:	601f      	str	r7, [r3, #0]
	pxOverflowDelayedTaskList = &xDelayedTaskList2;
  401b26:	4b19      	ldr	r3, [pc, #100]	; (401b8c <xTaskGenericCreate+0x1f4>)
  401b28:	601e      	str	r6, [r3, #0]
  401b2a:	e7a4      	b.n	401a76 <xTaskGenericCreate+0xde>
			xReturn = pdPASS;
  401b2c:	2001      	movs	r0, #1
}
  401b2e:	b003      	add	sp, #12
  401b30:	e8bd 8ff0 	ldmia.w	sp!, {r4, r5, r6, r7, r8, r9, sl, fp, pc}
			xReturn = pdPASS;
  401b34:	2001      	movs	r0, #1
	return xReturn;
  401b36:	e7fa      	b.n	401b2e <xTaskGenericCreate+0x196>
  401b38:	004011cd 	.word	0x004011cd
  401b3c:	00403529 	.word	0x00403529
  401b40:	00401041 	.word	0x00401041
  401b44:	0040108d 	.word	0x0040108d
  401b48:	20400ad0 	.word	0x20400ad0
  401b4c:	20400a60 	.word	0x20400a60
  401b50:	20400b2c 	.word	0x20400b2c
  401b54:	20400adc 	.word	0x20400adc
  401b58:	20400ae4 	.word	0x20400ae4
  401b5c:	20400a6c 	.word	0x20400a6c
  401b60:	00400f85 	.word	0x00400f85
  401b64:	004010b1 	.word	0x004010b1
  401b68:	e000ed04 	.word	0xe000ed04
  401b6c:	004011fd 	.word	0x004011fd
  401b70:	00400f69 	.word	0x00400f69
  401b74:	20400ae8 	.word	0x20400ae8
  401b78:	20400afc 	.word	0x20400afc
  401b7c:	20400b18 	.word	0x20400b18
  401b80:	20400b44 	.word	0x20400b44
  401b84:	20400b30 	.word	0x20400b30
  401b88:	20400a64 	.word	0x20400a64
  401b8c:	20400a68 	.word	0x20400a68
  401b90:	00400f7f 	.word	0x00400f7f

00401b94 <vTaskStartScheduler>:
{
  401b94:	b510      	push	{r4, lr}
  401b96:	b084      	sub	sp, #16
		xReturn = xTaskCreate( prvIdleTask, "IDLE", tskIDLE_STACK_SIZE, ( void * ) NULL, ( tskIDLE_PRIORITY | portPRIVILEGE_BIT ), NULL );  /*lint !e961 MISRA exception, justified as it is not a redundant explicit cast to all supported compilers. */
  401b98:	2300      	movs	r3, #0
  401b9a:	9303      	str	r3, [sp, #12]
  401b9c:	9302      	str	r3, [sp, #8]
  401b9e:	9301      	str	r3, [sp, #4]
  401ba0:	9300      	str	r3, [sp, #0]
  401ba2:	2282      	movs	r2, #130	; 0x82
  401ba4:	4911      	ldr	r1, [pc, #68]	; (401bec <vTaskStartScheduler+0x58>)
  401ba6:	4812      	ldr	r0, [pc, #72]	; (401bf0 <vTaskStartScheduler+0x5c>)
  401ba8:	4c12      	ldr	r4, [pc, #72]	; (401bf4 <vTaskStartScheduler+0x60>)
  401baa:	47a0      	blx	r4
		if( xReturn == pdPASS )
  401bac:	2801      	cmp	r0, #1
  401bae:	d001      	beq.n	401bb4 <vTaskStartScheduler+0x20>
}
  401bb0:	b004      	add	sp, #16
  401bb2:	bd10      	pop	{r4, pc}
			xReturn = xTimerCreateTimerTask();
  401bb4:	4b10      	ldr	r3, [pc, #64]	; (401bf8 <vTaskStartScheduler+0x64>)
  401bb6:	4798      	blx	r3
	if( xReturn == pdPASS )
  401bb8:	2801      	cmp	r0, #1
  401bba:	d1f9      	bne.n	401bb0 <vTaskStartScheduler+0x1c>
	__asm volatile
  401bbc:	f04f 0380 	mov.w	r3, #128	; 0x80
  401bc0:	b672      	cpsid	i
  401bc2:	f383 8811 	msr	BASEPRI, r3
  401bc6:	f3bf 8f6f 	isb	sy
  401bca:	f3bf 8f4f 	dsb	sy
  401bce:	b662      	cpsie	i
		xNextTaskUnblockTime = portMAX_DELAY;
  401bd0:	f04f 32ff 	mov.w	r2, #4294967295
  401bd4:	4b09      	ldr	r3, [pc, #36]	; (401bfc <vTaskStartScheduler+0x68>)
  401bd6:	601a      	str	r2, [r3, #0]
		xSchedulerRunning = pdTRUE;
  401bd8:	2201      	movs	r2, #1
  401bda:	4b09      	ldr	r3, [pc, #36]	; (401c00 <vTaskStartScheduler+0x6c>)
  401bdc:	601a      	str	r2, [r3, #0]
		xTickCount = ( TickType_t ) 0U;
  401bde:	2200      	movs	r2, #0
  401be0:	4b08      	ldr	r3, [pc, #32]	; (401c04 <vTaskStartScheduler+0x70>)
  401be2:	601a      	str	r2, [r3, #0]
		if( xPortStartScheduler() != pdFALSE )
  401be4:	4b08      	ldr	r3, [pc, #32]	; (401c08 <vTaskStartScheduler+0x74>)
  401be6:	4798      	blx	r3
}
  401be8:	e7e2      	b.n	401bb0 <vTaskStartScheduler+0x1c>
  401bea:	bf00      	nop
  401bec:	00405d98 	.word	0x00405d98
  401bf0:	00401ed1 	.word	0x00401ed1
  401bf4:	00401999 	.word	0x00401999
  401bf8:	00402419 	.word	0x00402419
  401bfc:	20400b10 	.word	0x20400b10
  401c00:	20400b2c 	.word	0x20400b2c
  401c04:	20400b58 	.word	0x20400b58
  401c08:	0040117d 	.word	0x0040117d

00401c0c <vTaskSuspendAll>:
	++uxSchedulerSuspended;
  401c0c:	4a02      	ldr	r2, [pc, #8]	; (401c18 <vTaskSuspendAll+0xc>)
  401c0e:	6813      	ldr	r3, [r2, #0]
  401c10:	3301      	adds	r3, #1
  401c12:	6013      	str	r3, [r2, #0]
  401c14:	4770      	bx	lr
  401c16:	bf00      	nop
  401c18:	20400ad8 	.word	0x20400ad8

00401c1c <xTaskGetTickCount>:
		xTicks = xTickCount;
  401c1c:	4b01      	ldr	r3, [pc, #4]	; (401c24 <xTaskGetTickCount+0x8>)
  401c1e:	6818      	ldr	r0, [r3, #0]
}
  401c20:	4770      	bx	lr
  401c22:	bf00      	nop
  401c24:	20400b58 	.word	0x20400b58

00401c28 <xTaskIncrementTick>:
{
  401c28:	e92d 47f0 	stmdb	sp!, {r4, r5, r6, r7, r8, r9, sl, lr}
	if( uxSchedulerSuspended == ( UBaseType_t ) pdFALSE )
  401c2c:	4b3d      	ldr	r3, [pc, #244]	; (401d24 <xTaskIncrementTick+0xfc>)
  401c2e:	681b      	ldr	r3, [r3, #0]
  401c30:	2b00      	cmp	r3, #0
  401c32:	d16e      	bne.n	401d12 <xTaskIncrementTick+0xea>
		++xTickCount;
  401c34:	4b3c      	ldr	r3, [pc, #240]	; (401d28 <xTaskIncrementTick+0x100>)
  401c36:	681a      	ldr	r2, [r3, #0]
  401c38:	3201      	adds	r2, #1
  401c3a:	601a      	str	r2, [r3, #0]
			const TickType_t xConstTickCount = xTickCount;
  401c3c:	f8d3 a000 	ldr.w	sl, [r3]
			if( xConstTickCount == ( TickType_t ) 0U )
  401c40:	f1ba 0f00 	cmp.w	sl, #0
  401c44:	d01b      	beq.n	401c7e <xTaskIncrementTick+0x56>
			if( xConstTickCount >= xNextTaskUnblockTime )
  401c46:	4b39      	ldr	r3, [pc, #228]	; (401d2c <xTaskIncrementTick+0x104>)
  401c48:	681b      	ldr	r3, [r3, #0]
  401c4a:	459a      	cmp	sl, r3
  401c4c:	d224      	bcs.n	401c98 <xTaskIncrementTick+0x70>
BaseType_t xSwitchRequired = pdFALSE;
  401c4e:	2600      	movs	r6, #0
			if( listCURRENT_LIST_LENGTH( &( pxReadyTasksLists[ pxCurrentTCB->uxPriority ] ) ) > ( UBaseType_t ) 1 )
  401c50:	4b37      	ldr	r3, [pc, #220]	; (401d30 <xTaskIncrementTick+0x108>)
  401c52:	681b      	ldr	r3, [r3, #0]
  401c54:	6adb      	ldr	r3, [r3, #44]	; 0x2c
  401c56:	eb03 0383 	add.w	r3, r3, r3, lsl #2
  401c5a:	4a36      	ldr	r2, [pc, #216]	; (401d34 <xTaskIncrementTick+0x10c>)
  401c5c:	f852 3023 	ldr.w	r3, [r2, r3, lsl #2]
				xSwitchRequired = pdTRUE;
  401c60:	2b02      	cmp	r3, #2
  401c62:	bf28      	it	cs
  401c64:	2601      	movcs	r6, #1
			if( uxPendedTicks == ( UBaseType_t ) 0U )
  401c66:	4b34      	ldr	r3, [pc, #208]	; (401d38 <xTaskIncrementTick+0x110>)
  401c68:	681b      	ldr	r3, [r3, #0]
  401c6a:	2b00      	cmp	r3, #0
  401c6c:	d04e      	beq.n	401d0c <xTaskIncrementTick+0xe4>
		if( xYieldPending != pdFALSE )
  401c6e:	4b33      	ldr	r3, [pc, #204]	; (401d3c <xTaskIncrementTick+0x114>)
  401c70:	681b      	ldr	r3, [r3, #0]
			xSwitchRequired = pdTRUE;
  401c72:	2b00      	cmp	r3, #0
}
  401c74:	bf0c      	ite	eq
  401c76:	4630      	moveq	r0, r6
  401c78:	2001      	movne	r0, #1
  401c7a:	e8bd 87f0 	ldmia.w	sp!, {r4, r5, r6, r7, r8, r9, sl, pc}
				taskSWITCH_DELAYED_LISTS();
  401c7e:	4a30      	ldr	r2, [pc, #192]	; (401d40 <xTaskIncrementTick+0x118>)
  401c80:	6811      	ldr	r1, [r2, #0]
  401c82:	4b30      	ldr	r3, [pc, #192]	; (401d44 <xTaskIncrementTick+0x11c>)
  401c84:	6818      	ldr	r0, [r3, #0]
  401c86:	6010      	str	r0, [r2, #0]
  401c88:	6019      	str	r1, [r3, #0]
  401c8a:	4a2f      	ldr	r2, [pc, #188]	; (401d48 <xTaskIncrementTick+0x120>)
  401c8c:	6813      	ldr	r3, [r2, #0]
  401c8e:	3301      	adds	r3, #1
  401c90:	6013      	str	r3, [r2, #0]
  401c92:	4b2e      	ldr	r3, [pc, #184]	; (401d4c <xTaskIncrementTick+0x124>)
  401c94:	4798      	blx	r3
  401c96:	e7d6      	b.n	401c46 <xTaskIncrementTick+0x1e>
  401c98:	2600      	movs	r6, #0
					if( listLIST_IS_EMPTY( pxDelayedTaskList ) != pdFALSE )
  401c9a:	4f29      	ldr	r7, [pc, #164]	; (401d40 <xTaskIncrementTick+0x118>)
						( void ) uxListRemove( &( pxTCB->xGenericListItem ) );
  401c9c:	f8df 90b8 	ldr.w	r9, [pc, #184]	; 401d58 <xTaskIncrementTick+0x130>
						prvAddTaskToReadyList( pxTCB );
  401ca0:	f8df 80b8 	ldr.w	r8, [pc, #184]	; 401d5c <xTaskIncrementTick+0x134>
  401ca4:	e021      	b.n	401cea <xTaskIncrementTick+0xc2>
						xNextTaskUnblockTime = portMAX_DELAY;
  401ca6:	f04f 32ff 	mov.w	r2, #4294967295
  401caa:	4b20      	ldr	r3, [pc, #128]	; (401d2c <xTaskIncrementTick+0x104>)
  401cac:	601a      	str	r2, [r3, #0]
						break;
  401cae:	e7cf      	b.n	401c50 <xTaskIncrementTick+0x28>
							xNextTaskUnblockTime = xItemValue;
  401cb0:	4a1e      	ldr	r2, [pc, #120]	; (401d2c <xTaskIncrementTick+0x104>)
  401cb2:	6013      	str	r3, [r2, #0]
							break;
  401cb4:	e7cc      	b.n	401c50 <xTaskIncrementTick+0x28>
							( void ) uxListRemove( &( pxTCB->xEventListItem ) );
  401cb6:	f104 0018 	add.w	r0, r4, #24
  401cba:	47c8      	blx	r9
						prvAddTaskToReadyList( pxTCB );
  401cbc:	6ae0      	ldr	r0, [r4, #44]	; 0x2c
  401cbe:	f8d8 2000 	ldr.w	r2, [r8]
  401cc2:	2301      	movs	r3, #1
  401cc4:	4083      	lsls	r3, r0
  401cc6:	4313      	orrs	r3, r2
  401cc8:	f8c8 3000 	str.w	r3, [r8]
  401ccc:	eb00 0080 	add.w	r0, r0, r0, lsl #2
  401cd0:	4629      	mov	r1, r5
  401cd2:	4b18      	ldr	r3, [pc, #96]	; (401d34 <xTaskIncrementTick+0x10c>)
  401cd4:	eb03 0080 	add.w	r0, r3, r0, lsl #2
  401cd8:	4b1d      	ldr	r3, [pc, #116]	; (401d50 <xTaskIncrementTick+0x128>)
  401cda:	4798      	blx	r3
							if( pxTCB->uxPriority >= pxCurrentTCB->uxPriority )
  401cdc:	4b14      	ldr	r3, [pc, #80]	; (401d30 <xTaskIncrementTick+0x108>)
  401cde:	681b      	ldr	r3, [r3, #0]
  401ce0:	6ae2      	ldr	r2, [r4, #44]	; 0x2c
  401ce2:	6adb      	ldr	r3, [r3, #44]	; 0x2c
								xSwitchRequired = pdTRUE;
  401ce4:	429a      	cmp	r2, r3
  401ce6:	bf28      	it	cs
  401ce8:	2601      	movcs	r6, #1
					if( listLIST_IS_EMPTY( pxDelayedTaskList ) != pdFALSE )
  401cea:	683b      	ldr	r3, [r7, #0]
  401cec:	681b      	ldr	r3, [r3, #0]
  401cee:	2b00      	cmp	r3, #0
  401cf0:	d0d9      	beq.n	401ca6 <xTaskIncrementTick+0x7e>
						pxTCB = ( TCB_t * ) listGET_OWNER_OF_HEAD_ENTRY( pxDelayedTaskList );
  401cf2:	683b      	ldr	r3, [r7, #0]
  401cf4:	68db      	ldr	r3, [r3, #12]
  401cf6:	68dc      	ldr	r4, [r3, #12]
						xItemValue = listGET_LIST_ITEM_VALUE( &( pxTCB->xGenericListItem ) );
  401cf8:	6863      	ldr	r3, [r4, #4]
						if( xConstTickCount < xItemValue )
  401cfa:	459a      	cmp	sl, r3
  401cfc:	d3d8      	bcc.n	401cb0 <xTaskIncrementTick+0x88>
						( void ) uxListRemove( &( pxTCB->xGenericListItem ) );
  401cfe:	1d25      	adds	r5, r4, #4
  401d00:	4628      	mov	r0, r5
  401d02:	47c8      	blx	r9
						if( listLIST_ITEM_CONTAINER( &( pxTCB->xEventListItem ) ) != NULL )
  401d04:	6aa3      	ldr	r3, [r4, #40]	; 0x28
  401d06:	2b00      	cmp	r3, #0
  401d08:	d1d5      	bne.n	401cb6 <xTaskIncrementTick+0x8e>
  401d0a:	e7d7      	b.n	401cbc <xTaskIncrementTick+0x94>
				vApplicationTickHook();
  401d0c:	4b11      	ldr	r3, [pc, #68]	; (401d54 <xTaskIncrementTick+0x12c>)
  401d0e:	4798      	blx	r3
  401d10:	e7ad      	b.n	401c6e <xTaskIncrementTick+0x46>
		++uxPendedTicks;
  401d12:	4a09      	ldr	r2, [pc, #36]	; (401d38 <xTaskIncrementTick+0x110>)
  401d14:	6813      	ldr	r3, [r2, #0]
  401d16:	3301      	adds	r3, #1
  401d18:	6013      	str	r3, [r2, #0]
			vApplicationTickHook();
  401d1a:	4b0e      	ldr	r3, [pc, #56]	; (401d54 <xTaskIncrementTick+0x12c>)
  401d1c:	4798      	blx	r3
BaseType_t xSwitchRequired = pdFALSE;
  401d1e:	2600      	movs	r6, #0
  401d20:	e7a5      	b.n	401c6e <xTaskIncrementTick+0x46>
  401d22:	bf00      	nop
  401d24:	20400ad8 	.word	0x20400ad8
  401d28:	20400b58 	.word	0x20400b58
  401d2c:	20400b10 	.word	0x20400b10
  401d30:	20400a60 	.word	0x20400a60
  401d34:	20400a6c 	.word	0x20400a6c
  401d38:	20400ad4 	.word	0x20400ad4
  401d3c:	20400b5c 	.word	0x20400b5c
  401d40:	20400a64 	.word	0x20400a64
  401d44:	20400a68 	.word	0x20400a68
  401d48:	20400b14 	.word	0x20400b14
  401d4c:	00401915 	.word	0x00401915
  401d50:	00400f85 	.word	0x00400f85
  401d54:	00402b59 	.word	0x00402b59
  401d58:	00400fd1 	.word	0x00400fd1
  401d5c:	20400ae4 	.word	0x20400ae4

00401d60 <xTaskResumeAll>:
{
  401d60:	e92d 43f8 	stmdb	sp!, {r3, r4, r5, r6, r7, r8, r9, lr}
	taskENTER_CRITICAL();
  401d64:	4b2f      	ldr	r3, [pc, #188]	; (401e24 <xTaskResumeAll+0xc4>)
  401d66:	4798      	blx	r3
		--uxSchedulerSuspended;
  401d68:	4b2f      	ldr	r3, [pc, #188]	; (401e28 <xTaskResumeAll+0xc8>)
  401d6a:	681a      	ldr	r2, [r3, #0]
  401d6c:	3a01      	subs	r2, #1
  401d6e:	601a      	str	r2, [r3, #0]
		if( uxSchedulerSuspended == ( UBaseType_t ) pdFALSE )
  401d70:	681b      	ldr	r3, [r3, #0]
  401d72:	2b00      	cmp	r3, #0
  401d74:	d150      	bne.n	401e18 <xTaskResumeAll+0xb8>
			if( uxCurrentNumberOfTasks > ( UBaseType_t ) 0U )
  401d76:	4b2d      	ldr	r3, [pc, #180]	; (401e2c <xTaskResumeAll+0xcc>)
  401d78:	681b      	ldr	r3, [r3, #0]
  401d7a:	b333      	cbz	r3, 401dca <xTaskResumeAll+0x6a>
				while( listLIST_IS_EMPTY( &xPendingReadyList ) == pdFALSE )
  401d7c:	4e2c      	ldr	r6, [pc, #176]	; (401e30 <xTaskResumeAll+0xd0>)
					( void ) uxListRemove( &( pxTCB->xEventListItem ) );
  401d7e:	f8df 80d4 	ldr.w	r8, [pc, #212]	; 401e54 <xTaskResumeAll+0xf4>
					prvAddTaskToReadyList( pxTCB );
  401d82:	4f2c      	ldr	r7, [pc, #176]	; (401e34 <xTaskResumeAll+0xd4>)
  401d84:	f8df 90d0 	ldr.w	r9, [pc, #208]	; 401e58 <xTaskResumeAll+0xf8>
				while( listLIST_IS_EMPTY( &xPendingReadyList ) == pdFALSE )
  401d88:	6833      	ldr	r3, [r6, #0]
  401d8a:	b303      	cbz	r3, 401dce <xTaskResumeAll+0x6e>
					pxTCB = ( TCB_t * ) listGET_OWNER_OF_HEAD_ENTRY( ( &xPendingReadyList ) );
  401d8c:	68f3      	ldr	r3, [r6, #12]
  401d8e:	68dc      	ldr	r4, [r3, #12]
					( void ) uxListRemove( &( pxTCB->xEventListItem ) );
  401d90:	f104 0018 	add.w	r0, r4, #24
  401d94:	47c0      	blx	r8
					( void ) uxListRemove( &( pxTCB->xGenericListItem ) );
  401d96:	1d25      	adds	r5, r4, #4
  401d98:	4628      	mov	r0, r5
  401d9a:	47c0      	blx	r8
					prvAddTaskToReadyList( pxTCB );
  401d9c:	6ae0      	ldr	r0, [r4, #44]	; 0x2c
  401d9e:	683a      	ldr	r2, [r7, #0]
  401da0:	2301      	movs	r3, #1
  401da2:	4083      	lsls	r3, r0
  401da4:	4313      	orrs	r3, r2
  401da6:	603b      	str	r3, [r7, #0]
  401da8:	eb00 0080 	add.w	r0, r0, r0, lsl #2
  401dac:	4629      	mov	r1, r5
  401dae:	eb09 0080 	add.w	r0, r9, r0, lsl #2
  401db2:	4b21      	ldr	r3, [pc, #132]	; (401e38 <xTaskResumeAll+0xd8>)
  401db4:	4798      	blx	r3
					if( pxTCB->uxPriority >= pxCurrentTCB->uxPriority )
  401db6:	4b21      	ldr	r3, [pc, #132]	; (401e3c <xTaskResumeAll+0xdc>)
  401db8:	681b      	ldr	r3, [r3, #0]
  401dba:	6ae2      	ldr	r2, [r4, #44]	; 0x2c
  401dbc:	6adb      	ldr	r3, [r3, #44]	; 0x2c
  401dbe:	429a      	cmp	r2, r3
  401dc0:	d3e2      	bcc.n	401d88 <xTaskResumeAll+0x28>
						xYieldPending = pdTRUE;
  401dc2:	2201      	movs	r2, #1
  401dc4:	4b1e      	ldr	r3, [pc, #120]	; (401e40 <xTaskResumeAll+0xe0>)
  401dc6:	601a      	str	r2, [r3, #0]
  401dc8:	e7de      	b.n	401d88 <xTaskResumeAll+0x28>
BaseType_t xAlreadyYielded = pdFALSE;
  401dca:	2400      	movs	r4, #0
  401dcc:	e025      	b.n	401e1a <xTaskResumeAll+0xba>
				if( uxPendedTicks > ( UBaseType_t ) 0U )
  401dce:	4b1d      	ldr	r3, [pc, #116]	; (401e44 <xTaskResumeAll+0xe4>)
  401dd0:	681b      	ldr	r3, [r3, #0]
  401dd2:	b18b      	cbz	r3, 401df8 <xTaskResumeAll+0x98>
					while( uxPendedTicks > ( UBaseType_t ) 0U )
  401dd4:	4b1b      	ldr	r3, [pc, #108]	; (401e44 <xTaskResumeAll+0xe4>)
  401dd6:	681b      	ldr	r3, [r3, #0]
  401dd8:	b173      	cbz	r3, 401df8 <xTaskResumeAll+0x98>
						if( xTaskIncrementTick() != pdFALSE )
  401dda:	4d1b      	ldr	r5, [pc, #108]	; (401e48 <xTaskResumeAll+0xe8>)
							xYieldPending = pdTRUE;
  401ddc:	4e18      	ldr	r6, [pc, #96]	; (401e40 <xTaskResumeAll+0xe0>)
						--uxPendedTicks;
  401dde:	4c19      	ldr	r4, [pc, #100]	; (401e44 <xTaskResumeAll+0xe4>)
  401de0:	e004      	b.n	401dec <xTaskResumeAll+0x8c>
  401de2:	6823      	ldr	r3, [r4, #0]
  401de4:	3b01      	subs	r3, #1
  401de6:	6023      	str	r3, [r4, #0]
					while( uxPendedTicks > ( UBaseType_t ) 0U )
  401de8:	6823      	ldr	r3, [r4, #0]
  401dea:	b12b      	cbz	r3, 401df8 <xTaskResumeAll+0x98>
						if( xTaskIncrementTick() != pdFALSE )
  401dec:	47a8      	blx	r5
  401dee:	2800      	cmp	r0, #0
  401df0:	d0f7      	beq.n	401de2 <xTaskResumeAll+0x82>
							xYieldPending = pdTRUE;
  401df2:	2301      	movs	r3, #1
  401df4:	6033      	str	r3, [r6, #0]
  401df6:	e7f4      	b.n	401de2 <xTaskResumeAll+0x82>
				if( xYieldPending == pdTRUE )
  401df8:	4b11      	ldr	r3, [pc, #68]	; (401e40 <xTaskResumeAll+0xe0>)
  401dfa:	681b      	ldr	r3, [r3, #0]
  401dfc:	2b01      	cmp	r3, #1
  401dfe:	d001      	beq.n	401e04 <xTaskResumeAll+0xa4>
BaseType_t xAlreadyYielded = pdFALSE;
  401e00:	2400      	movs	r4, #0
  401e02:	e00a      	b.n	401e1a <xTaskResumeAll+0xba>
					taskYIELD_IF_USING_PREEMPTION();
  401e04:	f04f 5280 	mov.w	r2, #268435456	; 0x10000000
  401e08:	4b10      	ldr	r3, [pc, #64]	; (401e4c <xTaskResumeAll+0xec>)
  401e0a:	601a      	str	r2, [r3, #0]
  401e0c:	f3bf 8f4f 	dsb	sy
  401e10:	f3bf 8f6f 	isb	sy
						xAlreadyYielded = pdTRUE;
  401e14:	2401      	movs	r4, #1
  401e16:	e000      	b.n	401e1a <xTaskResumeAll+0xba>
BaseType_t xAlreadyYielded = pdFALSE;
  401e18:	2400      	movs	r4, #0
	taskEXIT_CRITICAL();
  401e1a:	4b0d      	ldr	r3, [pc, #52]	; (401e50 <xTaskResumeAll+0xf0>)
  401e1c:	4798      	blx	r3
}
  401e1e:	4620      	mov	r0, r4
  401e20:	e8bd 83f8 	ldmia.w	sp!, {r3, r4, r5, r6, r7, r8, r9, pc}
  401e24:	0040108d 	.word	0x0040108d
  401e28:	20400ad8 	.word	0x20400ad8
  401e2c:	20400ad0 	.word	0x20400ad0
  401e30:	20400b18 	.word	0x20400b18
  401e34:	20400ae4 	.word	0x20400ae4
  401e38:	00400f85 	.word	0x00400f85
  401e3c:	20400a60 	.word	0x20400a60
  401e40:	20400b5c 	.word	0x20400b5c
